{
	"Encode CTF.sol": {
		"CTF": {
			"abi": [
				{
					"inputs": [],
					"stateMutability": "nonpayable",
					"type": "constructor"
				},
				{
					"inputs": [
						{
							"internalType": "address",
							"name": "",
							"type": "address"
						}
					],
					"name": "Admin",
					"outputs": [
						{
							"internalType": "bool",
							"name": "",
							"type": "bool"
						}
					],
					"stateMutability": "view",
					"type": "function"
				},
				{
					"inputs": [
						{
							"internalType": "address",
							"name": "levelAddress",
							"type": "address"
						},
						{
							"internalType": "uint8",
							"name": "levelNumber",
							"type": "uint8"
						}
					],
					"name": "addLevel",
					"outputs": [],
					"stateMutability": "nonpayable",
					"type": "function"
				},
				{
					"inputs": [
						{
							"internalType": "address",
							"name": "",
							"type": "address"
						}
					],
					"name": "addrLookUp",
					"outputs": [
						{
							"internalType": "bool",
							"name": "",
							"type": "bool"
						}
					],
					"stateMutability": "view",
					"type": "function"
				},
				{
					"inputs": [],
					"name": "canRegister",
					"outputs": [
						{
							"internalType": "bool",
							"name": "",
							"type": "bool"
						}
					],
					"stateMutability": "view",
					"type": "function"
				},
				{
					"inputs": [],
					"name": "canSubmit",
					"outputs": [
						{
							"internalType": "bool",
							"name": "",
							"type": "bool"
						}
					],
					"stateMutability": "view",
					"type": "function"
				},
				{
					"inputs": [
						{
							"internalType": "address",
							"name": "",
							"type": "address"
						},
						{
							"internalType": "uint8",
							"name": "",
							"type": "uint8"
						}
					],
					"name": "gasUsed",
					"outputs": [
						{
							"internalType": "uint256",
							"name": "",
							"type": "uint256"
						}
					],
					"stateMutability": "view",
					"type": "function"
				},
				{
					"inputs": [],
					"name": "getAddresses",
					"outputs": [
						{
							"internalType": "address[]",
							"name": "",
							"type": "address[]"
						}
					],
					"stateMutability": "view",
					"type": "function"
				},
				{
					"inputs": [],
					"name": "getLevels",
					"outputs": [
						{
							"internalType": "uint8[]",
							"name": "",
							"type": "uint8[]"
						}
					],
					"stateMutability": "view",
					"type": "function"
				},
				{
					"inputs": [
						{
							"internalType": "address",
							"name": "addr",
							"type": "address"
						},
						{
							"internalType": "uint8",
							"name": "level",
							"type": "uint8"
						}
					],
					"name": "getScore",
					"outputs": [
						{
							"internalType": "address",
							"name": "",
							"type": "address"
						},
						{
							"internalType": "string",
							"name": "",
							"type": "string"
						},
						{
							"internalType": "uint8",
							"name": "",
							"type": "uint8"
						},
						{
							"internalType": "uint8",
							"name": "",
							"type": "uint8"
						},
						{
							"internalType": "uint256",
							"name": "",
							"type": "uint256"
						}
					],
					"stateMutability": "view",
					"type": "function"
				},
				{
					"inputs": [
						{
							"internalType": "uint8",
							"name": "",
							"type": "uint8"
						}
					],
					"name": "levels",
					"outputs": [
						{
							"internalType": "address",
							"name": "",
							"type": "address"
						}
					],
					"stateMutability": "view",
					"type": "function"
				},
				{
					"inputs": [
						{
							"internalType": "string",
							"name": "userName",
							"type": "string"
						},
						{
							"internalType": "string",
							"name": "password",
							"type": "string"
						}
					],
					"name": "register",
					"outputs": [],
					"stateMutability": "nonpayable",
					"type": "function"
				},
				{
					"inputs": [
						{
							"internalType": "address",
							"name": "addr",
							"type": "address"
						}
					],
					"name": "removeAddress",
					"outputs": [],
					"stateMutability": "nonpayable",
					"type": "function"
				},
				{
					"inputs": [
						{
							"internalType": "uint8",
							"name": "level",
							"type": "uint8"
						}
					],
					"name": "removeLevel",
					"outputs": [],
					"stateMutability": "nonpayable",
					"type": "function"
				},
				{
					"inputs": [
						{
							"internalType": "address",
							"name": "",
							"type": "address"
						},
						{
							"internalType": "uint8",
							"name": "",
							"type": "uint8"
						}
					],
					"name": "scores",
					"outputs": [
						{
							"internalType": "uint8",
							"name": "",
							"type": "uint8"
						}
					],
					"stateMutability": "view",
					"type": "function"
				},
				{
					"inputs": [
						{
							"internalType": "address",
							"name": "admin",
							"type": "address"
						},
						{
							"internalType": "bool",
							"name": "isAdmin",
							"type": "bool"
						}
					],
					"name": "setAdmin",
					"outputs": [],
					"stateMutability": "nonpayable",
					"type": "function"
				},
				{
					"inputs": [
						{
							"internalType": "bool",
							"name": "status",
							"type": "bool"
						}
					],
					"name": "setExamStatus",
					"outputs": [],
					"stateMutability": "nonpayable",
					"type": "function"
				},
				{
					"inputs": [
						{
							"internalType": "bytes32",
							"name": "password",
							"type": "bytes32"
						}
					],
					"name": "setPassword",
					"outputs": [],
					"stateMutability": "nonpayable",
					"type": "function"
				},
				{
					"inputs": [
						{
							"internalType": "bool",
							"name": "status",
							"type": "bool"
						}
					],
					"name": "setRegisterStatus",
					"outputs": [],
					"stateMutability": "nonpayable",
					"type": "function"
				},
				{
					"inputs": [
						{
							"internalType": "address",
							"name": "addr",
							"type": "address"
						},
						{
							"internalType": "bool",
							"name": "isVoid",
							"type": "bool"
						}
					],
					"name": "setVoidTag",
					"outputs": [],
					"stateMutability": "nonpayable",
					"type": "function"
				},
				{
					"inputs": [
						{
							"internalType": "address",
							"name": "",
							"type": "address"
						}
					],
					"name": "solutions",
					"outputs": [
						{
							"internalType": "address",
							"name": "",
							"type": "address"
						}
					],
					"stateMutability": "view",
					"type": "function"
				},
				{
					"inputs": [
						{
							"internalType": "uint8",
							"name": "levelNumber",
							"type": "uint8"
						},
						{
							"internalType": "address",
							"name": "solutionAddress",
							"type": "address"
						}
					],
					"name": "submitSolution",
					"outputs": [],
					"stateMutability": "nonpayable",
					"type": "function"
				},
				{
					"inputs": [
						{
							"internalType": "address",
							"name": "levelAddress",
							"type": "address"
						},
						{
							"internalType": "uint8",
							"name": "levelNumber",
							"type": "uint8"
						}
					],
					"name": "updateLevelAddress",
					"outputs": [],
					"stateMutability": "nonpayable",
					"type": "function"
				},
				{
					"inputs": [
						{
							"internalType": "address",
							"name": "",
							"type": "address"
						}
					],
					"name": "userNames",
					"outputs": [
						{
							"internalType": "string",
							"name": "",
							"type": "string"
						}
					],
					"stateMutability": "view",
					"type": "function"
				},
				{
					"inputs": [
						{
							"internalType": "address",
							"name": "",
							"type": "address"
						}
					],
					"name": "voidAdrress",
					"outputs": [
						{
							"internalType": "bool",
							"name": "",
							"type": "bool"
						}
					],
					"stateMutability": "view",
					"type": "function"
				},
				{
					"inputs": [
						{
							"internalType": "address",
							"name": "",
							"type": "address"
						}
					],
					"name": "whitelist",
					"outputs": [
						{
							"internalType": "bool",
							"name": "",
							"type": "bool"
						}
					],
					"stateMutability": "view",
					"type": "function"
				}
			],
			"devdoc": {
				"kind": "dev",
				"methods": {},
				"version": 1
			},
			"evm": {
				"assembly": "    /* \"Encode CTF.sol\":192:7352  contract CTF {... */\n  mstore(0x40, 0x80)\n    /* \"Encode CTF.sol\":1246:1303  constructor() {... */\n  callvalue\n  dup1\n  iszero\n  tag_1\n  jumpi\n  0x00\n  dup1\n  revert\ntag_1:\n  pop\n    /* \"Encode CTF.sol\":1291:1295  true */\n  0x01\n    /* \"Encode CTF.sol\":1271:1276  Admin */\n  0x04\n    /* \"Encode CTF.sol\":1271:1288  Admin[msg.sender] */\n  0x00\n    /* \"Encode CTF.sol\":1277:1287  msg.sender */\n  caller\n    /* \"Encode CTF.sol\":1271:1288  Admin[msg.sender] */\n  0xffffffffffffffffffffffffffffffffffffffff\n  and\n  0xffffffffffffffffffffffffffffffffffffffff\n  and\n  dup2\n  mstore\n  0x20\n  add\n  swap1\n  dup2\n  mstore\n  0x20\n  add\n  0x00\n  keccak256\n  0x00\n    /* \"Encode CTF.sol\":1271:1295  Admin[msg.sender] = true */\n  0x0100\n  exp\n  dup2\n  sload\n  dup2\n  0xff\n  mul\n  not\n  and\n  swap1\n  dup4\n  iszero\n  iszero\n  mul\n  or\n  swap1\n  sstore\n  pop\n    /* \"Encode CTF.sol\":192:7352  contract CTF {... */\n  dataSize(sub_0)\n  dup1\n  dataOffset(sub_0)\n  0x00\n  codecopy\n  0x00\n  return\nstop\n\nsub_0: assembly {\n        /* \"Encode CTF.sol\":192:7352  contract CTF {... */\n      mstore(0x40, 0x80)\n      callvalue\n      dup1\n      iszero\n      tag_1\n      jumpi\n      0x00\n      dup1\n      revert\n    tag_1:\n      pop\n      jumpi(tag_2, lt(calldatasize, 0x04))\n      shr(0xe0, calldataload(0x00))\n      dup1\n      0x906cbf57\n      gt\n      tag_28\n      jumpi\n      dup1\n      0xac285219\n      gt\n      tag_29\n      jumpi\n      dup1\n      0xcb91f37d\n      gt\n      tag_30\n      jumpi\n      dup1\n      0xcb91f37d\n      eq\n      tag_24\n      jumpi\n      dup1\n      0xd86a1026\n      eq\n      tag_25\n      jumpi\n      dup1\n      0xdd83599b\n      eq\n      tag_26\n      jumpi\n      dup1\n      0xffbc9bd0\n      eq\n      tag_27\n      jumpi\n      jump(tag_2)\n    tag_30:\n      dup1\n      0xac285219\n      eq\n      tag_21\n      jumpi\n      dup1\n      0xb26be14c\n      eq\n      tag_22\n      jumpi\n      dup1\n      0xc160404e\n      eq\n      tag_23\n      jumpi\n      jump(tag_2)\n    tag_29:\n      dup1\n      0x906cbf57\n      eq\n      tag_15\n      jumpi\n      dup1\n      0x9b19251a\n      eq\n      tag_16\n      jumpi\n      dup1\n      0x9f391544\n      eq\n      tag_17\n      jumpi\n      dup1\n      0xa39fac12\n      eq\n      tag_18\n      jumpi\n      dup1\n      0xa60fb5de\n      eq\n      tag_19\n      jumpi\n      dup1\n      0xaa0c8a7b\n      eq\n      tag_20\n      jumpi\n      jump(tag_2)\n    tag_28:\n      dup1\n      0x4b0bddd2\n      gt\n      tag_31\n      jumpi\n      dup1\n      0x4b0bddd2\n      eq\n      tag_9\n      jumpi\n      dup1\n      0x4ba79dfe\n      eq\n      tag_10\n      jumpi\n      dup1\n      0x589384b9\n      eq\n      tag_11\n      jumpi\n      dup1\n      0x705ed7ae\n      eq\n      tag_12\n      jumpi\n      dup1\n      0x75743a15\n      eq\n      tag_13\n      jumpi\n      dup1\n      0x7f281635\n      eq\n      tag_14\n      jumpi\n      jump(tag_2)\n    tag_31:\n      dup1\n      0x04737394\n      eq\n      tag_3\n      jumpi\n      dup1\n      0x0b69a1e9\n      eq\n      tag_4\n      jumpi\n      dup1\n      0x0c394a60\n      eq\n      tag_5\n      jumpi\n      dup1\n      0x33b005d0\n      eq\n      tag_6\n      jumpi\n      dup1\n      0x33b49ed8\n      eq\n      tag_7\n      jumpi\n      dup1\n      0x3ffbd47f\n      eq\n      tag_8\n      jumpi\n    tag_2:\n      0x00\n      dup1\n      revert\n        /* \"Encode CTF.sol\":984:1028  mapping(address => address) public solutions */\n    tag_3:\n      tag_32\n      0x04\n      dup1\n      calldatasize\n      sub\n      dup2\n      add\n      swap1\n      tag_33\n      swap2\n      swap1\n      tag_34\n      jump\t// in\n    tag_33:\n      tag_35\n      jump\t// in\n    tag_32:\n      mload(0x40)\n      tag_36\n      swap2\n      swap1\n      tag_37\n      jump\t// in\n    tag_36:\n      mload(0x40)\n      dup1\n      swap2\n      sub\n      swap1\n      return\n        /* \"Encode CTF.sol\":323:365  mapping(address => bool) public addrLookUp */\n    tag_4:\n      tag_38\n      0x04\n      dup1\n      calldatasize\n      sub\n      dup2\n      add\n      swap1\n      tag_39\n      swap2\n      swap1\n      tag_34\n      jump\t// in\n    tag_39:\n      tag_40\n      jump\t// in\n    tag_38:\n      mload(0x40)\n      tag_41\n      swap2\n      swap1\n      tag_42\n      jump\t// in\n    tag_41:\n      mload(0x40)\n      dup1\n      swap2\n      sub\n      swap1\n      return\n        /* \"Encode CTF.sol\":6961:7053  function getLevels() public view returns (uint8[] memory) {... */\n    tag_5:\n      tag_43\n      tag_44\n      jump\t// in\n    tag_43:\n      mload(0x40)\n      tag_45\n      swap2\n      swap1\n      tag_46\n      jump\t// in\n    tag_45:\n      mload(0x40)\n      dup1\n      swap2\n      sub\n      swap1\n      return\n        /* \"Encode CTF.sol\":485:522  mapping(address => bool) public Admin */\n    tag_6:\n      tag_47\n      0x04\n      dup1\n      calldatasize\n      sub\n      dup2\n      add\n      swap1\n      tag_48\n      swap2\n      swap1\n      tag_34\n      jump\t// in\n    tag_48:\n      tag_49\n      jump\t// in\n    tag_47:\n      mload(0x40)\n      tag_50\n      swap2\n      swap1\n      tag_42\n      jump\t// in\n    tag_50:\n      mload(0x40)\n      dup1\n      swap2\n      sub\n      swap1\n      return\n        /* \"Encode CTF.sol\":2663:3875  function submitSolution(uint8 levelNumber, address solutionAddress) external {... */\n    tag_7:\n      tag_51\n      0x04\n      dup1\n      calldatasize\n      sub\n      dup2\n      add\n      swap1\n      tag_52\n      swap2\n      swap1\n      tag_53\n      jump\t// in\n    tag_52:\n      tag_54\n      jump\t// in\n    tag_51:\n      stop\n        /* \"Encode CTF.sol\":1717:2099  function register(string calldata userName, string calldata password) external {... */\n    tag_8:\n      tag_55\n      0x04\n      dup1\n      calldatasize\n      sub\n      dup2\n      add\n      swap1\n      tag_56\n      swap2\n      swap1\n      tag_57\n      jump\t// in\n    tag_56:\n      tag_58\n      jump\t// in\n    tag_55:\n      stop\n        /* \"Encode CTF.sol\":5053:5258  function setAdmin(address admin, bool isAdmin) external onlyAdmin {... */\n    tag_9:\n      tag_59\n      0x04\n      dup1\n      calldatasize\n      sub\n      dup2\n      add\n      swap1\n      tag_60\n      swap2\n      swap1\n      tag_61\n      jump\t// in\n    tag_60:\n      tag_62\n      jump\t// in\n    tag_59:\n      stop\n        /* \"Encode CTF.sol\":5939:6362  function removeAddress(address addr) external onlyAdmin{... */\n    tag_10:\n      tag_63\n      0x04\n      dup1\n      calldatasize\n      sub\n      dup2\n      add\n      swap1\n      tag_64\n      swap2\n      swap1\n      tag_34\n      jump\t// in\n    tag_64:\n      tag_65\n      jump\t// in\n    tag_63:\n      stop\n        /* \"Encode CTF.sol\":1138:1161  bool public canRegister */\n    tag_11:\n      tag_66\n      tag_67\n      jump\t// in\n    tag_66:\n      mload(0x40)\n      tag_68\n      swap2\n      swap1\n      tag_42\n      jump\t// in\n    tag_68:\n      mload(0x40)\n      dup1\n      swap2\n      sub\n      swap1\n      return\n        /* \"Encode CTF.sol\":7061:7349  function getScore(address addr, uint8 level) public view returns (address, string memory ,uint8, uint8, uint256) {... */\n    tag_12:\n      tag_69\n      0x04\n      dup1\n      calldatasize\n      sub\n      dup2\n      add\n      swap1\n      tag_70\n      swap2\n      swap1\n      tag_71\n      jump\t// in\n    tag_70:\n      tag_72\n      jump\t// in\n    tag_69:\n      mload(0x40)\n      tag_73\n      swap6\n      swap5\n      swap4\n      swap3\n      swap2\n      swap1\n      tag_74\n      jump\t// in\n    tag_73:\n      mload(0x40)\n      dup1\n      swap2\n      sub\n      swap1\n      return\n        /* \"Encode CTF.sol\":5385:5743  function removeLevel (uint8 level) external onlyAdmin{... */\n    tag_13:\n      tag_75\n      0x04\n      dup1\n      calldatasize\n      sub\n      dup2\n      add\n      swap1\n      tag_76\n      swap2\n      swap1\n      tag_77\n      jump\t// in\n    tag_76:\n      tag_78\n      jump\t// in\n    tag_75:\n      stop\n        /* \"Encode CTF.sol\":866:909  mapping(address => string) public userNames */\n    tag_14:\n      tag_79\n      0x04\n      dup1\n      calldatasize\n      sub\n      dup2\n      add\n      swap1\n      tag_80\n      swap2\n      swap1\n      tag_34\n      jump\t// in\n    tag_80:\n      tag_81\n      jump\t// in\n    tag_79:\n      mload(0x40)\n      tag_82\n      swap2\n      swap1\n      tag_83\n      jump\t// in\n    tag_82:\n      mload(0x40)\n      dup1\n      swap2\n      sub\n      swap1\n      return\n        /* \"Encode CTF.sol\":580:619  mapping(uint8 => address) public levels */\n    tag_15:\n      tag_84\n      0x04\n      dup1\n      calldatasize\n      sub\n      dup2\n      add\n      swap1\n      tag_85\n      swap2\n      swap1\n      tag_77\n      jump\t// in\n    tag_85:\n      tag_86\n      jump\t// in\n    tag_84:\n      mload(0x40)\n      tag_87\n      swap2\n      swap1\n      tag_37\n      jump\t// in\n    tag_87:\n      mload(0x40)\n      dup1\n      swap2\n      sub\n      swap1\n      return\n        /* \"Encode CTF.sol\":437:478  mapping(address => bool) public whitelist */\n    tag_16:\n      tag_88\n      0x04\n      dup1\n      calldatasize\n      sub\n      dup2\n      add\n      swap1\n      tag_89\n      swap2\n      swap1\n      tag_34\n      jump\t// in\n    tag_89:\n      tag_90\n      jump\t// in\n    tag_88:\n      mload(0x40)\n      tag_91\n      swap2\n      swap1\n      tag_42\n      jump\t// in\n    tag_91:\n      mload(0x40)\n      dup1\n      swap2\n      sub\n      swap1\n      return\n        /* \"Encode CTF.sol\":4945:5045  function setPassword(bytes32 password) external onlyAdmin {... */\n    tag_17:\n      tag_92\n      0x04\n      dup1\n      calldatasize\n      sub\n      dup2\n      add\n      swap1\n      tag_93\n      swap2\n      swap1\n      tag_94\n      jump\t// in\n    tag_93:\n      tag_95\n      jump\t// in\n    tag_92:\n      stop\n        /* \"Encode CTF.sol\":6855:6953  function getAddresses() public view returns (address[] memory) {... */\n    tag_18:\n      tag_96\n      tag_97\n      jump\t// in\n    tag_96:\n      mload(0x40)\n      tag_98\n      swap2\n      swap1\n      tag_99\n      jump\t// in\n    tag_98:\n      mload(0x40)\n      dup1\n      swap2\n      sub\n      swap1\n      return\n        /* \"Encode CTF.sol\":4276:4374  function setRegisterStatus(bool status) external onlyAdmin {... */\n    tag_19:\n      tag_100\n      0x04\n      dup1\n      calldatasize\n      sub\n      dup2\n      add\n      swap1\n      tag_101\n      swap2\n      swap1\n      tag_102\n      jump\t// in\n    tag_101:\n      tag_103\n      jump\t// in\n    tag_100:\n      stop\n        /* \"Encode CTF.sol\":4382:4641  function addLevel(address levelAddress, uint8 levelNumber) external onlyAdmin {... */\n    tag_20:\n      tag_104\n      0x04\n      dup1\n      calldatasize\n      sub\n      dup2\n      add\n      swap1\n      tag_105\n      swap2\n      swap1\n      tag_71\n      jump\t// in\n    tag_105:\n      tag_106\n      jump\t// in\n    tag_104:\n      stop\n        /* \"Encode CTF.sol\":4721:4937  function updateLevelAddress(address levelAddress, uint8 levelNumber) external onlyAdmin {... */\n    tag_21:\n      tag_107\n      0x04\n      dup1\n      calldatasize\n      sub\n      dup2\n      add\n      swap1\n      tag_108\n      swap2\n      swap1\n      tag_71\n      jump\t// in\n    tag_108:\n      tag_109\n      jump\t// in\n    tag_107:\n      stop\n        /* \"Encode CTF.sol\":799:859  mapping(address => mapping(uint8 => uint256)) public gasUsed */\n    tag_22:\n      tag_110\n      0x04\n      dup1\n      calldatasize\n      sub\n      dup2\n      add\n      swap1\n      tag_111\n      swap2\n      swap1\n      tag_71\n      jump\t// in\n    tag_111:\n      tag_112\n      jump\t// in\n    tag_110:\n      mload(0x40)\n      tag_113\n      swap2\n      swap1\n      tag_114\n      jump\t// in\n    tag_113:\n      mload(0x40)\n      dup1\n      swap2\n      sub\n      swap1\n      return\n        /* \"Encode CTF.sol\":693:750  mapping(address => mapping(uint8 => uint8)) public scores */\n    tag_23:\n      tag_115\n      0x04\n      dup1\n      calldatasize\n      sub\n      dup2\n      add\n      swap1\n      tag_116\n      swap2\n      swap1\n      tag_71\n      jump\t// in\n    tag_116:\n      tag_117\n      jump\t// in\n    tag_115:\n      mload(0x40)\n      tag_118\n      swap2\n      swap1\n      tag_119\n      jump\t// in\n    tag_118:\n      mload(0x40)\n      dup1\n      swap2\n      sub\n      swap1\n      return\n        /* \"Encode CTF.sol\":4176:4268  function setExamStatus(bool status) external onlyAdmin {... */\n    tag_24:\n      tag_120\n      0x04\n      dup1\n      calldatasize\n      sub\n      dup2\n      add\n      swap1\n      tag_121\n      swap2\n      swap1\n      tag_102\n      jump\t// in\n    tag_121:\n      tag_122\n      jump\t// in\n    tag_120:\n      stop\n        /* \"Encode CTF.sol\":5266:5377  function setVoidTag(address addr, bool isVoid) external onlyAdmin {... */\n    tag_25:\n      tag_123\n      0x04\n      dup1\n      calldatasize\n      sub\n      dup2\n      add\n      swap1\n      tag_124\n      swap2\n      swap1\n      tag_61\n      jump\t// in\n    tag_124:\n      tag_125\n      jump\t// in\n    tag_123:\n      stop\n        /* \"Encode CTF.sol\":529:572  mapping(address => bool) public voidAdrress */\n    tag_26:\n      tag_126\n      0x04\n      dup1\n      calldatasize\n      sub\n      dup2\n      add\n      swap1\n      tag_127\n      swap2\n      swap1\n      tag_34\n      jump\t// in\n    tag_127:\n      tag_128\n      jump\t// in\n    tag_126:\n      mload(0x40)\n      tag_129\n      swap2\n      swap1\n      tag_42\n      jump\t// in\n    tag_129:\n      mload(0x40)\n      dup1\n      swap2\n      sub\n      swap1\n      return\n        /* \"Encode CTF.sol\":1110:1131  bool public canSubmit */\n    tag_27:\n      tag_130\n      tag_131\n      jump\t// in\n    tag_130:\n      mload(0x40)\n      tag_132\n      swap2\n      swap1\n      tag_42\n      jump\t// in\n    tag_132:\n      mload(0x40)\n      dup1\n      swap2\n      sub\n      swap1\n      return\n        /* \"Encode CTF.sol\":984:1028  mapping(address => address) public solutions */\n    tag_35:\n      mstore(0x20, 0x0a)\n      dup1\n      0x00\n      mstore\n      keccak256(0x00, 0x40)\n      0x00\n      swap2\n      pop\n      sload\n      swap1\n      0x0100\n      exp\n      swap1\n      div\n      0xffffffffffffffffffffffffffffffffffffffff\n      and\n      dup2\n      jump\t// out\n        /* \"Encode CTF.sol\":323:365  mapping(address => bool) public addrLookUp */\n    tag_40:\n      mstore(0x20, 0x01)\n      dup1\n      0x00\n      mstore\n      keccak256(0x00, 0x40)\n      0x00\n      swap2\n      pop\n      sload\n      swap1\n      0x0100\n      exp\n      swap1\n      div\n      0xff\n      and\n      dup2\n      jump\t// out\n        /* \"Encode CTF.sol\":6961:7053  function getLevels() public view returns (uint8[] memory) {... */\n    tag_44:\n        /* \"Encode CTF.sol\":7003:7017  uint8[] memory */\n      0x60\n        /* \"Encode CTF.sol\":7035:7045  levelArray */\n      0x02\n        /* \"Encode CTF.sol\":7028:7045  return levelArray */\n      dup1\n      sload\n      dup1\n      0x20\n      mul\n      0x20\n      add\n      mload(0x40)\n      swap1\n      dup2\n      add\n      0x40\n      mstore\n      dup1\n      swap3\n      swap2\n      swap1\n      dup2\n      dup2\n      mstore\n      0x20\n      add\n      dup3\n      dup1\n      sload\n      dup1\n      iszero\n      tag_134\n      jumpi\n      0x20\n      mul\n      dup3\n      add\n      swap2\n      swap1\n      0x00\n      mstore\n      keccak256(0x00, 0x20)\n      swap1\n      0x00\n      swap1\n    tag_135:\n      dup3\n      dup3\n      swap1\n      sload\n      swap1\n      0x0100\n      exp\n      swap1\n      div\n      0xff\n      and\n      0xff\n      and\n      dup2\n      mstore\n      0x20\n      add\n      swap1\n      0x01\n      add\n      swap1\n      0x20\n      dup3\n      0x00\n      add\n      div\n      swap3\n      dup4\n      add\n      swap3\n      0x01\n      sub\n      dup3\n      mul\n      swap2\n      pop\n      dup1\n      dup5\n      gt\n      tag_135\n      jumpi\n      swap1\n      pop\n    tag_134:\n      pop\n      pop\n      pop\n      pop\n      pop\n      swap1\n      pop\n        /* \"Encode CTF.sol\":6961:7053  function getLevels() public view returns (uint8[] memory) {... */\n      swap1\n      jump\t// out\n        /* \"Encode CTF.sol\":485:522  mapping(address => bool) public Admin */\n    tag_49:\n      mstore(0x20, 0x04)\n      dup1\n      0x00\n      mstore\n      keccak256(0x00, 0x40)\n      0x00\n      swap2\n      pop\n      sload\n      swap1\n      0x0100\n      exp\n      swap1\n      div\n      0xff\n      and\n      dup2\n      jump\t// out\n        /* \"Encode CTF.sol\":2663:3875  function submitSolution(uint8 levelNumber, address solutionAddress) external {... */\n    tag_54:\n        /* \"Encode CTF.sol\":2772:2776  true */\n      0x01\n        /* \"Encode CTF.sol\":2759:2776  canSubmit == true */\n      iszero\n      iszero\n        /* \"Encode CTF.sol\":2759:2768  canSubmit */\n      0x0b\n      0x00\n      swap1\n      sload\n      swap1\n      0x0100\n      exp\n      swap1\n      div\n      0xff\n      and\n        /* \"Encode CTF.sol\":2759:2776  canSubmit == true */\n      iszero\n      iszero\n      eq\n        /* \"Encode CTF.sol\":2751:2808  require(canSubmit == true, \"Exam Not Open/Contact Admin\") */\n      tag_137\n      jumpi\n      mload(0x40)\n      0x08c379a000000000000000000000000000000000000000000000000000000000\n      dup2\n      mstore\n      0x04\n      add\n      tag_138\n      swap1\n      tag_139\n      jump\t// in\n    tag_138:\n      mload(0x40)\n      dup1\n      swap2\n      sub\n      swap1\n      revert\n    tag_137:\n        /* \"Encode CTF.sol\":2853:2857  true */\n      0x01\n        /* \"Encode CTF.sol\":2828:2857  whitelist[msg.sender] == true */\n      iszero\n      iszero\n        /* \"Encode CTF.sol\":2828:2837  whitelist */\n      0x03\n        /* \"Encode CTF.sol\":2828:2849  whitelist[msg.sender] */\n      0x00\n        /* \"Encode CTF.sol\":2838:2848  msg.sender */\n      caller\n        /* \"Encode CTF.sol\":2828:2849  whitelist[msg.sender] */\n      0xffffffffffffffffffffffffffffffffffffffff\n      and\n      0xffffffffffffffffffffffffffffffffffffffff\n      and\n      dup2\n      mstore\n      0x20\n      add\n      swap1\n      dup2\n      mstore\n      0x20\n      add\n      0x00\n      keccak256\n      0x00\n      swap1\n      sload\n      swap1\n      0x0100\n      exp\n      swap1\n      div\n      0xff\n      and\n        /* \"Encode CTF.sol\":2828:2857  whitelist[msg.sender] == true */\n      iszero\n      iszero\n      eq\n        /* \"Encode CTF.sol\":2820:2878  require(whitelist[msg.sender] == true, \"Not on WhiteList\") */\n      tag_140\n      jumpi\n      mload(0x40)\n      0x08c379a000000000000000000000000000000000000000000000000000000000\n      dup2\n      mstore\n      0x04\n      add\n      tag_141\n      swap1\n      tag_142\n      jump\t// in\n    tag_141:\n      mload(0x40)\n      dup1\n      swap2\n      sub\n      swap1\n      revert\n    tag_140:\n        /* \"Encode CTF.sol\":1235:1236  0 */\n      0x00\n        /* \"Encode CTF.sol\":2897:2924  levels[levelNumber] != NULL */\n      0xffffffffffffffffffffffffffffffffffffffff\n      and\n        /* \"Encode CTF.sol\":2897:2903  levels */\n      0x06\n        /* \"Encode CTF.sol\":2897:2916  levels[levelNumber] */\n      0x00\n        /* \"Encode CTF.sol\":2904:2915  levelNumber */\n      dup5\n        /* \"Encode CTF.sol\":2897:2916  levels[levelNumber] */\n      0xff\n      and\n      0xff\n      and\n      dup2\n      mstore\n      0x20\n      add\n      swap1\n      dup2\n      mstore\n      0x20\n      add\n      0x00\n      keccak256\n      0x00\n      swap1\n      sload\n      swap1\n      0x0100\n      exp\n      swap1\n      div\n      0xffffffffffffffffffffffffffffffffffffffff\n      and\n        /* \"Encode CTF.sol\":2897:2924  levels[levelNumber] != NULL */\n      0xffffffffffffffffffffffffffffffffffffffff\n      and\n      sub\n        /* \"Encode CTF.sol\":2889:2942  require(levels[levelNumber] != NULL, \"Invalid Level\") */\n      tag_143\n      jumpi\n      mload(0x40)\n      0x08c379a000000000000000000000000000000000000000000000000000000000\n      dup2\n      mstore\n      0x04\n      add\n      tag_144\n      swap1\n      tag_145\n      jump\t// in\n    tag_144:\n      mload(0x40)\n      dup1\n      swap2\n      sub\n      swap1\n      revert\n    tag_143:\n        /* \"Encode CTF.sol\":1235:1236  0 */\n      0x00\n        /* \"Encode CTF.sol\":2961:2995  solutions[solutionAddress] == NULL */\n      0xffffffffffffffffffffffffffffffffffffffff\n      and\n        /* \"Encode CTF.sol\":2961:2970  solutions */\n      0x0a\n        /* \"Encode CTF.sol\":2961:2987  solutions[solutionAddress] */\n      0x00\n        /* \"Encode CTF.sol\":2971:2986  solutionAddress */\n      dup4\n        /* \"Encode CTF.sol\":2961:2987  solutions[solutionAddress] */\n      0xffffffffffffffffffffffffffffffffffffffff\n      and\n      0xffffffffffffffffffffffffffffffffffffffff\n      and\n      dup2\n      mstore\n      0x20\n      add\n      swap1\n      dup2\n      mstore\n      0x20\n      add\n      0x00\n      keccak256\n      0x00\n      swap1\n      sload\n      swap1\n      0x0100\n      exp\n      swap1\n      div\n      0xffffffffffffffffffffffffffffffffffffffff\n      and\n        /* \"Encode CTF.sol\":2961:2995  solutions[solutionAddress] == NULL */\n      0xffffffffffffffffffffffffffffffffffffffff\n      and\n      eq\n        /* \"Encode CTF.sol\":2961:3039  solutions[solutionAddress] == NULL || solutions[solutionAddress] == msg.sender */\n      dup1\n      tag_146\n      jumpi\n      pop\n        /* \"Encode CTF.sol\":3029:3039  msg.sender */\n      caller\n        /* \"Encode CTF.sol\":2999:3039  solutions[solutionAddress] == msg.sender */\n      0xffffffffffffffffffffffffffffffffffffffff\n      and\n        /* \"Encode CTF.sol\":2999:3008  solutions */\n      0x0a\n        /* \"Encode CTF.sol\":2999:3025  solutions[solutionAddress] */\n      0x00\n        /* \"Encode CTF.sol\":3009:3024  solutionAddress */\n      dup4\n        /* \"Encode CTF.sol\":2999:3025  solutions[solutionAddress] */\n      0xffffffffffffffffffffffffffffffffffffffff\n      and\n      0xffffffffffffffffffffffffffffffffffffffff\n      and\n      dup2\n      mstore\n      0x20\n      add\n      swap1\n      dup2\n      mstore\n      0x20\n      add\n      0x00\n      keccak256\n      0x00\n      swap1\n      sload\n      swap1\n      0x0100\n      exp\n      swap1\n      div\n      0xffffffffffffffffffffffffffffffffffffffff\n      and\n        /* \"Encode CTF.sol\":2999:3039  solutions[solutionAddress] == msg.sender */\n      0xffffffffffffffffffffffffffffffffffffffff\n      and\n      eq\n        /* \"Encode CTF.sol\":2961:3039  solutions[solutionAddress] == NULL || solutions[solutionAddress] == msg.sender */\n    tag_146:\n        /* \"Encode CTF.sol\":2953:3076  require(solutions[solutionAddress] == NULL || solutions[solutionAddress] == msg.sender, \"msg.sender not owner of solution\") */\n      tag_147\n      jumpi\n      mload(0x40)\n      0x08c379a000000000000000000000000000000000000000000000000000000000\n      dup2\n      mstore\n      0x04\n      add\n      tag_148\n      swap1\n      tag_149\n      jump\t// in\n    tag_148:\n      mload(0x40)\n      dup1\n      swap2\n      sub\n      swap1\n      revert\n    tag_147:\n        /* \"Encode CTF.sol\":3134:3135  0 */\n      0x00\n        /* \"Encode CTF.sol\":3101:3110  userNames */\n      0x09\n        /* \"Encode CTF.sol\":3101:3122  userNames[msg.sender] */\n      0x00\n        /* \"Encode CTF.sol\":3111:3121  msg.sender */\n      caller\n        /* \"Encode CTF.sol\":3101:3122  userNames[msg.sender] */\n      0xffffffffffffffffffffffffffffffffffffffff\n      and\n      0xffffffffffffffffffffffffffffffffffffffff\n      and\n      dup2\n      mstore\n      0x20\n      add\n      swap1\n      dup2\n      mstore\n      0x20\n      add\n      0x00\n      keccak256\n        /* \"Encode CTF.sol\":3095:3130  bytes(userNames[msg.sender]).length */\n      dup1\n      sload\n      tag_150\n      swap1\n      tag_151\n      jump\t// in\n    tag_150:\n      swap1\n      pop\n        /* \"Encode CTF.sol\":3095:3135  bytes(userNames[msg.sender]).length != 0 */\n      sub\n        /* \"Encode CTF.sol\":3087:3157  require(bytes(userNames[msg.sender]).length != 0, \"Invalid User Name\") */\n      tag_152\n      jumpi\n      mload(0x40)\n      0x08c379a000000000000000000000000000000000000000000000000000000000\n      dup2\n      mstore\n      0x04\n      add\n      tag_153\n      swap1\n      tag_154\n      jump\t// in\n    tag_153:\n      mload(0x40)\n      dup1\n      swap2\n      sub\n      swap1\n      revert\n    tag_152:\n        /* \"Encode CTF.sol\":3197:3207  msg.sender */\n      caller\n        /* \"Encode CTF.sol\":3168:3177  solutions */\n      0x0a\n        /* \"Encode CTF.sol\":3168:3194  solutions[solutionAddress] */\n      0x00\n        /* \"Encode CTF.sol\":3178:3193  solutionAddress */\n      dup4\n        /* \"Encode CTF.sol\":3168:3194  solutions[solutionAddress] */\n      0xffffffffffffffffffffffffffffffffffffffff\n      and\n      0xffffffffffffffffffffffffffffffffffffffff\n      and\n      dup2\n      mstore\n      0x20\n      add\n      swap1\n      dup2\n      mstore\n      0x20\n      add\n      0x00\n      keccak256\n      0x00\n        /* \"Encode CTF.sol\":3168:3207  solutions[solutionAddress] = msg.sender */\n      0x0100\n      exp\n      dup2\n      sload\n      dup2\n      0xffffffffffffffffffffffffffffffffffffffff\n      mul\n      not\n      and\n      swap1\n      dup4\n      0xffffffffffffffffffffffffffffffffffffffff\n      and\n      mul\n      or\n      swap1\n      sstore\n      pop\n        /* \"Encode CTF.sol\":3218:3231  Ilevel _level */\n      0x00\n        /* \"Encode CTF.sol\":3241:3247  levels */\n      0x06\n        /* \"Encode CTF.sol\":3241:3260  levels[levelNumber] */\n      0x00\n        /* \"Encode CTF.sol\":3248:3259  levelNumber */\n      dup5\n        /* \"Encode CTF.sol\":3241:3260  levels[levelNumber] */\n      0xff\n      and\n      0xff\n      and\n      dup2\n      mstore\n      0x20\n      add\n      swap1\n      dup2\n      mstore\n      0x20\n      add\n      0x00\n      keccak256\n      0x00\n      swap1\n      sload\n      swap1\n      0x0100\n      exp\n      swap1\n      div\n      0xffffffffffffffffffffffffffffffffffffffff\n      and\n        /* \"Encode CTF.sol\":3218:3261  Ilevel _level = Ilevel(levels[levelNumber]) */\n      swap1\n      pop\n        /* \"Encode CTF.sol\":3294:3305  uint8 score */\n      0x00\n        /* \"Encode CTF.sol\":3307:3318  uint256 gas */\n      dup1\n        /* \"Encode CTF.sol\":3322:3328  _level */\n      dup3\n        /* \"Encode CTF.sol\":3322:3342  _level.completeLevel */\n      0xffffffffffffffffffffffffffffffffffffffff\n      and\n      0x97bf4cfb\n        /* \"Encode CTF.sol\":3343:3358  solutionAddress */\n      dup6\n        /* \"Encode CTF.sol\":3322:3359  _level.completeLevel(solutionAddress) */\n      mload(0x40)\n      dup3\n      0xffffffff\n      and\n      0xe0\n      shl\n      dup2\n      mstore\n      0x04\n      add\n      tag_155\n      swap2\n      swap1\n      tag_37\n      jump\t// in\n    tag_155:\n      0x40\n      dup1\n      mload\n      dup1\n      dup4\n      sub\n      dup2\n      0x00\n      dup8\n      gas\n      call\n      iszero\n      dup1\n      iszero\n      tag_157\n      jumpi\n      returndatasize\n      0x00\n      dup1\n      returndatacopy\n      revert(0x00, returndatasize)\n    tag_157:\n      pop\n      pop\n      pop\n      pop\n      mload(0x40)\n      returndatasize\n      not(0x1f)\n      0x1f\n      dup3\n      add\n      and\n      dup3\n      add\n      dup1\n      0x40\n      mstore\n      pop\n      dup2\n      add\n      swap1\n      tag_158\n      swap2\n      swap1\n      tag_159\n      jump\t// in\n    tag_158:\n        /* \"Encode CTF.sol\":3293:3359  (uint8 score, uint256 gas) = _level.completeLevel(solutionAddress) */\n      swap2\n      pop\n      swap2\n      pop\n        /* \"Encode CTF.sol\":3511:3516  score */\n      dup2\n        /* \"Encode CTF.sol\":3477:3516  scores[msg.sender][levelNumber] < score */\n      0xff\n      and\n        /* \"Encode CTF.sol\":3477:3483  scores */\n      0x07\n        /* \"Encode CTF.sol\":3477:3495  scores[msg.sender] */\n      0x00\n        /* \"Encode CTF.sol\":3484:3494  msg.sender */\n      caller\n        /* \"Encode CTF.sol\":3477:3495  scores[msg.sender] */\n      0xffffffffffffffffffffffffffffffffffffffff\n      and\n      0xffffffffffffffffffffffffffffffffffffffff\n      and\n      dup2\n      mstore\n      0x20\n      add\n      swap1\n      dup2\n      mstore\n      0x20\n      add\n      0x00\n      keccak256\n        /* \"Encode CTF.sol\":3477:3508  scores[msg.sender][levelNumber] */\n      0x00\n        /* \"Encode CTF.sol\":3496:3507  levelNumber */\n      dup8\n        /* \"Encode CTF.sol\":3477:3508  scores[msg.sender][levelNumber] */\n      0xff\n      and\n      0xff\n      and\n      dup2\n      mstore\n      0x20\n      add\n      swap1\n      dup2\n      mstore\n      0x20\n      add\n      0x00\n      keccak256\n      0x00\n      swap1\n      sload\n      swap1\n      0x0100\n      exp\n      swap1\n      div\n      0xff\n      and\n        /* \"Encode CTF.sol\":3477:3516  scores[msg.sender][levelNumber] < score */\n      0xff\n      and\n      lt\n        /* \"Encode CTF.sol\":3473:3637  if (scores[msg.sender][levelNumber] < score) {... */\n      iszero\n      tag_160\n      jumpi\n        /* \"Encode CTF.sol\":3567:3572  score */\n      dup2\n        /* \"Encode CTF.sol\":3533:3539  scores */\n      0x07\n        /* \"Encode CTF.sol\":3533:3551  scores[msg.sender] */\n      0x00\n        /* \"Encode CTF.sol\":3540:3550  msg.sender */\n      caller\n        /* \"Encode CTF.sol\":3533:3551  scores[msg.sender] */\n      0xffffffffffffffffffffffffffffffffffffffff\n      and\n      0xffffffffffffffffffffffffffffffffffffffff\n      and\n      dup2\n      mstore\n      0x20\n      add\n      swap1\n      dup2\n      mstore\n      0x20\n      add\n      0x00\n      keccak256\n        /* \"Encode CTF.sol\":3533:3564  scores[msg.sender][levelNumber] */\n      0x00\n        /* \"Encode CTF.sol\":3552:3563  levelNumber */\n      dup8\n        /* \"Encode CTF.sol\":3533:3564  scores[msg.sender][levelNumber] */\n      0xff\n      and\n      0xff\n      and\n      dup2\n      mstore\n      0x20\n      add\n      swap1\n      dup2\n      mstore\n      0x20\n      add\n      0x00\n      keccak256\n      0x00\n        /* \"Encode CTF.sol\":3533:3572  scores[msg.sender][levelNumber] = score */\n      0x0100\n      exp\n      dup2\n      sload\n      dup2\n      0xff\n      mul\n      not\n      and\n      swap1\n      dup4\n      0xff\n      and\n      mul\n      or\n      swap1\n      sstore\n      pop\n        /* \"Encode CTF.sol\":3622:3625  gas */\n      dup1\n        /* \"Encode CTF.sol\":3587:3594  gasUsed */\n      0x08\n        /* \"Encode CTF.sol\":3587:3606  gasUsed[msg.sender] */\n      0x00\n        /* \"Encode CTF.sol\":3595:3605  msg.sender */\n      caller\n        /* \"Encode CTF.sol\":3587:3606  gasUsed[msg.sender] */\n      0xffffffffffffffffffffffffffffffffffffffff\n      and\n      0xffffffffffffffffffffffffffffffffffffffff\n      and\n      dup2\n      mstore\n      0x20\n      add\n      swap1\n      dup2\n      mstore\n      0x20\n      add\n      0x00\n      keccak256\n        /* \"Encode CTF.sol\":3587:3619  gasUsed[msg.sender][levelNumber] */\n      0x00\n        /* \"Encode CTF.sol\":3607:3618  levelNumber */\n      dup8\n        /* \"Encode CTF.sol\":3587:3619  gasUsed[msg.sender][levelNumber] */\n      0xff\n      and\n      0xff\n      and\n      dup2\n      mstore\n      0x20\n      add\n      swap1\n      dup2\n      mstore\n      0x20\n      add\n      0x00\n      keccak256\n        /* \"Encode CTF.sol\":3587:3625  gasUsed[msg.sender][levelNumber] = gas */\n      dup2\n      swap1\n      sstore\n      pop\n        /* \"Encode CTF.sol\":3473:3637  if (scores[msg.sender][levelNumber] < score) {... */\n    tag_160:\n        /* \"Encode CTF.sol\":3754:3759  score */\n      dup2\n        /* \"Encode CTF.sol\":3719:3759  scores[msg.sender][levelNumber] == score */\n      0xff\n      and\n        /* \"Encode CTF.sol\":3719:3725  scores */\n      0x07\n        /* \"Encode CTF.sol\":3719:3737  scores[msg.sender] */\n      0x00\n        /* \"Encode CTF.sol\":3726:3736  msg.sender */\n      caller\n        /* \"Encode CTF.sol\":3719:3737  scores[msg.sender] */\n      0xffffffffffffffffffffffffffffffffffffffff\n      and\n      0xffffffffffffffffffffffffffffffffffffffff\n      and\n      dup2\n      mstore\n      0x20\n      add\n      swap1\n      dup2\n      mstore\n      0x20\n      add\n      0x00\n      keccak256\n        /* \"Encode CTF.sol\":3719:3750  scores[msg.sender][levelNumber] */\n      0x00\n        /* \"Encode CTF.sol\":3738:3749  levelNumber */\n      dup8\n        /* \"Encode CTF.sol\":3719:3750  scores[msg.sender][levelNumber] */\n      0xff\n      and\n      0xff\n      and\n      dup2\n      mstore\n      0x20\n      add\n      swap1\n      dup2\n      mstore\n      0x20\n      add\n      0x00\n      keccak256\n      0x00\n      swap1\n      sload\n      swap1\n      0x0100\n      exp\n      swap1\n      div\n      0xff\n      and\n        /* \"Encode CTF.sol\":3719:3759  scores[msg.sender][levelNumber] == score */\n      0xff\n      and\n      eq\n        /* \"Encode CTF.sol\":3719:3801  scores[msg.sender][levelNumber] == score && gasUsed[msg.sender][levelNumber] > gas */\n      dup1\n      iszero\n      tag_161\n      jumpi\n      pop\n        /* \"Encode CTF.sol\":3798:3801  gas */\n      dup1\n        /* \"Encode CTF.sol\":3763:3770  gasUsed */\n      0x08\n        /* \"Encode CTF.sol\":3763:3782  gasUsed[msg.sender] */\n      0x00\n        /* \"Encode CTF.sol\":3771:3781  msg.sender */\n      caller\n        /* \"Encode CTF.sol\":3763:3782  gasUsed[msg.sender] */\n      0xffffffffffffffffffffffffffffffffffffffff\n      and\n      0xffffffffffffffffffffffffffffffffffffffff\n      and\n      dup2\n      mstore\n      0x20\n      add\n      swap1\n      dup2\n      mstore\n      0x20\n      add\n      0x00\n      keccak256\n        /* \"Encode CTF.sol\":3763:3795  gasUsed[msg.sender][levelNumber] */\n      0x00\n        /* \"Encode CTF.sol\":3783:3794  levelNumber */\n      dup8\n        /* \"Encode CTF.sol\":3763:3795  gasUsed[msg.sender][levelNumber] */\n      0xff\n      and\n      0xff\n      and\n      dup2\n      mstore\n      0x20\n      add\n      swap1\n      dup2\n      mstore\n      0x20\n      add\n      0x00\n      keccak256\n      sload\n        /* \"Encode CTF.sol\":3763:3801  gasUsed[msg.sender][levelNumber] > gas */\n      gt\n        /* \"Encode CTF.sol\":3719:3801  scores[msg.sender][levelNumber] == score && gasUsed[msg.sender][levelNumber] > gas */\n    tag_161:\n        /* \"Encode CTF.sol\":3715:3868  if (scores[msg.sender][levelNumber] == score && gasUsed[msg.sender][levelNumber] > gas) {... */\n      iszero\n      tag_162\n      jumpi\n        /* \"Encode CTF.sol\":3853:3856  gas */\n      dup1\n        /* \"Encode CTF.sol\":3818:3825  gasUsed */\n      0x08\n        /* \"Encode CTF.sol\":3818:3837  gasUsed[msg.sender] */\n      0x00\n        /* \"Encode CTF.sol\":3826:3836  msg.sender */\n      caller\n        /* \"Encode CTF.sol\":3818:3837  gasUsed[msg.sender] */\n      0xffffffffffffffffffffffffffffffffffffffff\n      and\n      0xffffffffffffffffffffffffffffffffffffffff\n      and\n      dup2\n      mstore\n      0x20\n      add\n      swap1\n      dup2\n      mstore\n      0x20\n      add\n      0x00\n      keccak256\n        /* \"Encode CTF.sol\":3818:3850  gasUsed[msg.sender][levelNumber] */\n      0x00\n        /* \"Encode CTF.sol\":3838:3849  levelNumber */\n      dup8\n        /* \"Encode CTF.sol\":3818:3850  gasUsed[msg.sender][levelNumber] */\n      0xff\n      and\n      0xff\n      and\n      dup2\n      mstore\n      0x20\n      add\n      swap1\n      dup2\n      mstore\n      0x20\n      add\n      0x00\n      keccak256\n        /* \"Encode CTF.sol\":3818:3856  gasUsed[msg.sender][levelNumber] = gas */\n      dup2\n      swap1\n      sstore\n      pop\n        /* \"Encode CTF.sol\":3715:3868  if (scores[msg.sender][levelNumber] == score && gasUsed[msg.sender][levelNumber] > gas) {... */\n    tag_162:\n        /* \"Encode CTF.sol\":2740:3875  {... */\n      pop\n      pop\n      pop\n        /* \"Encode CTF.sol\":2663:3875  function submitSolution(uint8 levelNumber, address solutionAddress) external {... */\n      pop\n      pop\n      jump\t// out\n        /* \"Encode CTF.sol\":1717:2099  function register(string calldata userName, string calldata password) external {... */\n    tag_58:\n        /* \"Encode CTF.sol\":1856:1868  passwordHash */\n      sload(0x0c)\n        /* \"Encode CTF.sol\":1842:1850  password */\n      dup3\n      dup3\n        /* \"Encode CTF.sol\":1825:1851  abi.encodePacked(password) */\n      add(0x20, mload(0x40))\n      tag_164\n      swap3\n      swap2\n      swap1\n      tag_165\n      jump\t// in\n    tag_164:\n      mload(0x40)\n      0x20\n      dup2\n      dup4\n      sub\n      sub\n      dup2\n      mstore\n      swap1\n      0x40\n      mstore\n        /* \"Encode CTF.sol\":1815:1852  keccak256(abi.encodePacked(password)) */\n      dup1\n      mload\n      swap1\n      0x20\n      add\n      keccak256\n        /* \"Encode CTF.sol\":1815:1868  keccak256(abi.encodePacked(password)) == passwordHash */\n      eq\n        /* \"Encode CTF.sol\":1807:1887  require(keccak256(abi.encodePacked(password)) == passwordHash, \"Check Password\") */\n      tag_166\n      jumpi\n      mload(0x40)\n      0x08c379a000000000000000000000000000000000000000000000000000000000\n      dup2\n      mstore\n      0x04\n      add\n      tag_167\n      swap1\n      tag_168\n      jump\t// in\n    tag_167:\n      mload(0x40)\n      dup1\n      swap2\n      sub\n      swap1\n      revert\n    tag_166:\n        /* \"Encode CTF.sol\":1921:1925  true */\n      0x01\n        /* \"Encode CTF.sol\":1906:1925  canRegister == true */\n      iszero\n      iszero\n        /* \"Encode CTF.sol\":1906:1917  canRegister */\n      0x0b\n      0x01\n      swap1\n      sload\n      swap1\n      0x0100\n      exp\n      swap1\n      div\n      0xff\n      and\n        /* \"Encode CTF.sol\":1906:1925  canRegister == true */\n      iszero\n      iszero\n      eq\n        /* \"Encode CTF.sol\":1898:1951  require(canRegister == true, \"Registraton is closed\") */\n      tag_169\n      jumpi\n      mload(0x40)\n      0x08c379a000000000000000000000000000000000000000000000000000000000\n      dup2\n      mstore\n      0x04\n      add\n      tag_170\n      swap1\n      tag_171\n      jump\t// in\n    tag_170:\n      mload(0x40)\n      dup1\n      swap2\n      sub\n      swap1\n      revert\n    tag_169:\n        /* \"Encode CTF.sol\":1996:1997  0 */\n      0x00\n        /* \"Encode CTF.sol\":1976:1984  userName */\n      dup5\n      dup5\n        /* \"Encode CTF.sol\":1970:1992  bytes(userName).length */\n      swap1\n      pop\n        /* \"Encode CTF.sol\":1970:1997  bytes(userName).length != 0 */\n      sub\n        /* \"Encode CTF.sol\":1962:2019  require(bytes(userName).length != 0, \"Invalid User Name\") */\n      tag_172\n      jumpi\n      mload(0x40)\n      0x08c379a000000000000000000000000000000000000000000000000000000000\n      dup2\n      mstore\n      0x04\n      add\n      tag_173\n      swap1\n      tag_154\n      jump\t// in\n    tag_173:\n      mload(0x40)\n      dup1\n      swap2\n      sub\n      swap1\n      revert\n    tag_172:\n        /* \"Encode CTF.sol\":2030:2052  _setUserName(userName) */\n      tag_174\n        /* \"Encode CTF.sol\":2043:2051  userName */\n      dup5\n      dup5\n        /* \"Encode CTF.sol\":2030:2042  _setUserName */\n      tag_175\n        /* \"Encode CTF.sol\":2030:2052  _setUserName(userName) */\n      jump\t// in\n    tag_174:\n        /* \"Encode CTF.sol\":2087:2091  true */\n      0x01\n        /* \"Encode CTF.sol\":2063:2072  whitelist */\n      0x03\n        /* \"Encode CTF.sol\":2063:2084  whitelist[msg.sender] */\n      0x00\n        /* \"Encode CTF.sol\":2073:2083  msg.sender */\n      caller\n        /* \"Encode CTF.sol\":2063:2084  whitelist[msg.sender] */\n      0xffffffffffffffffffffffffffffffffffffffff\n      and\n      0xffffffffffffffffffffffffffffffffffffffff\n      and\n      dup2\n      mstore\n      0x20\n      add\n      swap1\n      dup2\n      mstore\n      0x20\n      add\n      0x00\n      keccak256\n      0x00\n        /* \"Encode CTF.sol\":2063:2091  whitelist[msg.sender] = true */\n      0x0100\n      exp\n      dup2\n      sload\n      dup2\n      0xff\n      mul\n      not\n      and\n      swap1\n      dup4\n      iszero\n      iszero\n      mul\n      or\n      swap1\n      sstore\n      pop\n        /* \"Encode CTF.sol\":1717:2099  function register(string calldata userName, string calldata password) external {... */\n      pop\n      pop\n      pop\n      pop\n      jump\t// out\n        /* \"Encode CTF.sol\":5053:5258  function setAdmin(address admin, bool isAdmin) external onlyAdmin {... */\n    tag_62:\n        /* \"Encode CTF.sol\":1371:1375  true */\n      0x01\n        /* \"Encode CTF.sol\":1350:1375  Admin[msg.sender] == true */\n      iszero\n      iszero\n        /* \"Encode CTF.sol\":1350:1355  Admin */\n      0x04\n        /* \"Encode CTF.sol\":1350:1367  Admin[msg.sender] */\n      0x00\n        /* \"Encode CTF.sol\":1356:1366  msg.sender */\n      caller\n        /* \"Encode CTF.sol\":1350:1367  Admin[msg.sender] */\n      0xffffffffffffffffffffffffffffffffffffffff\n      and\n      0xffffffffffffffffffffffffffffffffffffffff\n      and\n      dup2\n      mstore\n      0x20\n      add\n      swap1\n      dup2\n      mstore\n      0x20\n      add\n      0x00\n      keccak256\n      0x00\n      swap1\n      sload\n      swap1\n      0x0100\n      exp\n      swap1\n      div\n      0xff\n      and\n        /* \"Encode CTF.sol\":1350:1375  Admin[msg.sender] == true */\n      iszero\n      iszero\n      eq\n        /* \"Encode CTF.sol\":1342:1396  require(Admin[msg.sender] == true, \"Need to be Admin\") */\n      tag_177\n      jumpi\n      mload(0x40)\n      0x08c379a000000000000000000000000000000000000000000000000000000000\n      dup2\n      mstore\n      0x04\n      add\n      tag_178\n      swap1\n      tag_179\n      jump\t// in\n    tag_178:\n      mload(0x40)\n      dup1\n      swap2\n      sub\n      swap1\n      revert\n    tag_177:\n        /* \"Encode CTF.sol\":5147:5157  msg.sender */\n      caller\n        /* \"Encode CTF.sol\":5138:5157  admin != msg.sender */\n      0xffffffffffffffffffffffffffffffffffffffff\n      and\n        /* \"Encode CTF.sol\":5138:5143  admin */\n      dup3\n        /* \"Encode CTF.sol\":5138:5157  admin != msg.sender */\n      0xffffffffffffffffffffffffffffffffffffffff\n      and\n      sub\n        /* \"Encode CTF.sol\":5130:5189  require(admin != msg.sender, \"Cannot set msg.sender admin\") */\n      tag_181\n      jumpi\n      mload(0x40)\n      0x08c379a000000000000000000000000000000000000000000000000000000000\n      dup2\n      mstore\n      0x04\n      add\n      tag_182\n      swap1\n      tag_183\n      jump\t// in\n    tag_182:\n      mload(0x40)\n      dup1\n      swap2\n      sub\n      swap1\n      revert\n    tag_181:\n        /* \"Encode CTF.sol\":5243:5250  isAdmin */\n      dup1\n        /* \"Encode CTF.sol\":5228:5233  Admin */\n      0x04\n        /* \"Encode CTF.sol\":5228:5240  Admin[admin] */\n      0x00\n        /* \"Encode CTF.sol\":5234:5239  admin */\n      dup5\n        /* \"Encode CTF.sol\":5228:5240  Admin[admin] */\n      0xffffffffffffffffffffffffffffffffffffffff\n      and\n      0xffffffffffffffffffffffffffffffffffffffff\n      and\n      dup2\n      mstore\n      0x20\n      add\n      swap1\n      dup2\n      mstore\n      0x20\n      add\n      0x00\n      keccak256\n      0x00\n        /* \"Encode CTF.sol\":5228:5250  Admin[admin] = isAdmin */\n      0x0100\n      exp\n      dup2\n      sload\n      dup2\n      0xff\n      mul\n      not\n      and\n      swap1\n      dup4\n      iszero\n      iszero\n      mul\n      or\n      swap1\n      sstore\n      pop\n        /* \"Encode CTF.sol\":5053:5258  function setAdmin(address admin, bool isAdmin) external onlyAdmin {... */\n      pop\n      pop\n      jump\t// out\n        /* \"Encode CTF.sol\":5939:6362  function removeAddress(address addr) external onlyAdmin{... */\n    tag_65:\n        /* \"Encode CTF.sol\":1371:1375  true */\n      0x01\n        /* \"Encode CTF.sol\":1350:1375  Admin[msg.sender] == true */\n      iszero\n      iszero\n        /* \"Encode CTF.sol\":1350:1355  Admin */\n      0x04\n        /* \"Encode CTF.sol\":1350:1367  Admin[msg.sender] */\n      0x00\n        /* \"Encode CTF.sol\":1356:1366  msg.sender */\n      caller\n        /* \"Encode CTF.sol\":1350:1367  Admin[msg.sender] */\n      0xffffffffffffffffffffffffffffffffffffffff\n      and\n      0xffffffffffffffffffffffffffffffffffffffff\n      and\n      dup2\n      mstore\n      0x20\n      add\n      swap1\n      dup2\n      mstore\n      0x20\n      add\n      0x00\n      keccak256\n      0x00\n      swap1\n      sload\n      swap1\n      0x0100\n      exp\n      swap1\n      div\n      0xff\n      and\n        /* \"Encode CTF.sol\":1350:1375  Admin[msg.sender] == true */\n      iszero\n      iszero\n      eq\n        /* \"Encode CTF.sol\":1342:1396  require(Admin[msg.sender] == true, \"Need to be Admin\") */\n      tag_185\n      jumpi\n      mload(0x40)\n      0x08c379a000000000000000000000000000000000000000000000000000000000\n      dup2\n      mstore\n      0x04\n      add\n      tag_186\n      swap1\n      tag_179\n      jump\t// in\n    tag_186:\n      mload(0x40)\n      dup1\n      swap2\n      sub\n      swap1\n      revert\n    tag_185:\n        /* \"Encode CTF.sol\":6010:6017  uint8 i */\n      0x00\n        /* \"Encode CTF.sol\":6005:6220  for (uint8 i = 0; i < addrArray.length; i++){... */\n    tag_188:\n        /* \"Encode CTF.sol\":6027:6036  addrArray */\n      0x00\n        /* \"Encode CTF.sol\":6027:6043  addrArray.length */\n      dup1\n      sload\n      swap1\n      pop\n        /* \"Encode CTF.sol\":6023:6024  i */\n      dup2\n        /* \"Encode CTF.sol\":6023:6043  i < addrArray.length */\n      0xff\n      and\n      lt\n        /* \"Encode CTF.sol\":6005:6220  for (uint8 i = 0; i < addrArray.length; i++){... */\n      iszero\n      tag_189\n      jumpi\n        /* \"Encode CTF.sol\":6084:6088  addr */\n      dup2\n        /* \"Encode CTF.sol\":6068:6088  addrArray[i] == addr */\n      0xffffffffffffffffffffffffffffffffffffffff\n      and\n        /* \"Encode CTF.sol\":6068:6077  addrArray */\n      0x00\n        /* \"Encode CTF.sol\":6078:6079  i */\n      dup3\n        /* \"Encode CTF.sol\":6068:6080  addrArray[i] */\n      0xff\n      and\n      dup2\n      sload\n      dup2\n      lt\n      tag_191\n      jumpi\n      tag_192\n      tag_193\n      jump\t// in\n    tag_192:\n    tag_191:\n      swap1\n      0x00\n      mstore\n      keccak256(0x00, 0x20)\n      add\n      0x00\n      swap1\n      sload\n      swap1\n      0x0100\n      exp\n      swap1\n      div\n      0xffffffffffffffffffffffffffffffffffffffff\n      and\n        /* \"Encode CTF.sol\":6068:6088  addrArray[i] == addr */\n      0xffffffffffffffffffffffffffffffffffffffff\n      and\n      sub\n        /* \"Encode CTF.sol\":6064:6209  if (addrArray[i] == addr) {... */\n      tag_195\n      jumpi\n        /* \"Encode CTF.sol\":6124:6133  addrArray */\n      0x00\n        /* \"Encode CTF.sol\":6153:6154  1 */\n      0x01\n        /* \"Encode CTF.sol\":6134:6143  addrArray */\n      0x00\n        /* \"Encode CTF.sol\":6134:6150  addrArray.length */\n      dup1\n      sload\n      swap1\n      pop\n        /* \"Encode CTF.sol\":6134:6154  addrArray.length - 1 */\n      tag_196\n      swap2\n      swap1\n      tag_197\n      jump\t// in\n    tag_196:\n        /* \"Encode CTF.sol\":6124:6155  addrArray[addrArray.length - 1] */\n      dup2\n      sload\n      dup2\n      lt\n      tag_198\n      jumpi\n      tag_199\n      tag_193\n      jump\t// in\n    tag_199:\n    tag_198:\n      swap1\n      0x00\n      mstore\n      keccak256(0x00, 0x20)\n      add\n      0x00\n      swap1\n      sload\n      swap1\n      0x0100\n      exp\n      swap1\n      div\n      0xffffffffffffffffffffffffffffffffffffffff\n      and\n        /* \"Encode CTF.sol\":6109:6118  addrArray */\n      0x00\n        /* \"Encode CTF.sol\":6119:6120  i */\n      dup3\n        /* \"Encode CTF.sol\":6109:6121  addrArray[i] */\n      0xff\n      and\n      dup2\n      sload\n      dup2\n      lt\n      tag_201\n      jumpi\n      tag_202\n      tag_193\n      jump\t// in\n    tag_202:\n    tag_201:\n      swap1\n      0x00\n      mstore\n      keccak256(0x00, 0x20)\n      add\n      0x00\n        /* \"Encode CTF.sol\":6109:6155  addrArray[i] = addrArray[addrArray.length - 1] */\n      0x0100\n      exp\n      dup2\n      sload\n      dup2\n      0xffffffffffffffffffffffffffffffffffffffff\n      mul\n      not\n      and\n      swap1\n      dup4\n      0xffffffffffffffffffffffffffffffffffffffff\n      and\n      mul\n      or\n      swap1\n      sstore\n      pop\n        /* \"Encode CTF.sol\":6178:6187  addrArray */\n      0x00\n        /* \"Encode CTF.sol\":6178:6193  addrArray.pop() */\n      dup1\n      sload\n      dup1\n      tag_204\n      jumpi\n      tag_205\n      tag_206\n      jump\t// in\n    tag_205:\n    tag_204:\n      0x01\n      swap1\n      sub\n      dup2\n      dup2\n      swap1\n      0x00\n      mstore\n      keccak256(0x00, 0x20)\n      add\n      exp(0x0100, 0x00)\n      dup2\n      sload\n      swap1\n      0xffffffffffffffffffffffffffffffffffffffff\n      mul\n      not\n      and\n      swap1\n      sstore\n      swap1\n      sstore\n        /* \"Encode CTF.sol\":6064:6209  if (addrArray[i] == addr) {... */\n    tag_195:\n        /* \"Encode CTF.sol\":6045:6048  i++ */\n      dup1\n      dup1\n      tag_208\n      swap1\n      tag_209\n      jump\t// in\n    tag_208:\n      swap2\n      pop\n      pop\n        /* \"Encode CTF.sol\":6005:6220  for (uint8 i = 0; i < addrArray.length; i++){... */\n      jump(tag_188)\n    tag_189:\n      pop\n        /* \"Encode CTF.sol\":6237:6247  addrLookUp */\n      0x01\n        /* \"Encode CTF.sol\":6237:6253  addrLookUp[addr] */\n      0x00\n        /* \"Encode CTF.sol\":6248:6252  addr */\n      dup3\n        /* \"Encode CTF.sol\":6237:6253  addrLookUp[addr] */\n      0xffffffffffffffffffffffffffffffffffffffff\n      and\n      0xffffffffffffffffffffffffffffffffffffffff\n      and\n      dup2\n      mstore\n      0x20\n      add\n      swap1\n      dup2\n      mstore\n      0x20\n      add\n      0x00\n      keccak256\n      0x00\n        /* \"Encode CTF.sol\":6230:6253  delete addrLookUp[addr] */\n      0x0100\n      exp\n      dup2\n      sload\n      swap1\n      0xff\n      mul\n      not\n      and\n      swap1\n      sstore\n        /* \"Encode CTF.sol\":6271:6280  whitelist */\n      0x03\n        /* \"Encode CTF.sol\":6271:6286  whitelist[addr] */\n      0x00\n        /* \"Encode CTF.sol\":6281:6285  addr */\n      dup3\n        /* \"Encode CTF.sol\":6271:6286  whitelist[addr] */\n      0xffffffffffffffffffffffffffffffffffffffff\n      and\n      0xffffffffffffffffffffffffffffffffffffffff\n      and\n      dup2\n      mstore\n      0x20\n      add\n      swap1\n      dup2\n      mstore\n      0x20\n      add\n      0x00\n      keccak256\n      0x00\n        /* \"Encode CTF.sol\":6264:6286  delete whitelist[addr] */\n      0x0100\n      exp\n      dup2\n      sload\n      swap1\n      0xff\n      mul\n      not\n      and\n      swap1\n      sstore\n        /* \"Encode CTF.sol\":6304:6313  userNames */\n      0x09\n        /* \"Encode CTF.sol\":6304:6319  userNames[addr] */\n      0x00\n        /* \"Encode CTF.sol\":6314:6318  addr */\n      dup3\n        /* \"Encode CTF.sol\":6304:6319  userNames[addr] */\n      0xffffffffffffffffffffffffffffffffffffffff\n      and\n      0xffffffffffffffffffffffffffffffffffffffff\n      and\n      dup2\n      mstore\n      0x20\n      add\n      swap1\n      dup2\n      mstore\n      0x20\n      add\n      0x00\n      keccak256\n      0x00\n        /* \"Encode CTF.sol\":6297:6319  delete userNames[addr] */\n      tag_210\n      swap2\n      swap1\n      tag_211\n      jump\t// in\n    tag_210:\n        /* \"Encode CTF.sol\":6330:6354  _deleteAddressData(addr) */\n      tag_212\n        /* \"Encode CTF.sol\":6349:6353  addr */\n      dup2\n        /* \"Encode CTF.sol\":6330:6348  _deleteAddressData */\n      tag_213\n        /* \"Encode CTF.sol\":6330:6354  _deleteAddressData(addr) */\n      jump\t// in\n    tag_212:\n        /* \"Encode CTF.sol\":5939:6362  function removeAddress(address addr) external onlyAdmin{... */\n      pop\n      jump\t// out\n        /* \"Encode CTF.sol\":1138:1161  bool public canRegister */\n    tag_67:\n      0x0b\n      0x01\n      swap1\n      sload\n      swap1\n      0x0100\n      exp\n      swap1\n      div\n      0xff\n      and\n      dup2\n      jump\t// out\n        /* \"Encode CTF.sol\":7061:7349  function getScore(address addr, uint8 level) public view returns (address, string memory ,uint8, uint8, uint256) {... */\n    tag_72:\n        /* \"Encode CTF.sol\":7127:7134  address */\n      0x00\n        /* \"Encode CTF.sol\":7136:7149  string memory */\n      0x60\n        /* \"Encode CTF.sol\":7151:7156  uint8 */\n      0x00\n        /* \"Encode CTF.sol\":7158:7163  uint8 */\n      dup1\n        /* \"Encode CTF.sol\":7165:7172  uint256 */\n      0x00\n        /* \"Encode CTF.sol\":7207:7211  addr */\n      dup7\n        /* \"Encode CTF.sol\":7226:7235  userNames */\n      0x09\n        /* \"Encode CTF.sol\":7226:7241  userNames[addr] */\n      0x00\n        /* \"Encode CTF.sol\":7236:7240  addr */\n      dup10\n        /* \"Encode CTF.sol\":7226:7241  userNames[addr] */\n      0xffffffffffffffffffffffffffffffffffffffff\n      and\n      0xffffffffffffffffffffffffffffffffffffffff\n      and\n      dup2\n      mstore\n      0x20\n      add\n      swap1\n      dup2\n      mstore\n      0x20\n      add\n      0x00\n      keccak256\n        /* \"Encode CTF.sol\":7256:7261  level */\n      dup8\n        /* \"Encode CTF.sol\":7276:7282  scores */\n      0x07\n        /* \"Encode CTF.sol\":7276:7288  scores[addr] */\n      0x00\n        /* \"Encode CTF.sol\":7283:7287  addr */\n      dup12\n        /* \"Encode CTF.sol\":7276:7288  scores[addr] */\n      0xffffffffffffffffffffffffffffffffffffffff\n      and\n      0xffffffffffffffffffffffffffffffffffffffff\n      and\n      dup2\n      mstore\n      0x20\n      add\n      swap1\n      dup2\n      mstore\n      0x20\n      add\n      0x00\n      keccak256\n        /* \"Encode CTF.sol\":7276:7295  scores[addr][level] */\n      0x00\n        /* \"Encode CTF.sol\":7289:7294  level */\n      dup11\n        /* \"Encode CTF.sol\":7276:7295  scores[addr][level] */\n      0xff\n      and\n      0xff\n      and\n      dup2\n      mstore\n      0x20\n      add\n      swap1\n      dup2\n      mstore\n      0x20\n      add\n      0x00\n      keccak256\n      0x00\n      swap1\n      sload\n      swap1\n      0x0100\n      exp\n      swap1\n      div\n      0xff\n      and\n        /* \"Encode CTF.sol\":7310:7317  gasUsed */\n      0x08\n        /* \"Encode CTF.sol\":7310:7323  gasUsed[addr] */\n      0x00\n        /* \"Encode CTF.sol\":7318:7322  addr */\n      dup13\n        /* \"Encode CTF.sol\":7310:7323  gasUsed[addr] */\n      0xffffffffffffffffffffffffffffffffffffffff\n      and\n      0xffffffffffffffffffffffffffffffffffffffff\n      and\n      dup2\n      mstore\n      0x20\n      add\n      swap1\n      dup2\n      mstore\n      0x20\n      add\n      0x00\n      keccak256\n        /* \"Encode CTF.sol\":7310:7330  gasUsed[addr][level] */\n      0x00\n        /* \"Encode CTF.sol\":7324:7329  level */\n      dup12\n        /* \"Encode CTF.sol\":7310:7330  gasUsed[addr][level] */\n      0xff\n      and\n      0xff\n      and\n      dup2\n      mstore\n      0x20\n      add\n      swap1\n      dup2\n      mstore\n      0x20\n      add\n      0x00\n      keccak256\n      sload\n        /* \"Encode CTF.sol\":7185:7341  return (... */\n      dup4\n      dup1\n      sload\n      tag_215\n      swap1\n      tag_151\n      jump\t// in\n    tag_215:\n      dup1\n      0x1f\n      add\n      0x20\n      dup1\n      swap2\n      div\n      mul\n      0x20\n      add\n      mload(0x40)\n      swap1\n      dup2\n      add\n      0x40\n      mstore\n      dup1\n      swap3\n      swap2\n      swap1\n      dup2\n      dup2\n      mstore\n      0x20\n      add\n      dup3\n      dup1\n      sload\n      tag_216\n      swap1\n      tag_151\n      jump\t// in\n    tag_216:\n      dup1\n      iszero\n      tag_217\n      jumpi\n      dup1\n      0x1f\n      lt\n      tag_218\n      jumpi\n      0x0100\n      dup1\n      dup4\n      sload\n      div\n      mul\n      dup4\n      mstore\n      swap2\n      0x20\n      add\n      swap2\n      jump(tag_217)\n    tag_218:\n      dup3\n      add\n      swap2\n      swap1\n      0x00\n      mstore\n      keccak256(0x00, 0x20)\n      swap1\n    tag_219:\n      dup2\n      sload\n      dup2\n      mstore\n      swap1\n      0x01\n      add\n      swap1\n      0x20\n      add\n      dup1\n      dup4\n      gt\n      tag_219\n      jumpi\n      dup3\n      swap1\n      sub\n      0x1f\n      and\n      dup3\n      add\n      swap2\n    tag_217:\n      pop\n      pop\n      pop\n      pop\n      pop\n      swap4\n      pop\n      swap5\n      pop\n      swap5\n      pop\n      swap5\n      pop\n      swap5\n      pop\n      swap5\n      pop\n        /* \"Encode CTF.sol\":7061:7349  function getScore(address addr, uint8 level) public view returns (address, string memory ,uint8, uint8, uint256) {... */\n      swap3\n      swap6\n      pop\n      swap3\n      swap6\n      swap1\n      swap4\n      pop\n      jump\t// out\n        /* \"Encode CTF.sol\":5385:5743  function removeLevel (uint8 level) external onlyAdmin{... */\n    tag_78:\n        /* \"Encode CTF.sol\":1371:1375  true */\n      0x01\n        /* \"Encode CTF.sol\":1350:1375  Admin[msg.sender] == true */\n      iszero\n      iszero\n        /* \"Encode CTF.sol\":1350:1355  Admin */\n      0x04\n        /* \"Encode CTF.sol\":1350:1367  Admin[msg.sender] */\n      0x00\n        /* \"Encode CTF.sol\":1356:1366  msg.sender */\n      caller\n        /* \"Encode CTF.sol\":1350:1367  Admin[msg.sender] */\n      0xffffffffffffffffffffffffffffffffffffffff\n      and\n      0xffffffffffffffffffffffffffffffffffffffff\n      and\n      dup2\n      mstore\n      0x20\n      add\n      swap1\n      dup2\n      mstore\n      0x20\n      add\n      0x00\n      keccak256\n      0x00\n      swap1\n      sload\n      swap1\n      0x0100\n      exp\n      swap1\n      div\n      0xff\n      and\n        /* \"Encode CTF.sol\":1350:1375  Admin[msg.sender] == true */\n      iszero\n      iszero\n      eq\n        /* \"Encode CTF.sol\":1342:1396  require(Admin[msg.sender] == true, \"Need to be Admin\") */\n      tag_221\n      jumpi\n      mload(0x40)\n      0x08c379a000000000000000000000000000000000000000000000000000000000\n      dup2\n      mstore\n      0x04\n      add\n      tag_222\n      swap1\n      tag_179\n      jump\t// in\n    tag_222:\n      mload(0x40)\n      dup1\n      swap2\n      sub\n      swap1\n      revert\n    tag_221:\n        /* \"Encode CTF.sol\":5454:5461  uint8 i */\n      0x00\n        /* \"Encode CTF.sol\":5449:5671  for (uint8 i = 0; i < levelArray.length; i++){... */\n    tag_224:\n        /* \"Encode CTF.sol\":5471:5481  levelArray */\n      0x02\n        /* \"Encode CTF.sol\":5471:5488  levelArray.length */\n      dup1\n      sload\n      swap1\n      pop\n        /* \"Encode CTF.sol\":5467:5468  i */\n      dup2\n        /* \"Encode CTF.sol\":5467:5488  i < levelArray.length */\n      0xff\n      and\n      lt\n        /* \"Encode CTF.sol\":5449:5671  for (uint8 i = 0; i < levelArray.length; i++){... */\n      iszero\n      tag_225\n      jumpi\n        /* \"Encode CTF.sol\":5530:5535  level */\n      dup2\n        /* \"Encode CTF.sol\":5513:5535  levelArray[i] == level */\n      0xff\n      and\n        /* \"Encode CTF.sol\":5513:5523  levelArray */\n      0x02\n        /* \"Encode CTF.sol\":5524:5525  i */\n      dup3\n        /* \"Encode CTF.sol\":5513:5526  levelArray[i] */\n      0xff\n      and\n      dup2\n      sload\n      dup2\n      lt\n      tag_227\n      jumpi\n      tag_228\n      tag_193\n      jump\t// in\n    tag_228:\n    tag_227:\n      swap1\n      0x00\n      mstore\n      keccak256(0x00, 0x20)\n      swap1\n      0x20\n      swap2\n      dup3\n      dup3\n      div\n      add\n      swap2\n      swap1\n      mod\n      swap1\n      sload\n      swap1\n      0x0100\n      exp\n      swap1\n      div\n      0xff\n      and\n        /* \"Encode CTF.sol\":5513:5535  levelArray[i] == level */\n      0xff\n      and\n      sub\n        /* \"Encode CTF.sol\":5509:5660  if (levelArray[i] == level) {... */\n      tag_230\n      jumpi\n        /* \"Encode CTF.sol\":5572:5582  levelArray */\n      0x02\n        /* \"Encode CTF.sol\":5603:5604  1 */\n      0x01\n        /* \"Encode CTF.sol\":5583:5593  levelArray */\n      0x02\n        /* \"Encode CTF.sol\":5583:5600  levelArray.length */\n      dup1\n      sload\n      swap1\n      pop\n        /* \"Encode CTF.sol\":5583:5604  levelArray.length - 1 */\n      tag_231\n      swap2\n      swap1\n      tag_197\n      jump\t// in\n    tag_231:\n        /* \"Encode CTF.sol\":5572:5605  levelArray[levelArray.length - 1] */\n      dup2\n      sload\n      dup2\n      lt\n      tag_232\n      jumpi\n      tag_233\n      tag_193\n      jump\t// in\n    tag_233:\n    tag_232:\n      swap1\n      0x00\n      mstore\n      keccak256(0x00, 0x20)\n      swap1\n      0x20\n      swap2\n      dup3\n      dup3\n      div\n      add\n      swap2\n      swap1\n      mod\n      swap1\n      sload\n      swap1\n      0x0100\n      exp\n      swap1\n      div\n      0xff\n      and\n        /* \"Encode CTF.sol\":5556:5566  levelArray */\n      0x02\n        /* \"Encode CTF.sol\":5567:5568  i */\n      dup3\n        /* \"Encode CTF.sol\":5556:5569  levelArray[i] */\n      0xff\n      and\n      dup2\n      sload\n      dup2\n      lt\n      tag_235\n      jumpi\n      tag_236\n      tag_193\n      jump\t// in\n    tag_236:\n    tag_235:\n      swap1\n      0x00\n      mstore\n      keccak256(0x00, 0x20)\n      swap1\n      0x20\n      swap2\n      dup3\n      dup3\n      div\n      add\n      swap2\n      swap1\n      mod\n        /* \"Encode CTF.sol\":5556:5605  levelArray[i] = levelArray[levelArray.length - 1] */\n      0x0100\n      exp\n      dup2\n      sload\n      dup2\n      0xff\n      mul\n      not\n      and\n      swap1\n      dup4\n      0xff\n      and\n      mul\n      or\n      swap1\n      sstore\n      pop\n        /* \"Encode CTF.sol\":5628:5638  levelArray */\n      0x02\n        /* \"Encode CTF.sol\":5628:5644  levelArray.pop() */\n      dup1\n      sload\n      dup1\n      tag_238\n      jumpi\n      tag_239\n      tag_206\n      jump\t// in\n    tag_239:\n    tag_238:\n      0x01\n      swap1\n      sub\n      dup2\n      dup2\n      swap1\n      0x00\n      mstore\n      keccak256(0x00, 0x20)\n      swap1\n      0x20\n      swap2\n      dup3\n      dup3\n      div\n      add\n      swap2\n      swap1\n      mod\n      0x0100\n      exp\n      dup2\n      sload\n      swap1\n      0xff\n      mul\n      not\n      and\n      swap1\n      sstore\n      swap1\n      sstore\n        /* \"Encode CTF.sol\":5509:5660  if (levelArray[i] == level) {... */\n    tag_230:\n        /* \"Encode CTF.sol\":5490:5493  i++ */\n      dup1\n      dup1\n      tag_241\n      swap1\n      tag_209\n      jump\t// in\n    tag_241:\n      swap2\n      pop\n      pop\n        /* \"Encode CTF.sol\":5449:5671  for (uint8 i = 0; i < levelArray.length; i++){... */\n      jump(tag_224)\n    tag_225:\n      pop\n        /* \"Encode CTF.sol\":5688:5694  levels */\n      0x06\n        /* \"Encode CTF.sol\":5688:5701  levels[level] */\n      0x00\n        /* \"Encode CTF.sol\":5695:5700  level */\n      dup3\n        /* \"Encode CTF.sol\":5688:5701  levels[level] */\n      0xff\n      and\n      0xff\n      and\n      dup2\n      mstore\n      0x20\n      add\n      swap1\n      dup2\n      mstore\n      0x20\n      add\n      0x00\n      keccak256\n      0x00\n        /* \"Encode CTF.sol\":5681:5701  delete levels[level] */\n      0x0100\n      exp\n      dup2\n      sload\n      swap1\n      0xffffffffffffffffffffffffffffffffffffffff\n      mul\n      not\n      and\n      swap1\n      sstore\n        /* \"Encode CTF.sol\":5712:5735  _deleteLevelData(level) */\n      tag_242\n        /* \"Encode CTF.sol\":5729:5734  level */\n      dup2\n        /* \"Encode CTF.sol\":5712:5728  _deleteLevelData */\n      tag_243\n        /* \"Encode CTF.sol\":5712:5735  _deleteLevelData(level) */\n      jump\t// in\n    tag_242:\n        /* \"Encode CTF.sol\":5385:5743  function removeLevel (uint8 level) external onlyAdmin{... */\n      pop\n      jump\t// out\n        /* \"Encode CTF.sol\":866:909  mapping(address => string) public userNames */\n    tag_81:\n      mstore(0x20, 0x09)\n      dup1\n      0x00\n      mstore\n      keccak256(0x00, 0x40)\n      0x00\n      swap2\n      pop\n      swap1\n      pop\n      dup1\n      sload\n      tag_244\n      swap1\n      tag_151\n      jump\t// in\n    tag_244:\n      dup1\n      0x1f\n      add\n      0x20\n      dup1\n      swap2\n      div\n      mul\n      0x20\n      add\n      mload(0x40)\n      swap1\n      dup2\n      add\n      0x40\n      mstore\n      dup1\n      swap3\n      swap2\n      swap1\n      dup2\n      dup2\n      mstore\n      0x20\n      add\n      dup3\n      dup1\n      sload\n      tag_245\n      swap1\n      tag_151\n      jump\t// in\n    tag_245:\n      dup1\n      iszero\n      tag_246\n      jumpi\n      dup1\n      0x1f\n      lt\n      tag_247\n      jumpi\n      0x0100\n      dup1\n      dup4\n      sload\n      div\n      mul\n      dup4\n      mstore\n      swap2\n      0x20\n      add\n      swap2\n      jump(tag_246)\n    tag_247:\n      dup3\n      add\n      swap2\n      swap1\n      0x00\n      mstore\n      keccak256(0x00, 0x20)\n      swap1\n    tag_248:\n      dup2\n      sload\n      dup2\n      mstore\n      swap1\n      0x01\n      add\n      swap1\n      0x20\n      add\n      dup1\n      dup4\n      gt\n      tag_248\n      jumpi\n      dup3\n      swap1\n      sub\n      0x1f\n      and\n      dup3\n      add\n      swap2\n    tag_246:\n      pop\n      pop\n      pop\n      pop\n      pop\n      dup2\n      jump\t// out\n        /* \"Encode CTF.sol\":580:619  mapping(uint8 => address) public levels */\n    tag_86:\n      mstore(0x20, 0x06)\n      dup1\n      0x00\n      mstore\n      keccak256(0x00, 0x40)\n      0x00\n      swap2\n      pop\n      sload\n      swap1\n      0x0100\n      exp\n      swap1\n      div\n      0xffffffffffffffffffffffffffffffffffffffff\n      and\n      dup2\n      jump\t// out\n        /* \"Encode CTF.sol\":437:478  mapping(address => bool) public whitelist */\n    tag_90:\n      mstore(0x20, 0x03)\n      dup1\n      0x00\n      mstore\n      keccak256(0x00, 0x40)\n      0x00\n      swap2\n      pop\n      sload\n      swap1\n      0x0100\n      exp\n      swap1\n      div\n      0xff\n      and\n      dup2\n      jump\t// out\n        /* \"Encode CTF.sol\":4945:5045  function setPassword(bytes32 password) external onlyAdmin {... */\n    tag_95:\n        /* \"Encode CTF.sol\":1371:1375  true */\n      0x01\n        /* \"Encode CTF.sol\":1350:1375  Admin[msg.sender] == true */\n      iszero\n      iszero\n        /* \"Encode CTF.sol\":1350:1355  Admin */\n      0x04\n        /* \"Encode CTF.sol\":1350:1367  Admin[msg.sender] */\n      0x00\n        /* \"Encode CTF.sol\":1356:1366  msg.sender */\n      caller\n        /* \"Encode CTF.sol\":1350:1367  Admin[msg.sender] */\n      0xffffffffffffffffffffffffffffffffffffffff\n      and\n      0xffffffffffffffffffffffffffffffffffffffff\n      and\n      dup2\n      mstore\n      0x20\n      add\n      swap1\n      dup2\n      mstore\n      0x20\n      add\n      0x00\n      keccak256\n      0x00\n      swap1\n      sload\n      swap1\n      0x0100\n      exp\n      swap1\n      div\n      0xff\n      and\n        /* \"Encode CTF.sol\":1350:1375  Admin[msg.sender] == true */\n      iszero\n      iszero\n      eq\n        /* \"Encode CTF.sol\":1342:1396  require(Admin[msg.sender] == true, \"Need to be Admin\") */\n      tag_250\n      jumpi\n      mload(0x40)\n      0x08c379a000000000000000000000000000000000000000000000000000000000\n      dup2\n      mstore\n      0x04\n      add\n      tag_251\n      swap1\n      tag_179\n      jump\t// in\n    tag_251:\n      mload(0x40)\n      dup1\n      swap2\n      sub\n      swap1\n      revert\n    tag_250:\n        /* \"Encode CTF.sol\":5029:5037  password */\n      dup1\n        /* \"Encode CTF.sol\":5014:5026  passwordHash */\n      0x0c\n        /* \"Encode CTF.sol\":5014:5037  passwordHash = password */\n      dup2\n      swap1\n      sstore\n      pop\n        /* \"Encode CTF.sol\":4945:5045  function setPassword(bytes32 password) external onlyAdmin {... */\n      pop\n      jump\t// out\n        /* \"Encode CTF.sol\":6855:6953  function getAddresses() public view returns (address[] memory) {... */\n    tag_97:\n        /* \"Encode CTF.sol\":6900:6916  address[] memory */\n      0x60\n        /* \"Encode CTF.sol\":6936:6945  addrArray */\n      0x00\n        /* \"Encode CTF.sol\":6929:6945  return addrArray */\n      dup1\n      sload\n      dup1\n      0x20\n      mul\n      0x20\n      add\n      mload(0x40)\n      swap1\n      dup2\n      add\n      0x40\n      mstore\n      dup1\n      swap3\n      swap2\n      swap1\n      dup2\n      dup2\n      mstore\n      0x20\n      add\n      dup3\n      dup1\n      sload\n      dup1\n      iszero\n      tag_254\n      jumpi\n      0x20\n      mul\n      dup3\n      add\n      swap2\n      swap1\n      0x00\n      mstore\n      keccak256(0x00, 0x20)\n      swap1\n    tag_255:\n      dup2\n      0x00\n      swap1\n      sload\n      swap1\n      0x0100\n      exp\n      swap1\n      div\n      0xffffffffffffffffffffffffffffffffffffffff\n      and\n      0xffffffffffffffffffffffffffffffffffffffff\n      and\n      dup2\n      mstore\n      0x20\n      add\n      swap1\n      0x01\n      add\n      swap1\n      dup1\n      dup4\n      gt\n      tag_255\n      jumpi\n    tag_254:\n      pop\n      pop\n      pop\n      pop\n      pop\n      swap1\n      pop\n        /* \"Encode CTF.sol\":6855:6953  function getAddresses() public view returns (address[] memory) {... */\n      swap1\n      jump\t// out\n        /* \"Encode CTF.sol\":4276:4374  function setRegisterStatus(bool status) external onlyAdmin {... */\n    tag_103:\n        /* \"Encode CTF.sol\":1371:1375  true */\n      0x01\n        /* \"Encode CTF.sol\":1350:1375  Admin[msg.sender] == true */\n      iszero\n      iszero\n        /* \"Encode CTF.sol\":1350:1355  Admin */\n      0x04\n        /* \"Encode CTF.sol\":1350:1367  Admin[msg.sender] */\n      0x00\n        /* \"Encode CTF.sol\":1356:1366  msg.sender */\n      caller\n        /* \"Encode CTF.sol\":1350:1367  Admin[msg.sender] */\n      0xffffffffffffffffffffffffffffffffffffffff\n      and\n      0xffffffffffffffffffffffffffffffffffffffff\n      and\n      dup2\n      mstore\n      0x20\n      add\n      swap1\n      dup2\n      mstore\n      0x20\n      add\n      0x00\n      keccak256\n      0x00\n      swap1\n      sload\n      swap1\n      0x0100\n      exp\n      swap1\n      div\n      0xff\n      and\n        /* \"Encode CTF.sol\":1350:1375  Admin[msg.sender] == true */\n      iszero\n      iszero\n      eq\n        /* \"Encode CTF.sol\":1342:1396  require(Admin[msg.sender] == true, \"Need to be Admin\") */\n      tag_257\n      jumpi\n      mload(0x40)\n      0x08c379a000000000000000000000000000000000000000000000000000000000\n      dup2\n      mstore\n      0x04\n      add\n      tag_258\n      swap1\n      tag_179\n      jump\t// in\n    tag_258:\n      mload(0x40)\n      dup1\n      swap2\n      sub\n      swap1\n      revert\n    tag_257:\n        /* \"Encode CTF.sol\":4360:4366  status */\n      dup1\n        /* \"Encode CTF.sol\":4346:4357  canRegister */\n      0x0b\n      0x01\n        /* \"Encode CTF.sol\":4346:4366  canRegister = status */\n      0x0100\n      exp\n      dup2\n      sload\n      dup2\n      0xff\n      mul\n      not\n      and\n      swap1\n      dup4\n      iszero\n      iszero\n      mul\n      or\n      swap1\n      sstore\n      pop\n        /* \"Encode CTF.sol\":4276:4374  function setRegisterStatus(bool status) external onlyAdmin {... */\n      pop\n      jump\t// out\n        /* \"Encode CTF.sol\":4382:4641  function addLevel(address levelAddress, uint8 levelNumber) external onlyAdmin {... */\n    tag_106:\n        /* \"Encode CTF.sol\":1371:1375  true */\n      0x01\n        /* \"Encode CTF.sol\":1350:1375  Admin[msg.sender] == true */\n      iszero\n      iszero\n        /* \"Encode CTF.sol\":1350:1355  Admin */\n      0x04\n        /* \"Encode CTF.sol\":1350:1367  Admin[msg.sender] */\n      0x00\n        /* \"Encode CTF.sol\":1356:1366  msg.sender */\n      caller\n        /* \"Encode CTF.sol\":1350:1367  Admin[msg.sender] */\n      0xffffffffffffffffffffffffffffffffffffffff\n      and\n      0xffffffffffffffffffffffffffffffffffffffff\n      and\n      dup2\n      mstore\n      0x20\n      add\n      swap1\n      dup2\n      mstore\n      0x20\n      add\n      0x00\n      keccak256\n      0x00\n      swap1\n      sload\n      swap1\n      0x0100\n      exp\n      swap1\n      div\n      0xff\n      and\n        /* \"Encode CTF.sol\":1350:1375  Admin[msg.sender] == true */\n      iszero\n      iszero\n      eq\n        /* \"Encode CTF.sol\":1342:1396  require(Admin[msg.sender] == true, \"Need to be Admin\") */\n      tag_261\n      jumpi\n      mload(0x40)\n      0x08c379a000000000000000000000000000000000000000000000000000000000\n      dup2\n      mstore\n      0x04\n      add\n      tag_262\n      swap1\n      tag_179\n      jump\t// in\n    tag_262:\n      mload(0x40)\n      dup1\n      swap2\n      sub\n      swap1\n      revert\n    tag_261:\n        /* \"Encode CTF.sol\":1235:1236  0 */\n      0x00\n        /* \"Encode CTF.sol\":4479:4506  levels[levelNumber] == NULL */\n      0xffffffffffffffffffffffffffffffffffffffff\n      and\n        /* \"Encode CTF.sol\":4479:4485  levels */\n      0x06\n        /* \"Encode CTF.sol\":4479:4498  levels[levelNumber] */\n      0x00\n        /* \"Encode CTF.sol\":4486:4497  levelNumber */\n      dup4\n        /* \"Encode CTF.sol\":4479:4498  levels[levelNumber] */\n      0xff\n      and\n      0xff\n      and\n      dup2\n      mstore\n      0x20\n      add\n      swap1\n      dup2\n      mstore\n      0x20\n      add\n      0x00\n      keccak256\n      0x00\n      swap1\n      sload\n      swap1\n      0x0100\n      exp\n      swap1\n      div\n      0xffffffffffffffffffffffffffffffffffffffff\n      and\n        /* \"Encode CTF.sol\":4479:4506  levels[levelNumber] == NULL */\n      0xffffffffffffffffffffffffffffffffffffffff\n      and\n      eq\n        /* \"Encode CTF.sol\":4471:4548  require(levels[levelNumber] == NULL, \"Already exsists, delete or use update\") */\n      tag_264\n      jumpi\n      mload(0x40)\n      0x08c379a000000000000000000000000000000000000000000000000000000000\n      dup2\n      mstore\n      0x04\n      add\n      tag_265\n      swap1\n      tag_266\n      jump\t// in\n    tag_265:\n      mload(0x40)\n      dup1\n      swap2\n      sub\n      swap1\n      revert\n    tag_264:\n        /* \"Encode CTF.sol\":4582:4594  levelAddress */\n      dup2\n        /* \"Encode CTF.sol\":4560:4566  levels */\n      0x06\n        /* \"Encode CTF.sol\":4560:4579  levels[levelNumber] */\n      0x00\n        /* \"Encode CTF.sol\":4567:4578  levelNumber */\n      dup4\n        /* \"Encode CTF.sol\":4560:4579  levels[levelNumber] */\n      0xff\n      and\n      0xff\n      and\n      dup2\n      mstore\n      0x20\n      add\n      swap1\n      dup2\n      mstore\n      0x20\n      add\n      0x00\n      keccak256\n      0x00\n        /* \"Encode CTF.sol\":4560:4594  levels[levelNumber] = levelAddress */\n      0x0100\n      exp\n      dup2\n      sload\n      dup2\n      0xffffffffffffffffffffffffffffffffffffffff\n      mul\n      not\n      and\n      swap1\n      dup4\n      0xffffffffffffffffffffffffffffffffffffffff\n      and\n      mul\n      or\n      swap1\n      sstore\n      pop\n        /* \"Encode CTF.sol\":4605:4615  levelArray */\n      0x02\n        /* \"Encode CTF.sol\":4621:4632  levelNumber */\n      dup2\n        /* \"Encode CTF.sol\":4605:4633  levelArray.push(levelNumber) */\n      swap1\n      dup1\n      0x01\n      dup2\n      sload\n      add\n      dup1\n      dup3\n      sstore\n      dup1\n      swap2\n      pop\n      pop\n      0x01\n      swap1\n      sub\n      swap1\n      0x00\n      mstore\n      keccak256(0x00, 0x20)\n      swap1\n      0x20\n      swap2\n      dup3\n      dup3\n      div\n      add\n      swap2\n      swap1\n      mod\n      swap1\n      swap2\n      swap1\n      swap2\n      swap1\n      swap2\n      0x0100\n      exp\n      dup2\n      sload\n      dup2\n      0xff\n      mul\n      not\n      and\n      swap1\n      dup4\n      0xff\n      and\n      mul\n      or\n      swap1\n      sstore\n      pop\n        /* \"Encode CTF.sol\":4382:4641  function addLevel(address levelAddress, uint8 levelNumber) external onlyAdmin {... */\n      pop\n      pop\n      jump\t// out\n        /* \"Encode CTF.sol\":4721:4937  function updateLevelAddress(address levelAddress, uint8 levelNumber) external onlyAdmin {... */\n    tag_109:\n        /* \"Encode CTF.sol\":1371:1375  true */\n      0x01\n        /* \"Encode CTF.sol\":1350:1375  Admin[msg.sender] == true */\n      iszero\n      iszero\n        /* \"Encode CTF.sol\":1350:1355  Admin */\n      0x04\n        /* \"Encode CTF.sol\":1350:1367  Admin[msg.sender] */\n      0x00\n        /* \"Encode CTF.sol\":1356:1366  msg.sender */\n      caller\n        /* \"Encode CTF.sol\":1350:1367  Admin[msg.sender] */\n      0xffffffffffffffffffffffffffffffffffffffff\n      and\n      0xffffffffffffffffffffffffffffffffffffffff\n      and\n      dup2\n      mstore\n      0x20\n      add\n      swap1\n      dup2\n      mstore\n      0x20\n      add\n      0x00\n      keccak256\n      0x00\n      swap1\n      sload\n      swap1\n      0x0100\n      exp\n      swap1\n      div\n      0xff\n      and\n        /* \"Encode CTF.sol\":1350:1375  Admin[msg.sender] == true */\n      iszero\n      iszero\n      eq\n        /* \"Encode CTF.sol\":1342:1396  require(Admin[msg.sender] == true, \"Need to be Admin\") */\n      tag_269\n      jumpi\n      mload(0x40)\n      0x08c379a000000000000000000000000000000000000000000000000000000000\n      dup2\n      mstore\n      0x04\n      add\n      tag_270\n      swap1\n      tag_179\n      jump\t// in\n    tag_270:\n      mload(0x40)\n      dup1\n      swap2\n      sub\n      swap1\n      revert\n    tag_269:\n        /* \"Encode CTF.sol\":1235:1236  0 */\n      0x00\n        /* \"Encode CTF.sol\":4828:4855  levels[levelNumber] != NULL */\n      0xffffffffffffffffffffffffffffffffffffffff\n      and\n        /* \"Encode CTF.sol\":4828:4834  levels */\n      0x06\n        /* \"Encode CTF.sol\":4828:4847  levels[levelNumber] */\n      0x00\n        /* \"Encode CTF.sol\":4835:4846  levelNumber */\n      dup4\n        /* \"Encode CTF.sol\":4828:4847  levels[levelNumber] */\n      0xff\n      and\n      0xff\n      and\n      dup2\n      mstore\n      0x20\n      add\n      swap1\n      dup2\n      mstore\n      0x20\n      add\n      0x00\n      keccak256\n      0x00\n      swap1\n      sload\n      swap1\n      0x0100\n      exp\n      swap1\n      div\n      0xffffffffffffffffffffffffffffffffffffffff\n      and\n        /* \"Encode CTF.sol\":4828:4855  levels[levelNumber] != NULL */\n      0xffffffffffffffffffffffffffffffffffffffff\n      and\n      sub\n        /* \"Encode CTF.sol\":4820:4883  require(levels[levelNumber] != NULL, \"Can't update NULL level\") */\n      tag_272\n      jumpi\n      mload(0x40)\n      0x08c379a000000000000000000000000000000000000000000000000000000000\n      dup2\n      mstore\n      0x04\n      add\n      tag_273\n      swap1\n      tag_274\n      jump\t// in\n    tag_273:\n      mload(0x40)\n      dup1\n      swap2\n      sub\n      swap1\n      revert\n    tag_272:\n        /* \"Encode CTF.sol\":4917:4929  levelAddress */\n      dup2\n        /* \"Encode CTF.sol\":4895:4901  levels */\n      0x06\n        /* \"Encode CTF.sol\":4895:4914  levels[levelNumber] */\n      0x00\n        /* \"Encode CTF.sol\":4902:4913  levelNumber */\n      dup4\n        /* \"Encode CTF.sol\":4895:4914  levels[levelNumber] */\n      0xff\n      and\n      0xff\n      and\n      dup2\n      mstore\n      0x20\n      add\n      swap1\n      dup2\n      mstore\n      0x20\n      add\n      0x00\n      keccak256\n      0x00\n        /* \"Encode CTF.sol\":4895:4929  levels[levelNumber] = levelAddress */\n      0x0100\n      exp\n      dup2\n      sload\n      dup2\n      0xffffffffffffffffffffffffffffffffffffffff\n      mul\n      not\n      and\n      swap1\n      dup4\n      0xffffffffffffffffffffffffffffffffffffffff\n      and\n      mul\n      or\n      swap1\n      sstore\n      pop\n        /* \"Encode CTF.sol\":4721:4937  function updateLevelAddress(address levelAddress, uint8 levelNumber) external onlyAdmin {... */\n      pop\n      pop\n      jump\t// out\n        /* \"Encode CTF.sol\":799:859  mapping(address => mapping(uint8 => uint256)) public gasUsed */\n    tag_112:\n      mstore(0x20, 0x08)\n      dup2\n      0x00\n      mstore\n      mstore(0x20, keccak256(0x00, 0x40))\n      dup1\n      0x00\n      mstore\n      keccak256(0x00, 0x40)\n      0x00\n      swap2\n      pop\n      swap2\n      pop\n      pop\n      sload\n      dup2\n      jump\t// out\n        /* \"Encode CTF.sol\":693:750  mapping(address => mapping(uint8 => uint8)) public scores */\n    tag_117:\n      mstore(0x20, 0x07)\n      dup2\n      0x00\n      mstore\n      mstore(0x20, keccak256(0x00, 0x40))\n      dup1\n      0x00\n      mstore\n      keccak256(0x00, 0x40)\n      0x00\n      swap2\n      pop\n      swap2\n      pop\n      swap1\n      sload\n      swap1\n      0x0100\n      exp\n      swap1\n      div\n      0xff\n      and\n      dup2\n      jump\t// out\n        /* \"Encode CTF.sol\":4176:4268  function setExamStatus(bool status) external onlyAdmin {... */\n    tag_122:\n        /* \"Encode CTF.sol\":1371:1375  true */\n      0x01\n        /* \"Encode CTF.sol\":1350:1375  Admin[msg.sender] == true */\n      iszero\n      iszero\n        /* \"Encode CTF.sol\":1350:1355  Admin */\n      0x04\n        /* \"Encode CTF.sol\":1350:1367  Admin[msg.sender] */\n      0x00\n        /* \"Encode CTF.sol\":1356:1366  msg.sender */\n      caller\n        /* \"Encode CTF.sol\":1350:1367  Admin[msg.sender] */\n      0xffffffffffffffffffffffffffffffffffffffff\n      and\n      0xffffffffffffffffffffffffffffffffffffffff\n      and\n      dup2\n      mstore\n      0x20\n      add\n      swap1\n      dup2\n      mstore\n      0x20\n      add\n      0x00\n      keccak256\n      0x00\n      swap1\n      sload\n      swap1\n      0x0100\n      exp\n      swap1\n      div\n      0xff\n      and\n        /* \"Encode CTF.sol\":1350:1375  Admin[msg.sender] == true */\n      iszero\n      iszero\n      eq\n        /* \"Encode CTF.sol\":1342:1396  require(Admin[msg.sender] == true, \"Need to be Admin\") */\n      tag_276\n      jumpi\n      mload(0x40)\n      0x08c379a000000000000000000000000000000000000000000000000000000000\n      dup2\n      mstore\n      0x04\n      add\n      tag_277\n      swap1\n      tag_179\n      jump\t// in\n    tag_277:\n      mload(0x40)\n      dup1\n      swap2\n      sub\n      swap1\n      revert\n    tag_276:\n        /* \"Encode CTF.sol\":4254:4260  status */\n      dup1\n        /* \"Encode CTF.sol\":4242:4251  canSubmit */\n      0x0b\n      0x00\n        /* \"Encode CTF.sol\":4242:4260  canSubmit = status */\n      0x0100\n      exp\n      dup2\n      sload\n      dup2\n      0xff\n      mul\n      not\n      and\n      swap1\n      dup4\n      iszero\n      iszero\n      mul\n      or\n      swap1\n      sstore\n      pop\n        /* \"Encode CTF.sol\":4176:4268  function setExamStatus(bool status) external onlyAdmin {... */\n      pop\n      jump\t// out\n        /* \"Encode CTF.sol\":5266:5377  function setVoidTag(address addr, bool isVoid) external onlyAdmin {... */\n    tag_125:\n        /* \"Encode CTF.sol\":1371:1375  true */\n      0x01\n        /* \"Encode CTF.sol\":1350:1375  Admin[msg.sender] == true */\n      iszero\n      iszero\n        /* \"Encode CTF.sol\":1350:1355  Admin */\n      0x04\n        /* \"Encode CTF.sol\":1350:1367  Admin[msg.sender] */\n      0x00\n        /* \"Encode CTF.sol\":1356:1366  msg.sender */\n      caller\n        /* \"Encode CTF.sol\":1350:1367  Admin[msg.sender] */\n      0xffffffffffffffffffffffffffffffffffffffff\n      and\n      0xffffffffffffffffffffffffffffffffffffffff\n      and\n      dup2\n      mstore\n      0x20\n      add\n      swap1\n      dup2\n      mstore\n      0x20\n      add\n      0x00\n      keccak256\n      0x00\n      swap1\n      sload\n      swap1\n      0x0100\n      exp\n      swap1\n      div\n      0xff\n      and\n        /* \"Encode CTF.sol\":1350:1375  Admin[msg.sender] == true */\n      iszero\n      iszero\n      eq\n        /* \"Encode CTF.sol\":1342:1396  require(Admin[msg.sender] == true, \"Need to be Admin\") */\n      tag_280\n      jumpi\n      mload(0x40)\n      0x08c379a000000000000000000000000000000000000000000000000000000000\n      dup2\n      mstore\n      0x04\n      add\n      tag_281\n      swap1\n      tag_179\n      jump\t// in\n    tag_281:\n      mload(0x40)\n      dup1\n      swap2\n      sub\n      swap1\n      revert\n    tag_280:\n        /* \"Encode CTF.sol\":5363:5369  isVoid */\n      dup1\n        /* \"Encode CTF.sol\":5343:5354  voidAdrress */\n      0x05\n        /* \"Encode CTF.sol\":5343:5360  voidAdrress[addr] */\n      0x00\n        /* \"Encode CTF.sol\":5355:5359  addr */\n      dup5\n        /* \"Encode CTF.sol\":5343:5360  voidAdrress[addr] */\n      0xffffffffffffffffffffffffffffffffffffffff\n      and\n      0xffffffffffffffffffffffffffffffffffffffff\n      and\n      dup2\n      mstore\n      0x20\n      add\n      swap1\n      dup2\n      mstore\n      0x20\n      add\n      0x00\n      keccak256\n      0x00\n        /* \"Encode CTF.sol\":5343:5369  voidAdrress[addr] = isVoid */\n      0x0100\n      exp\n      dup2\n      sload\n      dup2\n      0xff\n      mul\n      not\n      and\n      swap1\n      dup4\n      iszero\n      iszero\n      mul\n      or\n      swap1\n      sstore\n      pop\n        /* \"Encode CTF.sol\":5266:5377  function setVoidTag(address addr, bool isVoid) external onlyAdmin {... */\n      pop\n      pop\n      jump\t// out\n        /* \"Encode CTF.sol\":529:572  mapping(address => bool) public voidAdrress */\n    tag_128:\n      mstore(0x20, 0x05)\n      dup1\n      0x00\n      mstore\n      keccak256(0x00, 0x40)\n      0x00\n      swap2\n      pop\n      sload\n      swap1\n      0x0100\n      exp\n      swap1\n      div\n      0xff\n      and\n      dup2\n      jump\t// out\n        /* \"Encode CTF.sol\":1110:1131  bool public canSubmit */\n    tag_131:\n      0x0b\n      0x00\n      swap1\n      sload\n      swap1\n      0x0100\n      exp\n      swap1\n      div\n      0xff\n      and\n      dup2\n      jump\t// out\n        /* \"Encode CTF.sol\":2107:2358  function _setUserName(string calldata userName) internal {... */\n    tag_175:\n        /* \"Encode CTF.sol\":2199:2207  userName */\n      dup2\n      dup2\n        /* \"Encode CTF.sol\":2175:2184  userNames */\n      0x09\n        /* \"Encode CTF.sol\":2175:2196  userNames[msg.sender] */\n      0x00\n        /* \"Encode CTF.sol\":2185:2195  msg.sender */\n      caller\n        /* \"Encode CTF.sol\":2175:2196  userNames[msg.sender] */\n      0xffffffffffffffffffffffffffffffffffffffff\n      and\n      0xffffffffffffffffffffffffffffffffffffffff\n      and\n      dup2\n      mstore\n      0x20\n      add\n      swap1\n      dup2\n      mstore\n      0x20\n      add\n      0x00\n      keccak256\n        /* \"Encode CTF.sol\":2175:2207  userNames[msg.sender] = userName */\n      swap2\n      dup3\n      tag_284\n      swap3\n      swap2\n      swap1\n      tag_285\n      jump\t// in\n    tag_284:\n      pop\n        /* \"Encode CTF.sol\":2247:2252  false */\n      0x00\n        /* \"Encode CTF.sol\":2221:2252  addrLookUp[msg.sender] == false */\n      iszero\n      iszero\n        /* \"Encode CTF.sol\":2221:2231  addrLookUp */\n      0x01\n        /* \"Encode CTF.sol\":2221:2243  addrLookUp[msg.sender] */\n      0x00\n        /* \"Encode CTF.sol\":2232:2242  msg.sender */\n      caller\n        /* \"Encode CTF.sol\":2221:2243  addrLookUp[msg.sender] */\n      0xffffffffffffffffffffffffffffffffffffffff\n      and\n      0xffffffffffffffffffffffffffffffffffffffff\n      and\n      dup2\n      mstore\n      0x20\n      add\n      swap1\n      dup2\n      mstore\n      0x20\n      add\n      0x00\n      keccak256\n      0x00\n      swap1\n      sload\n      swap1\n      0x0100\n      exp\n      swap1\n      div\n      0xff\n      and\n        /* \"Encode CTF.sol\":2221:2252  addrLookUp[msg.sender] == false */\n      iszero\n      iszero\n      sub\n        /* \"Encode CTF.sol\":2218:2351  if(addrLookUp[msg.sender] == false) {... */\n      tag_286\n      jumpi\n        /* \"Encode CTF.sol\":2269:2278  addrArray */\n      0x00\n        /* \"Encode CTF.sol\":2284:2294  msg.sender */\n      caller\n        /* \"Encode CTF.sol\":2269:2295  addrArray.push(msg.sender) */\n      swap1\n      dup1\n      0x01\n      dup2\n      sload\n      add\n      dup1\n      dup3\n      sstore\n      dup1\n      swap2\n      pop\n      pop\n      0x01\n      swap1\n      sub\n      swap1\n      0x00\n      mstore\n      keccak256(0x00, 0x20)\n      add\n      0x00\n      swap1\n      swap2\n      swap1\n      swap2\n      swap1\n      swap2\n      0x0100\n      exp\n      dup2\n      sload\n      dup2\n      0xffffffffffffffffffffffffffffffffffffffff\n      mul\n      not\n      and\n      swap1\n      dup4\n      0xffffffffffffffffffffffffffffffffffffffff\n      and\n      mul\n      or\n      swap1\n      sstore\n      pop\n        /* \"Encode CTF.sol\":2335:2339  true */\n      0x01\n        /* \"Encode CTF.sol\":2310:2320  addrLookUp */\n      dup1\n        /* \"Encode CTF.sol\":2310:2332  addrLookUp[msg.sender] */\n      0x00\n        /* \"Encode CTF.sol\":2321:2331  msg.sender */\n      caller\n        /* \"Encode CTF.sol\":2310:2332  addrLookUp[msg.sender] */\n      0xffffffffffffffffffffffffffffffffffffffff\n      and\n      0xffffffffffffffffffffffffffffffffffffffff\n      and\n      dup2\n      mstore\n      0x20\n      add\n      swap1\n      dup2\n      mstore\n      0x20\n      add\n      0x00\n      keccak256\n      0x00\n        /* \"Encode CTF.sol\":2310:2339  addrLookUp[msg.sender] = true */\n      0x0100\n      exp\n      dup2\n      sload\n      dup2\n      0xff\n      mul\n      not\n      and\n      swap1\n      dup4\n      iszero\n      iszero\n      mul\n      or\n      swap1\n      sstore\n      pop\n        /* \"Encode CTF.sol\":2218:2351  if(addrLookUp[msg.sender] == false) {... */\n    tag_286:\n        /* \"Encode CTF.sol\":2107:2358  function _setUserName(string calldata userName) internal {... */\n      pop\n      pop\n      jump\t// out\n        /* \"Encode CTF.sol\":6370:6556  function _deleteAddressData(address addr) internal onlyAdmin{... */\n    tag_213:\n        /* \"Encode CTF.sol\":1371:1375  true */\n      0x01\n        /* \"Encode CTF.sol\":1350:1375  Admin[msg.sender] == true */\n      iszero\n      iszero\n        /* \"Encode CTF.sol\":1350:1355  Admin */\n      0x04\n        /* \"Encode CTF.sol\":1350:1367  Admin[msg.sender] */\n      0x00\n        /* \"Encode CTF.sol\":1356:1366  msg.sender */\n      caller\n        /* \"Encode CTF.sol\":1350:1367  Admin[msg.sender] */\n      0xffffffffffffffffffffffffffffffffffffffff\n      and\n      0xffffffffffffffffffffffffffffffffffffffff\n      and\n      dup2\n      mstore\n      0x20\n      add\n      swap1\n      dup2\n      mstore\n      0x20\n      add\n      0x00\n      keccak256\n      0x00\n      swap1\n      sload\n      swap1\n      0x0100\n      exp\n      swap1\n      div\n      0xff\n      and\n        /* \"Encode CTF.sol\":1350:1375  Admin[msg.sender] == true */\n      iszero\n      iszero\n      eq\n        /* \"Encode CTF.sol\":1342:1396  require(Admin[msg.sender] == true, \"Need to be Admin\") */\n      tag_289\n      jumpi\n      mload(0x40)\n      0x08c379a000000000000000000000000000000000000000000000000000000000\n      dup2\n      mstore\n      0x04\n      add\n      tag_290\n      swap1\n      tag_179\n      jump\t// in\n    tag_290:\n      mload(0x40)\n      dup1\n      swap2\n      sub\n      swap1\n      revert\n    tag_289:\n        /* \"Encode CTF.sol\":6446:6453  uint8 i */\n      0x00\n        /* \"Encode CTF.sol\":6441:6549  for (uint8 i = 0; i < levelArray.length; i++){... */\n    tag_292:\n        /* \"Encode CTF.sol\":6463:6473  levelArray */\n      0x02\n        /* \"Encode CTF.sol\":6463:6480  levelArray.length */\n      dup1\n      sload\n      swap1\n      pop\n        /* \"Encode CTF.sol\":6459:6460  i */\n      dup2\n        /* \"Encode CTF.sol\":6459:6480  i < levelArray.length */\n      0xff\n      and\n      lt\n        /* \"Encode CTF.sol\":6441:6549  for (uint8 i = 0; i < levelArray.length; i++){... */\n      iszero\n      tag_293\n      jumpi\n        /* \"Encode CTF.sol\":6508:6514  scores */\n      0x07\n        /* \"Encode CTF.sol\":6508:6520  scores[addr] */\n      0x00\n        /* \"Encode CTF.sol\":6515:6519  addr */\n      dup4\n        /* \"Encode CTF.sol\":6508:6520  scores[addr] */\n      0xffffffffffffffffffffffffffffffffffffffff\n      and\n      0xffffffffffffffffffffffffffffffffffffffff\n      and\n      dup2\n      mstore\n      0x20\n      add\n      swap1\n      dup2\n      mstore\n      0x20\n      add\n      0x00\n      keccak256\n        /* \"Encode CTF.sol\":6508:6535  scores[addr][levelArray[i]] */\n      0x00\n        /* \"Encode CTF.sol\":6521:6531  levelArray */\n      0x02\n        /* \"Encode CTF.sol\":6532:6533  i */\n      dup4\n        /* \"Encode CTF.sol\":6521:6534  levelArray[i] */\n      0xff\n      and\n      dup2\n      sload\n      dup2\n      lt\n      tag_295\n      jumpi\n      tag_296\n      tag_193\n      jump\t// in\n    tag_296:\n    tag_295:\n      swap1\n      0x00\n      mstore\n      keccak256(0x00, 0x20)\n      swap1\n      0x20\n      swap2\n      dup3\n      dup3\n      div\n      add\n      swap2\n      swap1\n      mod\n      swap1\n      sload\n      swap1\n      0x0100\n      exp\n      swap1\n      div\n      0xff\n      and\n        /* \"Encode CTF.sol\":6508:6535  scores[addr][levelArray[i]] */\n      0xff\n      and\n      0xff\n      and\n      dup2\n      mstore\n      0x20\n      add\n      swap1\n      dup2\n      mstore\n      0x20\n      add\n      0x00\n      keccak256\n      0x00\n        /* \"Encode CTF.sol\":6501:6535  delete scores[addr][levelArray[i]] */\n      0x0100\n      exp\n      dup2\n      sload\n      swap1\n      0xff\n      mul\n      not\n      and\n      swap1\n      sstore\n        /* \"Encode CTF.sol\":6482:6485  i++ */\n      dup1\n      dup1\n      tag_298\n      swap1\n      tag_209\n      jump\t// in\n    tag_298:\n      swap2\n      pop\n      pop\n        /* \"Encode CTF.sol\":6441:6549  for (uint8 i = 0; i < levelArray.length; i++){... */\n      jump(tag_292)\n    tag_293:\n      pop\n        /* \"Encode CTF.sol\":6370:6556  function _deleteAddressData(address addr) internal onlyAdmin{... */\n      pop\n      jump\t// out\n        /* \"Encode CTF.sol\":5751:5931  function _deleteLevelData(uint8 level) internal onlyAdmin{... */\n    tag_243:\n        /* \"Encode CTF.sol\":1371:1375  true */\n      0x01\n        /* \"Encode CTF.sol\":1350:1375  Admin[msg.sender] == true */\n      iszero\n      iszero\n        /* \"Encode CTF.sol\":1350:1355  Admin */\n      0x04\n        /* \"Encode CTF.sol\":1350:1367  Admin[msg.sender] */\n      0x00\n        /* \"Encode CTF.sol\":1356:1366  msg.sender */\n      caller\n        /* \"Encode CTF.sol\":1350:1367  Admin[msg.sender] */\n      0xffffffffffffffffffffffffffffffffffffffff\n      and\n      0xffffffffffffffffffffffffffffffffffffffff\n      and\n      dup2\n      mstore\n      0x20\n      add\n      swap1\n      dup2\n      mstore\n      0x20\n      add\n      0x00\n      keccak256\n      0x00\n      swap1\n      sload\n      swap1\n      0x0100\n      exp\n      swap1\n      div\n      0xff\n      and\n        /* \"Encode CTF.sol\":1350:1375  Admin[msg.sender] == true */\n      iszero\n      iszero\n      eq\n        /* \"Encode CTF.sol\":1342:1396  require(Admin[msg.sender] == true, \"Need to be Admin\") */\n      tag_300\n      jumpi\n      mload(0x40)\n      0x08c379a000000000000000000000000000000000000000000000000000000000\n      dup2\n      mstore\n      0x04\n      add\n      tag_301\n      swap1\n      tag_179\n      jump\t// in\n    tag_301:\n      mload(0x40)\n      dup1\n      swap2\n      sub\n      swap1\n      revert\n    tag_300:\n        /* \"Encode CTF.sol\":5824:5831  uint8 i */\n      0x00\n        /* \"Encode CTF.sol\":5819:5924  for (uint8 i = 0; i < addrArray.length; i++){... */\n    tag_303:\n        /* \"Encode CTF.sol\":5841:5850  addrArray */\n      0x00\n        /* \"Encode CTF.sol\":5841:5857  addrArray.length */\n      dup1\n      sload\n      swap1\n      pop\n        /* \"Encode CTF.sol\":5837:5838  i */\n      dup2\n        /* \"Encode CTF.sol\":5837:5857  i < addrArray.length */\n      0xff\n      and\n      lt\n        /* \"Encode CTF.sol\":5819:5924  for (uint8 i = 0; i < addrArray.length; i++){... */\n      iszero\n      tag_304\n      jumpi\n        /* \"Encode CTF.sol\":5885:5891  scores */\n      0x07\n        /* \"Encode CTF.sol\":5885:5905  scores[addrArray[i]] */\n      0x00\n        /* \"Encode CTF.sol\":5892:5901  addrArray */\n      dup1\n        /* \"Encode CTF.sol\":5902:5903  i */\n      dup4\n        /* \"Encode CTF.sol\":5892:5904  addrArray[i] */\n      0xff\n      and\n      dup2\n      sload\n      dup2\n      lt\n      tag_306\n      jumpi\n      tag_307\n      tag_193\n      jump\t// in\n    tag_307:\n    tag_306:\n      swap1\n      0x00\n      mstore\n      keccak256(0x00, 0x20)\n      add\n      0x00\n      swap1\n      sload\n      swap1\n      0x0100\n      exp\n      swap1\n      div\n      0xffffffffffffffffffffffffffffffffffffffff\n      and\n        /* \"Encode CTF.sol\":5885:5905  scores[addrArray[i]] */\n      0xffffffffffffffffffffffffffffffffffffffff\n      and\n      0xffffffffffffffffffffffffffffffffffffffff\n      and\n      dup2\n      mstore\n      0x20\n      add\n      swap1\n      dup2\n      mstore\n      0x20\n      add\n      0x00\n      keccak256\n        /* \"Encode CTF.sol\":5885:5912  scores[addrArray[i]][level] */\n      0x00\n        /* \"Encode CTF.sol\":5906:5911  level */\n      dup4\n        /* \"Encode CTF.sol\":5885:5912  scores[addrArray[i]][level] */\n      0xff\n      and\n      0xff\n      and\n      dup2\n      mstore\n      0x20\n      add\n      swap1\n      dup2\n      mstore\n      0x20\n      add\n      0x00\n      keccak256\n      0x00\n        /* \"Encode CTF.sol\":5878:5912  delete scores[addrArray[i]][level] */\n      0x0100\n      exp\n      dup2\n      sload\n      swap1\n      0xff\n      mul\n      not\n      and\n      swap1\n      sstore\n        /* \"Encode CTF.sol\":5859:5862  i++ */\n      dup1\n      dup1\n      tag_309\n      swap1\n      tag_209\n      jump\t// in\n    tag_309:\n      swap2\n      pop\n      pop\n        /* \"Encode CTF.sol\":5819:5924  for (uint8 i = 0; i < addrArray.length; i++){... */\n      jump(tag_303)\n    tag_304:\n      pop\n        /* \"Encode CTF.sol\":5751:5931  function _deleteLevelData(uint8 level) internal onlyAdmin{... */\n      pop\n      jump\t// out\n    tag_211:\n      pop\n      dup1\n      sload\n      tag_310\n      swap1\n      tag_151\n      jump\t// in\n    tag_310:\n      0x00\n      dup3\n      sstore\n      dup1\n      0x1f\n      lt\n      tag_312\n      jumpi\n      pop\n      jump(tag_311)\n    tag_312:\n      0x1f\n      add\n      0x20\n      swap1\n      div\n      swap1\n      0x00\n      mstore\n      keccak256(0x00, 0x20)\n      swap1\n      dup2\n      add\n      swap1\n      tag_313\n      swap2\n      swap1\n      tag_314\n      jump\t// in\n    tag_313:\n    tag_311:\n      pop\n      jump\t// out\n    tag_314:\n    tag_315:\n      dup1\n      dup3\n      gt\n      iszero\n      tag_316\n      jumpi\n      0x00\n      dup2\n      0x00\n      swap1\n      sstore\n      pop\n      0x01\n      add\n      jump(tag_315)\n    tag_316:\n      pop\n      swap1\n      jump\t// out\n        /* \"#utility.yul\":88:205   */\n    tag_318:\n        /* \"#utility.yul\":197:198   */\n      0x00\n        /* \"#utility.yul\":194:195   */\n      dup1\n        /* \"#utility.yul\":187:199   */\n      revert\n        /* \"#utility.yul\":211:328   */\n    tag_319:\n        /* \"#utility.yul\":320:321   */\n      0x00\n        /* \"#utility.yul\":317:318   */\n      dup1\n        /* \"#utility.yul\":310:322   */\n      revert\n        /* \"#utility.yul\":334:460   */\n    tag_320:\n        /* \"#utility.yul\":371:378   */\n      0x00\n        /* \"#utility.yul\":411:453   */\n      0xffffffffffffffffffffffffffffffffffffffff\n        /* \"#utility.yul\":404:409   */\n      dup3\n        /* \"#utility.yul\":400:454   */\n      and\n        /* \"#utility.yul\":389:454   */\n      swap1\n      pop\n        /* \"#utility.yul\":334:460   */\n      swap2\n      swap1\n      pop\n      jump\t// out\n        /* \"#utility.yul\":466:562   */\n    tag_321:\n        /* \"#utility.yul\":503:510   */\n      0x00\n        /* \"#utility.yul\":532:556   */\n      tag_414\n        /* \"#utility.yul\":550:555   */\n      dup3\n        /* \"#utility.yul\":532:556   */\n      tag_320\n      jump\t// in\n    tag_414:\n        /* \"#utility.yul\":521:556   */\n      swap1\n      pop\n        /* \"#utility.yul\":466:562   */\n      swap2\n      swap1\n      pop\n      jump\t// out\n        /* \"#utility.yul\":568:690   */\n    tag_322:\n        /* \"#utility.yul\":641:665   */\n      tag_416\n        /* \"#utility.yul\":659:664   */\n      dup2\n        /* \"#utility.yul\":641:665   */\n      tag_321\n      jump\t// in\n    tag_416:\n        /* \"#utility.yul\":634:639   */\n      dup2\n        /* \"#utility.yul\":631:666   */\n      eq\n        /* \"#utility.yul\":621:684   */\n      tag_417\n      jumpi\n        /* \"#utility.yul\":680:681   */\n      0x00\n        /* \"#utility.yul\":677:678   */\n      dup1\n        /* \"#utility.yul\":670:682   */\n      revert\n        /* \"#utility.yul\":621:684   */\n    tag_417:\n        /* \"#utility.yul\":568:690   */\n      pop\n      jump\t// out\n        /* \"#utility.yul\":696:835   */\n    tag_323:\n        /* \"#utility.yul\":742:747   */\n      0x00\n        /* \"#utility.yul\":780:786   */\n      dup2\n        /* \"#utility.yul\":767:787   */\n      calldataload\n        /* \"#utility.yul\":758:787   */\n      swap1\n      pop\n        /* \"#utility.yul\":796:829   */\n      tag_419\n        /* \"#utility.yul\":823:828   */\n      dup2\n        /* \"#utility.yul\":796:829   */\n      tag_322\n      jump\t// in\n    tag_419:\n        /* \"#utility.yul\":696:835   */\n      swap3\n      swap2\n      pop\n      pop\n      jump\t// out\n        /* \"#utility.yul\":841:1170   */\n    tag_34:\n        /* \"#utility.yul\":900:906   */\n      0x00\n        /* \"#utility.yul\":949:951   */\n      0x20\n        /* \"#utility.yul\":937:946   */\n      dup3\n        /* \"#utility.yul\":928:935   */\n      dup5\n        /* \"#utility.yul\":924:947   */\n      sub\n        /* \"#utility.yul\":920:952   */\n      slt\n        /* \"#utility.yul\":917:1036   */\n      iszero\n      tag_421\n      jumpi\n        /* \"#utility.yul\":955:1034   */\n      tag_422\n      tag_318\n      jump\t// in\n    tag_422:\n        /* \"#utility.yul\":917:1036   */\n    tag_421:\n        /* \"#utility.yul\":1075:1076   */\n      0x00\n        /* \"#utility.yul\":1100:1153   */\n      tag_423\n        /* \"#utility.yul\":1145:1152   */\n      dup5\n        /* \"#utility.yul\":1136:1142   */\n      dup3\n        /* \"#utility.yul\":1125:1134   */\n      dup6\n        /* \"#utility.yul\":1121:1143   */\n      add\n        /* \"#utility.yul\":1100:1153   */\n      tag_323\n      jump\t// in\n    tag_423:\n        /* \"#utility.yul\":1090:1153   */\n      swap2\n      pop\n        /* \"#utility.yul\":1046:1163   */\n      pop\n        /* \"#utility.yul\":841:1170   */\n      swap3\n      swap2\n      pop\n      pop\n      jump\t// out\n        /* \"#utility.yul\":1176:1294   */\n    tag_324:\n        /* \"#utility.yul\":1263:1287   */\n      tag_425\n        /* \"#utility.yul\":1281:1286   */\n      dup2\n        /* \"#utility.yul\":1263:1287   */\n      tag_321\n      jump\t// in\n    tag_425:\n        /* \"#utility.yul\":1258:1261   */\n      dup3\n        /* \"#utility.yul\":1251:1288   */\n      mstore\n        /* \"#utility.yul\":1176:1294   */\n      pop\n      pop\n      jump\t// out\n        /* \"#utility.yul\":1300:1522   */\n    tag_37:\n        /* \"#utility.yul\":1393:1397   */\n      0x00\n        /* \"#utility.yul\":1431:1433   */\n      0x20\n        /* \"#utility.yul\":1420:1429   */\n      dup3\n        /* \"#utility.yul\":1416:1434   */\n      add\n        /* \"#utility.yul\":1408:1434   */\n      swap1\n      pop\n        /* \"#utility.yul\":1444:1515   */\n      tag_427\n        /* \"#utility.yul\":1512:1513   */\n      0x00\n        /* \"#utility.yul\":1501:1510   */\n      dup4\n        /* \"#utility.yul\":1497:1514   */\n      add\n        /* \"#utility.yul\":1488:1494   */\n      dup5\n        /* \"#utility.yul\":1444:1515   */\n      tag_324\n      jump\t// in\n    tag_427:\n        /* \"#utility.yul\":1300:1522   */\n      swap3\n      swap2\n      pop\n      pop\n      jump\t// out\n        /* \"#utility.yul\":1528:1618   */\n    tag_325:\n        /* \"#utility.yul\":1562:1569   */\n      0x00\n        /* \"#utility.yul\":1605:1610   */\n      dup2\n        /* \"#utility.yul\":1598:1611   */\n      iszero\n        /* \"#utility.yul\":1591:1612   */\n      iszero\n        /* \"#utility.yul\":1580:1612   */\n      swap1\n      pop\n        /* \"#utility.yul\":1528:1618   */\n      swap2\n      swap1\n      pop\n      jump\t// out\n        /* \"#utility.yul\":1624:1733   */\n    tag_326:\n        /* \"#utility.yul\":1705:1726   */\n      tag_430\n        /* \"#utility.yul\":1720:1725   */\n      dup2\n        /* \"#utility.yul\":1705:1726   */\n      tag_325\n      jump\t// in\n    tag_430:\n        /* \"#utility.yul\":1700:1703   */\n      dup3\n        /* \"#utility.yul\":1693:1727   */\n      mstore\n        /* \"#utility.yul\":1624:1733   */\n      pop\n      pop\n      jump\t// out\n        /* \"#utility.yul\":1739:1949   */\n    tag_42:\n        /* \"#utility.yul\":1826:1830   */\n      0x00\n        /* \"#utility.yul\":1864:1866   */\n      0x20\n        /* \"#utility.yul\":1853:1862   */\n      dup3\n        /* \"#utility.yul\":1849:1867   */\n      add\n        /* \"#utility.yul\":1841:1867   */\n      swap1\n      pop\n        /* \"#utility.yul\":1877:1942   */\n      tag_432\n        /* \"#utility.yul\":1939:1940   */\n      0x00\n        /* \"#utility.yul\":1928:1937   */\n      dup4\n        /* \"#utility.yul\":1924:1941   */\n      add\n        /* \"#utility.yul\":1915:1921   */\n      dup5\n        /* \"#utility.yul\":1877:1942   */\n      tag_326\n      jump\t// in\n    tag_432:\n        /* \"#utility.yul\":1739:1949   */\n      swap3\n      swap2\n      pop\n      pop\n      jump\t// out\n        /* \"#utility.yul\":1955:2067   */\n    tag_327:\n        /* \"#utility.yul\":2020:2026   */\n      0x00\n        /* \"#utility.yul\":2054:2059   */\n      dup2\n        /* \"#utility.yul\":2048:2060   */\n      mload\n        /* \"#utility.yul\":2038:2060   */\n      swap1\n      pop\n        /* \"#utility.yul\":1955:2067   */\n      swap2\n      swap1\n      pop\n      jump\t// out\n        /* \"#utility.yul\":2073:2255   */\n    tag_328:\n        /* \"#utility.yul\":2170:2181   */\n      0x00\n        /* \"#utility.yul\":2204:2210   */\n      dup3\n        /* \"#utility.yul\":2199:2202   */\n      dup3\n        /* \"#utility.yul\":2192:2211   */\n      mstore\n        /* \"#utility.yul\":2244:2248   */\n      0x20\n        /* \"#utility.yul\":2239:2242   */\n      dup3\n        /* \"#utility.yul\":2235:2249   */\n      add\n        /* \"#utility.yul\":2220:2249   */\n      swap1\n      pop\n        /* \"#utility.yul\":2073:2255   */\n      swap3\n      swap2\n      pop\n      pop\n      jump\t// out\n        /* \"#utility.yul\":2261:2391   */\n    tag_329:\n        /* \"#utility.yul\":2326:2330   */\n      0x00\n        /* \"#utility.yul\":2349:2352   */\n      dup2\n        /* \"#utility.yul\":2341:2352   */\n      swap1\n      pop\n        /* \"#utility.yul\":2379:2383   */\n      0x20\n        /* \"#utility.yul\":2374:2377   */\n      dup3\n        /* \"#utility.yul\":2370:2384   */\n      add\n        /* \"#utility.yul\":2362:2384   */\n      swap1\n      pop\n        /* \"#utility.yul\":2261:2391   */\n      swap2\n      swap1\n      pop\n      jump\t// out\n        /* \"#utility.yul\":2397:2483   */\n    tag_330:\n        /* \"#utility.yul\":2432:2439   */\n      0x00\n        /* \"#utility.yul\":2472:2476   */\n      0xff\n        /* \"#utility.yul\":2465:2470   */\n      dup3\n        /* \"#utility.yul\":2461:2477   */\n      and\n        /* \"#utility.yul\":2450:2477   */\n      swap1\n      pop\n        /* \"#utility.yul\":2397:2483   */\n      swap2\n      swap1\n      pop\n      jump\t// out\n        /* \"#utility.yul\":2489:2591   */\n    tag_331:\n        /* \"#utility.yul\":2562:2584   */\n      tag_438\n        /* \"#utility.yul\":2578:2583   */\n      dup2\n        /* \"#utility.yul\":2562:2584   */\n      tag_330\n      jump\t// in\n    tag_438:\n        /* \"#utility.yul\":2557:2560   */\n      dup3\n        /* \"#utility.yul\":2550:2585   */\n      mstore\n        /* \"#utility.yul\":2489:2591   */\n      pop\n      pop\n      jump\t// out\n        /* \"#utility.yul\":2597:2768   */\n    tag_332:\n        /* \"#utility.yul\":2662:2672   */\n      0x00\n        /* \"#utility.yul\":2683:2725   */\n      tag_440\n        /* \"#utility.yul\":2721:2724   */\n      dup4\n        /* \"#utility.yul\":2713:2719   */\n      dup4\n        /* \"#utility.yul\":2683:2725   */\n      tag_331\n      jump\t// in\n    tag_440:\n        /* \"#utility.yul\":2757:2761   */\n      0x20\n        /* \"#utility.yul\":2752:2755   */\n      dup4\n        /* \"#utility.yul\":2748:2762   */\n      add\n        /* \"#utility.yul\":2734:2762   */\n      swap1\n      pop\n        /* \"#utility.yul\":2597:2768   */\n      swap3\n      swap2\n      pop\n      pop\n      jump\t// out\n        /* \"#utility.yul\":2774:2885   */\n    tag_333:\n        /* \"#utility.yul\":2842:2846   */\n      0x00\n        /* \"#utility.yul\":2874:2878   */\n      0x20\n        /* \"#utility.yul\":2869:2872   */\n      dup3\n        /* \"#utility.yul\":2865:2879   */\n      add\n        /* \"#utility.yul\":2857:2879   */\n      swap1\n      pop\n        /* \"#utility.yul\":2774:2885   */\n      swap2\n      swap1\n      pop\n      jump\t// out\n        /* \"#utility.yul\":2917:3633   */\n    tag_334:\n        /* \"#utility.yul\":3032:3035   */\n      0x00\n        /* \"#utility.yul\":3061:3113   */\n      tag_443\n        /* \"#utility.yul\":3107:3112   */\n      dup3\n        /* \"#utility.yul\":3061:3113   */\n      tag_327\n      jump\t// in\n    tag_443:\n        /* \"#utility.yul\":3129:3213   */\n      tag_444\n        /* \"#utility.yul\":3206:3212   */\n      dup2\n        /* \"#utility.yul\":3201:3204   */\n      dup6\n        /* \"#utility.yul\":3129:3213   */\n      tag_328\n      jump\t// in\n    tag_444:\n        /* \"#utility.yul\":3122:3213   */\n      swap4\n      pop\n        /* \"#utility.yul\":3237:3291   */\n      tag_445\n        /* \"#utility.yul\":3285:3290   */\n      dup4\n        /* \"#utility.yul\":3237:3291   */\n      tag_329\n      jump\t// in\n    tag_445:\n        /* \"#utility.yul\":3314:3321   */\n      dup1\n        /* \"#utility.yul\":3345:3346   */\n      0x00\n        /* \"#utility.yul\":3330:3608   */\n    tag_446:\n        /* \"#utility.yul\":3355:3361   */\n      dup4\n        /* \"#utility.yul\":3352:3353   */\n      dup2\n        /* \"#utility.yul\":3349:3362   */\n      lt\n        /* \"#utility.yul\":3330:3608   */\n      iszero\n      tag_448\n      jumpi\n        /* \"#utility.yul\":3431:3437   */\n      dup2\n        /* \"#utility.yul\":3425:3438   */\n      mload\n        /* \"#utility.yul\":3458:3517   */\n      tag_449\n        /* \"#utility.yul\":3513:3516   */\n      dup9\n        /* \"#utility.yul\":3498:3511   */\n      dup3\n        /* \"#utility.yul\":3458:3517   */\n      tag_332\n      jump\t// in\n    tag_449:\n        /* \"#utility.yul\":3451:3517   */\n      swap8\n      pop\n        /* \"#utility.yul\":3540:3598   */\n      tag_450\n        /* \"#utility.yul\":3591:3597   */\n      dup4\n        /* \"#utility.yul\":3540:3598   */\n      tag_333\n      jump\t// in\n    tag_450:\n        /* \"#utility.yul\":3530:3598   */\n      swap3\n      pop\n        /* \"#utility.yul\":3390:3608   */\n      pop\n        /* \"#utility.yul\":3377:3378   */\n      0x01\n        /* \"#utility.yul\":3374:3375   */\n      dup2\n        /* \"#utility.yul\":3370:3379   */\n      add\n        /* \"#utility.yul\":3365:3379   */\n      swap1\n      pop\n        /* \"#utility.yul\":3330:3608   */\n      jump(tag_446)\n    tag_448:\n        /* \"#utility.yul\":3334:3348   */\n      pop\n        /* \"#utility.yul\":3624:3627   */\n      dup6\n        /* \"#utility.yul\":3617:3627   */\n      swap4\n      pop\n        /* \"#utility.yul\":3037:3633   */\n      pop\n      pop\n      pop\n        /* \"#utility.yul\":2917:3633   */\n      swap3\n      swap2\n      pop\n      pop\n      jump\t// out\n        /* \"#utility.yul\":3639:4004   */\n    tag_46:\n        /* \"#utility.yul\":3778:3782   */\n      0x00\n        /* \"#utility.yul\":3816:3818   */\n      0x20\n        /* \"#utility.yul\":3805:3814   */\n      dup3\n        /* \"#utility.yul\":3801:3819   */\n      add\n        /* \"#utility.yul\":3793:3819   */\n      swap1\n      pop\n        /* \"#utility.yul\":3865:3874   */\n      dup2\n        /* \"#utility.yul\":3859:3863   */\n      dup2\n        /* \"#utility.yul\":3855:3875   */\n      sub\n        /* \"#utility.yul\":3851:3852   */\n      0x00\n        /* \"#utility.yul\":3840:3849   */\n      dup4\n        /* \"#utility.yul\":3836:3853   */\n      add\n        /* \"#utility.yul\":3829:3876   */\n      mstore\n        /* \"#utility.yul\":3893:3997   */\n      tag_452\n        /* \"#utility.yul\":3992:3996   */\n      dup2\n        /* \"#utility.yul\":3983:3989   */\n      dup5\n        /* \"#utility.yul\":3893:3997   */\n      tag_334\n      jump\t// in\n    tag_452:\n        /* \"#utility.yul\":3885:3997   */\n      swap1\n      pop\n        /* \"#utility.yul\":3639:4004   */\n      swap3\n      swap2\n      pop\n      pop\n      jump\t// out\n        /* \"#utility.yul\":4010:4128   */\n    tag_335:\n        /* \"#utility.yul\":4081:4103   */\n      tag_454\n        /* \"#utility.yul\":4097:4102   */\n      dup2\n        /* \"#utility.yul\":4081:4103   */\n      tag_330\n      jump\t// in\n    tag_454:\n        /* \"#utility.yul\":4074:4079   */\n      dup2\n        /* \"#utility.yul\":4071:4104   */\n      eq\n        /* \"#utility.yul\":4061:4122   */\n      tag_455\n      jumpi\n        /* \"#utility.yul\":4118:4119   */\n      0x00\n        /* \"#utility.yul\":4115:4116   */\n      dup1\n        /* \"#utility.yul\":4108:4120   */\n      revert\n        /* \"#utility.yul\":4061:4122   */\n    tag_455:\n        /* \"#utility.yul\":4010:4128   */\n      pop\n      jump\t// out\n        /* \"#utility.yul\":4134:4269   */\n    tag_336:\n        /* \"#utility.yul\":4178:4183   */\n      0x00\n        /* \"#utility.yul\":4216:4222   */\n      dup2\n        /* \"#utility.yul\":4203:4223   */\n      calldataload\n        /* \"#utility.yul\":4194:4223   */\n      swap1\n      pop\n        /* \"#utility.yul\":4232:4263   */\n      tag_457\n        /* \"#utility.yul\":4257:4262   */\n      dup2\n        /* \"#utility.yul\":4232:4263   */\n      tag_335\n      jump\t// in\n    tag_457:\n        /* \"#utility.yul\":4134:4269   */\n      swap3\n      swap2\n      pop\n      pop\n      jump\t// out\n        /* \"#utility.yul\":4275:4745   */\n    tag_53:\n        /* \"#utility.yul\":4341:4347   */\n      0x00\n        /* \"#utility.yul\":4349:4355   */\n      dup1\n        /* \"#utility.yul\":4398:4400   */\n      0x40\n        /* \"#utility.yul\":4386:4395   */\n      dup4\n        /* \"#utility.yul\":4377:4384   */\n      dup6\n        /* \"#utility.yul\":4373:4396   */\n      sub\n        /* \"#utility.yul\":4369:4401   */\n      slt\n        /* \"#utility.yul\":4366:4485   */\n      iszero\n      tag_459\n      jumpi\n        /* \"#utility.yul\":4404:4483   */\n      tag_460\n      tag_318\n      jump\t// in\n    tag_460:\n        /* \"#utility.yul\":4366:4485   */\n    tag_459:\n        /* \"#utility.yul\":4524:4525   */\n      0x00\n        /* \"#utility.yul\":4549:4600   */\n      tag_461\n        /* \"#utility.yul\":4592:4599   */\n      dup6\n        /* \"#utility.yul\":4583:4589   */\n      dup3\n        /* \"#utility.yul\":4572:4581   */\n      dup7\n        /* \"#utility.yul\":4568:4590   */\n      add\n        /* \"#utility.yul\":4549:4600   */\n      tag_336\n      jump\t// in\n    tag_461:\n        /* \"#utility.yul\":4539:4600   */\n      swap3\n      pop\n        /* \"#utility.yul\":4495:4610   */\n      pop\n        /* \"#utility.yul\":4649:4651   */\n      0x20\n        /* \"#utility.yul\":4675:4728   */\n      tag_462\n        /* \"#utility.yul\":4720:4727   */\n      dup6\n        /* \"#utility.yul\":4711:4717   */\n      dup3\n        /* \"#utility.yul\":4700:4709   */\n      dup7\n        /* \"#utility.yul\":4696:4718   */\n      add\n        /* \"#utility.yul\":4675:4728   */\n      tag_323\n      jump\t// in\n    tag_462:\n        /* \"#utility.yul\":4665:4728   */\n      swap2\n      pop\n        /* \"#utility.yul\":4620:4738   */\n      pop\n        /* \"#utility.yul\":4275:4745   */\n      swap3\n      pop\n      swap3\n      swap1\n      pop\n      jump\t// out\n        /* \"#utility.yul\":4751:4868   */\n    tag_337:\n        /* \"#utility.yul\":4860:4861   */\n      0x00\n        /* \"#utility.yul\":4857:4858   */\n      dup1\n        /* \"#utility.yul\":4850:4862   */\n      revert\n        /* \"#utility.yul\":4874:4991   */\n    tag_338:\n        /* \"#utility.yul\":4983:4984   */\n      0x00\n        /* \"#utility.yul\":4980:4981   */\n      dup1\n        /* \"#utility.yul\":4973:4985   */\n      revert\n        /* \"#utility.yul\":4997:5114   */\n    tag_339:\n        /* \"#utility.yul\":5106:5107   */\n      0x00\n        /* \"#utility.yul\":5103:5104   */\n      dup1\n        /* \"#utility.yul\":5096:5108   */\n      revert\n        /* \"#utility.yul\":5134:5687   */\n    tag_340:\n        /* \"#utility.yul\":5192:5200   */\n      0x00\n        /* \"#utility.yul\":5202:5208   */\n      dup1\n        /* \"#utility.yul\":5252:5255   */\n      dup4\n        /* \"#utility.yul\":5245:5249   */\n      0x1f\n        /* \"#utility.yul\":5237:5243   */\n      dup5\n        /* \"#utility.yul\":5233:5250   */\n      add\n        /* \"#utility.yul\":5229:5256   */\n      slt\n        /* \"#utility.yul\":5219:5341   */\n      tag_467\n      jumpi\n        /* \"#utility.yul\":5260:5339   */\n      tag_468\n      tag_337\n      jump\t// in\n    tag_468:\n        /* \"#utility.yul\":5219:5341   */\n    tag_467:\n        /* \"#utility.yul\":5373:5379   */\n      dup3\n        /* \"#utility.yul\":5360:5380   */\n      calldataload\n        /* \"#utility.yul\":5350:5380   */\n      swap1\n      pop\n        /* \"#utility.yul\":5403:5421   */\n      0xffffffffffffffff\n        /* \"#utility.yul\":5395:5401   */\n      dup2\n        /* \"#utility.yul\":5392:5422   */\n      gt\n        /* \"#utility.yul\":5389:5506   */\n      iszero\n      tag_469\n      jumpi\n        /* \"#utility.yul\":5425:5504   */\n      tag_470\n      tag_338\n      jump\t// in\n    tag_470:\n        /* \"#utility.yul\":5389:5506   */\n    tag_469:\n        /* \"#utility.yul\":5539:5543   */\n      0x20\n        /* \"#utility.yul\":5531:5537   */\n      dup4\n        /* \"#utility.yul\":5527:5544   */\n      add\n        /* \"#utility.yul\":5515:5544   */\n      swap2\n      pop\n        /* \"#utility.yul\":5593:5596   */\n      dup4\n        /* \"#utility.yul\":5585:5589   */\n      0x01\n        /* \"#utility.yul\":5577:5583   */\n      dup3\n        /* \"#utility.yul\":5573:5590   */\n      mul\n        /* \"#utility.yul\":5563:5571   */\n      dup4\n        /* \"#utility.yul\":5559:5591   */\n      add\n        /* \"#utility.yul\":5556:5597   */\n      gt\n        /* \"#utility.yul\":5553:5681   */\n      iszero\n      tag_471\n      jumpi\n        /* \"#utility.yul\":5600:5679   */\n      tag_472\n      tag_339\n      jump\t// in\n    tag_472:\n        /* \"#utility.yul\":5553:5681   */\n    tag_471:\n        /* \"#utility.yul\":5134:5687   */\n      swap3\n      pop\n      swap3\n      swap1\n      pop\n      jump\t// out\n        /* \"#utility.yul\":5693:6567   */\n    tag_57:\n        /* \"#utility.yul\":5785:5791   */\n      0x00\n        /* \"#utility.yul\":5793:5799   */\n      dup1\n        /* \"#utility.yul\":5801:5807   */\n      0x00\n        /* \"#utility.yul\":5809:5815   */\n      dup1\n        /* \"#utility.yul\":5858:5860   */\n      0x40\n        /* \"#utility.yul\":5846:5855   */\n      dup6\n        /* \"#utility.yul\":5837:5844   */\n      dup8\n        /* \"#utility.yul\":5833:5856   */\n      sub\n        /* \"#utility.yul\":5829:5861   */\n      slt\n        /* \"#utility.yul\":5826:5945   */\n      iszero\n      tag_474\n      jumpi\n        /* \"#utility.yul\":5864:5943   */\n      tag_475\n      tag_318\n      jump\t// in\n    tag_475:\n        /* \"#utility.yul\":5826:5945   */\n    tag_474:\n        /* \"#utility.yul\":6012:6013   */\n      0x00\n        /* \"#utility.yul\":6001:6010   */\n      dup6\n        /* \"#utility.yul\":5997:6014   */\n      add\n        /* \"#utility.yul\":5984:6015   */\n      calldataload\n        /* \"#utility.yul\":6042:6060   */\n      0xffffffffffffffff\n        /* \"#utility.yul\":6034:6040   */\n      dup2\n        /* \"#utility.yul\":6031:6061   */\n      gt\n        /* \"#utility.yul\":6028:6145   */\n      iszero\n      tag_476\n      jumpi\n        /* \"#utility.yul\":6064:6143   */\n      tag_477\n      tag_319\n      jump\t// in\n    tag_477:\n        /* \"#utility.yul\":6028:6145   */\n    tag_476:\n        /* \"#utility.yul\":6177:6242   */\n      tag_478\n        /* \"#utility.yul\":6234:6241   */\n      dup8\n        /* \"#utility.yul\":6225:6231   */\n      dup3\n        /* \"#utility.yul\":6214:6223   */\n      dup9\n        /* \"#utility.yul\":6210:6232   */\n      add\n        /* \"#utility.yul\":6177:6242   */\n      tag_340\n      jump\t// in\n    tag_478:\n        /* \"#utility.yul\":6159:6242   */\n      swap5\n      pop\n      swap5\n      pop\n        /* \"#utility.yul\":5955:6252   */\n      pop\n        /* \"#utility.yul\":6319:6321   */\n      0x20\n        /* \"#utility.yul\":6308:6317   */\n      dup6\n        /* \"#utility.yul\":6304:6322   */\n      add\n        /* \"#utility.yul\":6291:6323   */\n      calldataload\n        /* \"#utility.yul\":6350:6368   */\n      0xffffffffffffffff\n        /* \"#utility.yul\":6342:6348   */\n      dup2\n        /* \"#utility.yul\":6339:6369   */\n      gt\n        /* \"#utility.yul\":6336:6453   */\n      iszero\n      tag_479\n      jumpi\n        /* \"#utility.yul\":6372:6451   */\n      tag_480\n      tag_319\n      jump\t// in\n    tag_480:\n        /* \"#utility.yul\":6336:6453   */\n    tag_479:\n        /* \"#utility.yul\":6485:6550   */\n      tag_481\n        /* \"#utility.yul\":6542:6549   */\n      dup8\n        /* \"#utility.yul\":6533:6539   */\n      dup3\n        /* \"#utility.yul\":6522:6531   */\n      dup9\n        /* \"#utility.yul\":6518:6540   */\n      add\n        /* \"#utility.yul\":6485:6550   */\n      tag_340\n      jump\t// in\n    tag_481:\n        /* \"#utility.yul\":6467:6550   */\n      swap3\n      pop\n      swap3\n      pop\n        /* \"#utility.yul\":6262:6560   */\n      pop\n        /* \"#utility.yul\":5693:6567   */\n      swap3\n      swap6\n      swap2\n      swap5\n      pop\n      swap3\n      pop\n      jump\t// out\n        /* \"#utility.yul\":6573:6689   */\n    tag_341:\n        /* \"#utility.yul\":6643:6664   */\n      tag_483\n        /* \"#utility.yul\":6658:6663   */\n      dup2\n        /* \"#utility.yul\":6643:6664   */\n      tag_325\n      jump\t// in\n    tag_483:\n        /* \"#utility.yul\":6636:6641   */\n      dup2\n        /* \"#utility.yul\":6633:6665   */\n      eq\n        /* \"#utility.yul\":6623:6683   */\n      tag_484\n      jumpi\n        /* \"#utility.yul\":6679:6680   */\n      0x00\n        /* \"#utility.yul\":6676:6677   */\n      dup1\n        /* \"#utility.yul\":6669:6681   */\n      revert\n        /* \"#utility.yul\":6623:6683   */\n    tag_484:\n        /* \"#utility.yul\":6573:6689   */\n      pop\n      jump\t// out\n        /* \"#utility.yul\":6695:6828   */\n    tag_342:\n        /* \"#utility.yul\":6738:6743   */\n      0x00\n        /* \"#utility.yul\":6776:6782   */\n      dup2\n        /* \"#utility.yul\":6763:6783   */\n      calldataload\n        /* \"#utility.yul\":6754:6783   */\n      swap1\n      pop\n        /* \"#utility.yul\":6792:6822   */\n      tag_486\n        /* \"#utility.yul\":6816:6821   */\n      dup2\n        /* \"#utility.yul\":6792:6822   */\n      tag_341\n      jump\t// in\n    tag_486:\n        /* \"#utility.yul\":6695:6828   */\n      swap3\n      swap2\n      pop\n      pop\n      jump\t// out\n        /* \"#utility.yul\":6834:7302   */\n    tag_61:\n        /* \"#utility.yul\":6899:6905   */\n      0x00\n        /* \"#utility.yul\":6907:6913   */\n      dup1\n        /* \"#utility.yul\":6956:6958   */\n      0x40\n        /* \"#utility.yul\":6944:6953   */\n      dup4\n        /* \"#utility.yul\":6935:6942   */\n      dup6\n        /* \"#utility.yul\":6931:6954   */\n      sub\n        /* \"#utility.yul\":6927:6959   */\n      slt\n        /* \"#utility.yul\":6924:7043   */\n      iszero\n      tag_488\n      jumpi\n        /* \"#utility.yul\":6962:7041   */\n      tag_489\n      tag_318\n      jump\t// in\n    tag_489:\n        /* \"#utility.yul\":6924:7043   */\n    tag_488:\n        /* \"#utility.yul\":7082:7083   */\n      0x00\n        /* \"#utility.yul\":7107:7160   */\n      tag_490\n        /* \"#utility.yul\":7152:7159   */\n      dup6\n        /* \"#utility.yul\":7143:7149   */\n      dup3\n        /* \"#utility.yul\":7132:7141   */\n      dup7\n        /* \"#utility.yul\":7128:7150   */\n      add\n        /* \"#utility.yul\":7107:7160   */\n      tag_323\n      jump\t// in\n    tag_490:\n        /* \"#utility.yul\":7097:7160   */\n      swap3\n      pop\n        /* \"#utility.yul\":7053:7170   */\n      pop\n        /* \"#utility.yul\":7209:7211   */\n      0x20\n        /* \"#utility.yul\":7235:7285   */\n      tag_491\n        /* \"#utility.yul\":7277:7284   */\n      dup6\n        /* \"#utility.yul\":7268:7274   */\n      dup3\n        /* \"#utility.yul\":7257:7266   */\n      dup7\n        /* \"#utility.yul\":7253:7275   */\n      add\n        /* \"#utility.yul\":7235:7285   */\n      tag_342\n      jump\t// in\n    tag_491:\n        /* \"#utility.yul\":7225:7285   */\n      swap2\n      pop\n        /* \"#utility.yul\":7180:7295   */\n      pop\n        /* \"#utility.yul\":6834:7302   */\n      swap3\n      pop\n      swap3\n      swap1\n      pop\n      jump\t// out\n        /* \"#utility.yul\":7308:7778   */\n    tag_71:\n        /* \"#utility.yul\":7374:7380   */\n      0x00\n        /* \"#utility.yul\":7382:7388   */\n      dup1\n        /* \"#utility.yul\":7431:7433   */\n      0x40\n        /* \"#utility.yul\":7419:7428   */\n      dup4\n        /* \"#utility.yul\":7410:7417   */\n      dup6\n        /* \"#utility.yul\":7406:7429   */\n      sub\n        /* \"#utility.yul\":7402:7434   */\n      slt\n        /* \"#utility.yul\":7399:7518   */\n      iszero\n      tag_493\n      jumpi\n        /* \"#utility.yul\":7437:7516   */\n      tag_494\n      tag_318\n      jump\t// in\n    tag_494:\n        /* \"#utility.yul\":7399:7518   */\n    tag_493:\n        /* \"#utility.yul\":7557:7558   */\n      0x00\n        /* \"#utility.yul\":7582:7635   */\n      tag_495\n        /* \"#utility.yul\":7627:7634   */\n      dup6\n        /* \"#utility.yul\":7618:7624   */\n      dup3\n        /* \"#utility.yul\":7607:7616   */\n      dup7\n        /* \"#utility.yul\":7603:7625   */\n      add\n        /* \"#utility.yul\":7582:7635   */\n      tag_323\n      jump\t// in\n    tag_495:\n        /* \"#utility.yul\":7572:7635   */\n      swap3\n      pop\n        /* \"#utility.yul\":7528:7645   */\n      pop\n        /* \"#utility.yul\":7684:7686   */\n      0x20\n        /* \"#utility.yul\":7710:7761   */\n      tag_496\n        /* \"#utility.yul\":7753:7760   */\n      dup6\n        /* \"#utility.yul\":7744:7750   */\n      dup3\n        /* \"#utility.yul\":7733:7742   */\n      dup7\n        /* \"#utility.yul\":7729:7751   */\n      add\n        /* \"#utility.yul\":7710:7761   */\n      tag_336\n      jump\t// in\n    tag_496:\n        /* \"#utility.yul\":7700:7761   */\n      swap2\n      pop\n        /* \"#utility.yul\":7655:7771   */\n      pop\n        /* \"#utility.yul\":7308:7778   */\n      swap3\n      pop\n      swap3\n      swap1\n      pop\n      jump\t// out\n        /* \"#utility.yul\":7784:7883   */\n    tag_343:\n        /* \"#utility.yul\":7836:7842   */\n      0x00\n        /* \"#utility.yul\":7870:7875   */\n      dup2\n        /* \"#utility.yul\":7864:7876   */\n      mload\n        /* \"#utility.yul\":7854:7876   */\n      swap1\n      pop\n        /* \"#utility.yul\":7784:7883   */\n      swap2\n      swap1\n      pop\n      jump\t// out\n        /* \"#utility.yul\":7889:8058   */\n    tag_344:\n        /* \"#utility.yul\":7973:7984   */\n      0x00\n        /* \"#utility.yul\":8007:8013   */\n      dup3\n        /* \"#utility.yul\":8002:8005   */\n      dup3\n        /* \"#utility.yul\":7995:8014   */\n      mstore\n        /* \"#utility.yul\":8047:8051   */\n      0x20\n        /* \"#utility.yul\":8042:8045   */\n      dup3\n        /* \"#utility.yul\":8038:8052   */\n      add\n        /* \"#utility.yul\":8023:8052   */\n      swap1\n      pop\n        /* \"#utility.yul\":7889:8058   */\n      swap3\n      swap2\n      pop\n      pop\n      jump\t// out\n        /* \"#utility.yul\":8064:8310   */\n    tag_345:\n        /* \"#utility.yul\":8145:8146   */\n      0x00\n        /* \"#utility.yul\":8155:8268   */\n    tag_500:\n        /* \"#utility.yul\":8169:8175   */\n      dup4\n        /* \"#utility.yul\":8166:8167   */\n      dup2\n        /* \"#utility.yul\":8163:8176   */\n      lt\n        /* \"#utility.yul\":8155:8268   */\n      iszero\n      tag_502\n      jumpi\n        /* \"#utility.yul\":8254:8255   */\n      dup1\n        /* \"#utility.yul\":8249:8252   */\n      dup3\n        /* \"#utility.yul\":8245:8256   */\n      add\n        /* \"#utility.yul\":8239:8257   */\n      mload\n        /* \"#utility.yul\":8235:8236   */\n      dup2\n        /* \"#utility.yul\":8230:8233   */\n      dup5\n        /* \"#utility.yul\":8226:8237   */\n      add\n        /* \"#utility.yul\":8219:8258   */\n      mstore\n        /* \"#utility.yul\":8191:8193   */\n      0x20\n        /* \"#utility.yul\":8188:8189   */\n      dup2\n        /* \"#utility.yul\":8184:8194   */\n      add\n        /* \"#utility.yul\":8179:8194   */\n      swap1\n      pop\n        /* \"#utility.yul\":8155:8268   */\n      jump(tag_500)\n    tag_502:\n        /* \"#utility.yul\":8302:8303   */\n      0x00\n        /* \"#utility.yul\":8293:8299   */\n      dup5\n        /* \"#utility.yul\":8288:8291   */\n      dup5\n        /* \"#utility.yul\":8284:8300   */\n      add\n        /* \"#utility.yul\":8277:8304   */\n      mstore\n        /* \"#utility.yul\":8126:8310   */\n      pop\n        /* \"#utility.yul\":8064:8310   */\n      pop\n      pop\n      pop\n      jump\t// out\n        /* \"#utility.yul\":8316:8418   */\n    tag_346:\n        /* \"#utility.yul\":8357:8363   */\n      0x00\n        /* \"#utility.yul\":8408:8410   */\n      0x1f\n        /* \"#utility.yul\":8404:8411   */\n      not\n        /* \"#utility.yul\":8399:8401   */\n      0x1f\n        /* \"#utility.yul\":8392:8397   */\n      dup4\n        /* \"#utility.yul\":8388:8402   */\n      add\n        /* \"#utility.yul\":8384:8412   */\n      and\n        /* \"#utility.yul\":8374:8412   */\n      swap1\n      pop\n        /* \"#utility.yul\":8316:8418   */\n      swap2\n      swap1\n      pop\n      jump\t// out\n        /* \"#utility.yul\":8424:8801   */\n    tag_347:\n        /* \"#utility.yul\":8512:8515   */\n      0x00\n        /* \"#utility.yul\":8540:8579   */\n      tag_505\n        /* \"#utility.yul\":8573:8578   */\n      dup3\n        /* \"#utility.yul\":8540:8579   */\n      tag_343\n      jump\t// in\n    tag_505:\n        /* \"#utility.yul\":8595:8666   */\n      tag_506\n        /* \"#utility.yul\":8659:8665   */\n      dup2\n        /* \"#utility.yul\":8654:8657   */\n      dup6\n        /* \"#utility.yul\":8595:8666   */\n      tag_344\n      jump\t// in\n    tag_506:\n        /* \"#utility.yul\":8588:8666   */\n      swap4\n      pop\n        /* \"#utility.yul\":8675:8740   */\n      tag_507\n        /* \"#utility.yul\":8733:8739   */\n      dup2\n        /* \"#utility.yul\":8728:8731   */\n      dup6\n        /* \"#utility.yul\":8721:8725   */\n      0x20\n        /* \"#utility.yul\":8714:8719   */\n      dup7\n        /* \"#utility.yul\":8710:8726   */\n      add\n        /* \"#utility.yul\":8675:8740   */\n      tag_345\n      jump\t// in\n    tag_507:\n        /* \"#utility.yul\":8765:8794   */\n      tag_508\n        /* \"#utility.yul\":8787:8793   */\n      dup2\n        /* \"#utility.yul\":8765:8794   */\n      tag_346\n      jump\t// in\n    tag_508:\n        /* \"#utility.yul\":8760:8763   */\n      dup5\n        /* \"#utility.yul\":8756:8795   */\n      add\n        /* \"#utility.yul\":8749:8795   */\n      swap2\n      pop\n        /* \"#utility.yul\":8516:8801   */\n      pop\n        /* \"#utility.yul\":8424:8801   */\n      swap3\n      swap2\n      pop\n      pop\n      jump\t// out\n        /* \"#utility.yul\":8807:8919   */\n    tag_348:\n        /* \"#utility.yul\":8890:8912   */\n      tag_510\n        /* \"#utility.yul\":8906:8911   */\n      dup2\n        /* \"#utility.yul\":8890:8912   */\n      tag_330\n      jump\t// in\n    tag_510:\n        /* \"#utility.yul\":8885:8888   */\n      dup3\n        /* \"#utility.yul\":8878:8913   */\n      mstore\n        /* \"#utility.yul\":8807:8919   */\n      pop\n      pop\n      jump\t// out\n        /* \"#utility.yul\":8925:9002   */\n    tag_349:\n        /* \"#utility.yul\":8962:8969   */\n      0x00\n        /* \"#utility.yul\":8991:8996   */\n      dup2\n        /* \"#utility.yul\":8980:8996   */\n      swap1\n      pop\n        /* \"#utility.yul\":8925:9002   */\n      swap2\n      swap1\n      pop\n      jump\t// out\n        /* \"#utility.yul\":9008:9126   */\n    tag_350:\n        /* \"#utility.yul\":9095:9119   */\n      tag_513\n        /* \"#utility.yul\":9113:9118   */\n      dup2\n        /* \"#utility.yul\":9095:9119   */\n      tag_349\n      jump\t// in\n    tag_513:\n        /* \"#utility.yul\":9090:9093   */\n      dup3\n        /* \"#utility.yul\":9083:9120   */\n      mstore\n        /* \"#utility.yul\":9008:9126   */\n      pop\n      pop\n      jump\t// out\n        /* \"#utility.yul\":9132:9871   */\n    tag_74:\n        /* \"#utility.yul\":9349:9353   */\n      0x00\n        /* \"#utility.yul\":9387:9390   */\n      0xa0\n        /* \"#utility.yul\":9376:9385   */\n      dup3\n        /* \"#utility.yul\":9372:9391   */\n      add\n        /* \"#utility.yul\":9364:9391   */\n      swap1\n      pop\n        /* \"#utility.yul\":9401:9472   */\n      tag_515\n        /* \"#utility.yul\":9469:9470   */\n      0x00\n        /* \"#utility.yul\":9458:9467   */\n      dup4\n        /* \"#utility.yul\":9454:9471   */\n      add\n        /* \"#utility.yul\":9445:9451   */\n      dup9\n        /* \"#utility.yul\":9401:9472   */\n      tag_324\n      jump\t// in\n    tag_515:\n        /* \"#utility.yul\":9519:9528   */\n      dup2\n        /* \"#utility.yul\":9513:9517   */\n      dup2\n        /* \"#utility.yul\":9509:9529   */\n      sub\n        /* \"#utility.yul\":9504:9506   */\n      0x20\n        /* \"#utility.yul\":9493:9502   */\n      dup4\n        /* \"#utility.yul\":9489:9507   */\n      add\n        /* \"#utility.yul\":9482:9530   */\n      mstore\n        /* \"#utility.yul\":9547:9625   */\n      tag_516\n        /* \"#utility.yul\":9620:9624   */\n      dup2\n        /* \"#utility.yul\":9611:9617   */\n      dup8\n        /* \"#utility.yul\":9547:9625   */\n      tag_347\n      jump\t// in\n    tag_516:\n        /* \"#utility.yul\":9539:9625   */\n      swap1\n      pop\n        /* \"#utility.yul\":9635:9703   */\n      tag_517\n        /* \"#utility.yul\":9699:9701   */\n      0x40\n        /* \"#utility.yul\":9688:9697   */\n      dup4\n        /* \"#utility.yul\":9684:9702   */\n      add\n        /* \"#utility.yul\":9675:9681   */\n      dup7\n        /* \"#utility.yul\":9635:9703   */\n      tag_348\n      jump\t// in\n    tag_517:\n        /* \"#utility.yul\":9713:9781   */\n      tag_518\n        /* \"#utility.yul\":9777:9779   */\n      0x60\n        /* \"#utility.yul\":9766:9775   */\n      dup4\n        /* \"#utility.yul\":9762:9780   */\n      add\n        /* \"#utility.yul\":9753:9759   */\n      dup6\n        /* \"#utility.yul\":9713:9781   */\n      tag_348\n      jump\t// in\n    tag_518:\n        /* \"#utility.yul\":9791:9864   */\n      tag_519\n        /* \"#utility.yul\":9859:9862   */\n      0x80\n        /* \"#utility.yul\":9848:9857   */\n      dup4\n        /* \"#utility.yul\":9844:9863   */\n      add\n        /* \"#utility.yul\":9835:9841   */\n      dup5\n        /* \"#utility.yul\":9791:9864   */\n      tag_350\n      jump\t// in\n    tag_519:\n        /* \"#utility.yul\":9132:9871   */\n      swap7\n      swap6\n      pop\n      pop\n      pop\n      pop\n      pop\n      pop\n      jump\t// out\n        /* \"#utility.yul\":9877:10202   */\n    tag_77:\n        /* \"#utility.yul\":9934:9940   */\n      0x00\n        /* \"#utility.yul\":9983:9985   */\n      0x20\n        /* \"#utility.yul\":9971:9980   */\n      dup3\n        /* \"#utility.yul\":9962:9969   */\n      dup5\n        /* \"#utility.yul\":9958:9981   */\n      sub\n        /* \"#utility.yul\":9954:9986   */\n      slt\n        /* \"#utility.yul\":9951:10070   */\n      iszero\n      tag_521\n      jumpi\n        /* \"#utility.yul\":9989:10068   */\n      tag_522\n      tag_318\n      jump\t// in\n    tag_522:\n        /* \"#utility.yul\":9951:10070   */\n    tag_521:\n        /* \"#utility.yul\":10109:10110   */\n      0x00\n        /* \"#utility.yul\":10134:10185   */\n      tag_523\n        /* \"#utility.yul\":10177:10184   */\n      dup5\n        /* \"#utility.yul\":10168:10174   */\n      dup3\n        /* \"#utility.yul\":10157:10166   */\n      dup6\n        /* \"#utility.yul\":10153:10175   */\n      add\n        /* \"#utility.yul\":10134:10185   */\n      tag_336\n      jump\t// in\n    tag_523:\n        /* \"#utility.yul\":10124:10185   */\n      swap2\n      pop\n        /* \"#utility.yul\":10080:10195   */\n      pop\n        /* \"#utility.yul\":9877:10202   */\n      swap3\n      swap2\n      pop\n      pop\n      jump\t// out\n        /* \"#utility.yul\":10208:10521   */\n    tag_83:\n        /* \"#utility.yul\":10321:10325   */\n      0x00\n        /* \"#utility.yul\":10359:10361   */\n      0x20\n        /* \"#utility.yul\":10348:10357   */\n      dup3\n        /* \"#utility.yul\":10344:10362   */\n      add\n        /* \"#utility.yul\":10336:10362   */\n      swap1\n      pop\n        /* \"#utility.yul\":10408:10417   */\n      dup2\n        /* \"#utility.yul\":10402:10406   */\n      dup2\n        /* \"#utility.yul\":10398:10418   */\n      sub\n        /* \"#utility.yul\":10394:10395   */\n      0x00\n        /* \"#utility.yul\":10383:10392   */\n      dup4\n        /* \"#utility.yul\":10379:10396   */\n      add\n        /* \"#utility.yul\":10372:10419   */\n      mstore\n        /* \"#utility.yul\":10436:10514   */\n      tag_525\n        /* \"#utility.yul\":10509:10513   */\n      dup2\n        /* \"#utility.yul\":10500:10506   */\n      dup5\n        /* \"#utility.yul\":10436:10514   */\n      tag_347\n      jump\t// in\n    tag_525:\n        /* \"#utility.yul\":10428:10514   */\n      swap1\n      pop\n        /* \"#utility.yul\":10208:10521   */\n      swap3\n      swap2\n      pop\n      pop\n      jump\t// out\n        /* \"#utility.yul\":10527:10604   */\n    tag_351:\n        /* \"#utility.yul\":10564:10571   */\n      0x00\n        /* \"#utility.yul\":10593:10598   */\n      dup2\n        /* \"#utility.yul\":10582:10598   */\n      swap1\n      pop\n        /* \"#utility.yul\":10527:10604   */\n      swap2\n      swap1\n      pop\n      jump\t// out\n        /* \"#utility.yul\":10610:10732   */\n    tag_352:\n        /* \"#utility.yul\":10683:10707   */\n      tag_528\n        /* \"#utility.yul\":10701:10706   */\n      dup2\n        /* \"#utility.yul\":10683:10707   */\n      tag_351\n      jump\t// in\n    tag_528:\n        /* \"#utility.yul\":10676:10681   */\n      dup2\n        /* \"#utility.yul\":10673:10708   */\n      eq\n        /* \"#utility.yul\":10663:10726   */\n      tag_529\n      jumpi\n        /* \"#utility.yul\":10722:10723   */\n      0x00\n        /* \"#utility.yul\":10719:10720   */\n      dup1\n        /* \"#utility.yul\":10712:10724   */\n      revert\n        /* \"#utility.yul\":10663:10726   */\n    tag_529:\n        /* \"#utility.yul\":10610:10732   */\n      pop\n      jump\t// out\n        /* \"#utility.yul\":10738:10877   */\n    tag_353:\n        /* \"#utility.yul\":10784:10789   */\n      0x00\n        /* \"#utility.yul\":10822:10828   */\n      dup2\n        /* \"#utility.yul\":10809:10829   */\n      calldataload\n        /* \"#utility.yul\":10800:10829   */\n      swap1\n      pop\n        /* \"#utility.yul\":10838:10871   */\n      tag_531\n        /* \"#utility.yul\":10865:10870   */\n      dup2\n        /* \"#utility.yul\":10838:10871   */\n      tag_352\n      jump\t// in\n    tag_531:\n        /* \"#utility.yul\":10738:10877   */\n      swap3\n      swap2\n      pop\n      pop\n      jump\t// out\n        /* \"#utility.yul\":10883:11212   */\n    tag_94:\n        /* \"#utility.yul\":10942:10948   */\n      0x00\n        /* \"#utility.yul\":10991:10993   */\n      0x20\n        /* \"#utility.yul\":10979:10988   */\n      dup3\n        /* \"#utility.yul\":10970:10977   */\n      dup5\n        /* \"#utility.yul\":10966:10989   */\n      sub\n        /* \"#utility.yul\":10962:10994   */\n      slt\n        /* \"#utility.yul\":10959:11078   */\n      iszero\n      tag_533\n      jumpi\n        /* \"#utility.yul\":10997:11076   */\n      tag_534\n      tag_318\n      jump\t// in\n    tag_534:\n        /* \"#utility.yul\":10959:11078   */\n    tag_533:\n        /* \"#utility.yul\":11117:11118   */\n      0x00\n        /* \"#utility.yul\":11142:11195   */\n      tag_535\n        /* \"#utility.yul\":11187:11194   */\n      dup5\n        /* \"#utility.yul\":11178:11184   */\n      dup3\n        /* \"#utility.yul\":11167:11176   */\n      dup6\n        /* \"#utility.yul\":11163:11185   */\n      add\n        /* \"#utility.yul\":11142:11195   */\n      tag_353\n      jump\t// in\n    tag_535:\n        /* \"#utility.yul\":11132:11195   */\n      swap2\n      pop\n        /* \"#utility.yul\":11088:11205   */\n      pop\n        /* \"#utility.yul\":10883:11212   */\n      swap3\n      swap2\n      pop\n      pop\n      jump\t// out\n        /* \"#utility.yul\":11218:11332   */\n    tag_354:\n        /* \"#utility.yul\":11285:11291   */\n      0x00\n        /* \"#utility.yul\":11319:11324   */\n      dup2\n        /* \"#utility.yul\":11313:11325   */\n      mload\n        /* \"#utility.yul\":11303:11325   */\n      swap1\n      pop\n        /* \"#utility.yul\":11218:11332   */\n      swap2\n      swap1\n      pop\n      jump\t// out\n        /* \"#utility.yul\":11338:11522   */\n    tag_355:\n        /* \"#utility.yul\":11437:11448   */\n      0x00\n        /* \"#utility.yul\":11471:11477   */\n      dup3\n        /* \"#utility.yul\":11466:11469   */\n      dup3\n        /* \"#utility.yul\":11459:11478   */\n      mstore\n        /* \"#utility.yul\":11511:11515   */\n      0x20\n        /* \"#utility.yul\":11506:11509   */\n      dup3\n        /* \"#utility.yul\":11502:11516   */\n      add\n        /* \"#utility.yul\":11487:11516   */\n      swap1\n      pop\n        /* \"#utility.yul\":11338:11522   */\n      swap3\n      swap2\n      pop\n      pop\n      jump\t// out\n        /* \"#utility.yul\":11528:11660   */\n    tag_356:\n        /* \"#utility.yul\":11595:11599   */\n      0x00\n        /* \"#utility.yul\":11618:11621   */\n      dup2\n        /* \"#utility.yul\":11610:11621   */\n      swap1\n      pop\n        /* \"#utility.yul\":11648:11652   */\n      0x20\n        /* \"#utility.yul\":11643:11646   */\n      dup3\n        /* \"#utility.yul\":11639:11653   */\n      add\n        /* \"#utility.yul\":11631:11653   */\n      swap1\n      pop\n        /* \"#utility.yul\":11528:11660   */\n      swap2\n      swap1\n      pop\n      jump\t// out\n        /* \"#utility.yul\":11666:11774   */\n    tag_357:\n        /* \"#utility.yul\":11743:11767   */\n      tag_540\n        /* \"#utility.yul\":11761:11766   */\n      dup2\n        /* \"#utility.yul\":11743:11767   */\n      tag_321\n      jump\t// in\n    tag_540:\n        /* \"#utility.yul\":11738:11741   */\n      dup3\n        /* \"#utility.yul\":11731:11768   */\n      mstore\n        /* \"#utility.yul\":11666:11774   */\n      pop\n      pop\n      jump\t// out\n        /* \"#utility.yul\":11780:11959   */\n    tag_358:\n        /* \"#utility.yul\":11849:11859   */\n      0x00\n        /* \"#utility.yul\":11870:11916   */\n      tag_542\n        /* \"#utility.yul\":11912:11915   */\n      dup4\n        /* \"#utility.yul\":11904:11910   */\n      dup4\n        /* \"#utility.yul\":11870:11916   */\n      tag_357\n      jump\t// in\n    tag_542:\n        /* \"#utility.yul\":11948:11952   */\n      0x20\n        /* \"#utility.yul\":11943:11946   */\n      dup4\n        /* \"#utility.yul\":11939:11953   */\n      add\n        /* \"#utility.yul\":11925:11953   */\n      swap1\n      pop\n        /* \"#utility.yul\":11780:11959   */\n      swap3\n      swap2\n      pop\n      pop\n      jump\t// out\n        /* \"#utility.yul\":11965:12078   */\n    tag_359:\n        /* \"#utility.yul\":12035:12039   */\n      0x00\n        /* \"#utility.yul\":12067:12071   */\n      0x20\n        /* \"#utility.yul\":12062:12065   */\n      dup3\n        /* \"#utility.yul\":12058:12072   */\n      add\n        /* \"#utility.yul\":12050:12072   */\n      swap1\n      pop\n        /* \"#utility.yul\":11965:12078   */\n      swap2\n      swap1\n      pop\n      jump\t// out\n        /* \"#utility.yul\":12114:12846   */\n    tag_360:\n        /* \"#utility.yul\":12233:12236   */\n      0x00\n        /* \"#utility.yul\":12262:12316   */\n      tag_545\n        /* \"#utility.yul\":12310:12315   */\n      dup3\n        /* \"#utility.yul\":12262:12316   */\n      tag_354\n      jump\t// in\n    tag_545:\n        /* \"#utility.yul\":12332:12418   */\n      tag_546\n        /* \"#utility.yul\":12411:12417   */\n      dup2\n        /* \"#utility.yul\":12406:12409   */\n      dup6\n        /* \"#utility.yul\":12332:12418   */\n      tag_355\n      jump\t// in\n    tag_546:\n        /* \"#utility.yul\":12325:12418   */\n      swap4\n      pop\n        /* \"#utility.yul\":12442:12498   */\n      tag_547\n        /* \"#utility.yul\":12492:12497   */\n      dup4\n        /* \"#utility.yul\":12442:12498   */\n      tag_356\n      jump\t// in\n    tag_547:\n        /* \"#utility.yul\":12521:12528   */\n      dup1\n        /* \"#utility.yul\":12552:12553   */\n      0x00\n        /* \"#utility.yul\":12537:12821   */\n    tag_548:\n        /* \"#utility.yul\":12562:12568   */\n      dup4\n        /* \"#utility.yul\":12559:12560   */\n      dup2\n        /* \"#utility.yul\":12556:12569   */\n      lt\n        /* \"#utility.yul\":12537:12821   */\n      iszero\n      tag_550\n      jumpi\n        /* \"#utility.yul\":12638:12644   */\n      dup2\n        /* \"#utility.yul\":12632:12645   */\n      mload\n        /* \"#utility.yul\":12665:12728   */\n      tag_551\n        /* \"#utility.yul\":12724:12727   */\n      dup9\n        /* \"#utility.yul\":12709:12722   */\n      dup3\n        /* \"#utility.yul\":12665:12728   */\n      tag_358\n      jump\t// in\n    tag_551:\n        /* \"#utility.yul\":12658:12728   */\n      swap8\n      pop\n        /* \"#utility.yul\":12751:12811   */\n      tag_552\n        /* \"#utility.yul\":12804:12810   */\n      dup4\n        /* \"#utility.yul\":12751:12811   */\n      tag_359\n      jump\t// in\n    tag_552:\n        /* \"#utility.yul\":12741:12811   */\n      swap3\n      pop\n        /* \"#utility.yul\":12597:12821   */\n      pop\n        /* \"#utility.yul\":12584:12585   */\n      0x01\n        /* \"#utility.yul\":12581:12582   */\n      dup2\n        /* \"#utility.yul\":12577:12586   */\n      add\n        /* \"#utility.yul\":12572:12586   */\n      swap1\n      pop\n        /* \"#utility.yul\":12537:12821   */\n      jump(tag_548)\n    tag_550:\n        /* \"#utility.yul\":12541:12555   */\n      pop\n        /* \"#utility.yul\":12837:12840   */\n      dup6\n        /* \"#utility.yul\":12830:12840   */\n      swap4\n      pop\n        /* \"#utility.yul\":12238:12846   */\n      pop\n      pop\n      pop\n        /* \"#utility.yul\":12114:12846   */\n      swap3\n      swap2\n      pop\n      pop\n      jump\t// out\n        /* \"#utility.yul\":12852:13225   */\n    tag_99:\n        /* \"#utility.yul\":12995:12999   */\n      0x00\n        /* \"#utility.yul\":13033:13035   */\n      0x20\n        /* \"#utility.yul\":13022:13031   */\n      dup3\n        /* \"#utility.yul\":13018:13036   */\n      add\n        /* \"#utility.yul\":13010:13036   */\n      swap1\n      pop\n        /* \"#utility.yul\":13082:13091   */\n      dup2\n        /* \"#utility.yul\":13076:13080   */\n      dup2\n        /* \"#utility.yul\":13072:13092   */\n      sub\n        /* \"#utility.yul\":13068:13069   */\n      0x00\n        /* \"#utility.yul\":13057:13066   */\n      dup4\n        /* \"#utility.yul\":13053:13070   */\n      add\n        /* \"#utility.yul\":13046:13093   */\n      mstore\n        /* \"#utility.yul\":13110:13218   */\n      tag_554\n        /* \"#utility.yul\":13213:13217   */\n      dup2\n        /* \"#utility.yul\":13204:13210   */\n      dup5\n        /* \"#utility.yul\":13110:13218   */\n      tag_360\n      jump\t// in\n    tag_554:\n        /* \"#utility.yul\":13102:13218   */\n      swap1\n      pop\n        /* \"#utility.yul\":12852:13225   */\n      swap3\n      swap2\n      pop\n      pop\n      jump\t// out\n        /* \"#utility.yul\":13231:13554   */\n    tag_102:\n        /* \"#utility.yul\":13287:13293   */\n      0x00\n        /* \"#utility.yul\":13336:13338   */\n      0x20\n        /* \"#utility.yul\":13324:13333   */\n      dup3\n        /* \"#utility.yul\":13315:13322   */\n      dup5\n        /* \"#utility.yul\":13311:13334   */\n      sub\n        /* \"#utility.yul\":13307:13339   */\n      slt\n        /* \"#utility.yul\":13304:13423   */\n      iszero\n      tag_556\n      jumpi\n        /* \"#utility.yul\":13342:13421   */\n      tag_557\n      tag_318\n      jump\t// in\n    tag_557:\n        /* \"#utility.yul\":13304:13423   */\n    tag_556:\n        /* \"#utility.yul\":13462:13463   */\n      0x00\n        /* \"#utility.yul\":13487:13537   */\n      tag_558\n        /* \"#utility.yul\":13529:13536   */\n      dup5\n        /* \"#utility.yul\":13520:13526   */\n      dup3\n        /* \"#utility.yul\":13509:13518   */\n      dup6\n        /* \"#utility.yul\":13505:13527   */\n      add\n        /* \"#utility.yul\":13487:13537   */\n      tag_342\n      jump\t// in\n    tag_558:\n        /* \"#utility.yul\":13477:13537   */\n      swap2\n      pop\n        /* \"#utility.yul\":13433:13547   */\n      pop\n        /* \"#utility.yul\":13231:13554   */\n      swap3\n      swap2\n      pop\n      pop\n      jump\t// out\n        /* \"#utility.yul\":13560:13782   */\n    tag_114:\n        /* \"#utility.yul\":13653:13657   */\n      0x00\n        /* \"#utility.yul\":13691:13693   */\n      0x20\n        /* \"#utility.yul\":13680:13689   */\n      dup3\n        /* \"#utility.yul\":13676:13694   */\n      add\n        /* \"#utility.yul\":13668:13694   */\n      swap1\n      pop\n        /* \"#utility.yul\":13704:13775   */\n      tag_560\n        /* \"#utility.yul\":13772:13773   */\n      0x00\n        /* \"#utility.yul\":13761:13770   */\n      dup4\n        /* \"#utility.yul\":13757:13774   */\n      add\n        /* \"#utility.yul\":13748:13754   */\n      dup5\n        /* \"#utility.yul\":13704:13775   */\n      tag_350\n      jump\t// in\n    tag_560:\n        /* \"#utility.yul\":13560:13782   */\n      swap3\n      swap2\n      pop\n      pop\n      jump\t// out\n        /* \"#utility.yul\":13788:14002   */\n    tag_119:\n        /* \"#utility.yul\":13877:13881   */\n      0x00\n        /* \"#utility.yul\":13915:13917   */\n      0x20\n        /* \"#utility.yul\":13904:13913   */\n      dup3\n        /* \"#utility.yul\":13900:13918   */\n      add\n        /* \"#utility.yul\":13892:13918   */\n      swap1\n      pop\n        /* \"#utility.yul\":13928:13995   */\n      tag_562\n        /* \"#utility.yul\":13992:13993   */\n      0x00\n        /* \"#utility.yul\":13981:13990   */\n      dup4\n        /* \"#utility.yul\":13977:13994   */\n      add\n        /* \"#utility.yul\":13968:13974   */\n      dup5\n        /* \"#utility.yul\":13928:13995   */\n      tag_348\n      jump\t// in\n    tag_562:\n        /* \"#utility.yul\":13788:14002   */\n      swap3\n      swap2\n      pop\n      pop\n      jump\t// out\n        /* \"#utility.yul\":14008:14185   */\n    tag_361:\n        /* \"#utility.yul\":14148:14177   */\n      0x4578616d204e6f74204f70656e2f436f6e746163742041646d696e0000000000\n        /* \"#utility.yul\":14144:14145   */\n      0x00\n        /* \"#utility.yul\":14136:14142   */\n      dup3\n        /* \"#utility.yul\":14132:14146   */\n      add\n        /* \"#utility.yul\":14125:14178   */\n      mstore\n        /* \"#utility.yul\":14008:14185   */\n      pop\n      jump\t// out\n        /* \"#utility.yul\":14191:14557   */\n    tag_362:\n        /* \"#utility.yul\":14333:14336   */\n      0x00\n        /* \"#utility.yul\":14354:14421   */\n      tag_565\n        /* \"#utility.yul\":14418:14420   */\n      0x1b\n        /* \"#utility.yul\":14413:14416   */\n      dup4\n        /* \"#utility.yul\":14354:14421   */\n      tag_344\n      jump\t// in\n    tag_565:\n        /* \"#utility.yul\":14347:14421   */\n      swap2\n      pop\n        /* \"#utility.yul\":14430:14523   */\n      tag_566\n        /* \"#utility.yul\":14519:14522   */\n      dup3\n        /* \"#utility.yul\":14430:14523   */\n      tag_361\n      jump\t// in\n    tag_566:\n        /* \"#utility.yul\":14548:14550   */\n      0x20\n        /* \"#utility.yul\":14543:14546   */\n      dup3\n        /* \"#utility.yul\":14539:14551   */\n      add\n        /* \"#utility.yul\":14532:14551   */\n      swap1\n      pop\n        /* \"#utility.yul\":14191:14557   */\n      swap2\n      swap1\n      pop\n      jump\t// out\n        /* \"#utility.yul\":14563:14982   */\n    tag_139:\n        /* \"#utility.yul\":14729:14733   */\n      0x00\n        /* \"#utility.yul\":14767:14769   */\n      0x20\n        /* \"#utility.yul\":14756:14765   */\n      dup3\n        /* \"#utility.yul\":14752:14770   */\n      add\n        /* \"#utility.yul\":14744:14770   */\n      swap1\n      pop\n        /* \"#utility.yul\":14816:14825   */\n      dup2\n        /* \"#utility.yul\":14810:14814   */\n      dup2\n        /* \"#utility.yul\":14806:14826   */\n      sub\n        /* \"#utility.yul\":14802:14803   */\n      0x00\n        /* \"#utility.yul\":14791:14800   */\n      dup4\n        /* \"#utility.yul\":14787:14804   */\n      add\n        /* \"#utility.yul\":14780:14827   */\n      mstore\n        /* \"#utility.yul\":14844:14975   */\n      tag_568\n        /* \"#utility.yul\":14970:14974   */\n      dup2\n        /* \"#utility.yul\":14844:14975   */\n      tag_362\n      jump\t// in\n    tag_568:\n        /* \"#utility.yul\":14836:14975   */\n      swap1\n      pop\n        /* \"#utility.yul\":14563:14982   */\n      swap2\n      swap1\n      pop\n      jump\t// out\n        /* \"#utility.yul\":14988:15154   */\n    tag_363:\n        /* \"#utility.yul\":15128:15146   */\n      0x4e6f74206f6e2057686974654c69737400000000000000000000000000000000\n        /* \"#utility.yul\":15124:15125   */\n      0x00\n        /* \"#utility.yul\":15116:15122   */\n      dup3\n        /* \"#utility.yul\":15112:15126   */\n      add\n        /* \"#utility.yul\":15105:15147   */\n      mstore\n        /* \"#utility.yul\":14988:15154   */\n      pop\n      jump\t// out\n        /* \"#utility.yul\":15160:15526   */\n    tag_364:\n        /* \"#utility.yul\":15302:15305   */\n      0x00\n        /* \"#utility.yul\":15323:15390   */\n      tag_571\n        /* \"#utility.yul\":15387:15389   */\n      0x10\n        /* \"#utility.yul\":15382:15385   */\n      dup4\n        /* \"#utility.yul\":15323:15390   */\n      tag_344\n      jump\t// in\n    tag_571:\n        /* \"#utility.yul\":15316:15390   */\n      swap2\n      pop\n        /* \"#utility.yul\":15399:15492   */\n      tag_572\n        /* \"#utility.yul\":15488:15491   */\n      dup3\n        /* \"#utility.yul\":15399:15492   */\n      tag_363\n      jump\t// in\n    tag_572:\n        /* \"#utility.yul\":15517:15519   */\n      0x20\n        /* \"#utility.yul\":15512:15515   */\n      dup3\n        /* \"#utility.yul\":15508:15520   */\n      add\n        /* \"#utility.yul\":15501:15520   */\n      swap1\n      pop\n        /* \"#utility.yul\":15160:15526   */\n      swap2\n      swap1\n      pop\n      jump\t// out\n        /* \"#utility.yul\":15532:15951   */\n    tag_142:\n        /* \"#utility.yul\":15698:15702   */\n      0x00\n        /* \"#utility.yul\":15736:15738   */\n      0x20\n        /* \"#utility.yul\":15725:15734   */\n      dup3\n        /* \"#utility.yul\":15721:15739   */\n      add\n        /* \"#utility.yul\":15713:15739   */\n      swap1\n      pop\n        /* \"#utility.yul\":15785:15794   */\n      dup2\n        /* \"#utility.yul\":15779:15783   */\n      dup2\n        /* \"#utility.yul\":15775:15795   */\n      sub\n        /* \"#utility.yul\":15771:15772   */\n      0x00\n        /* \"#utility.yul\":15760:15769   */\n      dup4\n        /* \"#utility.yul\":15756:15773   */\n      add\n        /* \"#utility.yul\":15749:15796   */\n      mstore\n        /* \"#utility.yul\":15813:15944   */\n      tag_574\n        /* \"#utility.yul\":15939:15943   */\n      dup2\n        /* \"#utility.yul\":15813:15944   */\n      tag_364\n      jump\t// in\n    tag_574:\n        /* \"#utility.yul\":15805:15944   */\n      swap1\n      pop\n        /* \"#utility.yul\":15532:15951   */\n      swap2\n      swap1\n      pop\n      jump\t// out\n        /* \"#utility.yul\":15957:16120   */\n    tag_365:\n        /* \"#utility.yul\":16097:16112   */\n      0x496e76616c6964204c6576656c00000000000000000000000000000000000000\n        /* \"#utility.yul\":16093:16094   */\n      0x00\n        /* \"#utility.yul\":16085:16091   */\n      dup3\n        /* \"#utility.yul\":16081:16095   */\n      add\n        /* \"#utility.yul\":16074:16113   */\n      mstore\n        /* \"#utility.yul\":15957:16120   */\n      pop\n      jump\t// out\n        /* \"#utility.yul\":16126:16492   */\n    tag_366:\n        /* \"#utility.yul\":16268:16271   */\n      0x00\n        /* \"#utility.yul\":16289:16356   */\n      tag_577\n        /* \"#utility.yul\":16353:16355   */\n      0x0d\n        /* \"#utility.yul\":16348:16351   */\n      dup4\n        /* \"#utility.yul\":16289:16356   */\n      tag_344\n      jump\t// in\n    tag_577:\n        /* \"#utility.yul\":16282:16356   */\n      swap2\n      pop\n        /* \"#utility.yul\":16365:16458   */\n      tag_578\n        /* \"#utility.yul\":16454:16457   */\n      dup3\n        /* \"#utility.yul\":16365:16458   */\n      tag_365\n      jump\t// in\n    tag_578:\n        /* \"#utility.yul\":16483:16485   */\n      0x20\n        /* \"#utility.yul\":16478:16481   */\n      dup3\n        /* \"#utility.yul\":16474:16486   */\n      add\n        /* \"#utility.yul\":16467:16486   */\n      swap1\n      pop\n        /* \"#utility.yul\":16126:16492   */\n      swap2\n      swap1\n      pop\n      jump\t// out\n        /* \"#utility.yul\":16498:16917   */\n    tag_145:\n        /* \"#utility.yul\":16664:16668   */\n      0x00\n        /* \"#utility.yul\":16702:16704   */\n      0x20\n        /* \"#utility.yul\":16691:16700   */\n      dup3\n        /* \"#utility.yul\":16687:16705   */\n      add\n        /* \"#utility.yul\":16679:16705   */\n      swap1\n      pop\n        /* \"#utility.yul\":16751:16760   */\n      dup2\n        /* \"#utility.yul\":16745:16749   */\n      dup2\n        /* \"#utility.yul\":16741:16761   */\n      sub\n        /* \"#utility.yul\":16737:16738   */\n      0x00\n        /* \"#utility.yul\":16726:16735   */\n      dup4\n        /* \"#utility.yul\":16722:16739   */\n      add\n        /* \"#utility.yul\":16715:16762   */\n      mstore\n        /* \"#utility.yul\":16779:16910   */\n      tag_580\n        /* \"#utility.yul\":16905:16909   */\n      dup2\n        /* \"#utility.yul\":16779:16910   */\n      tag_366\n      jump\t// in\n    tag_580:\n        /* \"#utility.yul\":16771:16910   */\n      swap1\n      pop\n        /* \"#utility.yul\":16498:16917   */\n      swap2\n      swap1\n      pop\n      jump\t// out\n        /* \"#utility.yul\":16923:17105   */\n    tag_367:\n        /* \"#utility.yul\":17063:17097   */\n      0x6d73672e73656e646572206e6f74206f776e6572206f6620736f6c7574696f6e\n        /* \"#utility.yul\":17059:17060   */\n      0x00\n        /* \"#utility.yul\":17051:17057   */\n      dup3\n        /* \"#utility.yul\":17047:17061   */\n      add\n        /* \"#utility.yul\":17040:17098   */\n      mstore\n        /* \"#utility.yul\":16923:17105   */\n      pop\n      jump\t// out\n        /* \"#utility.yul\":17111:17477   */\n    tag_368:\n        /* \"#utility.yul\":17253:17256   */\n      0x00\n        /* \"#utility.yul\":17274:17341   */\n      tag_583\n        /* \"#utility.yul\":17338:17340   */\n      0x20\n        /* \"#utility.yul\":17333:17336   */\n      dup4\n        /* \"#utility.yul\":17274:17341   */\n      tag_344\n      jump\t// in\n    tag_583:\n        /* \"#utility.yul\":17267:17341   */\n      swap2\n      pop\n        /* \"#utility.yul\":17350:17443   */\n      tag_584\n        /* \"#utility.yul\":17439:17442   */\n      dup3\n        /* \"#utility.yul\":17350:17443   */\n      tag_367\n      jump\t// in\n    tag_584:\n        /* \"#utility.yul\":17468:17470   */\n      0x20\n        /* \"#utility.yul\":17463:17466   */\n      dup3\n        /* \"#utility.yul\":17459:17471   */\n      add\n        /* \"#utility.yul\":17452:17471   */\n      swap1\n      pop\n        /* \"#utility.yul\":17111:17477   */\n      swap2\n      swap1\n      pop\n      jump\t// out\n        /* \"#utility.yul\":17483:17902   */\n    tag_149:\n        /* \"#utility.yul\":17649:17653   */\n      0x00\n        /* \"#utility.yul\":17687:17689   */\n      0x20\n        /* \"#utility.yul\":17676:17685   */\n      dup3\n        /* \"#utility.yul\":17672:17690   */\n      add\n        /* \"#utility.yul\":17664:17690   */\n      swap1\n      pop\n        /* \"#utility.yul\":17736:17745   */\n      dup2\n        /* \"#utility.yul\":17730:17734   */\n      dup2\n        /* \"#utility.yul\":17726:17746   */\n      sub\n        /* \"#utility.yul\":17722:17723   */\n      0x00\n        /* \"#utility.yul\":17711:17720   */\n      dup4\n        /* \"#utility.yul\":17707:17724   */\n      add\n        /* \"#utility.yul\":17700:17747   */\n      mstore\n        /* \"#utility.yul\":17764:17895   */\n      tag_586\n        /* \"#utility.yul\":17890:17894   */\n      dup2\n        /* \"#utility.yul\":17764:17895   */\n      tag_368\n      jump\t// in\n    tag_586:\n        /* \"#utility.yul\":17756:17895   */\n      swap1\n      pop\n        /* \"#utility.yul\":17483:17902   */\n      swap2\n      swap1\n      pop\n      jump\t// out\n        /* \"#utility.yul\":17908:18088   */\n    tag_369:\n        /* \"#utility.yul\":17956:18033   */\n      0x4e487b7100000000000000000000000000000000000000000000000000000000\n        /* \"#utility.yul\":17953:17954   */\n      0x00\n        /* \"#utility.yul\":17946:18034   */\n      mstore\n        /* \"#utility.yul\":18053:18057   */\n      0x22\n        /* \"#utility.yul\":18050:18051   */\n      0x04\n        /* \"#utility.yul\":18043:18058   */\n      mstore\n        /* \"#utility.yul\":18077:18081   */\n      0x24\n        /* \"#utility.yul\":18074:18075   */\n      0x00\n        /* \"#utility.yul\":18067:18082   */\n      revert\n        /* \"#utility.yul\":18094:18414   */\n    tag_151:\n        /* \"#utility.yul\":18138:18144   */\n      0x00\n        /* \"#utility.yul\":18175:18176   */\n      0x02\n        /* \"#utility.yul\":18169:18173   */\n      dup3\n        /* \"#utility.yul\":18165:18177   */\n      div\n        /* \"#utility.yul\":18155:18177   */\n      swap1\n      pop\n        /* \"#utility.yul\":18222:18223   */\n      0x01\n        /* \"#utility.yul\":18216:18220   */\n      dup3\n        /* \"#utility.yul\":18212:18224   */\n      and\n        /* \"#utility.yul\":18243:18261   */\n      dup1\n        /* \"#utility.yul\":18233:18314   */\n      tag_589\n      jumpi\n        /* \"#utility.yul\":18299:18303   */\n      0x7f\n        /* \"#utility.yul\":18291:18297   */\n      dup3\n        /* \"#utility.yul\":18287:18304   */\n      and\n        /* \"#utility.yul\":18277:18304   */\n      swap2\n      pop\n        /* \"#utility.yul\":18233:18314   */\n    tag_589:\n        /* \"#utility.yul\":18361:18363   */\n      0x20\n        /* \"#utility.yul\":18353:18359   */\n      dup3\n        /* \"#utility.yul\":18350:18364   */\n      lt\n        /* \"#utility.yul\":18330:18348   */\n      dup2\n        /* \"#utility.yul\":18327:18365   */\n      sub\n        /* \"#utility.yul\":18324:18408   */\n      tag_590\n      jumpi\n        /* \"#utility.yul\":18380:18398   */\n      tag_591\n      tag_369\n      jump\t// in\n    tag_591:\n        /* \"#utility.yul\":18324:18408   */\n    tag_590:\n        /* \"#utility.yul\":18145:18414   */\n      pop\n        /* \"#utility.yul\":18094:18414   */\n      swap2\n      swap1\n      pop\n      jump\t// out\n        /* \"#utility.yul\":18420:18587   */\n    tag_370:\n        /* \"#utility.yul\":18560:18579   */\n      0x496e76616c69642055736572204e616d65000000000000000000000000000000\n        /* \"#utility.yul\":18556:18557   */\n      0x00\n        /* \"#utility.yul\":18548:18554   */\n      dup3\n        /* \"#utility.yul\":18544:18558   */\n      add\n        /* \"#utility.yul\":18537:18580   */\n      mstore\n        /* \"#utility.yul\":18420:18587   */\n      pop\n      jump\t// out\n        /* \"#utility.yul\":18593:18959   */\n    tag_371:\n        /* \"#utility.yul\":18735:18738   */\n      0x00\n        /* \"#utility.yul\":18756:18823   */\n      tag_594\n        /* \"#utility.yul\":18820:18822   */\n      0x11\n        /* \"#utility.yul\":18815:18818   */\n      dup4\n        /* \"#utility.yul\":18756:18823   */\n      tag_344\n      jump\t// in\n    tag_594:\n        /* \"#utility.yul\":18749:18823   */\n      swap2\n      pop\n        /* \"#utility.yul\":18832:18925   */\n      tag_595\n        /* \"#utility.yul\":18921:18924   */\n      dup3\n        /* \"#utility.yul\":18832:18925   */\n      tag_370\n      jump\t// in\n    tag_595:\n        /* \"#utility.yul\":18950:18952   */\n      0x20\n        /* \"#utility.yul\":18945:18948   */\n      dup3\n        /* \"#utility.yul\":18941:18953   */\n      add\n        /* \"#utility.yul\":18934:18953   */\n      swap1\n      pop\n        /* \"#utility.yul\":18593:18959   */\n      swap2\n      swap1\n      pop\n      jump\t// out\n        /* \"#utility.yul\":18965:19384   */\n    tag_154:\n        /* \"#utility.yul\":19131:19135   */\n      0x00\n        /* \"#utility.yul\":19169:19171   */\n      0x20\n        /* \"#utility.yul\":19158:19167   */\n      dup3\n        /* \"#utility.yul\":19154:19172   */\n      add\n        /* \"#utility.yul\":19146:19172   */\n      swap1\n      pop\n        /* \"#utility.yul\":19218:19227   */\n      dup2\n        /* \"#utility.yul\":19212:19216   */\n      dup2\n        /* \"#utility.yul\":19208:19228   */\n      sub\n        /* \"#utility.yul\":19204:19205   */\n      0x00\n        /* \"#utility.yul\":19193:19202   */\n      dup4\n        /* \"#utility.yul\":19189:19206   */\n      add\n        /* \"#utility.yul\":19182:19229   */\n      mstore\n        /* \"#utility.yul\":19246:19377   */\n      tag_597\n        /* \"#utility.yul\":19372:19376   */\n      dup2\n        /* \"#utility.yul\":19246:19377   */\n      tag_371\n      jump\t// in\n    tag_597:\n        /* \"#utility.yul\":19238:19377   */\n      swap1\n      pop\n        /* \"#utility.yul\":18965:19384   */\n      swap2\n      swap1\n      pop\n      jump\t// out\n        /* \"#utility.yul\":19390:19529   */\n    tag_372:\n        /* \"#utility.yul\":19445:19450   */\n      0x00\n        /* \"#utility.yul\":19476:19482   */\n      dup2\n        /* \"#utility.yul\":19470:19483   */\n      mload\n        /* \"#utility.yul\":19461:19483   */\n      swap1\n      pop\n        /* \"#utility.yul\":19492:19523   */\n      tag_599\n        /* \"#utility.yul\":19517:19522   */\n      dup2\n        /* \"#utility.yul\":19492:19523   */\n      tag_335\n      jump\t// in\n    tag_599:\n        /* \"#utility.yul\":19390:19529   */\n      swap3\n      swap2\n      pop\n      pop\n      jump\t// out\n        /* \"#utility.yul\":19535:19657   */\n    tag_373:\n        /* \"#utility.yul\":19608:19632   */\n      tag_601\n        /* \"#utility.yul\":19626:19631   */\n      dup2\n        /* \"#utility.yul\":19608:19632   */\n      tag_349\n      jump\t// in\n    tag_601:\n        /* \"#utility.yul\":19601:19606   */\n      dup2\n        /* \"#utility.yul\":19598:19633   */\n      eq\n        /* \"#utility.yul\":19588:19651   */\n      tag_602\n      jumpi\n        /* \"#utility.yul\":19647:19648   */\n      0x00\n        /* \"#utility.yul\":19644:19645   */\n      dup1\n        /* \"#utility.yul\":19637:19649   */\n      revert\n        /* \"#utility.yul\":19588:19651   */\n    tag_602:\n        /* \"#utility.yul\":19535:19657   */\n      pop\n      jump\t// out\n        /* \"#utility.yul\":19663:19806   */\n    tag_374:\n        /* \"#utility.yul\":19720:19725   */\n      0x00\n        /* \"#utility.yul\":19751:19757   */\n      dup2\n        /* \"#utility.yul\":19745:19758   */\n      mload\n        /* \"#utility.yul\":19736:19758   */\n      swap1\n      pop\n        /* \"#utility.yul\":19767:19800   */\n      tag_604\n        /* \"#utility.yul\":19794:19799   */\n      dup2\n        /* \"#utility.yul\":19767:19800   */\n      tag_373\n      jump\t// in\n    tag_604:\n        /* \"#utility.yul\":19663:19806   */\n      swap3\n      swap2\n      pop\n      pop\n      jump\t// out\n        /* \"#utility.yul\":19812:20315   */\n    tag_159:\n        /* \"#utility.yul\":19889:19895   */\n      0x00\n        /* \"#utility.yul\":19897:19903   */\n      dup1\n        /* \"#utility.yul\":19946:19948   */\n      0x40\n        /* \"#utility.yul\":19934:19943   */\n      dup4\n        /* \"#utility.yul\":19925:19932   */\n      dup6\n        /* \"#utility.yul\":19921:19944   */\n      sub\n        /* \"#utility.yul\":19917:19949   */\n      slt\n        /* \"#utility.yul\":19914:20033   */\n      iszero\n      tag_606\n      jumpi\n        /* \"#utility.yul\":19952:20031   */\n      tag_607\n      tag_318\n      jump\t// in\n    tag_607:\n        /* \"#utility.yul\":19914:20033   */\n    tag_606:\n        /* \"#utility.yul\":20072:20073   */\n      0x00\n        /* \"#utility.yul\":20097:20159   */\n      tag_608\n        /* \"#utility.yul\":20151:20158   */\n      dup6\n        /* \"#utility.yul\":20142:20148   */\n      dup3\n        /* \"#utility.yul\":20131:20140   */\n      dup7\n        /* \"#utility.yul\":20127:20149   */\n      add\n        /* \"#utility.yul\":20097:20159   */\n      tag_372\n      jump\t// in\n    tag_608:\n        /* \"#utility.yul\":20087:20159   */\n      swap3\n      pop\n        /* \"#utility.yul\":20043:20169   */\n      pop\n        /* \"#utility.yul\":20208:20210   */\n      0x20\n        /* \"#utility.yul\":20234:20298   */\n      tag_609\n        /* \"#utility.yul\":20290:20297   */\n      dup6\n        /* \"#utility.yul\":20281:20287   */\n      dup3\n        /* \"#utility.yul\":20270:20279   */\n      dup7\n        /* \"#utility.yul\":20266:20288   */\n      add\n        /* \"#utility.yul\":20234:20298   */\n      tag_374\n      jump\t// in\n    tag_609:\n        /* \"#utility.yul\":20224:20298   */\n      swap2\n      pop\n        /* \"#utility.yul\":20179:20308   */\n      pop\n        /* \"#utility.yul\":19812:20315   */\n      swap3\n      pop\n      swap3\n      swap1\n      pop\n      jump\t// out\n        /* \"#utility.yul\":20321:20469   */\n    tag_375:\n        /* \"#utility.yul\":20423:20434   */\n      0x00\n        /* \"#utility.yul\":20460:20463   */\n      dup2\n        /* \"#utility.yul\":20445:20463   */\n      swap1\n      pop\n        /* \"#utility.yul\":20321:20469   */\n      swap3\n      swap2\n      pop\n      pop\n      jump\t// out\n        /* \"#utility.yul\":20475:20621   */\n    tag_376:\n        /* \"#utility.yul\":20572:20578   */\n      dup3\n        /* \"#utility.yul\":20567:20570   */\n      dup2\n        /* \"#utility.yul\":20562:20565   */\n      dup4\n        /* \"#utility.yul\":20549:20579   */\n      calldatacopy\n        /* \"#utility.yul\":20613:20614   */\n      0x00\n        /* \"#utility.yul\":20604:20610   */\n      dup4\n        /* \"#utility.yul\":20599:20602   */\n      dup4\n        /* \"#utility.yul\":20595:20611   */\n      add\n        /* \"#utility.yul\":20588:20615   */\n      mstore\n        /* \"#utility.yul\":20475:20621   */\n      pop\n      pop\n      pop\n      jump\t// out\n        /* \"#utility.yul\":20651:20981   */\n    tag_377:\n        /* \"#utility.yul\":20767:20770   */\n      0x00\n        /* \"#utility.yul\":20788:20877   */\n      tag_613\n        /* \"#utility.yul\":20870:20876   */\n      dup4\n        /* \"#utility.yul\":20865:20868   */\n      dup6\n        /* \"#utility.yul\":20788:20877   */\n      tag_375\n      jump\t// in\n    tag_613:\n        /* \"#utility.yul\":20781:20877   */\n      swap4\n      pop\n        /* \"#utility.yul\":20887:20943   */\n      tag_614\n        /* \"#utility.yul\":20936:20942   */\n      dup4\n        /* \"#utility.yul\":20931:20934   */\n      dup6\n        /* \"#utility.yul\":20924:20929   */\n      dup5\n        /* \"#utility.yul\":20887:20943   */\n      tag_376\n      jump\t// in\n    tag_614:\n        /* \"#utility.yul\":20968:20974   */\n      dup3\n        /* \"#utility.yul\":20963:20966   */\n      dup5\n        /* \"#utility.yul\":20959:20975   */\n      add\n        /* \"#utility.yul\":20952:20975   */\n      swap1\n      pop\n        /* \"#utility.yul\":20651:20981   */\n      swap4\n      swap3\n      pop\n      pop\n      pop\n      jump\t// out\n        /* \"#utility.yul\":20987:21282   */\n    tag_165:\n        /* \"#utility.yul\":21129:21132   */\n      0x00\n        /* \"#utility.yul\":21151:21256   */\n      tag_616\n        /* \"#utility.yul\":21252:21255   */\n      dup3\n        /* \"#utility.yul\":21243:21249   */\n      dup5\n        /* \"#utility.yul\":21235:21241   */\n      dup7\n        /* \"#utility.yul\":21151:21256   */\n      tag_377\n      jump\t// in\n    tag_616:\n        /* \"#utility.yul\":21144:21256   */\n      swap2\n      pop\n        /* \"#utility.yul\":21273:21276   */\n      dup2\n        /* \"#utility.yul\":21266:21276   */\n      swap1\n      pop\n        /* \"#utility.yul\":20987:21282   */\n      swap4\n      swap3\n      pop\n      pop\n      pop\n      jump\t// out\n        /* \"#utility.yul\":21288:21452   */\n    tag_378:\n        /* \"#utility.yul\":21428:21444   */\n      0x436865636b2050617373776f7264000000000000000000000000000000000000\n        /* \"#utility.yul\":21424:21425   */\n      0x00\n        /* \"#utility.yul\":21416:21422   */\n      dup3\n        /* \"#utility.yul\":21412:21426   */\n      add\n        /* \"#utility.yul\":21405:21445   */\n      mstore\n        /* \"#utility.yul\":21288:21452   */\n      pop\n      jump\t// out\n        /* \"#utility.yul\":21458:21824   */\n    tag_379:\n        /* \"#utility.yul\":21600:21603   */\n      0x00\n        /* \"#utility.yul\":21621:21688   */\n      tag_619\n        /* \"#utility.yul\":21685:21687   */\n      0x0e\n        /* \"#utility.yul\":21680:21683   */\n      dup4\n        /* \"#utility.yul\":21621:21688   */\n      tag_344\n      jump\t// in\n    tag_619:\n        /* \"#utility.yul\":21614:21688   */\n      swap2\n      pop\n        /* \"#utility.yul\":21697:21790   */\n      tag_620\n        /* \"#utility.yul\":21786:21789   */\n      dup3\n        /* \"#utility.yul\":21697:21790   */\n      tag_378\n      jump\t// in\n    tag_620:\n        /* \"#utility.yul\":21815:21817   */\n      0x20\n        /* \"#utility.yul\":21810:21813   */\n      dup3\n        /* \"#utility.yul\":21806:21818   */\n      add\n        /* \"#utility.yul\":21799:21818   */\n      swap1\n      pop\n        /* \"#utility.yul\":21458:21824   */\n      swap2\n      swap1\n      pop\n      jump\t// out\n        /* \"#utility.yul\":21830:22249   */\n    tag_168:\n        /* \"#utility.yul\":21996:22000   */\n      0x00\n        /* \"#utility.yul\":22034:22036   */\n      0x20\n        /* \"#utility.yul\":22023:22032   */\n      dup3\n        /* \"#utility.yul\":22019:22037   */\n      add\n        /* \"#utility.yul\":22011:22037   */\n      swap1\n      pop\n        /* \"#utility.yul\":22083:22092   */\n      dup2\n        /* \"#utility.yul\":22077:22081   */\n      dup2\n        /* \"#utility.yul\":22073:22093   */\n      sub\n        /* \"#utility.yul\":22069:22070   */\n      0x00\n        /* \"#utility.yul\":22058:22067   */\n      dup4\n        /* \"#utility.yul\":22054:22071   */\n      add\n        /* \"#utility.yul\":22047:22094   */\n      mstore\n        /* \"#utility.yul\":22111:22242   */\n      tag_622\n        /* \"#utility.yul\":22237:22241   */\n      dup2\n        /* \"#utility.yul\":22111:22242   */\n      tag_379\n      jump\t// in\n    tag_622:\n        /* \"#utility.yul\":22103:22242   */\n      swap1\n      pop\n        /* \"#utility.yul\":21830:22249   */\n      swap2\n      swap1\n      pop\n      jump\t// out\n        /* \"#utility.yul\":22255:22426   */\n    tag_380:\n        /* \"#utility.yul\":22395:22418   */\n      0x5265676973747261746f6e20697320636c6f7365640000000000000000000000\n        /* \"#utility.yul\":22391:22392   */\n      0x00\n        /* \"#utility.yul\":22383:22389   */\n      dup3\n        /* \"#utility.yul\":22379:22393   */\n      add\n        /* \"#utility.yul\":22372:22419   */\n      mstore\n        /* \"#utility.yul\":22255:22426   */\n      pop\n      jump\t// out\n        /* \"#utility.yul\":22432:22798   */\n    tag_381:\n        /* \"#utility.yul\":22574:22577   */\n      0x00\n        /* \"#utility.yul\":22595:22662   */\n      tag_625\n        /* \"#utility.yul\":22659:22661   */\n      0x15\n        /* \"#utility.yul\":22654:22657   */\n      dup4\n        /* \"#utility.yul\":22595:22662   */\n      tag_344\n      jump\t// in\n    tag_625:\n        /* \"#utility.yul\":22588:22662   */\n      swap2\n      pop\n        /* \"#utility.yul\":22671:22764   */\n      tag_626\n        /* \"#utility.yul\":22760:22763   */\n      dup3\n        /* \"#utility.yul\":22671:22764   */\n      tag_380\n      jump\t// in\n    tag_626:\n        /* \"#utility.yul\":22789:22791   */\n      0x20\n        /* \"#utility.yul\":22784:22787   */\n      dup3\n        /* \"#utility.yul\":22780:22792   */\n      add\n        /* \"#utility.yul\":22773:22792   */\n      swap1\n      pop\n        /* \"#utility.yul\":22432:22798   */\n      swap2\n      swap1\n      pop\n      jump\t// out\n        /* \"#utility.yul\":22804:23223   */\n    tag_171:\n        /* \"#utility.yul\":22970:22974   */\n      0x00\n        /* \"#utility.yul\":23008:23010   */\n      0x20\n        /* \"#utility.yul\":22997:23006   */\n      dup3\n        /* \"#utility.yul\":22993:23011   */\n      add\n        /* \"#utility.yul\":22985:23011   */\n      swap1\n      pop\n        /* \"#utility.yul\":23057:23066   */\n      dup2\n        /* \"#utility.yul\":23051:23055   */\n      dup2\n        /* \"#utility.yul\":23047:23067   */\n      sub\n        /* \"#utility.yul\":23043:23044   */\n      0x00\n        /* \"#utility.yul\":23032:23041   */\n      dup4\n        /* \"#utility.yul\":23028:23045   */\n      add\n        /* \"#utility.yul\":23021:23068   */\n      mstore\n        /* \"#utility.yul\":23085:23216   */\n      tag_628\n        /* \"#utility.yul\":23211:23215   */\n      dup2\n        /* \"#utility.yul\":23085:23216   */\n      tag_381\n      jump\t// in\n    tag_628:\n        /* \"#utility.yul\":23077:23216   */\n      swap1\n      pop\n        /* \"#utility.yul\":22804:23223   */\n      swap2\n      swap1\n      pop\n      jump\t// out\n        /* \"#utility.yul\":23229:23395   */\n    tag_382:\n        /* \"#utility.yul\":23369:23387   */\n      0x4e65656420746f2062652041646d696e00000000000000000000000000000000\n        /* \"#utility.yul\":23365:23366   */\n      0x00\n        /* \"#utility.yul\":23357:23363   */\n      dup3\n        /* \"#utility.yul\":23353:23367   */\n      add\n        /* \"#utility.yul\":23346:23388   */\n      mstore\n        /* \"#utility.yul\":23229:23395   */\n      pop\n      jump\t// out\n        /* \"#utility.yul\":23401:23767   */\n    tag_383:\n        /* \"#utility.yul\":23543:23546   */\n      0x00\n        /* \"#utility.yul\":23564:23631   */\n      tag_631\n        /* \"#utility.yul\":23628:23630   */\n      0x10\n        /* \"#utility.yul\":23623:23626   */\n      dup4\n        /* \"#utility.yul\":23564:23631   */\n      tag_344\n      jump\t// in\n    tag_631:\n        /* \"#utility.yul\":23557:23631   */\n      swap2\n      pop\n        /* \"#utility.yul\":23640:23733   */\n      tag_632\n        /* \"#utility.yul\":23729:23732   */\n      dup3\n        /* \"#utility.yul\":23640:23733   */\n      tag_382\n      jump\t// in\n    tag_632:\n        /* \"#utility.yul\":23758:23760   */\n      0x20\n        /* \"#utility.yul\":23753:23756   */\n      dup3\n        /* \"#utility.yul\":23749:23761   */\n      add\n        /* \"#utility.yul\":23742:23761   */\n      swap1\n      pop\n        /* \"#utility.yul\":23401:23767   */\n      swap2\n      swap1\n      pop\n      jump\t// out\n        /* \"#utility.yul\":23773:24192   */\n    tag_179:\n        /* \"#utility.yul\":23939:23943   */\n      0x00\n        /* \"#utility.yul\":23977:23979   */\n      0x20\n        /* \"#utility.yul\":23966:23975   */\n      dup3\n        /* \"#utility.yul\":23962:23980   */\n      add\n        /* \"#utility.yul\":23954:23980   */\n      swap1\n      pop\n        /* \"#utility.yul\":24026:24035   */\n      dup2\n        /* \"#utility.yul\":24020:24024   */\n      dup2\n        /* \"#utility.yul\":24016:24036   */\n      sub\n        /* \"#utility.yul\":24012:24013   */\n      0x00\n        /* \"#utility.yul\":24001:24010   */\n      dup4\n        /* \"#utility.yul\":23997:24014   */\n      add\n        /* \"#utility.yul\":23990:24037   */\n      mstore\n        /* \"#utility.yul\":24054:24185   */\n      tag_634\n        /* \"#utility.yul\":24180:24184   */\n      dup2\n        /* \"#utility.yul\":24054:24185   */\n      tag_383\n      jump\t// in\n    tag_634:\n        /* \"#utility.yul\":24046:24185   */\n      swap1\n      pop\n        /* \"#utility.yul\":23773:24192   */\n      swap2\n      swap1\n      pop\n      jump\t// out\n        /* \"#utility.yul\":24198:24375   */\n    tag_384:\n        /* \"#utility.yul\":24338:24367   */\n      0x43616e6e6f7420736574206d73672e73656e6465722061646d696e0000000000\n        /* \"#utility.yul\":24334:24335   */\n      0x00\n        /* \"#utility.yul\":24326:24332   */\n      dup3\n        /* \"#utility.yul\":24322:24336   */\n      add\n        /* \"#utility.yul\":24315:24368   */\n      mstore\n        /* \"#utility.yul\":24198:24375   */\n      pop\n      jump\t// out\n        /* \"#utility.yul\":24381:24747   */\n    tag_385:\n        /* \"#utility.yul\":24523:24526   */\n      0x00\n        /* \"#utility.yul\":24544:24611   */\n      tag_637\n        /* \"#utility.yul\":24608:24610   */\n      0x1b\n        /* \"#utility.yul\":24603:24606   */\n      dup4\n        /* \"#utility.yul\":24544:24611   */\n      tag_344\n      jump\t// in\n    tag_637:\n        /* \"#utility.yul\":24537:24611   */\n      swap2\n      pop\n        /* \"#utility.yul\":24620:24713   */\n      tag_638\n        /* \"#utility.yul\":24709:24712   */\n      dup3\n        /* \"#utility.yul\":24620:24713   */\n      tag_384\n      jump\t// in\n    tag_638:\n        /* \"#utility.yul\":24738:24740   */\n      0x20\n        /* \"#utility.yul\":24733:24736   */\n      dup3\n        /* \"#utility.yul\":24729:24741   */\n      add\n        /* \"#utility.yul\":24722:24741   */\n      swap1\n      pop\n        /* \"#utility.yul\":24381:24747   */\n      swap2\n      swap1\n      pop\n      jump\t// out\n        /* \"#utility.yul\":24753:25172   */\n    tag_183:\n        /* \"#utility.yul\":24919:24923   */\n      0x00\n        /* \"#utility.yul\":24957:24959   */\n      0x20\n        /* \"#utility.yul\":24946:24955   */\n      dup3\n        /* \"#utility.yul\":24942:24960   */\n      add\n        /* \"#utility.yul\":24934:24960   */\n      swap1\n      pop\n        /* \"#utility.yul\":25006:25015   */\n      dup2\n        /* \"#utility.yul\":25000:25004   */\n      dup2\n        /* \"#utility.yul\":24996:25016   */\n      sub\n        /* \"#utility.yul\":24992:24993   */\n      0x00\n        /* \"#utility.yul\":24981:24990   */\n      dup4\n        /* \"#utility.yul\":24977:24994   */\n      add\n        /* \"#utility.yul\":24970:25017   */\n      mstore\n        /* \"#utility.yul\":25034:25165   */\n      tag_640\n        /* \"#utility.yul\":25160:25164   */\n      dup2\n        /* \"#utility.yul\":25034:25165   */\n      tag_385\n      jump\t// in\n    tag_640:\n        /* \"#utility.yul\":25026:25165   */\n      swap1\n      pop\n        /* \"#utility.yul\":24753:25172   */\n      swap2\n      swap1\n      pop\n      jump\t// out\n        /* \"#utility.yul\":25178:25358   */\n    tag_193:\n        /* \"#utility.yul\":25226:25303   */\n      0x4e487b7100000000000000000000000000000000000000000000000000000000\n        /* \"#utility.yul\":25223:25224   */\n      0x00\n        /* \"#utility.yul\":25216:25304   */\n      mstore\n        /* \"#utility.yul\":25323:25327   */\n      0x32\n        /* \"#utility.yul\":25320:25321   */\n      0x04\n        /* \"#utility.yul\":25313:25328   */\n      mstore\n        /* \"#utility.yul\":25347:25351   */\n      0x24\n        /* \"#utility.yul\":25344:25345   */\n      0x00\n        /* \"#utility.yul\":25337:25352   */\n      revert\n        /* \"#utility.yul\":25364:25544   */\n    tag_386:\n        /* \"#utility.yul\":25412:25489   */\n      0x4e487b7100000000000000000000000000000000000000000000000000000000\n        /* \"#utility.yul\":25409:25410   */\n      0x00\n        /* \"#utility.yul\":25402:25490   */\n      mstore\n        /* \"#utility.yul\":25509:25513   */\n      0x11\n        /* \"#utility.yul\":25506:25507   */\n      0x04\n        /* \"#utility.yul\":25499:25514   */\n      mstore\n        /* \"#utility.yul\":25533:25537   */\n      0x24\n        /* \"#utility.yul\":25530:25531   */\n      0x00\n        /* \"#utility.yul\":25523:25538   */\n      revert\n        /* \"#utility.yul\":25550:25744   */\n    tag_197:\n        /* \"#utility.yul\":25590:25594   */\n      0x00\n        /* \"#utility.yul\":25610:25630   */\n      tag_644\n        /* \"#utility.yul\":25628:25629   */\n      dup3\n        /* \"#utility.yul\":25610:25630   */\n      tag_349\n      jump\t// in\n    tag_644:\n        /* \"#utility.yul\":25605:25630   */\n      swap2\n      pop\n        /* \"#utility.yul\":25644:25664   */\n      tag_645\n        /* \"#utility.yul\":25662:25663   */\n      dup4\n        /* \"#utility.yul\":25644:25664   */\n      tag_349\n      jump\t// in\n    tag_645:\n        /* \"#utility.yul\":25639:25664   */\n      swap3\n      pop\n        /* \"#utility.yul\":25688:25689   */\n      dup3\n        /* \"#utility.yul\":25685:25686   */\n      dup3\n        /* \"#utility.yul\":25681:25690   */\n      sub\n        /* \"#utility.yul\":25673:25690   */\n      swap1\n      pop\n        /* \"#utility.yul\":25712:25713   */\n      dup2\n        /* \"#utility.yul\":25706:25710   */\n      dup2\n        /* \"#utility.yul\":25703:25714   */\n      gt\n        /* \"#utility.yul\":25700:25737   */\n      iszero\n      tag_646\n      jumpi\n        /* \"#utility.yul\":25717:25735   */\n      tag_647\n      tag_386\n      jump\t// in\n    tag_647:\n        /* \"#utility.yul\":25700:25737   */\n    tag_646:\n        /* \"#utility.yul\":25550:25744   */\n      swap3\n      swap2\n      pop\n      pop\n      jump\t// out\n        /* \"#utility.yul\":25750:25930   */\n    tag_206:\n        /* \"#utility.yul\":25798:25875   */\n      0x4e487b7100000000000000000000000000000000000000000000000000000000\n        /* \"#utility.yul\":25795:25796   */\n      0x00\n        /* \"#utility.yul\":25788:25876   */\n      mstore\n        /* \"#utility.yul\":25895:25899   */\n      0x31\n        /* \"#utility.yul\":25892:25893   */\n      0x04\n        /* \"#utility.yul\":25885:25900   */\n      mstore\n        /* \"#utility.yul\":25919:25923   */\n      0x24\n        /* \"#utility.yul\":25916:25917   */\n      0x00\n        /* \"#utility.yul\":25909:25924   */\n      revert\n        /* \"#utility.yul\":25936:26103   */\n    tag_209:\n        /* \"#utility.yul\":25973:25976   */\n      0x00\n        /* \"#utility.yul\":25996:26018   */\n      tag_650\n        /* \"#utility.yul\":26012:26017   */\n      dup3\n        /* \"#utility.yul\":25996:26018   */\n      tag_330\n      jump\t// in\n    tag_650:\n        /* \"#utility.yul\":25987:26018   */\n      swap2\n      pop\n        /* \"#utility.yul\":26040:26044   */\n      0xff\n        /* \"#utility.yul\":26033:26038   */\n      dup3\n        /* \"#utility.yul\":26030:26045   */\n      sub\n        /* \"#utility.yul\":26027:26068   */\n      tag_651\n      jumpi\n        /* \"#utility.yul\":26048:26066   */\n      tag_652\n      tag_386\n      jump\t// in\n    tag_652:\n        /* \"#utility.yul\":26027:26068   */\n    tag_651:\n        /* \"#utility.yul\":26095:26096   */\n      0x01\n        /* \"#utility.yul\":26088:26093   */\n      dup3\n        /* \"#utility.yul\":26084:26097   */\n      add\n        /* \"#utility.yul\":26077:26097   */\n      swap1\n      pop\n        /* \"#utility.yul\":25936:26103   */\n      swap2\n      swap1\n      pop\n      jump\t// out\n        /* \"#utility.yul\":26109:26333   */\n    tag_387:\n        /* \"#utility.yul\":26249:26283   */\n      0x416c726561647920657873697374732c2064656c657465206f72207573652075\n        /* \"#utility.yul\":26245:26246   */\n      0x00\n        /* \"#utility.yul\":26237:26243   */\n      dup3\n        /* \"#utility.yul\":26233:26247   */\n      add\n        /* \"#utility.yul\":26226:26284   */\n      mstore\n        /* \"#utility.yul\":26318:26325   */\n      0x7064617465000000000000000000000000000000000000000000000000000000\n        /* \"#utility.yul\":26313:26315   */\n      0x20\n        /* \"#utility.yul\":26305:26311   */\n      dup3\n        /* \"#utility.yul\":26301:26316   */\n      add\n        /* \"#utility.yul\":26294:26326   */\n      mstore\n        /* \"#utility.yul\":26109:26333   */\n      pop\n      jump\t// out\n        /* \"#utility.yul\":26339:26705   */\n    tag_388:\n        /* \"#utility.yul\":26481:26484   */\n      0x00\n        /* \"#utility.yul\":26502:26569   */\n      tag_655\n        /* \"#utility.yul\":26566:26568   */\n      0x25\n        /* \"#utility.yul\":26561:26564   */\n      dup4\n        /* \"#utility.yul\":26502:26569   */\n      tag_344\n      jump\t// in\n    tag_655:\n        /* \"#utility.yul\":26495:26569   */\n      swap2\n      pop\n        /* \"#utility.yul\":26578:26671   */\n      tag_656\n        /* \"#utility.yul\":26667:26670   */\n      dup3\n        /* \"#utility.yul\":26578:26671   */\n      tag_387\n      jump\t// in\n    tag_656:\n        /* \"#utility.yul\":26696:26698   */\n      0x40\n        /* \"#utility.yul\":26691:26694   */\n      dup3\n        /* \"#utility.yul\":26687:26699   */\n      add\n        /* \"#utility.yul\":26680:26699   */\n      swap1\n      pop\n        /* \"#utility.yul\":26339:26705   */\n      swap2\n      swap1\n      pop\n      jump\t// out\n        /* \"#utility.yul\":26711:27130   */\n    tag_266:\n        /* \"#utility.yul\":26877:26881   */\n      0x00\n        /* \"#utility.yul\":26915:26917   */\n      0x20\n        /* \"#utility.yul\":26904:26913   */\n      dup3\n        /* \"#utility.yul\":26900:26918   */\n      add\n        /* \"#utility.yul\":26892:26918   */\n      swap1\n      pop\n        /* \"#utility.yul\":26964:26973   */\n      dup2\n        /* \"#utility.yul\":26958:26962   */\n      dup2\n        /* \"#utility.yul\":26954:26974   */\n      sub\n        /* \"#utility.yul\":26950:26951   */\n      0x00\n        /* \"#utility.yul\":26939:26948   */\n      dup4\n        /* \"#utility.yul\":26935:26952   */\n      add\n        /* \"#utility.yul\":26928:26975   */\n      mstore\n        /* \"#utility.yul\":26992:27123   */\n      tag_658\n        /* \"#utility.yul\":27118:27122   */\n      dup2\n        /* \"#utility.yul\":26992:27123   */\n      tag_388\n      jump\t// in\n    tag_658:\n        /* \"#utility.yul\":26984:27123   */\n      swap1\n      pop\n        /* \"#utility.yul\":26711:27130   */\n      swap2\n      swap1\n      pop\n      jump\t// out\n        /* \"#utility.yul\":27136:27309   */\n    tag_389:\n        /* \"#utility.yul\":27276:27301   */\n      0x43616e277420757064617465204e554c4c206c6576656c000000000000000000\n        /* \"#utility.yul\":27272:27273   */\n      0x00\n        /* \"#utility.yul\":27264:27270   */\n      dup3\n        /* \"#utility.yul\":27260:27274   */\n      add\n        /* \"#utility.yul\":27253:27302   */\n      mstore\n        /* \"#utility.yul\":27136:27309   */\n      pop\n      jump\t// out\n        /* \"#utility.yul\":27315:27681   */\n    tag_390:\n        /* \"#utility.yul\":27457:27460   */\n      0x00\n        /* \"#utility.yul\":27478:27545   */\n      tag_661\n        /* \"#utility.yul\":27542:27544   */\n      0x17\n        /* \"#utility.yul\":27537:27540   */\n      dup4\n        /* \"#utility.yul\":27478:27545   */\n      tag_344\n      jump\t// in\n    tag_661:\n        /* \"#utility.yul\":27471:27545   */\n      swap2\n      pop\n        /* \"#utility.yul\":27554:27647   */\n      tag_662\n        /* \"#utility.yul\":27643:27646   */\n      dup3\n        /* \"#utility.yul\":27554:27647   */\n      tag_389\n      jump\t// in\n    tag_662:\n        /* \"#utility.yul\":27672:27674   */\n      0x20\n        /* \"#utility.yul\":27667:27670   */\n      dup3\n        /* \"#utility.yul\":27663:27675   */\n      add\n        /* \"#utility.yul\":27656:27675   */\n      swap1\n      pop\n        /* \"#utility.yul\":27315:27681   */\n      swap2\n      swap1\n      pop\n      jump\t// out\n        /* \"#utility.yul\":27687:28106   */\n    tag_274:\n        /* \"#utility.yul\":27853:27857   */\n      0x00\n        /* \"#utility.yul\":27891:27893   */\n      0x20\n        /* \"#utility.yul\":27880:27889   */\n      dup3\n        /* \"#utility.yul\":27876:27894   */\n      add\n        /* \"#utility.yul\":27868:27894   */\n      swap1\n      pop\n        /* \"#utility.yul\":27940:27949   */\n      dup2\n        /* \"#utility.yul\":27934:27938   */\n      dup2\n        /* \"#utility.yul\":27930:27950   */\n      sub\n        /* \"#utility.yul\":27926:27927   */\n      0x00\n        /* \"#utility.yul\":27915:27924   */\n      dup4\n        /* \"#utility.yul\":27911:27928   */\n      add\n        /* \"#utility.yul\":27904:27951   */\n      mstore\n        /* \"#utility.yul\":27968:28099   */\n      tag_664\n        /* \"#utility.yul\":28094:28098   */\n      dup2\n        /* \"#utility.yul\":27968:28099   */\n      tag_390\n      jump\t// in\n    tag_664:\n        /* \"#utility.yul\":27960:28099   */\n      swap1\n      pop\n        /* \"#utility.yul\":27687:28106   */\n      swap2\n      swap1\n      pop\n      jump\t// out\n        /* \"#utility.yul\":28112:28209   */\n    tag_391:\n        /* \"#utility.yul\":28171:28177   */\n      0x00\n        /* \"#utility.yul\":28199:28202   */\n      dup3\n        /* \"#utility.yul\":28189:28202   */\n      swap1\n      pop\n        /* \"#utility.yul\":28112:28209   */\n      swap3\n      swap2\n      pop\n      pop\n      jump\t// out\n        /* \"#utility.yul\":28215:28395   */\n    tag_392:\n        /* \"#utility.yul\":28263:28340   */\n      0x4e487b7100000000000000000000000000000000000000000000000000000000\n        /* \"#utility.yul\":28260:28261   */\n      0x00\n        /* \"#utility.yul\":28253:28341   */\n      mstore\n        /* \"#utility.yul\":28360:28364   */\n      0x41\n        /* \"#utility.yul\":28357:28358   */\n      0x04\n        /* \"#utility.yul\":28350:28365   */\n      mstore\n        /* \"#utility.yul\":28384:28388   */\n      0x24\n        /* \"#utility.yul\":28381:28382   */\n      0x00\n        /* \"#utility.yul\":28374:28389   */\n      revert\n        /* \"#utility.yul\":28401:28542   */\n    tag_393:\n        /* \"#utility.yul\":28450:28454   */\n      0x00\n        /* \"#utility.yul\":28473:28476   */\n      dup2\n        /* \"#utility.yul\":28465:28476   */\n      swap1\n      pop\n        /* \"#utility.yul\":28496:28499   */\n      dup2\n        /* \"#utility.yul\":28493:28494   */\n      0x00\n        /* \"#utility.yul\":28486:28500   */\n      mstore\n        /* \"#utility.yul\":28530:28534   */\n      0x20\n        /* \"#utility.yul\":28527:28528   */\n      0x00\n        /* \"#utility.yul\":28517:28535   */\n      keccak256\n        /* \"#utility.yul\":28509:28535   */\n      swap1\n      pop\n        /* \"#utility.yul\":28401:28542   */\n      swap2\n      swap1\n      pop\n      jump\t// out\n        /* \"#utility.yul\":28548:28641   */\n    tag_394:\n        /* \"#utility.yul\":28585:28591   */\n      0x00\n        /* \"#utility.yul\":28632:28634   */\n      0x20\n        /* \"#utility.yul\":28627:28629   */\n      0x1f\n        /* \"#utility.yul\":28620:28625   */\n      dup4\n        /* \"#utility.yul\":28616:28630   */\n      add\n        /* \"#utility.yul\":28612:28635   */\n      div\n        /* \"#utility.yul\":28602:28635   */\n      swap1\n      pop\n        /* \"#utility.yul\":28548:28641   */\n      swap2\n      swap1\n      pop\n      jump\t// out\n        /* \"#utility.yul\":28647:28754   */\n    tag_395:\n        /* \"#utility.yul\":28691:28699   */\n      0x00\n        /* \"#utility.yul\":28741:28746   */\n      dup3\n        /* \"#utility.yul\":28735:28739   */\n      dup3\n        /* \"#utility.yul\":28731:28747   */\n      shl\n        /* \"#utility.yul\":28710:28747   */\n      swap1\n      pop\n        /* \"#utility.yul\":28647:28754   */\n      swap3\n      swap2\n      pop\n      pop\n      jump\t// out\n        /* \"#utility.yul\":28760:29153   */\n    tag_396:\n        /* \"#utility.yul\":28829:28835   */\n      0x00\n        /* \"#utility.yul\":28879:28880   */\n      0x08\n        /* \"#utility.yul\":28867:28877   */\n      dup4\n        /* \"#utility.yul\":28863:28881   */\n      mul\n        /* \"#utility.yul\":28902:28999   */\n      tag_671\n        /* \"#utility.yul\":28932:28998   */\n      0xffffffffffffffffffffffffffffffffffffffffffffffffffffffffffffffff\n        /* \"#utility.yul\":28921:28930   */\n      dup3\n        /* \"#utility.yul\":28902:28999   */\n      tag_395\n      jump\t// in\n    tag_671:\n        /* \"#utility.yul\":29020:29059   */\n      tag_672\n        /* \"#utility.yul\":29050:29058   */\n      dup7\n        /* \"#utility.yul\":29039:29048   */\n      dup4\n        /* \"#utility.yul\":29020:29059   */\n      tag_395\n      jump\t// in\n    tag_672:\n        /* \"#utility.yul\":29008:29059   */\n      swap6\n      pop\n        /* \"#utility.yul\":29092:29096   */\n      dup1\n        /* \"#utility.yul\":29088:29097   */\n      not\n        /* \"#utility.yul\":29081:29086   */\n      dup5\n        /* \"#utility.yul\":29077:29098   */\n      and\n        /* \"#utility.yul\":29068:29098   */\n      swap4\n      pop\n        /* \"#utility.yul\":29141:29145   */\n      dup1\n        /* \"#utility.yul\":29131:29139   */\n      dup7\n        /* \"#utility.yul\":29127:29146   */\n      and\n        /* \"#utility.yul\":29120:29125   */\n      dup5\n        /* \"#utility.yul\":29117:29147   */\n      or\n        /* \"#utility.yul\":29107:29147   */\n      swap3\n      pop\n        /* \"#utility.yul\":28836:29153   */\n      pop\n      pop\n        /* \"#utility.yul\":28760:29153   */\n      swap4\n      swap3\n      pop\n      pop\n      pop\n      jump\t// out\n        /* \"#utility.yul\":29159:29219   */\n    tag_397:\n        /* \"#utility.yul\":29187:29190   */\n      0x00\n        /* \"#utility.yul\":29208:29213   */\n      dup2\n        /* \"#utility.yul\":29201:29213   */\n      swap1\n      pop\n        /* \"#utility.yul\":29159:29219   */\n      swap2\n      swap1\n      pop\n      jump\t// out\n        /* \"#utility.yul\":29225:29367   */\n    tag_398:\n        /* \"#utility.yul\":29275:29284   */\n      0x00\n        /* \"#utility.yul\":29308:29361   */\n      tag_675\n        /* \"#utility.yul\":29326:29360   */\n      tag_676\n        /* \"#utility.yul\":29335:29359   */\n      tag_677\n        /* \"#utility.yul\":29353:29358   */\n      dup5\n        /* \"#utility.yul\":29335:29359   */\n      tag_349\n      jump\t// in\n    tag_677:\n        /* \"#utility.yul\":29326:29360   */\n      tag_397\n      jump\t// in\n    tag_676:\n        /* \"#utility.yul\":29308:29361   */\n      tag_349\n      jump\t// in\n    tag_675:\n        /* \"#utility.yul\":29295:29361   */\n      swap1\n      pop\n        /* \"#utility.yul\":29225:29367   */\n      swap2\n      swap1\n      pop\n      jump\t// out\n        /* \"#utility.yul\":29373:29448   */\n    tag_399:\n        /* \"#utility.yul\":29416:29419   */\n      0x00\n        /* \"#utility.yul\":29437:29442   */\n      dup2\n        /* \"#utility.yul\":29430:29442   */\n      swap1\n      pop\n        /* \"#utility.yul\":29373:29448   */\n      swap2\n      swap1\n      pop\n      jump\t// out\n        /* \"#utility.yul\":29454:29723   */\n    tag_400:\n        /* \"#utility.yul\":29564:29603   */\n      tag_680\n        /* \"#utility.yul\":29595:29602   */\n      dup4\n        /* \"#utility.yul\":29564:29603   */\n      tag_398\n      jump\t// in\n    tag_680:\n        /* \"#utility.yul\":29625:29716   */\n      tag_681\n        /* \"#utility.yul\":29674:29715   */\n      tag_682\n        /* \"#utility.yul\":29698:29714   */\n      dup3\n        /* \"#utility.yul\":29674:29715   */\n      tag_399\n      jump\t// in\n    tag_682:\n        /* \"#utility.yul\":29666:29672   */\n      dup5\n        /* \"#utility.yul\":29659:29663   */\n      dup5\n        /* \"#utility.yul\":29653:29664   */\n      sload\n        /* \"#utility.yul\":29625:29716   */\n      tag_396\n      jump\t// in\n    tag_681:\n        /* \"#utility.yul\":29619:29623   */\n      dup3\n        /* \"#utility.yul\":29612:29717   */\n      sstore\n        /* \"#utility.yul\":29530:29723   */\n      pop\n        /* \"#utility.yul\":29454:29723   */\n      pop\n      pop\n      pop\n      jump\t// out\n        /* \"#utility.yul\":29729:29802   */\n    tag_401:\n        /* \"#utility.yul\":29774:29777   */\n      0x00\n        /* \"#utility.yul\":29729:29802   */\n      swap1\n      jump\t// out\n        /* \"#utility.yul\":29808:29997   */\n    tag_402:\n        /* \"#utility.yul\":29885:29917   */\n      tag_685\n      tag_401\n      jump\t// in\n    tag_685:\n        /* \"#utility.yul\":29926:29991   */\n      tag_686\n        /* \"#utility.yul\":29984:29990   */\n      dup2\n        /* \"#utility.yul\":29976:29982   */\n      dup5\n        /* \"#utility.yul\":29970:29974   */\n      dup5\n        /* \"#utility.yul\":29926:29991   */\n      tag_400\n      jump\t// in\n    tag_686:\n        /* \"#utility.yul\":29861:29997   */\n      pop\n        /* \"#utility.yul\":29808:29997   */\n      pop\n      pop\n      jump\t// out\n        /* \"#utility.yul\":30003:30189   */\n    tag_403:\n        /* \"#utility.yul\":30063:30183   */\n    tag_688:\n        /* \"#utility.yul\":30080:30083   */\n      dup2\n        /* \"#utility.yul\":30073:30078   */\n      dup2\n        /* \"#utility.yul\":30070:30084   */\n      lt\n        /* \"#utility.yul\":30063:30183   */\n      iszero\n      tag_690\n      jumpi\n        /* \"#utility.yul\":30134:30173   */\n      tag_691\n        /* \"#utility.yul\":30171:30172   */\n      0x00\n        /* \"#utility.yul\":30164:30169   */\n      dup3\n        /* \"#utility.yul\":30134:30173   */\n      tag_402\n      jump\t// in\n    tag_691:\n        /* \"#utility.yul\":30107:30108   */\n      0x01\n        /* \"#utility.yul\":30100:30105   */\n      dup2\n        /* \"#utility.yul\":30096:30109   */\n      add\n        /* \"#utility.yul\":30087:30109   */\n      swap1\n      pop\n        /* \"#utility.yul\":30063:30183   */\n      jump(tag_688)\n    tag_690:\n        /* \"#utility.yul\":30003:30189   */\n      pop\n      pop\n      jump\t// out\n        /* \"#utility.yul\":30195:30738   */\n    tag_404:\n        /* \"#utility.yul\":30296:30298   */\n      0x1f\n        /* \"#utility.yul\":30291:30294   */\n      dup3\n        /* \"#utility.yul\":30288:30299   */\n      gt\n        /* \"#utility.yul\":30285:30731   */\n      iszero\n      tag_693\n      jumpi\n        /* \"#utility.yul\":30330:30368   */\n      tag_694\n        /* \"#utility.yul\":30362:30367   */\n      dup2\n        /* \"#utility.yul\":30330:30368   */\n      tag_393\n      jump\t// in\n    tag_694:\n        /* \"#utility.yul\":30414:30443   */\n      tag_695\n        /* \"#utility.yul\":30432:30442   */\n      dup5\n        /* \"#utility.yul\":30414:30443   */\n      tag_394\n      jump\t// in\n    tag_695:\n        /* \"#utility.yul\":30404:30412   */\n      dup2\n        /* \"#utility.yul\":30400:30444   */\n      add\n        /* \"#utility.yul\":30597:30599   */\n      0x20\n        /* \"#utility.yul\":30585:30595   */\n      dup6\n        /* \"#utility.yul\":30582:30600   */\n      lt\n        /* \"#utility.yul\":30579:30628   */\n      iszero\n      tag_696\n      jumpi\n        /* \"#utility.yul\":30618:30626   */\n      dup2\n        /* \"#utility.yul\":30603:30626   */\n      swap1\n      pop\n        /* \"#utility.yul\":30579:30628   */\n    tag_696:\n        /* \"#utility.yul\":30641:30721   */\n      tag_697\n        /* \"#utility.yul\":30697:30719   */\n      tag_698\n        /* \"#utility.yul\":30715:30718   */\n      dup6\n        /* \"#utility.yul\":30697:30719   */\n      tag_394\n      jump\t// in\n    tag_698:\n        /* \"#utility.yul\":30687:30695   */\n      dup4\n        /* \"#utility.yul\":30683:30720   */\n      add\n        /* \"#utility.yul\":30670:30681   */\n      dup3\n        /* \"#utility.yul\":30641:30721   */\n      tag_403\n      jump\t// in\n    tag_697:\n        /* \"#utility.yul\":30300:30731   */\n      pop\n      pop\n        /* \"#utility.yul\":30285:30731   */\n    tag_693:\n        /* \"#utility.yul\":30195:30738   */\n      pop\n      pop\n      pop\n      jump\t// out\n        /* \"#utility.yul\":30744:30861   */\n    tag_405:\n        /* \"#utility.yul\":30798:30806   */\n      0x00\n        /* \"#utility.yul\":30848:30853   */\n      dup3\n        /* \"#utility.yul\":30842:30846   */\n      dup3\n        /* \"#utility.yul\":30838:30854   */\n      shr\n        /* \"#utility.yul\":30817:30854   */\n      swap1\n      pop\n        /* \"#utility.yul\":30744:30861   */\n      swap3\n      swap2\n      pop\n      pop\n      jump\t// out\n        /* \"#utility.yul\":30867:31036   */\n    tag_406:\n        /* \"#utility.yul\":30911:30917   */\n      0x00\n        /* \"#utility.yul\":30944:30995   */\n      tag_701\n        /* \"#utility.yul\":30992:30993   */\n      0x00\n        /* \"#utility.yul\":30988:30994   */\n      not\n        /* \"#utility.yul\":30980:30985   */\n      dup5\n        /* \"#utility.yul\":30977:30978   */\n      0x08\n        /* \"#utility.yul\":30973:30986   */\n      mul\n        /* \"#utility.yul\":30944:30995   */\n      tag_405\n      jump\t// in\n    tag_701:\n        /* \"#utility.yul\":30940:30996   */\n      not\n        /* \"#utility.yul\":31025:31029   */\n      dup1\n        /* \"#utility.yul\":31019:31023   */\n      dup4\n        /* \"#utility.yul\":31015:31030   */\n      and\n        /* \"#utility.yul\":31005:31030   */\n      swap2\n      pop\n        /* \"#utility.yul\":30918:31036   */\n      pop\n        /* \"#utility.yul\":30867:31036   */\n      swap3\n      swap2\n      pop\n      pop\n      jump\t// out\n        /* \"#utility.yul\":31041:31336   */\n    tag_407:\n        /* \"#utility.yul\":31117:31121   */\n      0x00\n        /* \"#utility.yul\":31263:31292   */\n      tag_703\n        /* \"#utility.yul\":31288:31291   */\n      dup4\n        /* \"#utility.yul\":31282:31286   */\n      dup4\n        /* \"#utility.yul\":31263:31292   */\n      tag_406\n      jump\t// in\n    tag_703:\n        /* \"#utility.yul\":31255:31292   */\n      swap2\n      pop\n        /* \"#utility.yul\":31325:31328   */\n      dup3\n        /* \"#utility.yul\":31322:31323   */\n      0x02\n        /* \"#utility.yul\":31318:31329   */\n      mul\n        /* \"#utility.yul\":31312:31316   */\n      dup3\n        /* \"#utility.yul\":31309:31330   */\n      or\n        /* \"#utility.yul\":31301:31330   */\n      swap1\n      pop\n        /* \"#utility.yul\":31041:31336   */\n      swap3\n      swap2\n      pop\n      pop\n      jump\t// out\n        /* \"#utility.yul\":31341:32744   */\n    tag_285:\n        /* \"#utility.yul\":31465:31509   */\n      tag_705\n        /* \"#utility.yul\":31505:31508   */\n      dup4\n        /* \"#utility.yul\":31500:31503   */\n      dup4\n        /* \"#utility.yul\":31465:31509   */\n      tag_391\n      jump\t// in\n    tag_705:\n        /* \"#utility.yul\":31574:31592   */\n      0xffffffffffffffff\n        /* \"#utility.yul\":31566:31572   */\n      dup2\n        /* \"#utility.yul\":31563:31593   */\n      gt\n        /* \"#utility.yul\":31560:31616   */\n      iszero\n      tag_706\n      jumpi\n        /* \"#utility.yul\":31596:31614   */\n      tag_707\n      tag_392\n      jump\t// in\n    tag_707:\n        /* \"#utility.yul\":31560:31616   */\n    tag_706:\n        /* \"#utility.yul\":31640:31678   */\n      tag_708\n        /* \"#utility.yul\":31672:31676   */\n      dup3\n        /* \"#utility.yul\":31666:31677   */\n      sload\n        /* \"#utility.yul\":31640:31678   */\n      tag_151\n      jump\t// in\n    tag_708:\n        /* \"#utility.yul\":31725:31792   */\n      tag_709\n        /* \"#utility.yul\":31785:31791   */\n      dup3\n        /* \"#utility.yul\":31777:31783   */\n      dup3\n        /* \"#utility.yul\":31771:31775   */\n      dup6\n        /* \"#utility.yul\":31725:31792   */\n      tag_404\n      jump\t// in\n    tag_709:\n        /* \"#utility.yul\":31819:31820   */\n      0x00\n        /* \"#utility.yul\":31848:31850   */\n      0x1f\n        /* \"#utility.yul\":31840:31846   */\n      dup4\n        /* \"#utility.yul\":31837:31851   */\n      gt\n        /* \"#utility.yul\":31865:31866   */\n      0x01\n        /* \"#utility.yul\":31860:32492   */\n      dup2\n      eq\n      tag_711\n      jumpi\n        /* \"#utility.yul\":32536:32537   */\n      0x00\n        /* \"#utility.yul\":32553:32559   */\n      dup5\n        /* \"#utility.yul\":32550:32634   */\n      iszero\n      tag_712\n      jumpi\n        /* \"#utility.yul\":32609:32618   */\n      dup3\n        /* \"#utility.yul\":32604:32607   */\n      dup8\n        /* \"#utility.yul\":32600:32619   */\n      add\n        /* \"#utility.yul\":32587:32620   */\n      calldataload\n        /* \"#utility.yul\":32578:32620   */\n      swap1\n      pop\n        /* \"#utility.yul\":32550:32634   */\n    tag_712:\n        /* \"#utility.yul\":32660:32727   */\n      tag_713\n        /* \"#utility.yul\":32720:32726   */\n      dup6\n        /* \"#utility.yul\":32713:32718   */\n      dup3\n        /* \"#utility.yul\":32660:32727   */\n      tag_407\n      jump\t// in\n    tag_713:\n        /* \"#utility.yul\":32654:32658   */\n      dup7\n        /* \"#utility.yul\":32647:32728   */\n      sstore\n        /* \"#utility.yul\":32509:32738   */\n      pop\n        /* \"#utility.yul\":31830:32738   */\n      jump(tag_710)\n        /* \"#utility.yul\":31860:32492   */\n    tag_711:\n        /* \"#utility.yul\":31912:31916   */\n      0x1f\n        /* \"#utility.yul\":31908:31917   */\n      not\n        /* \"#utility.yul\":31900:31906   */\n      dup5\n        /* \"#utility.yul\":31896:31918   */\n      and\n        /* \"#utility.yul\":31946:31983   */\n      tag_714\n        /* \"#utility.yul\":31978:31982   */\n      dup7\n        /* \"#utility.yul\":31946:31983   */\n      tag_393\n      jump\t// in\n    tag_714:\n        /* \"#utility.yul\":32005:32006   */\n      0x00\n        /* \"#utility.yul\":32019:32234   */\n    tag_715:\n        /* \"#utility.yul\":32033:32040   */\n      dup3\n        /* \"#utility.yul\":32030:32031   */\n      dup2\n        /* \"#utility.yul\":32027:32041   */\n      lt\n        /* \"#utility.yul\":32019:32234   */\n      iszero\n      tag_717\n      jumpi\n        /* \"#utility.yul\":32119:32128   */\n      dup5\n        /* \"#utility.yul\":32114:32117   */\n      dup10\n        /* \"#utility.yul\":32110:32129   */\n      add\n        /* \"#utility.yul\":32097:32130   */\n      calldataload\n        /* \"#utility.yul\":32089:32095   */\n      dup3\n        /* \"#utility.yul\":32082:32131   */\n      sstore\n        /* \"#utility.yul\":32170:32171   */\n      0x01\n        /* \"#utility.yul\":32162:32168   */\n      dup3\n        /* \"#utility.yul\":32158:32172   */\n      add\n        /* \"#utility.yul\":32148:32172   */\n      swap2\n      pop\n        /* \"#utility.yul\":32217:32219   */\n      0x20\n        /* \"#utility.yul\":32206:32215   */\n      dup6\n        /* \"#utility.yul\":32202:32220   */\n      add\n        /* \"#utility.yul\":32189:32220   */\n      swap5\n      pop\n        /* \"#utility.yul\":32056:32060   */\n      0x20\n        /* \"#utility.yul\":32053:32054   */\n      dup2\n        /* \"#utility.yul\":32049:32061   */\n      add\n        /* \"#utility.yul\":32044:32061   */\n      swap1\n      pop\n        /* \"#utility.yul\":32019:32234   */\n      jump(tag_715)\n    tag_717:\n        /* \"#utility.yul\":32262:32268   */\n      dup7\n        /* \"#utility.yul\":32253:32260   */\n      dup4\n        /* \"#utility.yul\":32250:32269   */\n      lt\n        /* \"#utility.yul\":32247:32433   */\n      iszero\n      tag_718\n      jumpi\n        /* \"#utility.yul\":32327:32336   */\n      dup5\n        /* \"#utility.yul\":32322:32325   */\n      dup10\n        /* \"#utility.yul\":32318:32337   */\n      add\n        /* \"#utility.yul\":32305:32338   */\n      calldataload\n        /* \"#utility.yul\":32370:32418   */\n      tag_719\n        /* \"#utility.yul\":32412:32416   */\n      0x1f\n        /* \"#utility.yul\":32404:32410   */\n      dup10\n        /* \"#utility.yul\":32400:32417   */\n      and\n        /* \"#utility.yul\":32389:32398   */\n      dup3\n        /* \"#utility.yul\":32370:32418   */\n      tag_406\n      jump\t// in\n    tag_719:\n        /* \"#utility.yul\":32362:32368   */\n      dup4\n        /* \"#utility.yul\":32355:32419   */\n      sstore\n        /* \"#utility.yul\":32270:32433   */\n      pop\n        /* \"#utility.yul\":32247:32433   */\n    tag_718:\n        /* \"#utility.yul\":32479:32480   */\n      0x01\n        /* \"#utility.yul\":32475:32476   */\n      0x02\n        /* \"#utility.yul\":32467:32473   */\n      dup9\n        /* \"#utility.yul\":32463:32477   */\n      mul\n        /* \"#utility.yul\":32459:32481   */\n      add\n        /* \"#utility.yul\":32453:32457   */\n      dup9\n        /* \"#utility.yul\":32446:32482   */\n      sstore\n        /* \"#utility.yul\":31867:32492   */\n      pop\n      pop\n      pop\n        /* \"#utility.yul\":31830:32738   */\n    tag_710:\n      pop\n        /* \"#utility.yul\":31440:32744   */\n      pop\n      pop\n      pop\n        /* \"#utility.yul\":31341:32744   */\n      pop\n      pop\n      pop\n      jump\t// out\n\n    auxdata: 0xa26469706673582212203fe85a64903e2f5c69bfddb418419843f0f4af3a52505f9e96ad39107f4eebe964736f6c63430008110033\n}\n",
				"bytecode": {
					"linkReferences": {},
					"object": "608060405234801561001057600080fd5b506001600460003373ffffffffffffffffffffffffffffffffffffffff1673ffffffffffffffffffffffffffffffffffffffff16815260200190815260200160002060006101000a81548160ff021916908315150217905550613475806100786000396000f3fe608060405234801561001057600080fd5b50600436106101735760003560e01c8063906cbf57116100de578063ac28521911610097578063cb91f37d11610071578063cb91f37d14610482578063d86a10261461049e578063dd83599b146104ba578063ffbc9bd0146104ea57610173565b8063ac28521914610406578063b26be14c14610422578063c160404e1461045257610173565b8063906cbf57146103345780639b19251a146103645780639f39154414610394578063a39fac12146103b0578063a60fb5de146103ce578063aa0c8a7b146103ea57610173565b80634b0bddd2116101305780634b0bddd21461025e5780634ba79dfe1461027a578063589384b914610296578063705ed7ae146102b457806375743a15146102e85780637f2816351461030457610173565b806304737394146101785780630b69a1e9146101a85780630c394a60146101d857806333b005d0146101f657806333b49ed8146102265780633ffbd47f14610242575b600080fd5b610192600480360381019061018d919061241d565b610508565b60405161019f9190612459565b60405180910390f35b6101c260048036038101906101bd919061241d565b61053b565b6040516101cf919061248f565b60405180910390f35b6101e061055b565b6040516101ed9190612575565b60405180910390f35b610210600480360381019061020b919061241d565b6105d9565b60405161021d919061248f565b60405180910390f35b610240600480360381019061023b91906125c3565b6105f9565b005b61025c60048036038101906102579190612668565b610d2a565b005b61027860048036038101906102739190612715565b610e9a565b005b610294600480360381019061028f919061241d565b610ff6565b005b61029e611310565b6040516102ab919061248f565b60405180910390f35b6102ce60048036038101906102c99190612755565b611323565b6040516102df95949392919061284d565b60405180910390f35b61030260048036038101906102fd91906128a7565b6114c8565b005b61031e6004803603810190610319919061241d565b6116d0565b60405161032b91906128d4565b60405180910390f35b61034e600480360381019061034991906128a7565b611770565b60405161035b9190612459565b60405180910390f35b61037e6004803603810190610379919061241d565b6117a3565b60405161038b919061248f565b60405180910390f35b6103ae60048036038101906103a9919061292c565b6117c3565b005b6103b8611860565b6040516103c59190612a17565b60405180910390f35b6103e860048036038101906103e39190612a39565b6118ee565b005b61040460048036038101906103ff9190612755565b61199e565b005b610420600480360381019061041b9190612755565b611b7a565b005b61043c60048036038101906104379190612755565b611d11565b6040516104499190612a66565b60405180910390f35b61046c60048036038101906104679190612755565b611d36565b6040516104799190612a81565b60405180910390f35b61049c60048036038101906104979190612a39565b611d65565b005b6104b860048036038101906104b39190612715565b611e15565b005b6104d460048036038101906104cf919061241d565b611f03565b6040516104e1919061248f565b60405180910390f35b6104f2611f23565b6040516104ff919061248f565b60405180910390f35b600a6020528060005260406000206000915054906101000a900473ffffffffffffffffffffffffffffffffffffffff1681565b60016020528060005260406000206000915054906101000a900460ff1681565b606060028054806020026020016040519081016040528092919081815260200182805480156105cf57602002820191906000526020600020906000905b82829054906101000a900460ff1660ff16815260200190600101906020826000010492830192600103820291508084116105985790505b5050505050905090565b60046020528060005260406000206000915054906101000a900460ff1681565b60011515600b60009054906101000a900460ff1615151461064f576040517f08c379a000000000000000000000000000000000000000000000000000000000815260040161064690612ae8565b60405180910390fd5b60011515600360003373ffffffffffffffffffffffffffffffffffffffff1673ffffffffffffffffffffffffffffffffffffffff16815260200190815260200160002060009054906101000a900460ff161515146106e2576040517f08c379a00000000000000000000000000000000000000000000000000000000081526004016106d990612b54565b60405180910390fd5b600073ffffffffffffffffffffffffffffffffffffffff16600660008460ff1660ff16815260200190815260200160002060009054906101000a900473ffffffffffffffffffffffffffffffffffffffff1673ffffffffffffffffffffffffffffffffffffffff160361078a576040517f08c379a000000000000000000000000000000000000000000000000000000000815260040161078190612bc0565b60405180910390fd5b600073ffffffffffffffffffffffffffffffffffffffff16600a60008373ffffffffffffffffffffffffffffffffffffffff1673ffffffffffffffffffffffffffffffffffffffff16815260200190815260200160002060009054906101000a900473ffffffffffffffffffffffffffffffffffffffff1673ffffffffffffffffffffffffffffffffffffffff1614806108ae57503373ffffffffffffffffffffffffffffffffffffffff16600a60008373ffffffffffffffffffffffffffffffffffffffff1673ffffffffffffffffffffffffffffffffffffffff16815260200190815260200160002060009054906101000a900473ffffffffffffffffffffffffffffffffffffffff1673ffffffffffffffffffffffffffffffffffffffff16145b6108ed576040517f08c379a00000000000000000000000000000000000000000000000000000000081526004016108e490612c2c565b60405180910390fd5b6000600960003373ffffffffffffffffffffffffffffffffffffffff1673ffffffffffffffffffffffffffffffffffffffff168152602001908152602001600020805461093990612c7b565b90500361097b576040517f08c379a000000000000000000000000000000000000000000000000000000000815260040161097290612cf8565b60405180910390fd5b33600a60008373ffffffffffffffffffffffffffffffffffffffff1673ffffffffffffffffffffffffffffffffffffffff16815260200190815260200160002060006101000a81548173ffffffffffffffffffffffffffffffffffffffff021916908373ffffffffffffffffffffffffffffffffffffffff1602179055506000600660008460ff1660ff16815260200190815260200160002060009054906101000a900473ffffffffffffffffffffffffffffffffffffffff1690506000808273ffffffffffffffffffffffffffffffffffffffff166397bf4cfb856040518263ffffffff1660e01b8152600401610a739190612459565b60408051808303816000875af1158015610a91573d6000803e3d6000fd5b505050506040513d601f19601f82011682018060405250810190610ab59190612d59565b915091508160ff16600760003373ffffffffffffffffffffffffffffffffffffffff1673ffffffffffffffffffffffffffffffffffffffff16815260200190815260200160002060008760ff1660ff16815260200190815260200160002060009054906101000a900460ff1660ff161015610bf55781600760003373ffffffffffffffffffffffffffffffffffffffff1673ffffffffffffffffffffffffffffffffffffffff16815260200190815260200160002060008760ff1660ff16815260200190815260200160002060006101000a81548160ff021916908360ff16021790555080600860003373ffffffffffffffffffffffffffffffffffffffff1673ffffffffffffffffffffffffffffffffffffffff16815260200190815260200160002060008760ff1660ff168152602001908152602001600020819055505b8160ff16600760003373ffffffffffffffffffffffffffffffffffffffff1673ffffffffffffffffffffffffffffffffffffffff16815260200190815260200160002060008760ff1660ff16815260200190815260200160002060009054906101000a900460ff1660ff16148015610cc2575080600860003373ffffffffffffffffffffffffffffffffffffffff1673ffffffffffffffffffffffffffffffffffffffff16815260200190815260200160002060008760ff1660ff16815260200190815260200160002054115b15610d235780600860003373ffffffffffffffffffffffffffffffffffffffff1673ffffffffffffffffffffffffffffffffffffffff16815260200190815260200160002060008760ff1660ff168152602001908152602001600020819055505b5050505050565b600c548282604051602001610d40929190612dd8565b6040516020818303038152906040528051906020012014610d96576040517f08c379a0000000000000000000000000000000000000000000000000000000008152600401610d8d90612e3d565b60405180910390fd5b60011515600b60019054906101000a900460ff16151514610dec576040517f08c379a0000000000000000000000000000000000000000000000000000000008152600401610de390612ea9565b60405180910390fd5b60008484905003610e32576040517f08c379a0000000000000000000000000000000000000000000000000000000008152600401610e2990612cf8565b60405180910390fd5b610e3c8484611f36565b6001600360003373ffffffffffffffffffffffffffffffffffffffff1673ffffffffffffffffffffffffffffffffffffffff16815260200190815260200160002060006101000a81548160ff02191690831515021790555050505050565b60011515600460003373ffffffffffffffffffffffffffffffffffffffff1673ffffffffffffffffffffffffffffffffffffffff16815260200190815260200160002060009054906101000a900460ff16151514610f2d576040517f08c379a0000000000000000000000000000000000000000000000000000000008152600401610f2490612f15565b60405180910390fd5b3373ffffffffffffffffffffffffffffffffffffffff168273ffffffffffffffffffffffffffffffffffffffff1603610f9b576040517f08c379a0000000000000000000000000000000000000000000000000000000008152600401610f9290612f81565b60405180910390fd5b80600460008473ffffffffffffffffffffffffffffffffffffffff1673ffffffffffffffffffffffffffffffffffffffff16815260200190815260200160002060006101000a81548160ff0219169083151502179055505050565b60011515600460003373ffffffffffffffffffffffffffffffffffffffff1673ffffffffffffffffffffffffffffffffffffffff16815260200190815260200160002060009054906101000a900460ff16151514611089576040517f08c379a000000000000000000000000000000000000000000000000000000000815260040161108090612f15565b60405180910390fd5b60005b6000805490508160ff16101561121a578173ffffffffffffffffffffffffffffffffffffffff1660008260ff16815481106110ca576110c9612fa1565b5b9060005260206000200160009054906101000a900473ffffffffffffffffffffffffffffffffffffffff1673ffffffffffffffffffffffffffffffffffffffff160361120757600060016000805490506111249190612fff565b8154811061113557611134612fa1565b5b9060005260206000200160009054906101000a900473ffffffffffffffffffffffffffffffffffffffff1660008260ff168154811061117757611176612fa1565b5b9060005260206000200160006101000a81548173ffffffffffffffffffffffffffffffffffffffff021916908373ffffffffffffffffffffffffffffffffffffffff16021790555060008054806111d1576111d0613033565b5b6001900381819060005260206000200160006101000a81549073ffffffffffffffffffffffffffffffffffffffff021916905590555b808061121290613062565b91505061108c565b50600160008273ffffffffffffffffffffffffffffffffffffffff1673ffffffffffffffffffffffffffffffffffffffff16815260200190815260200160002060006101000a81549060ff0219169055600360008273ffffffffffffffffffffffffffffffffffffffff1673ffffffffffffffffffffffffffffffffffffffff16815260200190815260200160002060006101000a81549060ff0219169055600960008273ffffffffffffffffffffffffffffffffffffffff1673ffffffffffffffffffffffffffffffffffffffff16815260200190815260200160002060006113049190612358565b61130d8161209c565b50565b600b60019054906101000a900460ff1681565b60006060600080600086600960008973ffffffffffffffffffffffffffffffffffffffff1673ffffffffffffffffffffffffffffffffffffffff16815260200190815260200160002087600760008b73ffffffffffffffffffffffffffffffffffffffff1673ffffffffffffffffffffffffffffffffffffffff16815260200190815260200160002060008a60ff1660ff16815260200190815260200160002060009054906101000a900460ff16600860008c73ffffffffffffffffffffffffffffffffffffffff1673ffffffffffffffffffffffffffffffffffffffff16815260200190815260200160002060008b60ff1660ff1681526020019081526020016000205483805461143490612c7b565b80601f016020809104026020016040519081016040528092919081815260200182805461146090612c7b565b80156114ad5780601f10611482576101008083540402835291602001916114ad565b820191906000526020600020905b81548152906001019060200180831161149057829003601f168201915b50505050509350945094509450945094509295509295909350565b60011515600460003373ffffffffffffffffffffffffffffffffffffffff1673ffffffffffffffffffffffffffffffffffffffff16815260200190815260200160002060009054906101000a900460ff1615151461155b576040517f08c379a000000000000000000000000000000000000000000000000000000000815260040161155290612f15565b60405180910390fd5b60005b6002805490508160ff161015611687578160ff1660028260ff168154811061158957611588612fa1565b5b90600052602060002090602091828204019190069054906101000a900460ff1660ff160361167457600260016002805490506115c59190612fff565b815481106115d6576115d5612fa1565b5b90600052602060002090602091828204019190069054906101000a900460ff1660028260ff168154811061160d5761160c612fa1565b5b90600052602060002090602091828204019190066101000a81548160ff021916908360ff160217905550600280548061164957611648613033565b5b60019003818190600052602060002090602091828204019190066101000a81549060ff021916905590555b808061167f90613062565b91505061155e565b50600660008260ff1660ff16815260200190815260200160002060006101000a81549073ffffffffffffffffffffffffffffffffffffffff02191690556116cd816121f5565b50565b600960205280600052604060002060009150905080546116ef90612c7b565b80601f016020809104026020016040519081016040528092919081815260200182805461171b90612c7b565b80156117685780601f1061173d57610100808354040283529160200191611768565b820191906000526020600020905b81548152906001019060200180831161174b57829003601f168201915b505050505081565b60066020528060005260406000206000915054906101000a900473ffffffffffffffffffffffffffffffffffffffff1681565b60036020528060005260406000206000915054906101000a900460ff1681565b60011515600460003373ffffffffffffffffffffffffffffffffffffffff1673ffffffffffffffffffffffffffffffffffffffff16815260200190815260200160002060009054906101000a900460ff16151514611856576040517f08c379a000000000000000000000000000000000000000000000000000000000815260040161184d90612f15565b60405180910390fd5b80600c8190555050565b606060008054806020026020016040519081016040528092919081815260200182805480156118e457602002820191906000526020600020905b8160009054906101000a900473ffffffffffffffffffffffffffffffffffffffff1673ffffffffffffffffffffffffffffffffffffffff168152602001906001019080831161189a575b5050505050905090565b60011515600460003373ffffffffffffffffffffffffffffffffffffffff1673ffffffffffffffffffffffffffffffffffffffff16815260200190815260200160002060009054906101000a900460ff16151514611981576040517f08c379a000000000000000000000000000000000000000000000000000000000815260040161197890612f15565b60405180910390fd5b80600b60016101000a81548160ff02191690831515021790555050565b60011515600460003373ffffffffffffffffffffffffffffffffffffffff1673ffffffffffffffffffffffffffffffffffffffff16815260200190815260200160002060009054906101000a900460ff16151514611a31576040517f08c379a0000000000000000000000000000000000000000000000000000000008152600401611a2890612f15565b60405180910390fd5b600073ffffffffffffffffffffffffffffffffffffffff16600660008360ff1660ff16815260200190815260200160002060009054906101000a900473ffffffffffffffffffffffffffffffffffffffff1673ffffffffffffffffffffffffffffffffffffffff1614611ad9576040517f08c379a0000000000000000000000000000000000000000000000000000000008152600401611ad0906130fd565b60405180910390fd5b81600660008360ff1660ff16815260200190815260200160002060006101000a81548173ffffffffffffffffffffffffffffffffffffffff021916908373ffffffffffffffffffffffffffffffffffffffff16021790555060028190806001815401808255809150506001900390600052602060002090602091828204019190069091909190916101000a81548160ff021916908360ff1602179055505050565b60011515600460003373ffffffffffffffffffffffffffffffffffffffff1673ffffffffffffffffffffffffffffffffffffffff16815260200190815260200160002060009054906101000a900460ff16151514611c0d576040517f08c379a0000000000000000000000000000000000000000000000000000000008152600401611c0490612f15565b60405180910390fd5b600073ffffffffffffffffffffffffffffffffffffffff16600660008360ff1660ff16815260200190815260200160002060009054906101000a900473ffffffffffffffffffffffffffffffffffffffff1673ffffffffffffffffffffffffffffffffffffffff1603611cb5576040517f08c379a0000000000000000000000000000000000000000000000000000000008152600401611cac90613169565b60405180910390fd5b81600660008360ff1660ff16815260200190815260200160002060006101000a81548173ffffffffffffffffffffffffffffffffffffffff021916908373ffffffffffffffffffffffffffffffffffffffff1602179055505050565b6008602052816000526040600020602052806000526040600020600091509150505481565b60076020528160005260406000206020528060005260406000206000915091509054906101000a900460ff1681565b60011515600460003373ffffffffffffffffffffffffffffffffffffffff1673ffffffffffffffffffffffffffffffffffffffff16815260200190815260200160002060009054906101000a900460ff16151514611df8576040517f08c379a0000000000000000000000000000000000000000000000000000000008152600401611def90612f15565b60405180910390fd5b80600b60006101000a81548160ff02191690831515021790555050565b60011515600460003373ffffffffffffffffffffffffffffffffffffffff1673ffffffffffffffffffffffffffffffffffffffff16815260200190815260200160002060009054906101000a900460ff16151514611ea8576040517f08c379a0000000000000000000000000000000000000000000000000000000008152600401611e9f90612f15565b60405180910390fd5b80600560008473ffffffffffffffffffffffffffffffffffffffff1673ffffffffffffffffffffffffffffffffffffffff16815260200190815260200160002060006101000a81548160ff0219169083151502179055505050565b60056020528060005260406000206000915054906101000a900460ff1681565b600b60009054906101000a900460ff1681565b8181600960003373ffffffffffffffffffffffffffffffffffffffff1673ffffffffffffffffffffffffffffffffffffffff1681526020019081526020016000209182611f8492919061336f565b5060001515600160003373ffffffffffffffffffffffffffffffffffffffff1673ffffffffffffffffffffffffffffffffffffffff16815260200190815260200160002060009054906101000a900460ff16151503612098576000339080600181540180825580915050600190039060005260206000200160009091909190916101000a81548173ffffffffffffffffffffffffffffffffffffffff021916908373ffffffffffffffffffffffffffffffffffffffff16021790555060018060003373ffffffffffffffffffffffffffffffffffffffff1673ffffffffffffffffffffffffffffffffffffffff16815260200190815260200160002060006101000a81548160ff0219169083151502179055505b5050565b60011515600460003373ffffffffffffffffffffffffffffffffffffffff1673ffffffffffffffffffffffffffffffffffffffff16815260200190815260200160002060009054906101000a900460ff1615151461212f576040517f08c379a000000000000000000000000000000000000000000000000000000000815260040161212690612f15565b60405180910390fd5b60005b6002805490508160ff1610156121f157600760008373ffffffffffffffffffffffffffffffffffffffff1673ffffffffffffffffffffffffffffffffffffffff168152602001908152602001600020600060028360ff168154811061219a57612199612fa1565b5b90600052602060002090602091828204019190069054906101000a900460ff1660ff1660ff16815260200190815260200160002060006101000a81549060ff021916905580806121e990613062565b915050612132565b5050565b60011515600460003373ffffffffffffffffffffffffffffffffffffffff1673ffffffffffffffffffffffffffffffffffffffff16815260200190815260200160002060009054906101000a900460ff16151514612288576040517f08c379a000000000000000000000000000000000000000000000000000000000815260040161227f90612f15565b60405180910390fd5b60005b6000805490508160ff1610156123545760076000808360ff16815481106122b5576122b4612fa1565b5b9060005260206000200160009054906101000a900473ffffffffffffffffffffffffffffffffffffffff1673ffffffffffffffffffffffffffffffffffffffff1673ffffffffffffffffffffffffffffffffffffffff16815260200190815260200160002060008360ff1660ff16815260200190815260200160002060006101000a81549060ff0219169055808061234c90613062565b91505061228b565b5050565b50805461236490612c7b565b6000825580601f106123765750612395565b601f0160209004906000526020600020908101906123949190612398565b5b50565b5b808211156123b1576000816000905550600101612399565b5090565b600080fd5b600080fd5b600073ffffffffffffffffffffffffffffffffffffffff82169050919050565b60006123ea826123bf565b9050919050565b6123fa816123df565b811461240557600080fd5b50565b600081359050612417816123f1565b92915050565b600060208284031215612433576124326123b5565b5b600061244184828501612408565b91505092915050565b612453816123df565b82525050565b600060208201905061246e600083018461244a565b92915050565b60008115159050919050565b61248981612474565b82525050565b60006020820190506124a46000830184612480565b92915050565b600081519050919050565b600082825260208201905092915050565b6000819050602082019050919050565b600060ff82169050919050565b6124ec816124d6565b82525050565b60006124fe83836124e3565b60208301905092915050565b6000602082019050919050565b6000612522826124aa565b61252c81856124b5565b9350612537836124c6565b8060005b8381101561256857815161254f88826124f2565b975061255a8361250a565b92505060018101905061253b565b5085935050505092915050565b6000602082019050818103600083015261258f8184612517565b905092915050565b6125a0816124d6565b81146125ab57600080fd5b50565b6000813590506125bd81612597565b92915050565b600080604083850312156125da576125d96123b5565b5b60006125e8858286016125ae565b92505060206125f985828601612408565b9150509250929050565b600080fd5b600080fd5b600080fd5b60008083601f84011261262857612627612603565b5b8235905067ffffffffffffffff81111561264557612644612608565b5b6020830191508360018202830111156126615761266061260d565b5b9250929050565b60008060008060408587031215612682576126816123b5565b5b600085013567ffffffffffffffff8111156126a05761269f6123ba565b5b6126ac87828801612612565b9450945050602085013567ffffffffffffffff8111156126cf576126ce6123ba565b5b6126db87828801612612565b925092505092959194509250565b6126f281612474565b81146126fd57600080fd5b50565b60008135905061270f816126e9565b92915050565b6000806040838503121561272c5761272b6123b5565b5b600061273a85828601612408565b925050602061274b85828601612700565b9150509250929050565b6000806040838503121561276c5761276b6123b5565b5b600061277a85828601612408565b925050602061278b858286016125ae565b9150509250929050565b600081519050919050565b600082825260208201905092915050565b60005b838110156127cf5780820151818401526020810190506127b4565b60008484015250505050565b6000601f19601f8301169050919050565b60006127f782612795565b61280181856127a0565b93506128118185602086016127b1565b61281a816127db565b840191505092915050565b61282e816124d6565b82525050565b6000819050919050565b61284781612834565b82525050565b600060a082019050612862600083018861244a565b818103602083015261287481876127ec565b90506128836040830186612825565b6128906060830185612825565b61289d608083018461283e565b9695505050505050565b6000602082840312156128bd576128bc6123b5565b5b60006128cb848285016125ae565b91505092915050565b600060208201905081810360008301526128ee81846127ec565b905092915050565b6000819050919050565b612909816128f6565b811461291457600080fd5b50565b60008135905061292681612900565b92915050565b600060208284031215612942576129416123b5565b5b600061295084828501612917565b91505092915050565b600081519050919050565b600082825260208201905092915050565b6000819050602082019050919050565b61298e816123df565b82525050565b60006129a08383612985565b60208301905092915050565b6000602082019050919050565b60006129c482612959565b6129ce8185612964565b93506129d983612975565b8060005b83811015612a0a5781516129f18882612994565b97506129fc836129ac565b9250506001810190506129dd565b5085935050505092915050565b60006020820190508181036000830152612a3181846129b9565b905092915050565b600060208284031215612a4f57612a4e6123b5565b5b6000612a5d84828501612700565b91505092915050565b6000602082019050612a7b600083018461283e565b92915050565b6000602082019050612a966000830184612825565b92915050565b7f4578616d204e6f74204f70656e2f436f6e746163742041646d696e0000000000600082015250565b6000612ad2601b836127a0565b9150612add82612a9c565b602082019050919050565b60006020820190508181036000830152612b0181612ac5565b9050919050565b7f4e6f74206f6e2057686974654c69737400000000000000000000000000000000600082015250565b6000612b3e6010836127a0565b9150612b4982612b08565b602082019050919050565b60006020820190508181036000830152612b6d81612b31565b9050919050565b7f496e76616c6964204c6576656c00000000000000000000000000000000000000600082015250565b6000612baa600d836127a0565b9150612bb582612b74565b602082019050919050565b60006020820190508181036000830152612bd981612b9d565b9050919050565b7f6d73672e73656e646572206e6f74206f776e6572206f6620736f6c7574696f6e600082015250565b6000612c166020836127a0565b9150612c2182612be0565b602082019050919050565b60006020820190508181036000830152612c4581612c09565b9050919050565b7f4e487b7100000000000000000000000000000000000000000000000000000000600052602260045260246000fd5b60006002820490506001821680612c9357607f821691505b602082108103612ca657612ca5612c4c565b5b50919050565b7f496e76616c69642055736572204e616d65000000000000000000000000000000600082015250565b6000612ce26011836127a0565b9150612ced82612cac565b602082019050919050565b60006020820190508181036000830152612d1181612cd5565b9050919050565b600081519050612d2781612597565b92915050565b612d3681612834565b8114612d4157600080fd5b50565b600081519050612d5381612d2d565b92915050565b60008060408385031215612d7057612d6f6123b5565b5b6000612d7e85828601612d18565b9250506020612d8f85828601612d44565b9150509250929050565b600081905092915050565b82818337600083830152505050565b6000612dbf8385612d99565b9350612dcc838584612da4565b82840190509392505050565b6000612de5828486612db3565b91508190509392505050565b7f436865636b2050617373776f7264000000000000000000000000000000000000600082015250565b6000612e27600e836127a0565b9150612e3282612df1565b602082019050919050565b60006020820190508181036000830152612e5681612e1a565b9050919050565b7f5265676973747261746f6e20697320636c6f7365640000000000000000000000600082015250565b6000612e936015836127a0565b9150612e9e82612e5d565b602082019050919050565b60006020820190508181036000830152612ec281612e86565b9050919050565b7f4e65656420746f2062652041646d696e00000000000000000000000000000000600082015250565b6000612eff6010836127a0565b9150612f0a82612ec9565b602082019050919050565b60006020820190508181036000830152612f2e81612ef2565b9050919050565b7f43616e6e6f7420736574206d73672e73656e6465722061646d696e0000000000600082015250565b6000612f6b601b836127a0565b9150612f7682612f35565b602082019050919050565b60006020820190508181036000830152612f9a81612f5e565b9050919050565b7f4e487b7100000000000000000000000000000000000000000000000000000000600052603260045260246000fd5b7f4e487b7100000000000000000000000000000000000000000000000000000000600052601160045260246000fd5b600061300a82612834565b915061301583612834565b925082820390508181111561302d5761302c612fd0565b5b92915050565b7f4e487b7100000000000000000000000000000000000000000000000000000000600052603160045260246000fd5b600061306d826124d6565b915060ff82036130805761307f612fd0565b5b600182019050919050565b7f416c726561647920657873697374732c2064656c657465206f7220757365207560008201527f7064617465000000000000000000000000000000000000000000000000000000602082015250565b60006130e76025836127a0565b91506130f28261308b565b604082019050919050565b60006020820190508181036000830152613116816130da565b9050919050565b7f43616e277420757064617465204e554c4c206c6576656c000000000000000000600082015250565b60006131536017836127a0565b915061315e8261311d565b602082019050919050565b6000602082019050818103600083015261318281613146565b9050919050565b600082905092915050565b7f4e487b7100000000000000000000000000000000000000000000000000000000600052604160045260246000fd5b60008190508160005260206000209050919050565b60006020601f8301049050919050565b600082821b905092915050565b6000600883026132257fffffffffffffffffffffffffffffffffffffffffffffffffffffffffffffffff826131e8565b61322f86836131e8565b95508019841693508086168417925050509392505050565b6000819050919050565b600061326c61326761326284612834565b613247565b612834565b9050919050565b6000819050919050565b61328683613251565b61329a61329282613273565b8484546131f5565b825550505050565b600090565b6132af6132a2565b6132ba81848461327d565b505050565b5b818110156132de576132d36000826132a7565b6001810190506132c0565b5050565b601f821115613323576132f4816131c3565b6132fd846131d8565b8101602085101561330c578190505b613320613318856131d8565b8301826132bf565b50505b505050565b600082821c905092915050565b600061334660001984600802613328565b1980831691505092915050565b600061335f8383613335565b9150826002028217905092915050565b6133798383613189565b67ffffffffffffffff81111561339257613391613194565b5b61339c8254612c7b565b6133a78282856132e2565b6000601f8311600181146133d657600084156133c4578287013590505b6133ce8582613353565b865550613436565b601f1984166133e4866131c3565b60005b8281101561340c578489013582556001820191506020850194506020810190506133e7565b868310156134295784890135613425601f891682613335565b8355505b6001600288020188555050505b5050505050505056fea26469706673582212203fe85a64903e2f5c69bfddb418419843f0f4af3a52505f9e96ad39107f4eebe964736f6c63430008110033",
					"opcodes": "PUSH1 0x80 PUSH1 0x40 MSTORE CALLVALUE DUP1 ISZERO PUSH2 0x10 JUMPI PUSH1 0x0 DUP1 REVERT JUMPDEST POP PUSH1 0x1 PUSH1 0x4 PUSH1 0x0 CALLER PUSH20 0xFFFFFFFFFFFFFFFFFFFFFFFFFFFFFFFFFFFFFFFF AND PUSH20 0xFFFFFFFFFFFFFFFFFFFFFFFFFFFFFFFFFFFFFFFF AND DUP2 MSTORE PUSH1 0x20 ADD SWAP1 DUP2 MSTORE PUSH1 0x20 ADD PUSH1 0x0 KECCAK256 PUSH1 0x0 PUSH2 0x100 EXP DUP2 SLOAD DUP2 PUSH1 0xFF MUL NOT AND SWAP1 DUP4 ISZERO ISZERO MUL OR SWAP1 SSTORE POP PUSH2 0x3475 DUP1 PUSH2 0x78 PUSH1 0x0 CODECOPY PUSH1 0x0 RETURN INVALID PUSH1 0x80 PUSH1 0x40 MSTORE CALLVALUE DUP1 ISZERO PUSH2 0x10 JUMPI PUSH1 0x0 DUP1 REVERT JUMPDEST POP PUSH1 0x4 CALLDATASIZE LT PUSH2 0x173 JUMPI PUSH1 0x0 CALLDATALOAD PUSH1 0xE0 SHR DUP1 PUSH4 0x906CBF57 GT PUSH2 0xDE JUMPI DUP1 PUSH4 0xAC285219 GT PUSH2 0x97 JUMPI DUP1 PUSH4 0xCB91F37D GT PUSH2 0x71 JUMPI DUP1 PUSH4 0xCB91F37D EQ PUSH2 0x482 JUMPI DUP1 PUSH4 0xD86A1026 EQ PUSH2 0x49E JUMPI DUP1 PUSH4 0xDD83599B EQ PUSH2 0x4BA JUMPI DUP1 PUSH4 0xFFBC9BD0 EQ PUSH2 0x4EA JUMPI PUSH2 0x173 JUMP JUMPDEST DUP1 PUSH4 0xAC285219 EQ PUSH2 0x406 JUMPI DUP1 PUSH4 0xB26BE14C EQ PUSH2 0x422 JUMPI DUP1 PUSH4 0xC160404E EQ PUSH2 0x452 JUMPI PUSH2 0x173 JUMP JUMPDEST DUP1 PUSH4 0x906CBF57 EQ PUSH2 0x334 JUMPI DUP1 PUSH4 0x9B19251A EQ PUSH2 0x364 JUMPI DUP1 PUSH4 0x9F391544 EQ PUSH2 0x394 JUMPI DUP1 PUSH4 0xA39FAC12 EQ PUSH2 0x3B0 JUMPI DUP1 PUSH4 0xA60FB5DE EQ PUSH2 0x3CE JUMPI DUP1 PUSH4 0xAA0C8A7B EQ PUSH2 0x3EA JUMPI PUSH2 0x173 JUMP JUMPDEST DUP1 PUSH4 0x4B0BDDD2 GT PUSH2 0x130 JUMPI DUP1 PUSH4 0x4B0BDDD2 EQ PUSH2 0x25E JUMPI DUP1 PUSH4 0x4BA79DFE EQ PUSH2 0x27A JUMPI DUP1 PUSH4 0x589384B9 EQ PUSH2 0x296 JUMPI DUP1 PUSH4 0x705ED7AE EQ PUSH2 0x2B4 JUMPI DUP1 PUSH4 0x75743A15 EQ PUSH2 0x2E8 JUMPI DUP1 PUSH4 0x7F281635 EQ PUSH2 0x304 JUMPI PUSH2 0x173 JUMP JUMPDEST DUP1 PUSH4 0x4737394 EQ PUSH2 0x178 JUMPI DUP1 PUSH4 0xB69A1E9 EQ PUSH2 0x1A8 JUMPI DUP1 PUSH4 0xC394A60 EQ PUSH2 0x1D8 JUMPI DUP1 PUSH4 0x33B005D0 EQ PUSH2 0x1F6 JUMPI DUP1 PUSH4 0x33B49ED8 EQ PUSH2 0x226 JUMPI DUP1 PUSH4 0x3FFBD47F EQ PUSH2 0x242 JUMPI JUMPDEST PUSH1 0x0 DUP1 REVERT JUMPDEST PUSH2 0x192 PUSH1 0x4 DUP1 CALLDATASIZE SUB DUP2 ADD SWAP1 PUSH2 0x18D SWAP2 SWAP1 PUSH2 0x241D JUMP JUMPDEST PUSH2 0x508 JUMP JUMPDEST PUSH1 0x40 MLOAD PUSH2 0x19F SWAP2 SWAP1 PUSH2 0x2459 JUMP JUMPDEST PUSH1 0x40 MLOAD DUP1 SWAP2 SUB SWAP1 RETURN JUMPDEST PUSH2 0x1C2 PUSH1 0x4 DUP1 CALLDATASIZE SUB DUP2 ADD SWAP1 PUSH2 0x1BD SWAP2 SWAP1 PUSH2 0x241D JUMP JUMPDEST PUSH2 0x53B JUMP JUMPDEST PUSH1 0x40 MLOAD PUSH2 0x1CF SWAP2 SWAP1 PUSH2 0x248F JUMP JUMPDEST PUSH1 0x40 MLOAD DUP1 SWAP2 SUB SWAP1 RETURN JUMPDEST PUSH2 0x1E0 PUSH2 0x55B JUMP JUMPDEST PUSH1 0x40 MLOAD PUSH2 0x1ED SWAP2 SWAP1 PUSH2 0x2575 JUMP JUMPDEST PUSH1 0x40 MLOAD DUP1 SWAP2 SUB SWAP1 RETURN JUMPDEST PUSH2 0x210 PUSH1 0x4 DUP1 CALLDATASIZE SUB DUP2 ADD SWAP1 PUSH2 0x20B SWAP2 SWAP1 PUSH2 0x241D JUMP JUMPDEST PUSH2 0x5D9 JUMP JUMPDEST PUSH1 0x40 MLOAD PUSH2 0x21D SWAP2 SWAP1 PUSH2 0x248F JUMP JUMPDEST PUSH1 0x40 MLOAD DUP1 SWAP2 SUB SWAP1 RETURN JUMPDEST PUSH2 0x240 PUSH1 0x4 DUP1 CALLDATASIZE SUB DUP2 ADD SWAP1 PUSH2 0x23B SWAP2 SWAP1 PUSH2 0x25C3 JUMP JUMPDEST PUSH2 0x5F9 JUMP JUMPDEST STOP JUMPDEST PUSH2 0x25C PUSH1 0x4 DUP1 CALLDATASIZE SUB DUP2 ADD SWAP1 PUSH2 0x257 SWAP2 SWAP1 PUSH2 0x2668 JUMP JUMPDEST PUSH2 0xD2A JUMP JUMPDEST STOP JUMPDEST PUSH2 0x278 PUSH1 0x4 DUP1 CALLDATASIZE SUB DUP2 ADD SWAP1 PUSH2 0x273 SWAP2 SWAP1 PUSH2 0x2715 JUMP JUMPDEST PUSH2 0xE9A JUMP JUMPDEST STOP JUMPDEST PUSH2 0x294 PUSH1 0x4 DUP1 CALLDATASIZE SUB DUP2 ADD SWAP1 PUSH2 0x28F SWAP2 SWAP1 PUSH2 0x241D JUMP JUMPDEST PUSH2 0xFF6 JUMP JUMPDEST STOP JUMPDEST PUSH2 0x29E PUSH2 0x1310 JUMP JUMPDEST PUSH1 0x40 MLOAD PUSH2 0x2AB SWAP2 SWAP1 PUSH2 0x248F JUMP JUMPDEST PUSH1 0x40 MLOAD DUP1 SWAP2 SUB SWAP1 RETURN JUMPDEST PUSH2 0x2CE PUSH1 0x4 DUP1 CALLDATASIZE SUB DUP2 ADD SWAP1 PUSH2 0x2C9 SWAP2 SWAP1 PUSH2 0x2755 JUMP JUMPDEST PUSH2 0x1323 JUMP JUMPDEST PUSH1 0x40 MLOAD PUSH2 0x2DF SWAP6 SWAP5 SWAP4 SWAP3 SWAP2 SWAP1 PUSH2 0x284D JUMP JUMPDEST PUSH1 0x40 MLOAD DUP1 SWAP2 SUB SWAP1 RETURN JUMPDEST PUSH2 0x302 PUSH1 0x4 DUP1 CALLDATASIZE SUB DUP2 ADD SWAP1 PUSH2 0x2FD SWAP2 SWAP1 PUSH2 0x28A7 JUMP JUMPDEST PUSH2 0x14C8 JUMP JUMPDEST STOP JUMPDEST PUSH2 0x31E PUSH1 0x4 DUP1 CALLDATASIZE SUB DUP2 ADD SWAP1 PUSH2 0x319 SWAP2 SWAP1 PUSH2 0x241D JUMP JUMPDEST PUSH2 0x16D0 JUMP JUMPDEST PUSH1 0x40 MLOAD PUSH2 0x32B SWAP2 SWAP1 PUSH2 0x28D4 JUMP JUMPDEST PUSH1 0x40 MLOAD DUP1 SWAP2 SUB SWAP1 RETURN JUMPDEST PUSH2 0x34E PUSH1 0x4 DUP1 CALLDATASIZE SUB DUP2 ADD SWAP1 PUSH2 0x349 SWAP2 SWAP1 PUSH2 0x28A7 JUMP JUMPDEST PUSH2 0x1770 JUMP JUMPDEST PUSH1 0x40 MLOAD PUSH2 0x35B SWAP2 SWAP1 PUSH2 0x2459 JUMP JUMPDEST PUSH1 0x40 MLOAD DUP1 SWAP2 SUB SWAP1 RETURN JUMPDEST PUSH2 0x37E PUSH1 0x4 DUP1 CALLDATASIZE SUB DUP2 ADD SWAP1 PUSH2 0x379 SWAP2 SWAP1 PUSH2 0x241D JUMP JUMPDEST PUSH2 0x17A3 JUMP JUMPDEST PUSH1 0x40 MLOAD PUSH2 0x38B SWAP2 SWAP1 PUSH2 0x248F JUMP JUMPDEST PUSH1 0x40 MLOAD DUP1 SWAP2 SUB SWAP1 RETURN JUMPDEST PUSH2 0x3AE PUSH1 0x4 DUP1 CALLDATASIZE SUB DUP2 ADD SWAP1 PUSH2 0x3A9 SWAP2 SWAP1 PUSH2 0x292C JUMP JUMPDEST PUSH2 0x17C3 JUMP JUMPDEST STOP JUMPDEST PUSH2 0x3B8 PUSH2 0x1860 JUMP JUMPDEST PUSH1 0x40 MLOAD PUSH2 0x3C5 SWAP2 SWAP1 PUSH2 0x2A17 JUMP JUMPDEST PUSH1 0x40 MLOAD DUP1 SWAP2 SUB SWAP1 RETURN JUMPDEST PUSH2 0x3E8 PUSH1 0x4 DUP1 CALLDATASIZE SUB DUP2 ADD SWAP1 PUSH2 0x3E3 SWAP2 SWAP1 PUSH2 0x2A39 JUMP JUMPDEST PUSH2 0x18EE JUMP JUMPDEST STOP JUMPDEST PUSH2 0x404 PUSH1 0x4 DUP1 CALLDATASIZE SUB DUP2 ADD SWAP1 PUSH2 0x3FF SWAP2 SWAP1 PUSH2 0x2755 JUMP JUMPDEST PUSH2 0x199E JUMP JUMPDEST STOP JUMPDEST PUSH2 0x420 PUSH1 0x4 DUP1 CALLDATASIZE SUB DUP2 ADD SWAP1 PUSH2 0x41B SWAP2 SWAP1 PUSH2 0x2755 JUMP JUMPDEST PUSH2 0x1B7A JUMP JUMPDEST STOP JUMPDEST PUSH2 0x43C PUSH1 0x4 DUP1 CALLDATASIZE SUB DUP2 ADD SWAP1 PUSH2 0x437 SWAP2 SWAP1 PUSH2 0x2755 JUMP JUMPDEST PUSH2 0x1D11 JUMP JUMPDEST PUSH1 0x40 MLOAD PUSH2 0x449 SWAP2 SWAP1 PUSH2 0x2A66 JUMP JUMPDEST PUSH1 0x40 MLOAD DUP1 SWAP2 SUB SWAP1 RETURN JUMPDEST PUSH2 0x46C PUSH1 0x4 DUP1 CALLDATASIZE SUB DUP2 ADD SWAP1 PUSH2 0x467 SWAP2 SWAP1 PUSH2 0x2755 JUMP JUMPDEST PUSH2 0x1D36 JUMP JUMPDEST PUSH1 0x40 MLOAD PUSH2 0x479 SWAP2 SWAP1 PUSH2 0x2A81 JUMP JUMPDEST PUSH1 0x40 MLOAD DUP1 SWAP2 SUB SWAP1 RETURN JUMPDEST PUSH2 0x49C PUSH1 0x4 DUP1 CALLDATASIZE SUB DUP2 ADD SWAP1 PUSH2 0x497 SWAP2 SWAP1 PUSH2 0x2A39 JUMP JUMPDEST PUSH2 0x1D65 JUMP JUMPDEST STOP JUMPDEST PUSH2 0x4B8 PUSH1 0x4 DUP1 CALLDATASIZE SUB DUP2 ADD SWAP1 PUSH2 0x4B3 SWAP2 SWAP1 PUSH2 0x2715 JUMP JUMPDEST PUSH2 0x1E15 JUMP JUMPDEST STOP JUMPDEST PUSH2 0x4D4 PUSH1 0x4 DUP1 CALLDATASIZE SUB DUP2 ADD SWAP1 PUSH2 0x4CF SWAP2 SWAP1 PUSH2 0x241D JUMP JUMPDEST PUSH2 0x1F03 JUMP JUMPDEST PUSH1 0x40 MLOAD PUSH2 0x4E1 SWAP2 SWAP1 PUSH2 0x248F JUMP JUMPDEST PUSH1 0x40 MLOAD DUP1 SWAP2 SUB SWAP1 RETURN JUMPDEST PUSH2 0x4F2 PUSH2 0x1F23 JUMP JUMPDEST PUSH1 0x40 MLOAD PUSH2 0x4FF SWAP2 SWAP1 PUSH2 0x248F JUMP JUMPDEST PUSH1 0x40 MLOAD DUP1 SWAP2 SUB SWAP1 RETURN JUMPDEST PUSH1 0xA PUSH1 0x20 MSTORE DUP1 PUSH1 0x0 MSTORE PUSH1 0x40 PUSH1 0x0 KECCAK256 PUSH1 0x0 SWAP2 POP SLOAD SWAP1 PUSH2 0x100 EXP SWAP1 DIV PUSH20 0xFFFFFFFFFFFFFFFFFFFFFFFFFFFFFFFFFFFFFFFF AND DUP2 JUMP JUMPDEST PUSH1 0x1 PUSH1 0x20 MSTORE DUP1 PUSH1 0x0 MSTORE PUSH1 0x40 PUSH1 0x0 KECCAK256 PUSH1 0x0 SWAP2 POP SLOAD SWAP1 PUSH2 0x100 EXP SWAP1 DIV PUSH1 0xFF AND DUP2 JUMP JUMPDEST PUSH1 0x60 PUSH1 0x2 DUP1 SLOAD DUP1 PUSH1 0x20 MUL PUSH1 0x20 ADD PUSH1 0x40 MLOAD SWAP1 DUP2 ADD PUSH1 0x40 MSTORE DUP1 SWAP3 SWAP2 SWAP1 DUP2 DUP2 MSTORE PUSH1 0x20 ADD DUP3 DUP1 SLOAD DUP1 ISZERO PUSH2 0x5CF JUMPI PUSH1 0x20 MUL DUP3 ADD SWAP2 SWAP1 PUSH1 0x0 MSTORE PUSH1 0x20 PUSH1 0x0 KECCAK256 SWAP1 PUSH1 0x0 SWAP1 JUMPDEST DUP3 DUP3 SWAP1 SLOAD SWAP1 PUSH2 0x100 EXP SWAP1 DIV PUSH1 0xFF AND PUSH1 0xFF AND DUP2 MSTORE PUSH1 0x20 ADD SWAP1 PUSH1 0x1 ADD SWAP1 PUSH1 0x20 DUP3 PUSH1 0x0 ADD DIV SWAP3 DUP4 ADD SWAP3 PUSH1 0x1 SUB DUP3 MUL SWAP2 POP DUP1 DUP5 GT PUSH2 0x598 JUMPI SWAP1 POP JUMPDEST POP POP POP POP POP SWAP1 POP SWAP1 JUMP JUMPDEST PUSH1 0x4 PUSH1 0x20 MSTORE DUP1 PUSH1 0x0 MSTORE PUSH1 0x40 PUSH1 0x0 KECCAK256 PUSH1 0x0 SWAP2 POP SLOAD SWAP1 PUSH2 0x100 EXP SWAP1 DIV PUSH1 0xFF AND DUP2 JUMP JUMPDEST PUSH1 0x1 ISZERO ISZERO PUSH1 0xB PUSH1 0x0 SWAP1 SLOAD SWAP1 PUSH2 0x100 EXP SWAP1 DIV PUSH1 0xFF AND ISZERO ISZERO EQ PUSH2 0x64F JUMPI PUSH1 0x40 MLOAD PUSH32 0x8C379A000000000000000000000000000000000000000000000000000000000 DUP2 MSTORE PUSH1 0x4 ADD PUSH2 0x646 SWAP1 PUSH2 0x2AE8 JUMP JUMPDEST PUSH1 0x40 MLOAD DUP1 SWAP2 SUB SWAP1 REVERT JUMPDEST PUSH1 0x1 ISZERO ISZERO PUSH1 0x3 PUSH1 0x0 CALLER PUSH20 0xFFFFFFFFFFFFFFFFFFFFFFFFFFFFFFFFFFFFFFFF AND PUSH20 0xFFFFFFFFFFFFFFFFFFFFFFFFFFFFFFFFFFFFFFFF AND DUP2 MSTORE PUSH1 0x20 ADD SWAP1 DUP2 MSTORE PUSH1 0x20 ADD PUSH1 0x0 KECCAK256 PUSH1 0x0 SWAP1 SLOAD SWAP1 PUSH2 0x100 EXP SWAP1 DIV PUSH1 0xFF AND ISZERO ISZERO EQ PUSH2 0x6E2 JUMPI PUSH1 0x40 MLOAD PUSH32 0x8C379A000000000000000000000000000000000000000000000000000000000 DUP2 MSTORE PUSH1 0x4 ADD PUSH2 0x6D9 SWAP1 PUSH2 0x2B54 JUMP JUMPDEST PUSH1 0x40 MLOAD DUP1 SWAP2 SUB SWAP1 REVERT JUMPDEST PUSH1 0x0 PUSH20 0xFFFFFFFFFFFFFFFFFFFFFFFFFFFFFFFFFFFFFFFF AND PUSH1 0x6 PUSH1 0x0 DUP5 PUSH1 0xFF AND PUSH1 0xFF AND DUP2 MSTORE PUSH1 0x20 ADD SWAP1 DUP2 MSTORE PUSH1 0x20 ADD PUSH1 0x0 KECCAK256 PUSH1 0x0 SWAP1 SLOAD SWAP1 PUSH2 0x100 EXP SWAP1 DIV PUSH20 0xFFFFFFFFFFFFFFFFFFFFFFFFFFFFFFFFFFFFFFFF AND PUSH20 0xFFFFFFFFFFFFFFFFFFFFFFFFFFFFFFFFFFFFFFFF AND SUB PUSH2 0x78A JUMPI PUSH1 0x40 MLOAD PUSH32 0x8C379A000000000000000000000000000000000000000000000000000000000 DUP2 MSTORE PUSH1 0x4 ADD PUSH2 0x781 SWAP1 PUSH2 0x2BC0 JUMP JUMPDEST PUSH1 0x40 MLOAD DUP1 SWAP2 SUB SWAP1 REVERT JUMPDEST PUSH1 0x0 PUSH20 0xFFFFFFFFFFFFFFFFFFFFFFFFFFFFFFFFFFFFFFFF AND PUSH1 0xA PUSH1 0x0 DUP4 PUSH20 0xFFFFFFFFFFFFFFFFFFFFFFFFFFFFFFFFFFFFFFFF AND PUSH20 0xFFFFFFFFFFFFFFFFFFFFFFFFFFFFFFFFFFFFFFFF AND DUP2 MSTORE PUSH1 0x20 ADD SWAP1 DUP2 MSTORE PUSH1 0x20 ADD PUSH1 0x0 KECCAK256 PUSH1 0x0 SWAP1 SLOAD SWAP1 PUSH2 0x100 EXP SWAP1 DIV PUSH20 0xFFFFFFFFFFFFFFFFFFFFFFFFFFFFFFFFFFFFFFFF AND PUSH20 0xFFFFFFFFFFFFFFFFFFFFFFFFFFFFFFFFFFFFFFFF AND EQ DUP1 PUSH2 0x8AE JUMPI POP CALLER PUSH20 0xFFFFFFFFFFFFFFFFFFFFFFFFFFFFFFFFFFFFFFFF AND PUSH1 0xA PUSH1 0x0 DUP4 PUSH20 0xFFFFFFFFFFFFFFFFFFFFFFFFFFFFFFFFFFFFFFFF AND PUSH20 0xFFFFFFFFFFFFFFFFFFFFFFFFFFFFFFFFFFFFFFFF AND DUP2 MSTORE PUSH1 0x20 ADD SWAP1 DUP2 MSTORE PUSH1 0x20 ADD PUSH1 0x0 KECCAK256 PUSH1 0x0 SWAP1 SLOAD SWAP1 PUSH2 0x100 EXP SWAP1 DIV PUSH20 0xFFFFFFFFFFFFFFFFFFFFFFFFFFFFFFFFFFFFFFFF AND PUSH20 0xFFFFFFFFFFFFFFFFFFFFFFFFFFFFFFFFFFFFFFFF AND EQ JUMPDEST PUSH2 0x8ED JUMPI PUSH1 0x40 MLOAD PUSH32 0x8C379A000000000000000000000000000000000000000000000000000000000 DUP2 MSTORE PUSH1 0x4 ADD PUSH2 0x8E4 SWAP1 PUSH2 0x2C2C JUMP JUMPDEST PUSH1 0x40 MLOAD DUP1 SWAP2 SUB SWAP1 REVERT JUMPDEST PUSH1 0x0 PUSH1 0x9 PUSH1 0x0 CALLER PUSH20 0xFFFFFFFFFFFFFFFFFFFFFFFFFFFFFFFFFFFFFFFF AND PUSH20 0xFFFFFFFFFFFFFFFFFFFFFFFFFFFFFFFFFFFFFFFF AND DUP2 MSTORE PUSH1 0x20 ADD SWAP1 DUP2 MSTORE PUSH1 0x20 ADD PUSH1 0x0 KECCAK256 DUP1 SLOAD PUSH2 0x939 SWAP1 PUSH2 0x2C7B JUMP JUMPDEST SWAP1 POP SUB PUSH2 0x97B JUMPI PUSH1 0x40 MLOAD PUSH32 0x8C379A000000000000000000000000000000000000000000000000000000000 DUP2 MSTORE PUSH1 0x4 ADD PUSH2 0x972 SWAP1 PUSH2 0x2CF8 JUMP JUMPDEST PUSH1 0x40 MLOAD DUP1 SWAP2 SUB SWAP1 REVERT JUMPDEST CALLER PUSH1 0xA PUSH1 0x0 DUP4 PUSH20 0xFFFFFFFFFFFFFFFFFFFFFFFFFFFFFFFFFFFFFFFF AND PUSH20 0xFFFFFFFFFFFFFFFFFFFFFFFFFFFFFFFFFFFFFFFF AND DUP2 MSTORE PUSH1 0x20 ADD SWAP1 DUP2 MSTORE PUSH1 0x20 ADD PUSH1 0x0 KECCAK256 PUSH1 0x0 PUSH2 0x100 EXP DUP2 SLOAD DUP2 PUSH20 0xFFFFFFFFFFFFFFFFFFFFFFFFFFFFFFFFFFFFFFFF MUL NOT AND SWAP1 DUP4 PUSH20 0xFFFFFFFFFFFFFFFFFFFFFFFFFFFFFFFFFFFFFFFF AND MUL OR SWAP1 SSTORE POP PUSH1 0x0 PUSH1 0x6 PUSH1 0x0 DUP5 PUSH1 0xFF AND PUSH1 0xFF AND DUP2 MSTORE PUSH1 0x20 ADD SWAP1 DUP2 MSTORE PUSH1 0x20 ADD PUSH1 0x0 KECCAK256 PUSH1 0x0 SWAP1 SLOAD SWAP1 PUSH2 0x100 EXP SWAP1 DIV PUSH20 0xFFFFFFFFFFFFFFFFFFFFFFFFFFFFFFFFFFFFFFFF AND SWAP1 POP PUSH1 0x0 DUP1 DUP3 PUSH20 0xFFFFFFFFFFFFFFFFFFFFFFFFFFFFFFFFFFFFFFFF AND PUSH4 0x97BF4CFB DUP6 PUSH1 0x40 MLOAD DUP3 PUSH4 0xFFFFFFFF AND PUSH1 0xE0 SHL DUP2 MSTORE PUSH1 0x4 ADD PUSH2 0xA73 SWAP2 SWAP1 PUSH2 0x2459 JUMP JUMPDEST PUSH1 0x40 DUP1 MLOAD DUP1 DUP4 SUB DUP2 PUSH1 0x0 DUP8 GAS CALL ISZERO DUP1 ISZERO PUSH2 0xA91 JUMPI RETURNDATASIZE PUSH1 0x0 DUP1 RETURNDATACOPY RETURNDATASIZE PUSH1 0x0 REVERT JUMPDEST POP POP POP POP PUSH1 0x40 MLOAD RETURNDATASIZE PUSH1 0x1F NOT PUSH1 0x1F DUP3 ADD AND DUP3 ADD DUP1 PUSH1 0x40 MSTORE POP DUP2 ADD SWAP1 PUSH2 0xAB5 SWAP2 SWAP1 PUSH2 0x2D59 JUMP JUMPDEST SWAP2 POP SWAP2 POP DUP2 PUSH1 0xFF AND PUSH1 0x7 PUSH1 0x0 CALLER PUSH20 0xFFFFFFFFFFFFFFFFFFFFFFFFFFFFFFFFFFFFFFFF AND PUSH20 0xFFFFFFFFFFFFFFFFFFFFFFFFFFFFFFFFFFFFFFFF AND DUP2 MSTORE PUSH1 0x20 ADD SWAP1 DUP2 MSTORE PUSH1 0x20 ADD PUSH1 0x0 KECCAK256 PUSH1 0x0 DUP8 PUSH1 0xFF AND PUSH1 0xFF AND DUP2 MSTORE PUSH1 0x20 ADD SWAP1 DUP2 MSTORE PUSH1 0x20 ADD PUSH1 0x0 KECCAK256 PUSH1 0x0 SWAP1 SLOAD SWAP1 PUSH2 0x100 EXP SWAP1 DIV PUSH1 0xFF AND PUSH1 0xFF AND LT ISZERO PUSH2 0xBF5 JUMPI DUP2 PUSH1 0x7 PUSH1 0x0 CALLER PUSH20 0xFFFFFFFFFFFFFFFFFFFFFFFFFFFFFFFFFFFFFFFF AND PUSH20 0xFFFFFFFFFFFFFFFFFFFFFFFFFFFFFFFFFFFFFFFF AND DUP2 MSTORE PUSH1 0x20 ADD SWAP1 DUP2 MSTORE PUSH1 0x20 ADD PUSH1 0x0 KECCAK256 PUSH1 0x0 DUP8 PUSH1 0xFF AND PUSH1 0xFF AND DUP2 MSTORE PUSH1 0x20 ADD SWAP1 DUP2 MSTORE PUSH1 0x20 ADD PUSH1 0x0 KECCAK256 PUSH1 0x0 PUSH2 0x100 EXP DUP2 SLOAD DUP2 PUSH1 0xFF MUL NOT AND SWAP1 DUP4 PUSH1 0xFF AND MUL OR SWAP1 SSTORE POP DUP1 PUSH1 0x8 PUSH1 0x0 CALLER PUSH20 0xFFFFFFFFFFFFFFFFFFFFFFFFFFFFFFFFFFFFFFFF AND PUSH20 0xFFFFFFFFFFFFFFFFFFFFFFFFFFFFFFFFFFFFFFFF AND DUP2 MSTORE PUSH1 0x20 ADD SWAP1 DUP2 MSTORE PUSH1 0x20 ADD PUSH1 0x0 KECCAK256 PUSH1 0x0 DUP8 PUSH1 0xFF AND PUSH1 0xFF AND DUP2 MSTORE PUSH1 0x20 ADD SWAP1 DUP2 MSTORE PUSH1 0x20 ADD PUSH1 0x0 KECCAK256 DUP2 SWAP1 SSTORE POP JUMPDEST DUP2 PUSH1 0xFF AND PUSH1 0x7 PUSH1 0x0 CALLER PUSH20 0xFFFFFFFFFFFFFFFFFFFFFFFFFFFFFFFFFFFFFFFF AND PUSH20 0xFFFFFFFFFFFFFFFFFFFFFFFFFFFFFFFFFFFFFFFF AND DUP2 MSTORE PUSH1 0x20 ADD SWAP1 DUP2 MSTORE PUSH1 0x20 ADD PUSH1 0x0 KECCAK256 PUSH1 0x0 DUP8 PUSH1 0xFF AND PUSH1 0xFF AND DUP2 MSTORE PUSH1 0x20 ADD SWAP1 DUP2 MSTORE PUSH1 0x20 ADD PUSH1 0x0 KECCAK256 PUSH1 0x0 SWAP1 SLOAD SWAP1 PUSH2 0x100 EXP SWAP1 DIV PUSH1 0xFF AND PUSH1 0xFF AND EQ DUP1 ISZERO PUSH2 0xCC2 JUMPI POP DUP1 PUSH1 0x8 PUSH1 0x0 CALLER PUSH20 0xFFFFFFFFFFFFFFFFFFFFFFFFFFFFFFFFFFFFFFFF AND PUSH20 0xFFFFFFFFFFFFFFFFFFFFFFFFFFFFFFFFFFFFFFFF AND DUP2 MSTORE PUSH1 0x20 ADD SWAP1 DUP2 MSTORE PUSH1 0x20 ADD PUSH1 0x0 KECCAK256 PUSH1 0x0 DUP8 PUSH1 0xFF AND PUSH1 0xFF AND DUP2 MSTORE PUSH1 0x20 ADD SWAP1 DUP2 MSTORE PUSH1 0x20 ADD PUSH1 0x0 KECCAK256 SLOAD GT JUMPDEST ISZERO PUSH2 0xD23 JUMPI DUP1 PUSH1 0x8 PUSH1 0x0 CALLER PUSH20 0xFFFFFFFFFFFFFFFFFFFFFFFFFFFFFFFFFFFFFFFF AND PUSH20 0xFFFFFFFFFFFFFFFFFFFFFFFFFFFFFFFFFFFFFFFF AND DUP2 MSTORE PUSH1 0x20 ADD SWAP1 DUP2 MSTORE PUSH1 0x20 ADD PUSH1 0x0 KECCAK256 PUSH1 0x0 DUP8 PUSH1 0xFF AND PUSH1 0xFF AND DUP2 MSTORE PUSH1 0x20 ADD SWAP1 DUP2 MSTORE PUSH1 0x20 ADD PUSH1 0x0 KECCAK256 DUP2 SWAP1 SSTORE POP JUMPDEST POP POP POP POP POP JUMP JUMPDEST PUSH1 0xC SLOAD DUP3 DUP3 PUSH1 0x40 MLOAD PUSH1 0x20 ADD PUSH2 0xD40 SWAP3 SWAP2 SWAP1 PUSH2 0x2DD8 JUMP JUMPDEST PUSH1 0x40 MLOAD PUSH1 0x20 DUP2 DUP4 SUB SUB DUP2 MSTORE SWAP1 PUSH1 0x40 MSTORE DUP1 MLOAD SWAP1 PUSH1 0x20 ADD KECCAK256 EQ PUSH2 0xD96 JUMPI PUSH1 0x40 MLOAD PUSH32 0x8C379A000000000000000000000000000000000000000000000000000000000 DUP2 MSTORE PUSH1 0x4 ADD PUSH2 0xD8D SWAP1 PUSH2 0x2E3D JUMP JUMPDEST PUSH1 0x40 MLOAD DUP1 SWAP2 SUB SWAP1 REVERT JUMPDEST PUSH1 0x1 ISZERO ISZERO PUSH1 0xB PUSH1 0x1 SWAP1 SLOAD SWAP1 PUSH2 0x100 EXP SWAP1 DIV PUSH1 0xFF AND ISZERO ISZERO EQ PUSH2 0xDEC JUMPI PUSH1 0x40 MLOAD PUSH32 0x8C379A000000000000000000000000000000000000000000000000000000000 DUP2 MSTORE PUSH1 0x4 ADD PUSH2 0xDE3 SWAP1 PUSH2 0x2EA9 JUMP JUMPDEST PUSH1 0x40 MLOAD DUP1 SWAP2 SUB SWAP1 REVERT JUMPDEST PUSH1 0x0 DUP5 DUP5 SWAP1 POP SUB PUSH2 0xE32 JUMPI PUSH1 0x40 MLOAD PUSH32 0x8C379A000000000000000000000000000000000000000000000000000000000 DUP2 MSTORE PUSH1 0x4 ADD PUSH2 0xE29 SWAP1 PUSH2 0x2CF8 JUMP JUMPDEST PUSH1 0x40 MLOAD DUP1 SWAP2 SUB SWAP1 REVERT JUMPDEST PUSH2 0xE3C DUP5 DUP5 PUSH2 0x1F36 JUMP JUMPDEST PUSH1 0x1 PUSH1 0x3 PUSH1 0x0 CALLER PUSH20 0xFFFFFFFFFFFFFFFFFFFFFFFFFFFFFFFFFFFFFFFF AND PUSH20 0xFFFFFFFFFFFFFFFFFFFFFFFFFFFFFFFFFFFFFFFF AND DUP2 MSTORE PUSH1 0x20 ADD SWAP1 DUP2 MSTORE PUSH1 0x20 ADD PUSH1 0x0 KECCAK256 PUSH1 0x0 PUSH2 0x100 EXP DUP2 SLOAD DUP2 PUSH1 0xFF MUL NOT AND SWAP1 DUP4 ISZERO ISZERO MUL OR SWAP1 SSTORE POP POP POP POP POP JUMP JUMPDEST PUSH1 0x1 ISZERO ISZERO PUSH1 0x4 PUSH1 0x0 CALLER PUSH20 0xFFFFFFFFFFFFFFFFFFFFFFFFFFFFFFFFFFFFFFFF AND PUSH20 0xFFFFFFFFFFFFFFFFFFFFFFFFFFFFFFFFFFFFFFFF AND DUP2 MSTORE PUSH1 0x20 ADD SWAP1 DUP2 MSTORE PUSH1 0x20 ADD PUSH1 0x0 KECCAK256 PUSH1 0x0 SWAP1 SLOAD SWAP1 PUSH2 0x100 EXP SWAP1 DIV PUSH1 0xFF AND ISZERO ISZERO EQ PUSH2 0xF2D JUMPI PUSH1 0x40 MLOAD PUSH32 0x8C379A000000000000000000000000000000000000000000000000000000000 DUP2 MSTORE PUSH1 0x4 ADD PUSH2 0xF24 SWAP1 PUSH2 0x2F15 JUMP JUMPDEST PUSH1 0x40 MLOAD DUP1 SWAP2 SUB SWAP1 REVERT JUMPDEST CALLER PUSH20 0xFFFFFFFFFFFFFFFFFFFFFFFFFFFFFFFFFFFFFFFF AND DUP3 PUSH20 0xFFFFFFFFFFFFFFFFFFFFFFFFFFFFFFFFFFFFFFFF AND SUB PUSH2 0xF9B JUMPI PUSH1 0x40 MLOAD PUSH32 0x8C379A000000000000000000000000000000000000000000000000000000000 DUP2 MSTORE PUSH1 0x4 ADD PUSH2 0xF92 SWAP1 PUSH2 0x2F81 JUMP JUMPDEST PUSH1 0x40 MLOAD DUP1 SWAP2 SUB SWAP1 REVERT JUMPDEST DUP1 PUSH1 0x4 PUSH1 0x0 DUP5 PUSH20 0xFFFFFFFFFFFFFFFFFFFFFFFFFFFFFFFFFFFFFFFF AND PUSH20 0xFFFFFFFFFFFFFFFFFFFFFFFFFFFFFFFFFFFFFFFF AND DUP2 MSTORE PUSH1 0x20 ADD SWAP1 DUP2 MSTORE PUSH1 0x20 ADD PUSH1 0x0 KECCAK256 PUSH1 0x0 PUSH2 0x100 EXP DUP2 SLOAD DUP2 PUSH1 0xFF MUL NOT AND SWAP1 DUP4 ISZERO ISZERO MUL OR SWAP1 SSTORE POP POP POP JUMP JUMPDEST PUSH1 0x1 ISZERO ISZERO PUSH1 0x4 PUSH1 0x0 CALLER PUSH20 0xFFFFFFFFFFFFFFFFFFFFFFFFFFFFFFFFFFFFFFFF AND PUSH20 0xFFFFFFFFFFFFFFFFFFFFFFFFFFFFFFFFFFFFFFFF AND DUP2 MSTORE PUSH1 0x20 ADD SWAP1 DUP2 MSTORE PUSH1 0x20 ADD PUSH1 0x0 KECCAK256 PUSH1 0x0 SWAP1 SLOAD SWAP1 PUSH2 0x100 EXP SWAP1 DIV PUSH1 0xFF AND ISZERO ISZERO EQ PUSH2 0x1089 JUMPI PUSH1 0x40 MLOAD PUSH32 0x8C379A000000000000000000000000000000000000000000000000000000000 DUP2 MSTORE PUSH1 0x4 ADD PUSH2 0x1080 SWAP1 PUSH2 0x2F15 JUMP JUMPDEST PUSH1 0x40 MLOAD DUP1 SWAP2 SUB SWAP1 REVERT JUMPDEST PUSH1 0x0 JUMPDEST PUSH1 0x0 DUP1 SLOAD SWAP1 POP DUP2 PUSH1 0xFF AND LT ISZERO PUSH2 0x121A JUMPI DUP2 PUSH20 0xFFFFFFFFFFFFFFFFFFFFFFFFFFFFFFFFFFFFFFFF AND PUSH1 0x0 DUP3 PUSH1 0xFF AND DUP2 SLOAD DUP2 LT PUSH2 0x10CA JUMPI PUSH2 0x10C9 PUSH2 0x2FA1 JUMP JUMPDEST JUMPDEST SWAP1 PUSH1 0x0 MSTORE PUSH1 0x20 PUSH1 0x0 KECCAK256 ADD PUSH1 0x0 SWAP1 SLOAD SWAP1 PUSH2 0x100 EXP SWAP1 DIV PUSH20 0xFFFFFFFFFFFFFFFFFFFFFFFFFFFFFFFFFFFFFFFF AND PUSH20 0xFFFFFFFFFFFFFFFFFFFFFFFFFFFFFFFFFFFFFFFF AND SUB PUSH2 0x1207 JUMPI PUSH1 0x0 PUSH1 0x1 PUSH1 0x0 DUP1 SLOAD SWAP1 POP PUSH2 0x1124 SWAP2 SWAP1 PUSH2 0x2FFF JUMP JUMPDEST DUP2 SLOAD DUP2 LT PUSH2 0x1135 JUMPI PUSH2 0x1134 PUSH2 0x2FA1 JUMP JUMPDEST JUMPDEST SWAP1 PUSH1 0x0 MSTORE PUSH1 0x20 PUSH1 0x0 KECCAK256 ADD PUSH1 0x0 SWAP1 SLOAD SWAP1 PUSH2 0x100 EXP SWAP1 DIV PUSH20 0xFFFFFFFFFFFFFFFFFFFFFFFFFFFFFFFFFFFFFFFF AND PUSH1 0x0 DUP3 PUSH1 0xFF AND DUP2 SLOAD DUP2 LT PUSH2 0x1177 JUMPI PUSH2 0x1176 PUSH2 0x2FA1 JUMP JUMPDEST JUMPDEST SWAP1 PUSH1 0x0 MSTORE PUSH1 0x20 PUSH1 0x0 KECCAK256 ADD PUSH1 0x0 PUSH2 0x100 EXP DUP2 SLOAD DUP2 PUSH20 0xFFFFFFFFFFFFFFFFFFFFFFFFFFFFFFFFFFFFFFFF MUL NOT AND SWAP1 DUP4 PUSH20 0xFFFFFFFFFFFFFFFFFFFFFFFFFFFFFFFFFFFFFFFF AND MUL OR SWAP1 SSTORE POP PUSH1 0x0 DUP1 SLOAD DUP1 PUSH2 0x11D1 JUMPI PUSH2 0x11D0 PUSH2 0x3033 JUMP JUMPDEST JUMPDEST PUSH1 0x1 SWAP1 SUB DUP2 DUP2 SWAP1 PUSH1 0x0 MSTORE PUSH1 0x20 PUSH1 0x0 KECCAK256 ADD PUSH1 0x0 PUSH2 0x100 EXP DUP2 SLOAD SWAP1 PUSH20 0xFFFFFFFFFFFFFFFFFFFFFFFFFFFFFFFFFFFFFFFF MUL NOT AND SWAP1 SSTORE SWAP1 SSTORE JUMPDEST DUP1 DUP1 PUSH2 0x1212 SWAP1 PUSH2 0x3062 JUMP JUMPDEST SWAP2 POP POP PUSH2 0x108C JUMP JUMPDEST POP PUSH1 0x1 PUSH1 0x0 DUP3 PUSH20 0xFFFFFFFFFFFFFFFFFFFFFFFFFFFFFFFFFFFFFFFF AND PUSH20 0xFFFFFFFFFFFFFFFFFFFFFFFFFFFFFFFFFFFFFFFF AND DUP2 MSTORE PUSH1 0x20 ADD SWAP1 DUP2 MSTORE PUSH1 0x20 ADD PUSH1 0x0 KECCAK256 PUSH1 0x0 PUSH2 0x100 EXP DUP2 SLOAD SWAP1 PUSH1 0xFF MUL NOT AND SWAP1 SSTORE PUSH1 0x3 PUSH1 0x0 DUP3 PUSH20 0xFFFFFFFFFFFFFFFFFFFFFFFFFFFFFFFFFFFFFFFF AND PUSH20 0xFFFFFFFFFFFFFFFFFFFFFFFFFFFFFFFFFFFFFFFF AND DUP2 MSTORE PUSH1 0x20 ADD SWAP1 DUP2 MSTORE PUSH1 0x20 ADD PUSH1 0x0 KECCAK256 PUSH1 0x0 PUSH2 0x100 EXP DUP2 SLOAD SWAP1 PUSH1 0xFF MUL NOT AND SWAP1 SSTORE PUSH1 0x9 PUSH1 0x0 DUP3 PUSH20 0xFFFFFFFFFFFFFFFFFFFFFFFFFFFFFFFFFFFFFFFF AND PUSH20 0xFFFFFFFFFFFFFFFFFFFFFFFFFFFFFFFFFFFFFFFF AND DUP2 MSTORE PUSH1 0x20 ADD SWAP1 DUP2 MSTORE PUSH1 0x20 ADD PUSH1 0x0 KECCAK256 PUSH1 0x0 PUSH2 0x1304 SWAP2 SWAP1 PUSH2 0x2358 JUMP JUMPDEST PUSH2 0x130D DUP2 PUSH2 0x209C JUMP JUMPDEST POP JUMP JUMPDEST PUSH1 0xB PUSH1 0x1 SWAP1 SLOAD SWAP1 PUSH2 0x100 EXP SWAP1 DIV PUSH1 0xFF AND DUP2 JUMP JUMPDEST PUSH1 0x0 PUSH1 0x60 PUSH1 0x0 DUP1 PUSH1 0x0 DUP7 PUSH1 0x9 PUSH1 0x0 DUP10 PUSH20 0xFFFFFFFFFFFFFFFFFFFFFFFFFFFFFFFFFFFFFFFF AND PUSH20 0xFFFFFFFFFFFFFFFFFFFFFFFFFFFFFFFFFFFFFFFF AND DUP2 MSTORE PUSH1 0x20 ADD SWAP1 DUP2 MSTORE PUSH1 0x20 ADD PUSH1 0x0 KECCAK256 DUP8 PUSH1 0x7 PUSH1 0x0 DUP12 PUSH20 0xFFFFFFFFFFFFFFFFFFFFFFFFFFFFFFFFFFFFFFFF AND PUSH20 0xFFFFFFFFFFFFFFFFFFFFFFFFFFFFFFFFFFFFFFFF AND DUP2 MSTORE PUSH1 0x20 ADD SWAP1 DUP2 MSTORE PUSH1 0x20 ADD PUSH1 0x0 KECCAK256 PUSH1 0x0 DUP11 PUSH1 0xFF AND PUSH1 0xFF AND DUP2 MSTORE PUSH1 0x20 ADD SWAP1 DUP2 MSTORE PUSH1 0x20 ADD PUSH1 0x0 KECCAK256 PUSH1 0x0 SWAP1 SLOAD SWAP1 PUSH2 0x100 EXP SWAP1 DIV PUSH1 0xFF AND PUSH1 0x8 PUSH1 0x0 DUP13 PUSH20 0xFFFFFFFFFFFFFFFFFFFFFFFFFFFFFFFFFFFFFFFF AND PUSH20 0xFFFFFFFFFFFFFFFFFFFFFFFFFFFFFFFFFFFFFFFF AND DUP2 MSTORE PUSH1 0x20 ADD SWAP1 DUP2 MSTORE PUSH1 0x20 ADD PUSH1 0x0 KECCAK256 PUSH1 0x0 DUP12 PUSH1 0xFF AND PUSH1 0xFF AND DUP2 MSTORE PUSH1 0x20 ADD SWAP1 DUP2 MSTORE PUSH1 0x20 ADD PUSH1 0x0 KECCAK256 SLOAD DUP4 DUP1 SLOAD PUSH2 0x1434 SWAP1 PUSH2 0x2C7B JUMP JUMPDEST DUP1 PUSH1 0x1F ADD PUSH1 0x20 DUP1 SWAP2 DIV MUL PUSH1 0x20 ADD PUSH1 0x40 MLOAD SWAP1 DUP2 ADD PUSH1 0x40 MSTORE DUP1 SWAP3 SWAP2 SWAP1 DUP2 DUP2 MSTORE PUSH1 0x20 ADD DUP3 DUP1 SLOAD PUSH2 0x1460 SWAP1 PUSH2 0x2C7B JUMP JUMPDEST DUP1 ISZERO PUSH2 0x14AD JUMPI DUP1 PUSH1 0x1F LT PUSH2 0x1482 JUMPI PUSH2 0x100 DUP1 DUP4 SLOAD DIV MUL DUP4 MSTORE SWAP2 PUSH1 0x20 ADD SWAP2 PUSH2 0x14AD JUMP JUMPDEST DUP3 ADD SWAP2 SWAP1 PUSH1 0x0 MSTORE PUSH1 0x20 PUSH1 0x0 KECCAK256 SWAP1 JUMPDEST DUP2 SLOAD DUP2 MSTORE SWAP1 PUSH1 0x1 ADD SWAP1 PUSH1 0x20 ADD DUP1 DUP4 GT PUSH2 0x1490 JUMPI DUP3 SWAP1 SUB PUSH1 0x1F AND DUP3 ADD SWAP2 JUMPDEST POP POP POP POP POP SWAP4 POP SWAP5 POP SWAP5 POP SWAP5 POP SWAP5 POP SWAP5 POP SWAP3 SWAP6 POP SWAP3 SWAP6 SWAP1 SWAP4 POP JUMP JUMPDEST PUSH1 0x1 ISZERO ISZERO PUSH1 0x4 PUSH1 0x0 CALLER PUSH20 0xFFFFFFFFFFFFFFFFFFFFFFFFFFFFFFFFFFFFFFFF AND PUSH20 0xFFFFFFFFFFFFFFFFFFFFFFFFFFFFFFFFFFFFFFFF AND DUP2 MSTORE PUSH1 0x20 ADD SWAP1 DUP2 MSTORE PUSH1 0x20 ADD PUSH1 0x0 KECCAK256 PUSH1 0x0 SWAP1 SLOAD SWAP1 PUSH2 0x100 EXP SWAP1 DIV PUSH1 0xFF AND ISZERO ISZERO EQ PUSH2 0x155B JUMPI PUSH1 0x40 MLOAD PUSH32 0x8C379A000000000000000000000000000000000000000000000000000000000 DUP2 MSTORE PUSH1 0x4 ADD PUSH2 0x1552 SWAP1 PUSH2 0x2F15 JUMP JUMPDEST PUSH1 0x40 MLOAD DUP1 SWAP2 SUB SWAP1 REVERT JUMPDEST PUSH1 0x0 JUMPDEST PUSH1 0x2 DUP1 SLOAD SWAP1 POP DUP2 PUSH1 0xFF AND LT ISZERO PUSH2 0x1687 JUMPI DUP2 PUSH1 0xFF AND PUSH1 0x2 DUP3 PUSH1 0xFF AND DUP2 SLOAD DUP2 LT PUSH2 0x1589 JUMPI PUSH2 0x1588 PUSH2 0x2FA1 JUMP JUMPDEST JUMPDEST SWAP1 PUSH1 0x0 MSTORE PUSH1 0x20 PUSH1 0x0 KECCAK256 SWAP1 PUSH1 0x20 SWAP2 DUP3 DUP3 DIV ADD SWAP2 SWAP1 MOD SWAP1 SLOAD SWAP1 PUSH2 0x100 EXP SWAP1 DIV PUSH1 0xFF AND PUSH1 0xFF AND SUB PUSH2 0x1674 JUMPI PUSH1 0x2 PUSH1 0x1 PUSH1 0x2 DUP1 SLOAD SWAP1 POP PUSH2 0x15C5 SWAP2 SWAP1 PUSH2 0x2FFF JUMP JUMPDEST DUP2 SLOAD DUP2 LT PUSH2 0x15D6 JUMPI PUSH2 0x15D5 PUSH2 0x2FA1 JUMP JUMPDEST JUMPDEST SWAP1 PUSH1 0x0 MSTORE PUSH1 0x20 PUSH1 0x0 KECCAK256 SWAP1 PUSH1 0x20 SWAP2 DUP3 DUP3 DIV ADD SWAP2 SWAP1 MOD SWAP1 SLOAD SWAP1 PUSH2 0x100 EXP SWAP1 DIV PUSH1 0xFF AND PUSH1 0x2 DUP3 PUSH1 0xFF AND DUP2 SLOAD DUP2 LT PUSH2 0x160D JUMPI PUSH2 0x160C PUSH2 0x2FA1 JUMP JUMPDEST JUMPDEST SWAP1 PUSH1 0x0 MSTORE PUSH1 0x20 PUSH1 0x0 KECCAK256 SWAP1 PUSH1 0x20 SWAP2 DUP3 DUP3 DIV ADD SWAP2 SWAP1 MOD PUSH2 0x100 EXP DUP2 SLOAD DUP2 PUSH1 0xFF MUL NOT AND SWAP1 DUP4 PUSH1 0xFF AND MUL OR SWAP1 SSTORE POP PUSH1 0x2 DUP1 SLOAD DUP1 PUSH2 0x1649 JUMPI PUSH2 0x1648 PUSH2 0x3033 JUMP JUMPDEST JUMPDEST PUSH1 0x1 SWAP1 SUB DUP2 DUP2 SWAP1 PUSH1 0x0 MSTORE PUSH1 0x20 PUSH1 0x0 KECCAK256 SWAP1 PUSH1 0x20 SWAP2 DUP3 DUP3 DIV ADD SWAP2 SWAP1 MOD PUSH2 0x100 EXP DUP2 SLOAD SWAP1 PUSH1 0xFF MUL NOT AND SWAP1 SSTORE SWAP1 SSTORE JUMPDEST DUP1 DUP1 PUSH2 0x167F SWAP1 PUSH2 0x3062 JUMP JUMPDEST SWAP2 POP POP PUSH2 0x155E JUMP JUMPDEST POP PUSH1 0x6 PUSH1 0x0 DUP3 PUSH1 0xFF AND PUSH1 0xFF AND DUP2 MSTORE PUSH1 0x20 ADD SWAP1 DUP2 MSTORE PUSH1 0x20 ADD PUSH1 0x0 KECCAK256 PUSH1 0x0 PUSH2 0x100 EXP DUP2 SLOAD SWAP1 PUSH20 0xFFFFFFFFFFFFFFFFFFFFFFFFFFFFFFFFFFFFFFFF MUL NOT AND SWAP1 SSTORE PUSH2 0x16CD DUP2 PUSH2 0x21F5 JUMP JUMPDEST POP JUMP JUMPDEST PUSH1 0x9 PUSH1 0x20 MSTORE DUP1 PUSH1 0x0 MSTORE PUSH1 0x40 PUSH1 0x0 KECCAK256 PUSH1 0x0 SWAP2 POP SWAP1 POP DUP1 SLOAD PUSH2 0x16EF SWAP1 PUSH2 0x2C7B JUMP JUMPDEST DUP1 PUSH1 0x1F ADD PUSH1 0x20 DUP1 SWAP2 DIV MUL PUSH1 0x20 ADD PUSH1 0x40 MLOAD SWAP1 DUP2 ADD PUSH1 0x40 MSTORE DUP1 SWAP3 SWAP2 SWAP1 DUP2 DUP2 MSTORE PUSH1 0x20 ADD DUP3 DUP1 SLOAD PUSH2 0x171B SWAP1 PUSH2 0x2C7B JUMP JUMPDEST DUP1 ISZERO PUSH2 0x1768 JUMPI DUP1 PUSH1 0x1F LT PUSH2 0x173D JUMPI PUSH2 0x100 DUP1 DUP4 SLOAD DIV MUL DUP4 MSTORE SWAP2 PUSH1 0x20 ADD SWAP2 PUSH2 0x1768 JUMP JUMPDEST DUP3 ADD SWAP2 SWAP1 PUSH1 0x0 MSTORE PUSH1 0x20 PUSH1 0x0 KECCAK256 SWAP1 JUMPDEST DUP2 SLOAD DUP2 MSTORE SWAP1 PUSH1 0x1 ADD SWAP1 PUSH1 0x20 ADD DUP1 DUP4 GT PUSH2 0x174B JUMPI DUP3 SWAP1 SUB PUSH1 0x1F AND DUP3 ADD SWAP2 JUMPDEST POP POP POP POP POP DUP2 JUMP JUMPDEST PUSH1 0x6 PUSH1 0x20 MSTORE DUP1 PUSH1 0x0 MSTORE PUSH1 0x40 PUSH1 0x0 KECCAK256 PUSH1 0x0 SWAP2 POP SLOAD SWAP1 PUSH2 0x100 EXP SWAP1 DIV PUSH20 0xFFFFFFFFFFFFFFFFFFFFFFFFFFFFFFFFFFFFFFFF AND DUP2 JUMP JUMPDEST PUSH1 0x3 PUSH1 0x20 MSTORE DUP1 PUSH1 0x0 MSTORE PUSH1 0x40 PUSH1 0x0 KECCAK256 PUSH1 0x0 SWAP2 POP SLOAD SWAP1 PUSH2 0x100 EXP SWAP1 DIV PUSH1 0xFF AND DUP2 JUMP JUMPDEST PUSH1 0x1 ISZERO ISZERO PUSH1 0x4 PUSH1 0x0 CALLER PUSH20 0xFFFFFFFFFFFFFFFFFFFFFFFFFFFFFFFFFFFFFFFF AND PUSH20 0xFFFFFFFFFFFFFFFFFFFFFFFFFFFFFFFFFFFFFFFF AND DUP2 MSTORE PUSH1 0x20 ADD SWAP1 DUP2 MSTORE PUSH1 0x20 ADD PUSH1 0x0 KECCAK256 PUSH1 0x0 SWAP1 SLOAD SWAP1 PUSH2 0x100 EXP SWAP1 DIV PUSH1 0xFF AND ISZERO ISZERO EQ PUSH2 0x1856 JUMPI PUSH1 0x40 MLOAD PUSH32 0x8C379A000000000000000000000000000000000000000000000000000000000 DUP2 MSTORE PUSH1 0x4 ADD PUSH2 0x184D SWAP1 PUSH2 0x2F15 JUMP JUMPDEST PUSH1 0x40 MLOAD DUP1 SWAP2 SUB SWAP1 REVERT JUMPDEST DUP1 PUSH1 0xC DUP2 SWAP1 SSTORE POP POP JUMP JUMPDEST PUSH1 0x60 PUSH1 0x0 DUP1 SLOAD DUP1 PUSH1 0x20 MUL PUSH1 0x20 ADD PUSH1 0x40 MLOAD SWAP1 DUP2 ADD PUSH1 0x40 MSTORE DUP1 SWAP3 SWAP2 SWAP1 DUP2 DUP2 MSTORE PUSH1 0x20 ADD DUP3 DUP1 SLOAD DUP1 ISZERO PUSH2 0x18E4 JUMPI PUSH1 0x20 MUL DUP3 ADD SWAP2 SWAP1 PUSH1 0x0 MSTORE PUSH1 0x20 PUSH1 0x0 KECCAK256 SWAP1 JUMPDEST DUP2 PUSH1 0x0 SWAP1 SLOAD SWAP1 PUSH2 0x100 EXP SWAP1 DIV PUSH20 0xFFFFFFFFFFFFFFFFFFFFFFFFFFFFFFFFFFFFFFFF AND PUSH20 0xFFFFFFFFFFFFFFFFFFFFFFFFFFFFFFFFFFFFFFFF AND DUP2 MSTORE PUSH1 0x20 ADD SWAP1 PUSH1 0x1 ADD SWAP1 DUP1 DUP4 GT PUSH2 0x189A JUMPI JUMPDEST POP POP POP POP POP SWAP1 POP SWAP1 JUMP JUMPDEST PUSH1 0x1 ISZERO ISZERO PUSH1 0x4 PUSH1 0x0 CALLER PUSH20 0xFFFFFFFFFFFFFFFFFFFFFFFFFFFFFFFFFFFFFFFF AND PUSH20 0xFFFFFFFFFFFFFFFFFFFFFFFFFFFFFFFFFFFFFFFF AND DUP2 MSTORE PUSH1 0x20 ADD SWAP1 DUP2 MSTORE PUSH1 0x20 ADD PUSH1 0x0 KECCAK256 PUSH1 0x0 SWAP1 SLOAD SWAP1 PUSH2 0x100 EXP SWAP1 DIV PUSH1 0xFF AND ISZERO ISZERO EQ PUSH2 0x1981 JUMPI PUSH1 0x40 MLOAD PUSH32 0x8C379A000000000000000000000000000000000000000000000000000000000 DUP2 MSTORE PUSH1 0x4 ADD PUSH2 0x1978 SWAP1 PUSH2 0x2F15 JUMP JUMPDEST PUSH1 0x40 MLOAD DUP1 SWAP2 SUB SWAP1 REVERT JUMPDEST DUP1 PUSH1 0xB PUSH1 0x1 PUSH2 0x100 EXP DUP2 SLOAD DUP2 PUSH1 0xFF MUL NOT AND SWAP1 DUP4 ISZERO ISZERO MUL OR SWAP1 SSTORE POP POP JUMP JUMPDEST PUSH1 0x1 ISZERO ISZERO PUSH1 0x4 PUSH1 0x0 CALLER PUSH20 0xFFFFFFFFFFFFFFFFFFFFFFFFFFFFFFFFFFFFFFFF AND PUSH20 0xFFFFFFFFFFFFFFFFFFFFFFFFFFFFFFFFFFFFFFFF AND DUP2 MSTORE PUSH1 0x20 ADD SWAP1 DUP2 MSTORE PUSH1 0x20 ADD PUSH1 0x0 KECCAK256 PUSH1 0x0 SWAP1 SLOAD SWAP1 PUSH2 0x100 EXP SWAP1 DIV PUSH1 0xFF AND ISZERO ISZERO EQ PUSH2 0x1A31 JUMPI PUSH1 0x40 MLOAD PUSH32 0x8C379A000000000000000000000000000000000000000000000000000000000 DUP2 MSTORE PUSH1 0x4 ADD PUSH2 0x1A28 SWAP1 PUSH2 0x2F15 JUMP JUMPDEST PUSH1 0x40 MLOAD DUP1 SWAP2 SUB SWAP1 REVERT JUMPDEST PUSH1 0x0 PUSH20 0xFFFFFFFFFFFFFFFFFFFFFFFFFFFFFFFFFFFFFFFF AND PUSH1 0x6 PUSH1 0x0 DUP4 PUSH1 0xFF AND PUSH1 0xFF AND DUP2 MSTORE PUSH1 0x20 ADD SWAP1 DUP2 MSTORE PUSH1 0x20 ADD PUSH1 0x0 KECCAK256 PUSH1 0x0 SWAP1 SLOAD SWAP1 PUSH2 0x100 EXP SWAP1 DIV PUSH20 0xFFFFFFFFFFFFFFFFFFFFFFFFFFFFFFFFFFFFFFFF AND PUSH20 0xFFFFFFFFFFFFFFFFFFFFFFFFFFFFFFFFFFFFFFFF AND EQ PUSH2 0x1AD9 JUMPI PUSH1 0x40 MLOAD PUSH32 0x8C379A000000000000000000000000000000000000000000000000000000000 DUP2 MSTORE PUSH1 0x4 ADD PUSH2 0x1AD0 SWAP1 PUSH2 0x30FD JUMP JUMPDEST PUSH1 0x40 MLOAD DUP1 SWAP2 SUB SWAP1 REVERT JUMPDEST DUP2 PUSH1 0x6 PUSH1 0x0 DUP4 PUSH1 0xFF AND PUSH1 0xFF AND DUP2 MSTORE PUSH1 0x20 ADD SWAP1 DUP2 MSTORE PUSH1 0x20 ADD PUSH1 0x0 KECCAK256 PUSH1 0x0 PUSH2 0x100 EXP DUP2 SLOAD DUP2 PUSH20 0xFFFFFFFFFFFFFFFFFFFFFFFFFFFFFFFFFFFFFFFF MUL NOT AND SWAP1 DUP4 PUSH20 0xFFFFFFFFFFFFFFFFFFFFFFFFFFFFFFFFFFFFFFFF AND MUL OR SWAP1 SSTORE POP PUSH1 0x2 DUP2 SWAP1 DUP1 PUSH1 0x1 DUP2 SLOAD ADD DUP1 DUP3 SSTORE DUP1 SWAP2 POP POP PUSH1 0x1 SWAP1 SUB SWAP1 PUSH1 0x0 MSTORE PUSH1 0x20 PUSH1 0x0 KECCAK256 SWAP1 PUSH1 0x20 SWAP2 DUP3 DUP3 DIV ADD SWAP2 SWAP1 MOD SWAP1 SWAP2 SWAP1 SWAP2 SWAP1 SWAP2 PUSH2 0x100 EXP DUP2 SLOAD DUP2 PUSH1 0xFF MUL NOT AND SWAP1 DUP4 PUSH1 0xFF AND MUL OR SWAP1 SSTORE POP POP POP JUMP JUMPDEST PUSH1 0x1 ISZERO ISZERO PUSH1 0x4 PUSH1 0x0 CALLER PUSH20 0xFFFFFFFFFFFFFFFFFFFFFFFFFFFFFFFFFFFFFFFF AND PUSH20 0xFFFFFFFFFFFFFFFFFFFFFFFFFFFFFFFFFFFFFFFF AND DUP2 MSTORE PUSH1 0x20 ADD SWAP1 DUP2 MSTORE PUSH1 0x20 ADD PUSH1 0x0 KECCAK256 PUSH1 0x0 SWAP1 SLOAD SWAP1 PUSH2 0x100 EXP SWAP1 DIV PUSH1 0xFF AND ISZERO ISZERO EQ PUSH2 0x1C0D JUMPI PUSH1 0x40 MLOAD PUSH32 0x8C379A000000000000000000000000000000000000000000000000000000000 DUP2 MSTORE PUSH1 0x4 ADD PUSH2 0x1C04 SWAP1 PUSH2 0x2F15 JUMP JUMPDEST PUSH1 0x40 MLOAD DUP1 SWAP2 SUB SWAP1 REVERT JUMPDEST PUSH1 0x0 PUSH20 0xFFFFFFFFFFFFFFFFFFFFFFFFFFFFFFFFFFFFFFFF AND PUSH1 0x6 PUSH1 0x0 DUP4 PUSH1 0xFF AND PUSH1 0xFF AND DUP2 MSTORE PUSH1 0x20 ADD SWAP1 DUP2 MSTORE PUSH1 0x20 ADD PUSH1 0x0 KECCAK256 PUSH1 0x0 SWAP1 SLOAD SWAP1 PUSH2 0x100 EXP SWAP1 DIV PUSH20 0xFFFFFFFFFFFFFFFFFFFFFFFFFFFFFFFFFFFFFFFF AND PUSH20 0xFFFFFFFFFFFFFFFFFFFFFFFFFFFFFFFFFFFFFFFF AND SUB PUSH2 0x1CB5 JUMPI PUSH1 0x40 MLOAD PUSH32 0x8C379A000000000000000000000000000000000000000000000000000000000 DUP2 MSTORE PUSH1 0x4 ADD PUSH2 0x1CAC SWAP1 PUSH2 0x3169 JUMP JUMPDEST PUSH1 0x40 MLOAD DUP1 SWAP2 SUB SWAP1 REVERT JUMPDEST DUP2 PUSH1 0x6 PUSH1 0x0 DUP4 PUSH1 0xFF AND PUSH1 0xFF AND DUP2 MSTORE PUSH1 0x20 ADD SWAP1 DUP2 MSTORE PUSH1 0x20 ADD PUSH1 0x0 KECCAK256 PUSH1 0x0 PUSH2 0x100 EXP DUP2 SLOAD DUP2 PUSH20 0xFFFFFFFFFFFFFFFFFFFFFFFFFFFFFFFFFFFFFFFF MUL NOT AND SWAP1 DUP4 PUSH20 0xFFFFFFFFFFFFFFFFFFFFFFFFFFFFFFFFFFFFFFFF AND MUL OR SWAP1 SSTORE POP POP POP JUMP JUMPDEST PUSH1 0x8 PUSH1 0x20 MSTORE DUP2 PUSH1 0x0 MSTORE PUSH1 0x40 PUSH1 0x0 KECCAK256 PUSH1 0x20 MSTORE DUP1 PUSH1 0x0 MSTORE PUSH1 0x40 PUSH1 0x0 KECCAK256 PUSH1 0x0 SWAP2 POP SWAP2 POP POP SLOAD DUP2 JUMP JUMPDEST PUSH1 0x7 PUSH1 0x20 MSTORE DUP2 PUSH1 0x0 MSTORE PUSH1 0x40 PUSH1 0x0 KECCAK256 PUSH1 0x20 MSTORE DUP1 PUSH1 0x0 MSTORE PUSH1 0x40 PUSH1 0x0 KECCAK256 PUSH1 0x0 SWAP2 POP SWAP2 POP SWAP1 SLOAD SWAP1 PUSH2 0x100 EXP SWAP1 DIV PUSH1 0xFF AND DUP2 JUMP JUMPDEST PUSH1 0x1 ISZERO ISZERO PUSH1 0x4 PUSH1 0x0 CALLER PUSH20 0xFFFFFFFFFFFFFFFFFFFFFFFFFFFFFFFFFFFFFFFF AND PUSH20 0xFFFFFFFFFFFFFFFFFFFFFFFFFFFFFFFFFFFFFFFF AND DUP2 MSTORE PUSH1 0x20 ADD SWAP1 DUP2 MSTORE PUSH1 0x20 ADD PUSH1 0x0 KECCAK256 PUSH1 0x0 SWAP1 SLOAD SWAP1 PUSH2 0x100 EXP SWAP1 DIV PUSH1 0xFF AND ISZERO ISZERO EQ PUSH2 0x1DF8 JUMPI PUSH1 0x40 MLOAD PUSH32 0x8C379A000000000000000000000000000000000000000000000000000000000 DUP2 MSTORE PUSH1 0x4 ADD PUSH2 0x1DEF SWAP1 PUSH2 0x2F15 JUMP JUMPDEST PUSH1 0x40 MLOAD DUP1 SWAP2 SUB SWAP1 REVERT JUMPDEST DUP1 PUSH1 0xB PUSH1 0x0 PUSH2 0x100 EXP DUP2 SLOAD DUP2 PUSH1 0xFF MUL NOT AND SWAP1 DUP4 ISZERO ISZERO MUL OR SWAP1 SSTORE POP POP JUMP JUMPDEST PUSH1 0x1 ISZERO ISZERO PUSH1 0x4 PUSH1 0x0 CALLER PUSH20 0xFFFFFFFFFFFFFFFFFFFFFFFFFFFFFFFFFFFFFFFF AND PUSH20 0xFFFFFFFFFFFFFFFFFFFFFFFFFFFFFFFFFFFFFFFF AND DUP2 MSTORE PUSH1 0x20 ADD SWAP1 DUP2 MSTORE PUSH1 0x20 ADD PUSH1 0x0 KECCAK256 PUSH1 0x0 SWAP1 SLOAD SWAP1 PUSH2 0x100 EXP SWAP1 DIV PUSH1 0xFF AND ISZERO ISZERO EQ PUSH2 0x1EA8 JUMPI PUSH1 0x40 MLOAD PUSH32 0x8C379A000000000000000000000000000000000000000000000000000000000 DUP2 MSTORE PUSH1 0x4 ADD PUSH2 0x1E9F SWAP1 PUSH2 0x2F15 JUMP JUMPDEST PUSH1 0x40 MLOAD DUP1 SWAP2 SUB SWAP1 REVERT JUMPDEST DUP1 PUSH1 0x5 PUSH1 0x0 DUP5 PUSH20 0xFFFFFFFFFFFFFFFFFFFFFFFFFFFFFFFFFFFFFFFF AND PUSH20 0xFFFFFFFFFFFFFFFFFFFFFFFFFFFFFFFFFFFFFFFF AND DUP2 MSTORE PUSH1 0x20 ADD SWAP1 DUP2 MSTORE PUSH1 0x20 ADD PUSH1 0x0 KECCAK256 PUSH1 0x0 PUSH2 0x100 EXP DUP2 SLOAD DUP2 PUSH1 0xFF MUL NOT AND SWAP1 DUP4 ISZERO ISZERO MUL OR SWAP1 SSTORE POP POP POP JUMP JUMPDEST PUSH1 0x5 PUSH1 0x20 MSTORE DUP1 PUSH1 0x0 MSTORE PUSH1 0x40 PUSH1 0x0 KECCAK256 PUSH1 0x0 SWAP2 POP SLOAD SWAP1 PUSH2 0x100 EXP SWAP1 DIV PUSH1 0xFF AND DUP2 JUMP JUMPDEST PUSH1 0xB PUSH1 0x0 SWAP1 SLOAD SWAP1 PUSH2 0x100 EXP SWAP1 DIV PUSH1 0xFF AND DUP2 JUMP JUMPDEST DUP2 DUP2 PUSH1 0x9 PUSH1 0x0 CALLER PUSH20 0xFFFFFFFFFFFFFFFFFFFFFFFFFFFFFFFFFFFFFFFF AND PUSH20 0xFFFFFFFFFFFFFFFFFFFFFFFFFFFFFFFFFFFFFFFF AND DUP2 MSTORE PUSH1 0x20 ADD SWAP1 DUP2 MSTORE PUSH1 0x20 ADD PUSH1 0x0 KECCAK256 SWAP2 DUP3 PUSH2 0x1F84 SWAP3 SWAP2 SWAP1 PUSH2 0x336F JUMP JUMPDEST POP PUSH1 0x0 ISZERO ISZERO PUSH1 0x1 PUSH1 0x0 CALLER PUSH20 0xFFFFFFFFFFFFFFFFFFFFFFFFFFFFFFFFFFFFFFFF AND PUSH20 0xFFFFFFFFFFFFFFFFFFFFFFFFFFFFFFFFFFFFFFFF AND DUP2 MSTORE PUSH1 0x20 ADD SWAP1 DUP2 MSTORE PUSH1 0x20 ADD PUSH1 0x0 KECCAK256 PUSH1 0x0 SWAP1 SLOAD SWAP1 PUSH2 0x100 EXP SWAP1 DIV PUSH1 0xFF AND ISZERO ISZERO SUB PUSH2 0x2098 JUMPI PUSH1 0x0 CALLER SWAP1 DUP1 PUSH1 0x1 DUP2 SLOAD ADD DUP1 DUP3 SSTORE DUP1 SWAP2 POP POP PUSH1 0x1 SWAP1 SUB SWAP1 PUSH1 0x0 MSTORE PUSH1 0x20 PUSH1 0x0 KECCAK256 ADD PUSH1 0x0 SWAP1 SWAP2 SWAP1 SWAP2 SWAP1 SWAP2 PUSH2 0x100 EXP DUP2 SLOAD DUP2 PUSH20 0xFFFFFFFFFFFFFFFFFFFFFFFFFFFFFFFFFFFFFFFF MUL NOT AND SWAP1 DUP4 PUSH20 0xFFFFFFFFFFFFFFFFFFFFFFFFFFFFFFFFFFFFFFFF AND MUL OR SWAP1 SSTORE POP PUSH1 0x1 DUP1 PUSH1 0x0 CALLER PUSH20 0xFFFFFFFFFFFFFFFFFFFFFFFFFFFFFFFFFFFFFFFF AND PUSH20 0xFFFFFFFFFFFFFFFFFFFFFFFFFFFFFFFFFFFFFFFF AND DUP2 MSTORE PUSH1 0x20 ADD SWAP1 DUP2 MSTORE PUSH1 0x20 ADD PUSH1 0x0 KECCAK256 PUSH1 0x0 PUSH2 0x100 EXP DUP2 SLOAD DUP2 PUSH1 0xFF MUL NOT AND SWAP1 DUP4 ISZERO ISZERO MUL OR SWAP1 SSTORE POP JUMPDEST POP POP JUMP JUMPDEST PUSH1 0x1 ISZERO ISZERO PUSH1 0x4 PUSH1 0x0 CALLER PUSH20 0xFFFFFFFFFFFFFFFFFFFFFFFFFFFFFFFFFFFFFFFF AND PUSH20 0xFFFFFFFFFFFFFFFFFFFFFFFFFFFFFFFFFFFFFFFF AND DUP2 MSTORE PUSH1 0x20 ADD SWAP1 DUP2 MSTORE PUSH1 0x20 ADD PUSH1 0x0 KECCAK256 PUSH1 0x0 SWAP1 SLOAD SWAP1 PUSH2 0x100 EXP SWAP1 DIV PUSH1 0xFF AND ISZERO ISZERO EQ PUSH2 0x212F JUMPI PUSH1 0x40 MLOAD PUSH32 0x8C379A000000000000000000000000000000000000000000000000000000000 DUP2 MSTORE PUSH1 0x4 ADD PUSH2 0x2126 SWAP1 PUSH2 0x2F15 JUMP JUMPDEST PUSH1 0x40 MLOAD DUP1 SWAP2 SUB SWAP1 REVERT JUMPDEST PUSH1 0x0 JUMPDEST PUSH1 0x2 DUP1 SLOAD SWAP1 POP DUP2 PUSH1 0xFF AND LT ISZERO PUSH2 0x21F1 JUMPI PUSH1 0x7 PUSH1 0x0 DUP4 PUSH20 0xFFFFFFFFFFFFFFFFFFFFFFFFFFFFFFFFFFFFFFFF AND PUSH20 0xFFFFFFFFFFFFFFFFFFFFFFFFFFFFFFFFFFFFFFFF AND DUP2 MSTORE PUSH1 0x20 ADD SWAP1 DUP2 MSTORE PUSH1 0x20 ADD PUSH1 0x0 KECCAK256 PUSH1 0x0 PUSH1 0x2 DUP4 PUSH1 0xFF AND DUP2 SLOAD DUP2 LT PUSH2 0x219A JUMPI PUSH2 0x2199 PUSH2 0x2FA1 JUMP JUMPDEST JUMPDEST SWAP1 PUSH1 0x0 MSTORE PUSH1 0x20 PUSH1 0x0 KECCAK256 SWAP1 PUSH1 0x20 SWAP2 DUP3 DUP3 DIV ADD SWAP2 SWAP1 MOD SWAP1 SLOAD SWAP1 PUSH2 0x100 EXP SWAP1 DIV PUSH1 0xFF AND PUSH1 0xFF AND PUSH1 0xFF AND DUP2 MSTORE PUSH1 0x20 ADD SWAP1 DUP2 MSTORE PUSH1 0x20 ADD PUSH1 0x0 KECCAK256 PUSH1 0x0 PUSH2 0x100 EXP DUP2 SLOAD SWAP1 PUSH1 0xFF MUL NOT AND SWAP1 SSTORE DUP1 DUP1 PUSH2 0x21E9 SWAP1 PUSH2 0x3062 JUMP JUMPDEST SWAP2 POP POP PUSH2 0x2132 JUMP JUMPDEST POP POP JUMP JUMPDEST PUSH1 0x1 ISZERO ISZERO PUSH1 0x4 PUSH1 0x0 CALLER PUSH20 0xFFFFFFFFFFFFFFFFFFFFFFFFFFFFFFFFFFFFFFFF AND PUSH20 0xFFFFFFFFFFFFFFFFFFFFFFFFFFFFFFFFFFFFFFFF AND DUP2 MSTORE PUSH1 0x20 ADD SWAP1 DUP2 MSTORE PUSH1 0x20 ADD PUSH1 0x0 KECCAK256 PUSH1 0x0 SWAP1 SLOAD SWAP1 PUSH2 0x100 EXP SWAP1 DIV PUSH1 0xFF AND ISZERO ISZERO EQ PUSH2 0x2288 JUMPI PUSH1 0x40 MLOAD PUSH32 0x8C379A000000000000000000000000000000000000000000000000000000000 DUP2 MSTORE PUSH1 0x4 ADD PUSH2 0x227F SWAP1 PUSH2 0x2F15 JUMP JUMPDEST PUSH1 0x40 MLOAD DUP1 SWAP2 SUB SWAP1 REVERT JUMPDEST PUSH1 0x0 JUMPDEST PUSH1 0x0 DUP1 SLOAD SWAP1 POP DUP2 PUSH1 0xFF AND LT ISZERO PUSH2 0x2354 JUMPI PUSH1 0x7 PUSH1 0x0 DUP1 DUP4 PUSH1 0xFF AND DUP2 SLOAD DUP2 LT PUSH2 0x22B5 JUMPI PUSH2 0x22B4 PUSH2 0x2FA1 JUMP JUMPDEST JUMPDEST SWAP1 PUSH1 0x0 MSTORE PUSH1 0x20 PUSH1 0x0 KECCAK256 ADD PUSH1 0x0 SWAP1 SLOAD SWAP1 PUSH2 0x100 EXP SWAP1 DIV PUSH20 0xFFFFFFFFFFFFFFFFFFFFFFFFFFFFFFFFFFFFFFFF AND PUSH20 0xFFFFFFFFFFFFFFFFFFFFFFFFFFFFFFFFFFFFFFFF AND PUSH20 0xFFFFFFFFFFFFFFFFFFFFFFFFFFFFFFFFFFFFFFFF AND DUP2 MSTORE PUSH1 0x20 ADD SWAP1 DUP2 MSTORE PUSH1 0x20 ADD PUSH1 0x0 KECCAK256 PUSH1 0x0 DUP4 PUSH1 0xFF AND PUSH1 0xFF AND DUP2 MSTORE PUSH1 0x20 ADD SWAP1 DUP2 MSTORE PUSH1 0x20 ADD PUSH1 0x0 KECCAK256 PUSH1 0x0 PUSH2 0x100 EXP DUP2 SLOAD SWAP1 PUSH1 0xFF MUL NOT AND SWAP1 SSTORE DUP1 DUP1 PUSH2 0x234C SWAP1 PUSH2 0x3062 JUMP JUMPDEST SWAP2 POP POP PUSH2 0x228B JUMP JUMPDEST POP POP JUMP JUMPDEST POP DUP1 SLOAD PUSH2 0x2364 SWAP1 PUSH2 0x2C7B JUMP JUMPDEST PUSH1 0x0 DUP3 SSTORE DUP1 PUSH1 0x1F LT PUSH2 0x2376 JUMPI POP PUSH2 0x2395 JUMP JUMPDEST PUSH1 0x1F ADD PUSH1 0x20 SWAP1 DIV SWAP1 PUSH1 0x0 MSTORE PUSH1 0x20 PUSH1 0x0 KECCAK256 SWAP1 DUP2 ADD SWAP1 PUSH2 0x2394 SWAP2 SWAP1 PUSH2 0x2398 JUMP JUMPDEST JUMPDEST POP JUMP JUMPDEST JUMPDEST DUP1 DUP3 GT ISZERO PUSH2 0x23B1 JUMPI PUSH1 0x0 DUP2 PUSH1 0x0 SWAP1 SSTORE POP PUSH1 0x1 ADD PUSH2 0x2399 JUMP JUMPDEST POP SWAP1 JUMP JUMPDEST PUSH1 0x0 DUP1 REVERT JUMPDEST PUSH1 0x0 DUP1 REVERT JUMPDEST PUSH1 0x0 PUSH20 0xFFFFFFFFFFFFFFFFFFFFFFFFFFFFFFFFFFFFFFFF DUP3 AND SWAP1 POP SWAP2 SWAP1 POP JUMP JUMPDEST PUSH1 0x0 PUSH2 0x23EA DUP3 PUSH2 0x23BF JUMP JUMPDEST SWAP1 POP SWAP2 SWAP1 POP JUMP JUMPDEST PUSH2 0x23FA DUP2 PUSH2 0x23DF JUMP JUMPDEST DUP2 EQ PUSH2 0x2405 JUMPI PUSH1 0x0 DUP1 REVERT JUMPDEST POP JUMP JUMPDEST PUSH1 0x0 DUP2 CALLDATALOAD SWAP1 POP PUSH2 0x2417 DUP2 PUSH2 0x23F1 JUMP JUMPDEST SWAP3 SWAP2 POP POP JUMP JUMPDEST PUSH1 0x0 PUSH1 0x20 DUP3 DUP5 SUB SLT ISZERO PUSH2 0x2433 JUMPI PUSH2 0x2432 PUSH2 0x23B5 JUMP JUMPDEST JUMPDEST PUSH1 0x0 PUSH2 0x2441 DUP5 DUP3 DUP6 ADD PUSH2 0x2408 JUMP JUMPDEST SWAP2 POP POP SWAP3 SWAP2 POP POP JUMP JUMPDEST PUSH2 0x2453 DUP2 PUSH2 0x23DF JUMP JUMPDEST DUP3 MSTORE POP POP JUMP JUMPDEST PUSH1 0x0 PUSH1 0x20 DUP3 ADD SWAP1 POP PUSH2 0x246E PUSH1 0x0 DUP4 ADD DUP5 PUSH2 0x244A JUMP JUMPDEST SWAP3 SWAP2 POP POP JUMP JUMPDEST PUSH1 0x0 DUP2 ISZERO ISZERO SWAP1 POP SWAP2 SWAP1 POP JUMP JUMPDEST PUSH2 0x2489 DUP2 PUSH2 0x2474 JUMP JUMPDEST DUP3 MSTORE POP POP JUMP JUMPDEST PUSH1 0x0 PUSH1 0x20 DUP3 ADD SWAP1 POP PUSH2 0x24A4 PUSH1 0x0 DUP4 ADD DUP5 PUSH2 0x2480 JUMP JUMPDEST SWAP3 SWAP2 POP POP JUMP JUMPDEST PUSH1 0x0 DUP2 MLOAD SWAP1 POP SWAP2 SWAP1 POP JUMP JUMPDEST PUSH1 0x0 DUP3 DUP3 MSTORE PUSH1 0x20 DUP3 ADD SWAP1 POP SWAP3 SWAP2 POP POP JUMP JUMPDEST PUSH1 0x0 DUP2 SWAP1 POP PUSH1 0x20 DUP3 ADD SWAP1 POP SWAP2 SWAP1 POP JUMP JUMPDEST PUSH1 0x0 PUSH1 0xFF DUP3 AND SWAP1 POP SWAP2 SWAP1 POP JUMP JUMPDEST PUSH2 0x24EC DUP2 PUSH2 0x24D6 JUMP JUMPDEST DUP3 MSTORE POP POP JUMP JUMPDEST PUSH1 0x0 PUSH2 0x24FE DUP4 DUP4 PUSH2 0x24E3 JUMP JUMPDEST PUSH1 0x20 DUP4 ADD SWAP1 POP SWAP3 SWAP2 POP POP JUMP JUMPDEST PUSH1 0x0 PUSH1 0x20 DUP3 ADD SWAP1 POP SWAP2 SWAP1 POP JUMP JUMPDEST PUSH1 0x0 PUSH2 0x2522 DUP3 PUSH2 0x24AA JUMP JUMPDEST PUSH2 0x252C DUP2 DUP6 PUSH2 0x24B5 JUMP JUMPDEST SWAP4 POP PUSH2 0x2537 DUP4 PUSH2 0x24C6 JUMP JUMPDEST DUP1 PUSH1 0x0 JUMPDEST DUP4 DUP2 LT ISZERO PUSH2 0x2568 JUMPI DUP2 MLOAD PUSH2 0x254F DUP9 DUP3 PUSH2 0x24F2 JUMP JUMPDEST SWAP8 POP PUSH2 0x255A DUP4 PUSH2 0x250A JUMP JUMPDEST SWAP3 POP POP PUSH1 0x1 DUP2 ADD SWAP1 POP PUSH2 0x253B JUMP JUMPDEST POP DUP6 SWAP4 POP POP POP POP SWAP3 SWAP2 POP POP JUMP JUMPDEST PUSH1 0x0 PUSH1 0x20 DUP3 ADD SWAP1 POP DUP2 DUP2 SUB PUSH1 0x0 DUP4 ADD MSTORE PUSH2 0x258F DUP2 DUP5 PUSH2 0x2517 JUMP JUMPDEST SWAP1 POP SWAP3 SWAP2 POP POP JUMP JUMPDEST PUSH2 0x25A0 DUP2 PUSH2 0x24D6 JUMP JUMPDEST DUP2 EQ PUSH2 0x25AB JUMPI PUSH1 0x0 DUP1 REVERT JUMPDEST POP JUMP JUMPDEST PUSH1 0x0 DUP2 CALLDATALOAD SWAP1 POP PUSH2 0x25BD DUP2 PUSH2 0x2597 JUMP JUMPDEST SWAP3 SWAP2 POP POP JUMP JUMPDEST PUSH1 0x0 DUP1 PUSH1 0x40 DUP4 DUP6 SUB SLT ISZERO PUSH2 0x25DA JUMPI PUSH2 0x25D9 PUSH2 0x23B5 JUMP JUMPDEST JUMPDEST PUSH1 0x0 PUSH2 0x25E8 DUP6 DUP3 DUP7 ADD PUSH2 0x25AE JUMP JUMPDEST SWAP3 POP POP PUSH1 0x20 PUSH2 0x25F9 DUP6 DUP3 DUP7 ADD PUSH2 0x2408 JUMP JUMPDEST SWAP2 POP POP SWAP3 POP SWAP3 SWAP1 POP JUMP JUMPDEST PUSH1 0x0 DUP1 REVERT JUMPDEST PUSH1 0x0 DUP1 REVERT JUMPDEST PUSH1 0x0 DUP1 REVERT JUMPDEST PUSH1 0x0 DUP1 DUP4 PUSH1 0x1F DUP5 ADD SLT PUSH2 0x2628 JUMPI PUSH2 0x2627 PUSH2 0x2603 JUMP JUMPDEST JUMPDEST DUP3 CALLDATALOAD SWAP1 POP PUSH8 0xFFFFFFFFFFFFFFFF DUP2 GT ISZERO PUSH2 0x2645 JUMPI PUSH2 0x2644 PUSH2 0x2608 JUMP JUMPDEST JUMPDEST PUSH1 0x20 DUP4 ADD SWAP2 POP DUP4 PUSH1 0x1 DUP3 MUL DUP4 ADD GT ISZERO PUSH2 0x2661 JUMPI PUSH2 0x2660 PUSH2 0x260D JUMP JUMPDEST JUMPDEST SWAP3 POP SWAP3 SWAP1 POP JUMP JUMPDEST PUSH1 0x0 DUP1 PUSH1 0x0 DUP1 PUSH1 0x40 DUP6 DUP8 SUB SLT ISZERO PUSH2 0x2682 JUMPI PUSH2 0x2681 PUSH2 0x23B5 JUMP JUMPDEST JUMPDEST PUSH1 0x0 DUP6 ADD CALLDATALOAD PUSH8 0xFFFFFFFFFFFFFFFF DUP2 GT ISZERO PUSH2 0x26A0 JUMPI PUSH2 0x269F PUSH2 0x23BA JUMP JUMPDEST JUMPDEST PUSH2 0x26AC DUP8 DUP3 DUP9 ADD PUSH2 0x2612 JUMP JUMPDEST SWAP5 POP SWAP5 POP POP PUSH1 0x20 DUP6 ADD CALLDATALOAD PUSH8 0xFFFFFFFFFFFFFFFF DUP2 GT ISZERO PUSH2 0x26CF JUMPI PUSH2 0x26CE PUSH2 0x23BA JUMP JUMPDEST JUMPDEST PUSH2 0x26DB DUP8 DUP3 DUP9 ADD PUSH2 0x2612 JUMP JUMPDEST SWAP3 POP SWAP3 POP POP SWAP3 SWAP6 SWAP2 SWAP5 POP SWAP3 POP JUMP JUMPDEST PUSH2 0x26F2 DUP2 PUSH2 0x2474 JUMP JUMPDEST DUP2 EQ PUSH2 0x26FD JUMPI PUSH1 0x0 DUP1 REVERT JUMPDEST POP JUMP JUMPDEST PUSH1 0x0 DUP2 CALLDATALOAD SWAP1 POP PUSH2 0x270F DUP2 PUSH2 0x26E9 JUMP JUMPDEST SWAP3 SWAP2 POP POP JUMP JUMPDEST PUSH1 0x0 DUP1 PUSH1 0x40 DUP4 DUP6 SUB SLT ISZERO PUSH2 0x272C JUMPI PUSH2 0x272B PUSH2 0x23B5 JUMP JUMPDEST JUMPDEST PUSH1 0x0 PUSH2 0x273A DUP6 DUP3 DUP7 ADD PUSH2 0x2408 JUMP JUMPDEST SWAP3 POP POP PUSH1 0x20 PUSH2 0x274B DUP6 DUP3 DUP7 ADD PUSH2 0x2700 JUMP JUMPDEST SWAP2 POP POP SWAP3 POP SWAP3 SWAP1 POP JUMP JUMPDEST PUSH1 0x0 DUP1 PUSH1 0x40 DUP4 DUP6 SUB SLT ISZERO PUSH2 0x276C JUMPI PUSH2 0x276B PUSH2 0x23B5 JUMP JUMPDEST JUMPDEST PUSH1 0x0 PUSH2 0x277A DUP6 DUP3 DUP7 ADD PUSH2 0x2408 JUMP JUMPDEST SWAP3 POP POP PUSH1 0x20 PUSH2 0x278B DUP6 DUP3 DUP7 ADD PUSH2 0x25AE JUMP JUMPDEST SWAP2 POP POP SWAP3 POP SWAP3 SWAP1 POP JUMP JUMPDEST PUSH1 0x0 DUP2 MLOAD SWAP1 POP SWAP2 SWAP1 POP JUMP JUMPDEST PUSH1 0x0 DUP3 DUP3 MSTORE PUSH1 0x20 DUP3 ADD SWAP1 POP SWAP3 SWAP2 POP POP JUMP JUMPDEST PUSH1 0x0 JUMPDEST DUP4 DUP2 LT ISZERO PUSH2 0x27CF JUMPI DUP1 DUP3 ADD MLOAD DUP2 DUP5 ADD MSTORE PUSH1 0x20 DUP2 ADD SWAP1 POP PUSH2 0x27B4 JUMP JUMPDEST PUSH1 0x0 DUP5 DUP5 ADD MSTORE POP POP POP POP JUMP JUMPDEST PUSH1 0x0 PUSH1 0x1F NOT PUSH1 0x1F DUP4 ADD AND SWAP1 POP SWAP2 SWAP1 POP JUMP JUMPDEST PUSH1 0x0 PUSH2 0x27F7 DUP3 PUSH2 0x2795 JUMP JUMPDEST PUSH2 0x2801 DUP2 DUP6 PUSH2 0x27A0 JUMP JUMPDEST SWAP4 POP PUSH2 0x2811 DUP2 DUP6 PUSH1 0x20 DUP7 ADD PUSH2 0x27B1 JUMP JUMPDEST PUSH2 0x281A DUP2 PUSH2 0x27DB JUMP JUMPDEST DUP5 ADD SWAP2 POP POP SWAP3 SWAP2 POP POP JUMP JUMPDEST PUSH2 0x282E DUP2 PUSH2 0x24D6 JUMP JUMPDEST DUP3 MSTORE POP POP JUMP JUMPDEST PUSH1 0x0 DUP2 SWAP1 POP SWAP2 SWAP1 POP JUMP JUMPDEST PUSH2 0x2847 DUP2 PUSH2 0x2834 JUMP JUMPDEST DUP3 MSTORE POP POP JUMP JUMPDEST PUSH1 0x0 PUSH1 0xA0 DUP3 ADD SWAP1 POP PUSH2 0x2862 PUSH1 0x0 DUP4 ADD DUP9 PUSH2 0x244A JUMP JUMPDEST DUP2 DUP2 SUB PUSH1 0x20 DUP4 ADD MSTORE PUSH2 0x2874 DUP2 DUP8 PUSH2 0x27EC JUMP JUMPDEST SWAP1 POP PUSH2 0x2883 PUSH1 0x40 DUP4 ADD DUP7 PUSH2 0x2825 JUMP JUMPDEST PUSH2 0x2890 PUSH1 0x60 DUP4 ADD DUP6 PUSH2 0x2825 JUMP JUMPDEST PUSH2 0x289D PUSH1 0x80 DUP4 ADD DUP5 PUSH2 0x283E JUMP JUMPDEST SWAP7 SWAP6 POP POP POP POP POP POP JUMP JUMPDEST PUSH1 0x0 PUSH1 0x20 DUP3 DUP5 SUB SLT ISZERO PUSH2 0x28BD JUMPI PUSH2 0x28BC PUSH2 0x23B5 JUMP JUMPDEST JUMPDEST PUSH1 0x0 PUSH2 0x28CB DUP5 DUP3 DUP6 ADD PUSH2 0x25AE JUMP JUMPDEST SWAP2 POP POP SWAP3 SWAP2 POP POP JUMP JUMPDEST PUSH1 0x0 PUSH1 0x20 DUP3 ADD SWAP1 POP DUP2 DUP2 SUB PUSH1 0x0 DUP4 ADD MSTORE PUSH2 0x28EE DUP2 DUP5 PUSH2 0x27EC JUMP JUMPDEST SWAP1 POP SWAP3 SWAP2 POP POP JUMP JUMPDEST PUSH1 0x0 DUP2 SWAP1 POP SWAP2 SWAP1 POP JUMP JUMPDEST PUSH2 0x2909 DUP2 PUSH2 0x28F6 JUMP JUMPDEST DUP2 EQ PUSH2 0x2914 JUMPI PUSH1 0x0 DUP1 REVERT JUMPDEST POP JUMP JUMPDEST PUSH1 0x0 DUP2 CALLDATALOAD SWAP1 POP PUSH2 0x2926 DUP2 PUSH2 0x2900 JUMP JUMPDEST SWAP3 SWAP2 POP POP JUMP JUMPDEST PUSH1 0x0 PUSH1 0x20 DUP3 DUP5 SUB SLT ISZERO PUSH2 0x2942 JUMPI PUSH2 0x2941 PUSH2 0x23B5 JUMP JUMPDEST JUMPDEST PUSH1 0x0 PUSH2 0x2950 DUP5 DUP3 DUP6 ADD PUSH2 0x2917 JUMP JUMPDEST SWAP2 POP POP SWAP3 SWAP2 POP POP JUMP JUMPDEST PUSH1 0x0 DUP2 MLOAD SWAP1 POP SWAP2 SWAP1 POP JUMP JUMPDEST PUSH1 0x0 DUP3 DUP3 MSTORE PUSH1 0x20 DUP3 ADD SWAP1 POP SWAP3 SWAP2 POP POP JUMP JUMPDEST PUSH1 0x0 DUP2 SWAP1 POP PUSH1 0x20 DUP3 ADD SWAP1 POP SWAP2 SWAP1 POP JUMP JUMPDEST PUSH2 0x298E DUP2 PUSH2 0x23DF JUMP JUMPDEST DUP3 MSTORE POP POP JUMP JUMPDEST PUSH1 0x0 PUSH2 0x29A0 DUP4 DUP4 PUSH2 0x2985 JUMP JUMPDEST PUSH1 0x20 DUP4 ADD SWAP1 POP SWAP3 SWAP2 POP POP JUMP JUMPDEST PUSH1 0x0 PUSH1 0x20 DUP3 ADD SWAP1 POP SWAP2 SWAP1 POP JUMP JUMPDEST PUSH1 0x0 PUSH2 0x29C4 DUP3 PUSH2 0x2959 JUMP JUMPDEST PUSH2 0x29CE DUP2 DUP6 PUSH2 0x2964 JUMP JUMPDEST SWAP4 POP PUSH2 0x29D9 DUP4 PUSH2 0x2975 JUMP JUMPDEST DUP1 PUSH1 0x0 JUMPDEST DUP4 DUP2 LT ISZERO PUSH2 0x2A0A JUMPI DUP2 MLOAD PUSH2 0x29F1 DUP9 DUP3 PUSH2 0x2994 JUMP JUMPDEST SWAP8 POP PUSH2 0x29FC DUP4 PUSH2 0x29AC JUMP JUMPDEST SWAP3 POP POP PUSH1 0x1 DUP2 ADD SWAP1 POP PUSH2 0x29DD JUMP JUMPDEST POP DUP6 SWAP4 POP POP POP POP SWAP3 SWAP2 POP POP JUMP JUMPDEST PUSH1 0x0 PUSH1 0x20 DUP3 ADD SWAP1 POP DUP2 DUP2 SUB PUSH1 0x0 DUP4 ADD MSTORE PUSH2 0x2A31 DUP2 DUP5 PUSH2 0x29B9 JUMP JUMPDEST SWAP1 POP SWAP3 SWAP2 POP POP JUMP JUMPDEST PUSH1 0x0 PUSH1 0x20 DUP3 DUP5 SUB SLT ISZERO PUSH2 0x2A4F JUMPI PUSH2 0x2A4E PUSH2 0x23B5 JUMP JUMPDEST JUMPDEST PUSH1 0x0 PUSH2 0x2A5D DUP5 DUP3 DUP6 ADD PUSH2 0x2700 JUMP JUMPDEST SWAP2 POP POP SWAP3 SWAP2 POP POP JUMP JUMPDEST PUSH1 0x0 PUSH1 0x20 DUP3 ADD SWAP1 POP PUSH2 0x2A7B PUSH1 0x0 DUP4 ADD DUP5 PUSH2 0x283E JUMP JUMPDEST SWAP3 SWAP2 POP POP JUMP JUMPDEST PUSH1 0x0 PUSH1 0x20 DUP3 ADD SWAP1 POP PUSH2 0x2A96 PUSH1 0x0 DUP4 ADD DUP5 PUSH2 0x2825 JUMP JUMPDEST SWAP3 SWAP2 POP POP JUMP JUMPDEST PUSH32 0x4578616D204E6F74204F70656E2F436F6E746163742041646D696E0000000000 PUSH1 0x0 DUP3 ADD MSTORE POP JUMP JUMPDEST PUSH1 0x0 PUSH2 0x2AD2 PUSH1 0x1B DUP4 PUSH2 0x27A0 JUMP JUMPDEST SWAP2 POP PUSH2 0x2ADD DUP3 PUSH2 0x2A9C JUMP JUMPDEST PUSH1 0x20 DUP3 ADD SWAP1 POP SWAP2 SWAP1 POP JUMP JUMPDEST PUSH1 0x0 PUSH1 0x20 DUP3 ADD SWAP1 POP DUP2 DUP2 SUB PUSH1 0x0 DUP4 ADD MSTORE PUSH2 0x2B01 DUP2 PUSH2 0x2AC5 JUMP JUMPDEST SWAP1 POP SWAP2 SWAP1 POP JUMP JUMPDEST PUSH32 0x4E6F74206F6E2057686974654C69737400000000000000000000000000000000 PUSH1 0x0 DUP3 ADD MSTORE POP JUMP JUMPDEST PUSH1 0x0 PUSH2 0x2B3E PUSH1 0x10 DUP4 PUSH2 0x27A0 JUMP JUMPDEST SWAP2 POP PUSH2 0x2B49 DUP3 PUSH2 0x2B08 JUMP JUMPDEST PUSH1 0x20 DUP3 ADD SWAP1 POP SWAP2 SWAP1 POP JUMP JUMPDEST PUSH1 0x0 PUSH1 0x20 DUP3 ADD SWAP1 POP DUP2 DUP2 SUB PUSH1 0x0 DUP4 ADD MSTORE PUSH2 0x2B6D DUP2 PUSH2 0x2B31 JUMP JUMPDEST SWAP1 POP SWAP2 SWAP1 POP JUMP JUMPDEST PUSH32 0x496E76616C6964204C6576656C00000000000000000000000000000000000000 PUSH1 0x0 DUP3 ADD MSTORE POP JUMP JUMPDEST PUSH1 0x0 PUSH2 0x2BAA PUSH1 0xD DUP4 PUSH2 0x27A0 JUMP JUMPDEST SWAP2 POP PUSH2 0x2BB5 DUP3 PUSH2 0x2B74 JUMP JUMPDEST PUSH1 0x20 DUP3 ADD SWAP1 POP SWAP2 SWAP1 POP JUMP JUMPDEST PUSH1 0x0 PUSH1 0x20 DUP3 ADD SWAP1 POP DUP2 DUP2 SUB PUSH1 0x0 DUP4 ADD MSTORE PUSH2 0x2BD9 DUP2 PUSH2 0x2B9D JUMP JUMPDEST SWAP1 POP SWAP2 SWAP1 POP JUMP JUMPDEST PUSH32 0x6D73672E73656E646572206E6F74206F776E6572206F6620736F6C7574696F6E PUSH1 0x0 DUP3 ADD MSTORE POP JUMP JUMPDEST PUSH1 0x0 PUSH2 0x2C16 PUSH1 0x20 DUP4 PUSH2 0x27A0 JUMP JUMPDEST SWAP2 POP PUSH2 0x2C21 DUP3 PUSH2 0x2BE0 JUMP JUMPDEST PUSH1 0x20 DUP3 ADD SWAP1 POP SWAP2 SWAP1 POP JUMP JUMPDEST PUSH1 0x0 PUSH1 0x20 DUP3 ADD SWAP1 POP DUP2 DUP2 SUB PUSH1 0x0 DUP4 ADD MSTORE PUSH2 0x2C45 DUP2 PUSH2 0x2C09 JUMP JUMPDEST SWAP1 POP SWAP2 SWAP1 POP JUMP JUMPDEST PUSH32 0x4E487B7100000000000000000000000000000000000000000000000000000000 PUSH1 0x0 MSTORE PUSH1 0x22 PUSH1 0x4 MSTORE PUSH1 0x24 PUSH1 0x0 REVERT JUMPDEST PUSH1 0x0 PUSH1 0x2 DUP3 DIV SWAP1 POP PUSH1 0x1 DUP3 AND DUP1 PUSH2 0x2C93 JUMPI PUSH1 0x7F DUP3 AND SWAP2 POP JUMPDEST PUSH1 0x20 DUP3 LT DUP2 SUB PUSH2 0x2CA6 JUMPI PUSH2 0x2CA5 PUSH2 0x2C4C JUMP JUMPDEST JUMPDEST POP SWAP2 SWAP1 POP JUMP JUMPDEST PUSH32 0x496E76616C69642055736572204E616D65000000000000000000000000000000 PUSH1 0x0 DUP3 ADD MSTORE POP JUMP JUMPDEST PUSH1 0x0 PUSH2 0x2CE2 PUSH1 0x11 DUP4 PUSH2 0x27A0 JUMP JUMPDEST SWAP2 POP PUSH2 0x2CED DUP3 PUSH2 0x2CAC JUMP JUMPDEST PUSH1 0x20 DUP3 ADD SWAP1 POP SWAP2 SWAP1 POP JUMP JUMPDEST PUSH1 0x0 PUSH1 0x20 DUP3 ADD SWAP1 POP DUP2 DUP2 SUB PUSH1 0x0 DUP4 ADD MSTORE PUSH2 0x2D11 DUP2 PUSH2 0x2CD5 JUMP JUMPDEST SWAP1 POP SWAP2 SWAP1 POP JUMP JUMPDEST PUSH1 0x0 DUP2 MLOAD SWAP1 POP PUSH2 0x2D27 DUP2 PUSH2 0x2597 JUMP JUMPDEST SWAP3 SWAP2 POP POP JUMP JUMPDEST PUSH2 0x2D36 DUP2 PUSH2 0x2834 JUMP JUMPDEST DUP2 EQ PUSH2 0x2D41 JUMPI PUSH1 0x0 DUP1 REVERT JUMPDEST POP JUMP JUMPDEST PUSH1 0x0 DUP2 MLOAD SWAP1 POP PUSH2 0x2D53 DUP2 PUSH2 0x2D2D JUMP JUMPDEST SWAP3 SWAP2 POP POP JUMP JUMPDEST PUSH1 0x0 DUP1 PUSH1 0x40 DUP4 DUP6 SUB SLT ISZERO PUSH2 0x2D70 JUMPI PUSH2 0x2D6F PUSH2 0x23B5 JUMP JUMPDEST JUMPDEST PUSH1 0x0 PUSH2 0x2D7E DUP6 DUP3 DUP7 ADD PUSH2 0x2D18 JUMP JUMPDEST SWAP3 POP POP PUSH1 0x20 PUSH2 0x2D8F DUP6 DUP3 DUP7 ADD PUSH2 0x2D44 JUMP JUMPDEST SWAP2 POP POP SWAP3 POP SWAP3 SWAP1 POP JUMP JUMPDEST PUSH1 0x0 DUP2 SWAP1 POP SWAP3 SWAP2 POP POP JUMP JUMPDEST DUP3 DUP2 DUP4 CALLDATACOPY PUSH1 0x0 DUP4 DUP4 ADD MSTORE POP POP POP JUMP JUMPDEST PUSH1 0x0 PUSH2 0x2DBF DUP4 DUP6 PUSH2 0x2D99 JUMP JUMPDEST SWAP4 POP PUSH2 0x2DCC DUP4 DUP6 DUP5 PUSH2 0x2DA4 JUMP JUMPDEST DUP3 DUP5 ADD SWAP1 POP SWAP4 SWAP3 POP POP POP JUMP JUMPDEST PUSH1 0x0 PUSH2 0x2DE5 DUP3 DUP5 DUP7 PUSH2 0x2DB3 JUMP JUMPDEST SWAP2 POP DUP2 SWAP1 POP SWAP4 SWAP3 POP POP POP JUMP JUMPDEST PUSH32 0x436865636B2050617373776F7264000000000000000000000000000000000000 PUSH1 0x0 DUP3 ADD MSTORE POP JUMP JUMPDEST PUSH1 0x0 PUSH2 0x2E27 PUSH1 0xE DUP4 PUSH2 0x27A0 JUMP JUMPDEST SWAP2 POP PUSH2 0x2E32 DUP3 PUSH2 0x2DF1 JUMP JUMPDEST PUSH1 0x20 DUP3 ADD SWAP1 POP SWAP2 SWAP1 POP JUMP JUMPDEST PUSH1 0x0 PUSH1 0x20 DUP3 ADD SWAP1 POP DUP2 DUP2 SUB PUSH1 0x0 DUP4 ADD MSTORE PUSH2 0x2E56 DUP2 PUSH2 0x2E1A JUMP JUMPDEST SWAP1 POP SWAP2 SWAP1 POP JUMP JUMPDEST PUSH32 0x5265676973747261746F6E20697320636C6F7365640000000000000000000000 PUSH1 0x0 DUP3 ADD MSTORE POP JUMP JUMPDEST PUSH1 0x0 PUSH2 0x2E93 PUSH1 0x15 DUP4 PUSH2 0x27A0 JUMP JUMPDEST SWAP2 POP PUSH2 0x2E9E DUP3 PUSH2 0x2E5D JUMP JUMPDEST PUSH1 0x20 DUP3 ADD SWAP1 POP SWAP2 SWAP1 POP JUMP JUMPDEST PUSH1 0x0 PUSH1 0x20 DUP3 ADD SWAP1 POP DUP2 DUP2 SUB PUSH1 0x0 DUP4 ADD MSTORE PUSH2 0x2EC2 DUP2 PUSH2 0x2E86 JUMP JUMPDEST SWAP1 POP SWAP2 SWAP1 POP JUMP JUMPDEST PUSH32 0x4E65656420746F2062652041646D696E00000000000000000000000000000000 PUSH1 0x0 DUP3 ADD MSTORE POP JUMP JUMPDEST PUSH1 0x0 PUSH2 0x2EFF PUSH1 0x10 DUP4 PUSH2 0x27A0 JUMP JUMPDEST SWAP2 POP PUSH2 0x2F0A DUP3 PUSH2 0x2EC9 JUMP JUMPDEST PUSH1 0x20 DUP3 ADD SWAP1 POP SWAP2 SWAP1 POP JUMP JUMPDEST PUSH1 0x0 PUSH1 0x20 DUP3 ADD SWAP1 POP DUP2 DUP2 SUB PUSH1 0x0 DUP4 ADD MSTORE PUSH2 0x2F2E DUP2 PUSH2 0x2EF2 JUMP JUMPDEST SWAP1 POP SWAP2 SWAP1 POP JUMP JUMPDEST PUSH32 0x43616E6E6F7420736574206D73672E73656E6465722061646D696E0000000000 PUSH1 0x0 DUP3 ADD MSTORE POP JUMP JUMPDEST PUSH1 0x0 PUSH2 0x2F6B PUSH1 0x1B DUP4 PUSH2 0x27A0 JUMP JUMPDEST SWAP2 POP PUSH2 0x2F76 DUP3 PUSH2 0x2F35 JUMP JUMPDEST PUSH1 0x20 DUP3 ADD SWAP1 POP SWAP2 SWAP1 POP JUMP JUMPDEST PUSH1 0x0 PUSH1 0x20 DUP3 ADD SWAP1 POP DUP2 DUP2 SUB PUSH1 0x0 DUP4 ADD MSTORE PUSH2 0x2F9A DUP2 PUSH2 0x2F5E JUMP JUMPDEST SWAP1 POP SWAP2 SWAP1 POP JUMP JUMPDEST PUSH32 0x4E487B7100000000000000000000000000000000000000000000000000000000 PUSH1 0x0 MSTORE PUSH1 0x32 PUSH1 0x4 MSTORE PUSH1 0x24 PUSH1 0x0 REVERT JUMPDEST PUSH32 0x4E487B7100000000000000000000000000000000000000000000000000000000 PUSH1 0x0 MSTORE PUSH1 0x11 PUSH1 0x4 MSTORE PUSH1 0x24 PUSH1 0x0 REVERT JUMPDEST PUSH1 0x0 PUSH2 0x300A DUP3 PUSH2 0x2834 JUMP JUMPDEST SWAP2 POP PUSH2 0x3015 DUP4 PUSH2 0x2834 JUMP JUMPDEST SWAP3 POP DUP3 DUP3 SUB SWAP1 POP DUP2 DUP2 GT ISZERO PUSH2 0x302D JUMPI PUSH2 0x302C PUSH2 0x2FD0 JUMP JUMPDEST JUMPDEST SWAP3 SWAP2 POP POP JUMP JUMPDEST PUSH32 0x4E487B7100000000000000000000000000000000000000000000000000000000 PUSH1 0x0 MSTORE PUSH1 0x31 PUSH1 0x4 MSTORE PUSH1 0x24 PUSH1 0x0 REVERT JUMPDEST PUSH1 0x0 PUSH2 0x306D DUP3 PUSH2 0x24D6 JUMP JUMPDEST SWAP2 POP PUSH1 0xFF DUP3 SUB PUSH2 0x3080 JUMPI PUSH2 0x307F PUSH2 0x2FD0 JUMP JUMPDEST JUMPDEST PUSH1 0x1 DUP3 ADD SWAP1 POP SWAP2 SWAP1 POP JUMP JUMPDEST PUSH32 0x416C726561647920657873697374732C2064656C657465206F72207573652075 PUSH1 0x0 DUP3 ADD MSTORE PUSH32 0x7064617465000000000000000000000000000000000000000000000000000000 PUSH1 0x20 DUP3 ADD MSTORE POP JUMP JUMPDEST PUSH1 0x0 PUSH2 0x30E7 PUSH1 0x25 DUP4 PUSH2 0x27A0 JUMP JUMPDEST SWAP2 POP PUSH2 0x30F2 DUP3 PUSH2 0x308B JUMP JUMPDEST PUSH1 0x40 DUP3 ADD SWAP1 POP SWAP2 SWAP1 POP JUMP JUMPDEST PUSH1 0x0 PUSH1 0x20 DUP3 ADD SWAP1 POP DUP2 DUP2 SUB PUSH1 0x0 DUP4 ADD MSTORE PUSH2 0x3116 DUP2 PUSH2 0x30DA JUMP JUMPDEST SWAP1 POP SWAP2 SWAP1 POP JUMP JUMPDEST PUSH32 0x43616E277420757064617465204E554C4C206C6576656C000000000000000000 PUSH1 0x0 DUP3 ADD MSTORE POP JUMP JUMPDEST PUSH1 0x0 PUSH2 0x3153 PUSH1 0x17 DUP4 PUSH2 0x27A0 JUMP JUMPDEST SWAP2 POP PUSH2 0x315E DUP3 PUSH2 0x311D JUMP JUMPDEST PUSH1 0x20 DUP3 ADD SWAP1 POP SWAP2 SWAP1 POP JUMP JUMPDEST PUSH1 0x0 PUSH1 0x20 DUP3 ADD SWAP1 POP DUP2 DUP2 SUB PUSH1 0x0 DUP4 ADD MSTORE PUSH2 0x3182 DUP2 PUSH2 0x3146 JUMP JUMPDEST SWAP1 POP SWAP2 SWAP1 POP JUMP JUMPDEST PUSH1 0x0 DUP3 SWAP1 POP SWAP3 SWAP2 POP POP JUMP JUMPDEST PUSH32 0x4E487B7100000000000000000000000000000000000000000000000000000000 PUSH1 0x0 MSTORE PUSH1 0x41 PUSH1 0x4 MSTORE PUSH1 0x24 PUSH1 0x0 REVERT JUMPDEST PUSH1 0x0 DUP2 SWAP1 POP DUP2 PUSH1 0x0 MSTORE PUSH1 0x20 PUSH1 0x0 KECCAK256 SWAP1 POP SWAP2 SWAP1 POP JUMP JUMPDEST PUSH1 0x0 PUSH1 0x20 PUSH1 0x1F DUP4 ADD DIV SWAP1 POP SWAP2 SWAP1 POP JUMP JUMPDEST PUSH1 0x0 DUP3 DUP3 SHL SWAP1 POP SWAP3 SWAP2 POP POP JUMP JUMPDEST PUSH1 0x0 PUSH1 0x8 DUP4 MUL PUSH2 0x3225 PUSH32 0xFFFFFFFFFFFFFFFFFFFFFFFFFFFFFFFFFFFFFFFFFFFFFFFFFFFFFFFFFFFFFFFF DUP3 PUSH2 0x31E8 JUMP JUMPDEST PUSH2 0x322F DUP7 DUP4 PUSH2 0x31E8 JUMP JUMPDEST SWAP6 POP DUP1 NOT DUP5 AND SWAP4 POP DUP1 DUP7 AND DUP5 OR SWAP3 POP POP POP SWAP4 SWAP3 POP POP POP JUMP JUMPDEST PUSH1 0x0 DUP2 SWAP1 POP SWAP2 SWAP1 POP JUMP JUMPDEST PUSH1 0x0 PUSH2 0x326C PUSH2 0x3267 PUSH2 0x3262 DUP5 PUSH2 0x2834 JUMP JUMPDEST PUSH2 0x3247 JUMP JUMPDEST PUSH2 0x2834 JUMP JUMPDEST SWAP1 POP SWAP2 SWAP1 POP JUMP JUMPDEST PUSH1 0x0 DUP2 SWAP1 POP SWAP2 SWAP1 POP JUMP JUMPDEST PUSH2 0x3286 DUP4 PUSH2 0x3251 JUMP JUMPDEST PUSH2 0x329A PUSH2 0x3292 DUP3 PUSH2 0x3273 JUMP JUMPDEST DUP5 DUP5 SLOAD PUSH2 0x31F5 JUMP JUMPDEST DUP3 SSTORE POP POP POP POP JUMP JUMPDEST PUSH1 0x0 SWAP1 JUMP JUMPDEST PUSH2 0x32AF PUSH2 0x32A2 JUMP JUMPDEST PUSH2 0x32BA DUP2 DUP5 DUP5 PUSH2 0x327D JUMP JUMPDEST POP POP POP JUMP JUMPDEST JUMPDEST DUP2 DUP2 LT ISZERO PUSH2 0x32DE JUMPI PUSH2 0x32D3 PUSH1 0x0 DUP3 PUSH2 0x32A7 JUMP JUMPDEST PUSH1 0x1 DUP2 ADD SWAP1 POP PUSH2 0x32C0 JUMP JUMPDEST POP POP JUMP JUMPDEST PUSH1 0x1F DUP3 GT ISZERO PUSH2 0x3323 JUMPI PUSH2 0x32F4 DUP2 PUSH2 0x31C3 JUMP JUMPDEST PUSH2 0x32FD DUP5 PUSH2 0x31D8 JUMP JUMPDEST DUP2 ADD PUSH1 0x20 DUP6 LT ISZERO PUSH2 0x330C JUMPI DUP2 SWAP1 POP JUMPDEST PUSH2 0x3320 PUSH2 0x3318 DUP6 PUSH2 0x31D8 JUMP JUMPDEST DUP4 ADD DUP3 PUSH2 0x32BF JUMP JUMPDEST POP POP JUMPDEST POP POP POP JUMP JUMPDEST PUSH1 0x0 DUP3 DUP3 SHR SWAP1 POP SWAP3 SWAP2 POP POP JUMP JUMPDEST PUSH1 0x0 PUSH2 0x3346 PUSH1 0x0 NOT DUP5 PUSH1 0x8 MUL PUSH2 0x3328 JUMP JUMPDEST NOT DUP1 DUP4 AND SWAP2 POP POP SWAP3 SWAP2 POP POP JUMP JUMPDEST PUSH1 0x0 PUSH2 0x335F DUP4 DUP4 PUSH2 0x3335 JUMP JUMPDEST SWAP2 POP DUP3 PUSH1 0x2 MUL DUP3 OR SWAP1 POP SWAP3 SWAP2 POP POP JUMP JUMPDEST PUSH2 0x3379 DUP4 DUP4 PUSH2 0x3189 JUMP JUMPDEST PUSH8 0xFFFFFFFFFFFFFFFF DUP2 GT ISZERO PUSH2 0x3392 JUMPI PUSH2 0x3391 PUSH2 0x3194 JUMP JUMPDEST JUMPDEST PUSH2 0x339C DUP3 SLOAD PUSH2 0x2C7B JUMP JUMPDEST PUSH2 0x33A7 DUP3 DUP3 DUP6 PUSH2 0x32E2 JUMP JUMPDEST PUSH1 0x0 PUSH1 0x1F DUP4 GT PUSH1 0x1 DUP2 EQ PUSH2 0x33D6 JUMPI PUSH1 0x0 DUP5 ISZERO PUSH2 0x33C4 JUMPI DUP3 DUP8 ADD CALLDATALOAD SWAP1 POP JUMPDEST PUSH2 0x33CE DUP6 DUP3 PUSH2 0x3353 JUMP JUMPDEST DUP7 SSTORE POP PUSH2 0x3436 JUMP JUMPDEST PUSH1 0x1F NOT DUP5 AND PUSH2 0x33E4 DUP7 PUSH2 0x31C3 JUMP JUMPDEST PUSH1 0x0 JUMPDEST DUP3 DUP2 LT ISZERO PUSH2 0x340C JUMPI DUP5 DUP10 ADD CALLDATALOAD DUP3 SSTORE PUSH1 0x1 DUP3 ADD SWAP2 POP PUSH1 0x20 DUP6 ADD SWAP5 POP PUSH1 0x20 DUP2 ADD SWAP1 POP PUSH2 0x33E7 JUMP JUMPDEST DUP7 DUP4 LT ISZERO PUSH2 0x3429 JUMPI DUP5 DUP10 ADD CALLDATALOAD PUSH2 0x3425 PUSH1 0x1F DUP10 AND DUP3 PUSH2 0x3335 JUMP JUMPDEST DUP4 SSTORE POP JUMPDEST PUSH1 0x1 PUSH1 0x2 DUP9 MUL ADD DUP9 SSTORE POP POP POP JUMPDEST POP POP POP POP POP POP POP JUMP INVALID LOG2 PUSH5 0x6970667358 0x22 SLT KECCAK256 EXTCODEHASH 0xE8 GAS PUSH5 0x903E2F5C69 0xBF 0xDD 0xB4 XOR COINBASE SWAP9 NUMBER CREATE DELEGATECALL 0xAF GASPRICE MSTORE POP 0x5F SWAP15 SWAP7 0xAD CODECOPY LT PUSH32 0x4EEBE964736F6C63430008110033000000000000000000000000000000000000 "
				},
				"gasEstimates": {
					"creation": {
						"codeDepositCost": "2685800",
						"executionCost": "27271",
						"totalCost": "2713071"
					},
					"external": {
						"Admin(address)": "2935",
						"addLevel(address,uint8)": "79852",
						"addrLookUp(address)": "2891",
						"canRegister()": "2588",
						"canSubmit()": "2581",
						"gasUsed(address,uint8)": "3123",
						"getAddresses()": "infinite",
						"getLevels()": "infinite",
						"getScore(address,uint8)": "infinite",
						"levels(uint8)": "2868",
						"register(string,string)": "infinite",
						"removeAddress(address)": "infinite",
						"removeLevel(uint8)": "infinite",
						"scores(address,uint8)": "infinite",
						"setAdmin(address,bool)": "27308",
						"setExamStatus(bool)": "26983",
						"setPassword(bytes32)": "24847",
						"setRegisterStatus(bool)": "27100",
						"setVoidTag(address,bool)": "27317",
						"solutions(address)": "infinite",
						"submitSolution(uint8,address)": "infinite",
						"updateLevelAddress(address,uint8)": "29557",
						"userNames(address)": "infinite",
						"voidAdrress(address)": "2933",
						"whitelist(address)": "2890"
					},
					"internal": {
						"_deleteAddressData(address)": "infinite",
						"_deleteLevelData(uint8)": "infinite",
						"_setUserName(string calldata)": "infinite"
					}
				},
				"methodIdentifiers": {
					"Admin(address)": "33b005d0",
					"addLevel(address,uint8)": "aa0c8a7b",
					"addrLookUp(address)": "0b69a1e9",
					"canRegister()": "589384b9",
					"canSubmit()": "ffbc9bd0",
					"gasUsed(address,uint8)": "b26be14c",
					"getAddresses()": "a39fac12",
					"getLevels()": "0c394a60",
					"getScore(address,uint8)": "705ed7ae",
					"levels(uint8)": "906cbf57",
					"register(string,string)": "3ffbd47f",
					"removeAddress(address)": "4ba79dfe",
					"removeLevel(uint8)": "75743a15",
					"scores(address,uint8)": "c160404e",
					"setAdmin(address,bool)": "4b0bddd2",
					"setExamStatus(bool)": "cb91f37d",
					"setPassword(bytes32)": "9f391544",
					"setRegisterStatus(bool)": "a60fb5de",
					"setVoidTag(address,bool)": "d86a1026",
					"solutions(address)": "04737394",
					"submitSolution(uint8,address)": "33b49ed8",
					"updateLevelAddress(address,uint8)": "ac285219",
					"userNames(address)": "7f281635",
					"voidAdrress(address)": "dd83599b",
					"whitelist(address)": "9b19251a"
				}
			},
			"storageLayout": {
				"storage": [
					{
						"astId": 14,
						"contract": "Encode CTF.sol:CTF",
						"label": "addrArray",
						"offset": 0,
						"slot": "0",
						"type": "t_array(t_address)dyn_storage"
					},
					{
						"astId": 18,
						"contract": "Encode CTF.sol:CTF",
						"label": "addrLookUp",
						"offset": 0,
						"slot": "1",
						"type": "t_mapping(t_address,t_bool)"
					},
					{
						"astId": 21,
						"contract": "Encode CTF.sol:CTF",
						"label": "levelArray",
						"offset": 0,
						"slot": "2",
						"type": "t_array(t_uint8)dyn_storage"
					},
					{
						"astId": 25,
						"contract": "Encode CTF.sol:CTF",
						"label": "whitelist",
						"offset": 0,
						"slot": "3",
						"type": "t_mapping(t_address,t_bool)"
					},
					{
						"astId": 29,
						"contract": "Encode CTF.sol:CTF",
						"label": "Admin",
						"offset": 0,
						"slot": "4",
						"type": "t_mapping(t_address,t_bool)"
					},
					{
						"astId": 33,
						"contract": "Encode CTF.sol:CTF",
						"label": "voidAdrress",
						"offset": 0,
						"slot": "5",
						"type": "t_mapping(t_address,t_bool)"
					},
					{
						"astId": 37,
						"contract": "Encode CTF.sol:CTF",
						"label": "levels",
						"offset": 0,
						"slot": "6",
						"type": "t_mapping(t_uint8,t_address)"
					},
					{
						"astId": 43,
						"contract": "Encode CTF.sol:CTF",
						"label": "scores",
						"offset": 0,
						"slot": "7",
						"type": "t_mapping(t_address,t_mapping(t_uint8,t_uint8))"
					},
					{
						"astId": 49,
						"contract": "Encode CTF.sol:CTF",
						"label": "gasUsed",
						"offset": 0,
						"slot": "8",
						"type": "t_mapping(t_address,t_mapping(t_uint8,t_uint256))"
					},
					{
						"astId": 53,
						"contract": "Encode CTF.sol:CTF",
						"label": "userNames",
						"offset": 0,
						"slot": "9",
						"type": "t_mapping(t_address,t_string_storage)"
					},
					{
						"astId": 57,
						"contract": "Encode CTF.sol:CTF",
						"label": "solutions",
						"offset": 0,
						"slot": "10",
						"type": "t_mapping(t_address,t_address)"
					},
					{
						"astId": 59,
						"contract": "Encode CTF.sol:CTF",
						"label": "canSubmit",
						"offset": 0,
						"slot": "11",
						"type": "t_bool"
					},
					{
						"astId": 61,
						"contract": "Encode CTF.sol:CTF",
						"label": "canRegister",
						"offset": 1,
						"slot": "11",
						"type": "t_bool"
					},
					{
						"astId": 63,
						"contract": "Encode CTF.sol:CTF",
						"label": "passwordHash",
						"offset": 0,
						"slot": "12",
						"type": "t_bytes32"
					}
				],
				"types": {
					"t_address": {
						"encoding": "inplace",
						"label": "address",
						"numberOfBytes": "20"
					},
					"t_array(t_address)dyn_storage": {
						"base": "t_address",
						"encoding": "dynamic_array",
						"label": "address[]",
						"numberOfBytes": "32"
					},
					"t_array(t_uint8)dyn_storage": {
						"base": "t_uint8",
						"encoding": "dynamic_array",
						"label": "uint8[]",
						"numberOfBytes": "32"
					},
					"t_bool": {
						"encoding": "inplace",
						"label": "bool",
						"numberOfBytes": "1"
					},
					"t_bytes32": {
						"encoding": "inplace",
						"label": "bytes32",
						"numberOfBytes": "32"
					},
					"t_mapping(t_address,t_address)": {
						"encoding": "mapping",
						"key": "t_address",
						"label": "mapping(address => address)",
						"numberOfBytes": "32",
						"value": "t_address"
					},
					"t_mapping(t_address,t_bool)": {
						"encoding": "mapping",
						"key": "t_address",
						"label": "mapping(address => bool)",
						"numberOfBytes": "32",
						"value": "t_bool"
					},
					"t_mapping(t_address,t_mapping(t_uint8,t_uint256))": {
						"encoding": "mapping",
						"key": "t_address",
						"label": "mapping(address => mapping(uint8 => uint256))",
						"numberOfBytes": "32",
						"value": "t_mapping(t_uint8,t_uint256)"
					},
					"t_mapping(t_address,t_mapping(t_uint8,t_uint8))": {
						"encoding": "mapping",
						"key": "t_address",
						"label": "mapping(address => mapping(uint8 => uint8))",
						"numberOfBytes": "32",
						"value": "t_mapping(t_uint8,t_uint8)"
					},
					"t_mapping(t_address,t_string_storage)": {
						"encoding": "mapping",
						"key": "t_address",
						"label": "mapping(address => string)",
						"numberOfBytes": "32",
						"value": "t_string_storage"
					},
					"t_mapping(t_uint8,t_address)": {
						"encoding": "mapping",
						"key": "t_uint8",
						"label": "mapping(uint8 => address)",
						"numberOfBytes": "32",
						"value": "t_address"
					},
					"t_mapping(t_uint8,t_uint256)": {
						"encoding": "mapping",
						"key": "t_uint8",
						"label": "mapping(uint8 => uint256)",
						"numberOfBytes": "32",
						"value": "t_uint256"
					},
					"t_mapping(t_uint8,t_uint8)": {
						"encoding": "mapping",
						"key": "t_uint8",
						"label": "mapping(uint8 => uint8)",
						"numberOfBytes": "32",
						"value": "t_uint8"
					},
					"t_string_storage": {
						"encoding": "bytes",
						"label": "string",
						"numberOfBytes": "32"
					},
					"t_uint256": {
						"encoding": "inplace",
						"label": "uint256",
						"numberOfBytes": "32"
					},
					"t_uint8": {
						"encoding": "inplace",
						"label": "uint8",
						"numberOfBytes": "1"
					}
				}
			},
			"userdoc": {
				"kind": "user",
				"methods": {
					"getAddresses()": {
						"notice": "-------------------------------------------------------------------------------------///- View functions for data lookups                           /// -------------------------------------------------------------------------------------///"
					},
					"register(string,string)": {
						"notice": "-------------------------------------------------------------------------------------///- Registers user to give protocol access                    /// -------------------------------------------------------------------------------------///"
					},
					"setExamStatus(bool)": {
						"notice": "-------------------------------------------------------------------------------------///- Admin only functions                              /// -------------------------------------------------------------------------------------///"
					},
					"submitSolution(uint8,address)": {
						"notice": "-------------------------------------------------------------------------------------///- Submits and grades solution                         /// -------------------------------------------------------------------------------------///"
					}
				},
				"version": 1
			}
		}
	}
}