{
	"data": {
		"bytecode": {
			"linkReferences": {},
			"object": "608060405234801561001057600080fd5b506103bb806100206000396000f3fe608060405234801561001057600080fd5b506004361061002b5760003560e01c8063342a2d9a14610030575b600080fd5b61004a600480360381019061004591906101a9565b610060565b604051610057919061033b565b60405180910390f35b61006861012e565b60005b60038110156101275760005b600281101561011b5783826003811061009357610092610356565b5b6040020181600281106100a9576100a8610356565b5b60200201358583600381106100c1576100c0610356565b5b6040020182600281106100d7576100d6610356565b5b6020020135018383600381106100f0576100ef610356565b5b6020020151826002811061010757610106610356565b5b602002018181525050806001019050610077565b5080600101905061006b565b5092915050565b60405180606001604052806003905b61014561015b565b81526020019060019003908161013d5790505090565b6040518060400160405280600290602082028036833780820191505090505090565b600080fd5b600080fd5b6000819050826040600302820111156101a3576101a2610182565b5b92915050565b60008061018083850312156101c1576101c061017d565b5b60006101cf85828601610187565b92505060c06101e085828601610187565b9150509250929050565b600060039050919050565b600081905092915050565b6000819050919050565b600060029050919050565b600081905092915050565b6000819050919050565b6000819050919050565b61023d8161022a565b82525050565b600061024f8383610234565b60208301905092915050565b6000602082019050919050565b6102718161020a565b61027b8184610215565b925061028682610220565b8060005b838110156102b757815161029e8782610243565b96506102a98361025b565b92505060018101905061028a565b505050505050565b60006102cb8383610268565b60408301905092915050565b6000602082019050919050565b6102ed816101ea565b6102f781846101f5565b925061030282610200565b8060005b8381101561033357815161031a87826102bf565b9650610325836102d7565b925050600181019050610306565b505050505050565b600060c08201905061035060008301846102e4565b92915050565b7f4e487b7100000000000000000000000000000000000000000000000000000000600052603260045260246000fdfea2646970667358221220606705d343763111444af3855001da0b47f54e53af5d2a9020ff9f194b84f0c064736f6c63430008110033",
			"opcodes": "PUSH1 0x80 PUSH1 0x40 MSTORE CALLVALUE DUP1 ISZERO PUSH2 0x10 JUMPI PUSH1 0x0 DUP1 REVERT JUMPDEST POP PUSH2 0x3BB DUP1 PUSH2 0x20 PUSH1 0x0 CODECOPY PUSH1 0x0 RETURN INVALID PUSH1 0x80 PUSH1 0x40 MSTORE CALLVALUE DUP1 ISZERO PUSH2 0x10 JUMPI PUSH1 0x0 DUP1 REVERT JUMPDEST POP PUSH1 0x4 CALLDATASIZE LT PUSH2 0x2B JUMPI PUSH1 0x0 CALLDATALOAD PUSH1 0xE0 SHR DUP1 PUSH4 0x342A2D9A EQ PUSH2 0x30 JUMPI JUMPDEST PUSH1 0x0 DUP1 REVERT JUMPDEST PUSH2 0x4A PUSH1 0x4 DUP1 CALLDATASIZE SUB DUP2 ADD SWAP1 PUSH2 0x45 SWAP2 SWAP1 PUSH2 0x1A9 JUMP JUMPDEST PUSH2 0x60 JUMP JUMPDEST PUSH1 0x40 MLOAD PUSH2 0x57 SWAP2 SWAP1 PUSH2 0x33B JUMP JUMPDEST PUSH1 0x40 MLOAD DUP1 SWAP2 SUB SWAP1 RETURN JUMPDEST PUSH2 0x68 PUSH2 0x12E JUMP JUMPDEST PUSH1 0x0 JUMPDEST PUSH1 0x3 DUP2 LT ISZERO PUSH2 0x127 JUMPI PUSH1 0x0 JUMPDEST PUSH1 0x2 DUP2 LT ISZERO PUSH2 0x11B JUMPI DUP4 DUP3 PUSH1 0x3 DUP2 LT PUSH2 0x93 JUMPI PUSH2 0x92 PUSH2 0x356 JUMP JUMPDEST JUMPDEST PUSH1 0x40 MUL ADD DUP2 PUSH1 0x2 DUP2 LT PUSH2 0xA9 JUMPI PUSH2 0xA8 PUSH2 0x356 JUMP JUMPDEST JUMPDEST PUSH1 0x20 MUL ADD CALLDATALOAD DUP6 DUP4 PUSH1 0x3 DUP2 LT PUSH2 0xC1 JUMPI PUSH2 0xC0 PUSH2 0x356 JUMP JUMPDEST JUMPDEST PUSH1 0x40 MUL ADD DUP3 PUSH1 0x2 DUP2 LT PUSH2 0xD7 JUMPI PUSH2 0xD6 PUSH2 0x356 JUMP JUMPDEST JUMPDEST PUSH1 0x20 MUL ADD CALLDATALOAD ADD DUP4 DUP4 PUSH1 0x3 DUP2 LT PUSH2 0xF0 JUMPI PUSH2 0xEF PUSH2 0x356 JUMP JUMPDEST JUMPDEST PUSH1 0x20 MUL ADD MLOAD DUP3 PUSH1 0x2 DUP2 LT PUSH2 0x107 JUMPI PUSH2 0x106 PUSH2 0x356 JUMP JUMPDEST JUMPDEST PUSH1 0x20 MUL ADD DUP2 DUP2 MSTORE POP POP DUP1 PUSH1 0x1 ADD SWAP1 POP PUSH2 0x77 JUMP JUMPDEST POP DUP1 PUSH1 0x1 ADD SWAP1 POP PUSH2 0x6B JUMP JUMPDEST POP SWAP3 SWAP2 POP POP JUMP JUMPDEST PUSH1 0x40 MLOAD DUP1 PUSH1 0x60 ADD PUSH1 0x40 MSTORE DUP1 PUSH1 0x3 SWAP1 JUMPDEST PUSH2 0x145 PUSH2 0x15B JUMP JUMPDEST DUP2 MSTORE PUSH1 0x20 ADD SWAP1 PUSH1 0x1 SWAP1 SUB SWAP1 DUP2 PUSH2 0x13D JUMPI SWAP1 POP POP SWAP1 JUMP JUMPDEST PUSH1 0x40 MLOAD DUP1 PUSH1 0x40 ADD PUSH1 0x40 MSTORE DUP1 PUSH1 0x2 SWAP1 PUSH1 0x20 DUP3 MUL DUP1 CALLDATASIZE DUP4 CALLDATACOPY DUP1 DUP3 ADD SWAP2 POP POP SWAP1 POP POP SWAP1 JUMP JUMPDEST PUSH1 0x0 DUP1 REVERT JUMPDEST PUSH1 0x0 DUP1 REVERT JUMPDEST PUSH1 0x0 DUP2 SWAP1 POP DUP3 PUSH1 0x40 PUSH1 0x3 MUL DUP3 ADD GT ISZERO PUSH2 0x1A3 JUMPI PUSH2 0x1A2 PUSH2 0x182 JUMP JUMPDEST JUMPDEST SWAP3 SWAP2 POP POP JUMP JUMPDEST PUSH1 0x0 DUP1 PUSH2 0x180 DUP4 DUP6 SUB SLT ISZERO PUSH2 0x1C1 JUMPI PUSH2 0x1C0 PUSH2 0x17D JUMP JUMPDEST JUMPDEST PUSH1 0x0 PUSH2 0x1CF DUP6 DUP3 DUP7 ADD PUSH2 0x187 JUMP JUMPDEST SWAP3 POP POP PUSH1 0xC0 PUSH2 0x1E0 DUP6 DUP3 DUP7 ADD PUSH2 0x187 JUMP JUMPDEST SWAP2 POP POP SWAP3 POP SWAP3 SWAP1 POP JUMP JUMPDEST PUSH1 0x0 PUSH1 0x3 SWAP1 POP SWAP2 SWAP1 POP JUMP JUMPDEST PUSH1 0x0 DUP2 SWAP1 POP SWAP3 SWAP2 POP POP JUMP JUMPDEST PUSH1 0x0 DUP2 SWAP1 POP SWAP2 SWAP1 POP JUMP JUMPDEST PUSH1 0x0 PUSH1 0x2 SWAP1 POP SWAP2 SWAP1 POP JUMP JUMPDEST PUSH1 0x0 DUP2 SWAP1 POP SWAP3 SWAP2 POP POP JUMP JUMPDEST PUSH1 0x0 DUP2 SWAP1 POP SWAP2 SWAP1 POP JUMP JUMPDEST PUSH1 0x0 DUP2 SWAP1 POP SWAP2 SWAP1 POP JUMP JUMPDEST PUSH2 0x23D DUP2 PUSH2 0x22A JUMP JUMPDEST DUP3 MSTORE POP POP JUMP JUMPDEST PUSH1 0x0 PUSH2 0x24F DUP4 DUP4 PUSH2 0x234 JUMP JUMPDEST PUSH1 0x20 DUP4 ADD SWAP1 POP SWAP3 SWAP2 POP POP JUMP JUMPDEST PUSH1 0x0 PUSH1 0x20 DUP3 ADD SWAP1 POP SWAP2 SWAP1 POP JUMP JUMPDEST PUSH2 0x271 DUP2 PUSH2 0x20A JUMP JUMPDEST PUSH2 0x27B DUP2 DUP5 PUSH2 0x215 JUMP JUMPDEST SWAP3 POP PUSH2 0x286 DUP3 PUSH2 0x220 JUMP JUMPDEST DUP1 PUSH1 0x0 JUMPDEST DUP4 DUP2 LT ISZERO PUSH2 0x2B7 JUMPI DUP2 MLOAD PUSH2 0x29E DUP8 DUP3 PUSH2 0x243 JUMP JUMPDEST SWAP7 POP PUSH2 0x2A9 DUP4 PUSH2 0x25B JUMP JUMPDEST SWAP3 POP POP PUSH1 0x1 DUP2 ADD SWAP1 POP PUSH2 0x28A JUMP JUMPDEST POP POP POP POP POP POP JUMP JUMPDEST PUSH1 0x0 PUSH2 0x2CB DUP4 DUP4 PUSH2 0x268 JUMP JUMPDEST PUSH1 0x40 DUP4 ADD SWAP1 POP SWAP3 SWAP2 POP POP JUMP JUMPDEST PUSH1 0x0 PUSH1 0x20 DUP3 ADD SWAP1 POP SWAP2 SWAP1 POP JUMP JUMPDEST PUSH2 0x2ED DUP2 PUSH2 0x1EA JUMP JUMPDEST PUSH2 0x2F7 DUP2 DUP5 PUSH2 0x1F5 JUMP JUMPDEST SWAP3 POP PUSH2 0x302 DUP3 PUSH2 0x200 JUMP JUMPDEST DUP1 PUSH1 0x0 JUMPDEST DUP4 DUP2 LT ISZERO PUSH2 0x333 JUMPI DUP2 MLOAD PUSH2 0x31A DUP8 DUP3 PUSH2 0x2BF JUMP JUMPDEST SWAP7 POP PUSH2 0x325 DUP4 PUSH2 0x2D7 JUMP JUMPDEST SWAP3 POP POP PUSH1 0x1 DUP2 ADD SWAP1 POP PUSH2 0x306 JUMP JUMPDEST POP POP POP POP POP POP JUMP JUMPDEST PUSH1 0x0 PUSH1 0xC0 DUP3 ADD SWAP1 POP PUSH2 0x350 PUSH1 0x0 DUP4 ADD DUP5 PUSH2 0x2E4 JUMP JUMPDEST SWAP3 SWAP2 POP POP JUMP JUMPDEST PUSH32 0x4E487B7100000000000000000000000000000000000000000000000000000000 PUSH1 0x0 MSTORE PUSH1 0x32 PUSH1 0x4 MSTORE PUSH1 0x24 PUSH1 0x0 REVERT INVALID LOG2 PUSH5 0x6970667358 0x22 SLT KECCAK256 PUSH1 0x67 SDIV 0xD3 NUMBER PUSH23 0x3111444AF3855001DA0B47F54E53AF5D2A9020FF9F194B DUP5 CREATE 0xC0 PUSH5 0x736F6C6343 STOP ADDMOD GT STOP CALLER "
		},
		"gasEstimates": {
			"creation": {
				"codeDepositCost": "191000",
				"executionCost": "232",
				"totalCost": "191232"
			},
			"external": {
				"solution(uint256[2][3],uint256[2][3])": "infinite"
			}
		},
		"methodIdentifiers": {
			"solution(uint256[2][3],uint256[2][3])": "342a2d9a"
		}
	},
	"abi": [
		{
			"inputs": [
				{
					"internalType": "uint256[2][3]",
					"name": "x",
					"type": "uint256[2][3]"
				},
				{
					"internalType": "uint256[2][3]",
					"name": "y",
					"type": "uint256[2][3]"
				}
			],
			"name": "solution",
			"outputs": [
				{
					"internalType": "uint256[2][3]",
					"name": "finalArray",
					"type": "uint256[2][3]"
				}
			],
			"stateMutability": "pure",
			"type": "function"
		}
	]
}