{
	"CTF/CTFLevel2.sol": {
		"Level2Template": {
			"abi": [
				{
					"inputs": [
						{
							"internalType": "uint256[10]",
							"name": "unsortedArray",
							"type": "uint256[10]"
						}
					],
					"name": "solution",
					"outputs": [
						{
							"internalType": "uint256[10]",
							"name": "sortedArray",
							"type": "uint256[10]"
						}
					],
					"stateMutability": "pure",
					"type": "function"
				}
			],
			"devdoc": {
				"kind": "dev",
				"methods": {},
				"version": 1
			},
			"evm": {
				"assembly": "    /* \"CTF/CTFLevel2.sol\":421:1114  contract Level2Template {... */\n  mstore(0x40, 0x80)\n  callvalue\n  dup1\n  iszero\n  tag_1\n  jumpi\n  0x00\n  dup1\n  revert\ntag_1:\n  pop\n  dataSize(sub_0)\n  dup1\n  dataOffset(sub_0)\n  0x00\n  codecopy\n  0x00\n  return\nstop\n\nsub_0: assembly {\n        /* \"CTF/CTFLevel2.sol\":421:1114  contract Level2Template {... */\n      mstore(0x40, 0x80)\n      callvalue\n      dup1\n      iszero\n      tag_1\n      jumpi\n      0x00\n      dup1\n      revert\n    tag_1:\n      pop\n      jumpi(tag_2, lt(calldatasize, 0x04))\n      shr(0xe0, calldataload(0x00))\n      dup1\n      0x209b472e\n      eq\n      tag_3\n      jumpi\n    tag_2:\n      0x00\n      dup1\n      revert\n        /* \"CTF/CTFLevel2.sol\":448:1111  function solution(uint256[10] calldata unsortedArray) external pure returns (uint256[10] memory sortedArray) {... */\n    tag_3:\n      tag_4\n      0x04\n      dup1\n      calldatasize\n      sub\n      dup2\n      add\n      swap1\n      tag_5\n      swap2\n      swap1\n      tag_6\n      jump\t// in\n    tag_5:\n      tag_7\n      jump\t// in\n    tag_4:\n      mload(0x40)\n      tag_8\n      swap2\n      swap1\n      tag_9\n      jump\t// in\n    tag_8:\n      mload(0x40)\n      dup1\n      swap2\n      sub\n      swap1\n      return\n    tag_7:\n        /* \"CTF/CTFLevel2.sol\":525:555  uint256[10] memory sortedArray */\n      tag_10\n      tag_11\n      jump\t// in\n    tag_10:\n        /* \"CTF/CTFLevel2.sol\":582:595  unsortedArray */\n      dup2\n        /* \"CTF/CTFLevel2.sol\":568:595  sortedArray = unsortedArray */\n      0x0a\n      dup1\n      0x20\n      mul\n      mload(0x40)\n      swap1\n      dup2\n      add\n      0x40\n      mstore\n      dup1\n      swap3\n      swap2\n      swap1\n      dup3\n      mul(0x20, 0x0a)\n      dup1\n      dup3\n      dup5\n      calldatacopy\n      0x00\n      dup2\n      dup5\n      add\n      mstore\n      not(0x1f)\n      0x1f\n      dup3\n      add\n      and\n      swap1\n      pop\n      dup1\n      dup4\n      add\n      swap3\n      pop\n      pop\n      pop\n      pop\n      pop\n      pop\n      swap1\n      pop\n        /* \"CTF/CTFLevel2.sol\":646:655  uint256 i */\n      0x00\n        /* \"CTF/CTFLevel2.sol\":641:1093  for (uint256 i = 0; i < 9; ++i) {... */\n    tag_13:\n        /* \"CTF/CTFLevel2.sol\":665:666  9 */\n      0x09\n        /* \"CTF/CTFLevel2.sol\":661:662  i */\n      dup2\n        /* \"CTF/CTFLevel2.sol\":661:666  i < 9 */\n      lt\n        /* \"CTF/CTFLevel2.sol\":641:1093  for (uint256 i = 0; i < 9; ++i) {... */\n      iszero\n      tag_14\n      jumpi\n        /* \"CTF/CTFLevel2.sol\":692:708  uint256 minIndex */\n      0x00\n        /* \"CTF/CTFLevel2.sol\":711:712  i */\n      dup2\n        /* \"CTF/CTFLevel2.sol\":692:712  uint256 minIndex = i */\n      swap1\n      pop\n        /* \"CTF/CTFLevel2.sol\":736:745  uint256 j */\n      0x00\n        /* \"CTF/CTFLevel2.sol\":752:753  1 */\n      0x01\n        /* \"CTF/CTFLevel2.sol\":748:749  i */\n      dup4\n        /* \"CTF/CTFLevel2.sol\":748:753  i + 1 */\n      add\n        /* \"CTF/CTFLevel2.sol\":736:753  uint256 j = i + 1 */\n      swap1\n      pop\n        /* \"CTF/CTFLevel2.sol\":731:917  for (uint256 j = i + 1; j < 10; ++j) {... */\n    tag_16:\n        /* \"CTF/CTFLevel2.sol\":759:761  10 */\n      0x0a\n        /* \"CTF/CTFLevel2.sol\":755:756  j */\n      dup2\n        /* \"CTF/CTFLevel2.sol\":755:761  j < 10 */\n      lt\n        /* \"CTF/CTFLevel2.sol\":731:917  for (uint256 j = i + 1; j < 10; ++j) {... */\n      iszero\n      tag_17\n      jumpi\n        /* \"CTF/CTFLevel2.sol\":812:823  sortedArray */\n      dup4\n        /* \"CTF/CTFLevel2.sol\":824:832  minIndex */\n      dup3\n        /* \"CTF/CTFLevel2.sol\":812:833  sortedArray[minIndex] */\n      0x0a\n      dup2\n      lt\n      tag_19\n      jumpi\n      tag_20\n      tag_21\n      jump\t// in\n    tag_20:\n    tag_19:\n      0x20\n      mul\n      add\n      mload\n        /* \"CTF/CTFLevel2.sol\":795:806  sortedArray */\n      dup5\n        /* \"CTF/CTFLevel2.sol\":807:808  j */\n      dup3\n        /* \"CTF/CTFLevel2.sol\":795:809  sortedArray[j] */\n      0x0a\n      dup2\n      lt\n      tag_22\n      jumpi\n      tag_23\n      tag_21\n      jump\t// in\n    tag_23:\n    tag_22:\n      0x20\n      mul\n      add\n      mload\n        /* \"CTF/CTFLevel2.sol\":795:833  sortedArray[j] < sortedArray[minIndex] */\n      lt\n        /* \"CTF/CTFLevel2.sol\":791:898  if (sortedArray[j] < sortedArray[minIndex]) {... */\n      iszero\n      tag_24\n      jumpi\n        /* \"CTF/CTFLevel2.sol\":873:874  j */\n      dup1\n        /* \"CTF/CTFLevel2.sol\":862:874  minIndex = j */\n      swap2\n      pop\n        /* \"CTF/CTFLevel2.sol\":791:898  if (sortedArray[j] < sortedArray[minIndex]) {... */\n    tag_24:\n        /* \"CTF/CTFLevel2.sol\":763:766  ++j */\n      dup1\n      0x01\n      add\n      swap1\n      pop\n        /* \"CTF/CTFLevel2.sol\":731:917  for (uint256 j = i + 1; j < 10; ++j) {... */\n      jump(tag_16)\n    tag_17:\n      pop\n        /* \"CTF/CTFLevel2.sol\":951:952  i */\n      dup2\n        /* \"CTF/CTFLevel2.sol\":939:947  minIndex */\n      dup2\n        /* \"CTF/CTFLevel2.sol\":939:952  minIndex != i */\n      eq\n        /* \"CTF/CTFLevel2.sol\":935:1078  if (minIndex != i) {... */\n      tag_25\n      jumpi\n        /* \"CTF/CTFLevel2.sol\":1020:1031  sortedArray */\n      dup3\n        /* \"CTF/CTFLevel2.sol\":1032:1040  minIndex */\n      dup2\n        /* \"CTF/CTFLevel2.sol\":1020:1041  sortedArray[minIndex] */\n      0x0a\n      dup2\n      lt\n      tag_26\n      jumpi\n      tag_27\n      tag_21\n      jump\t// in\n    tag_27:\n    tag_26:\n      0x20\n      mul\n      add\n      mload\n        /* \"CTF/CTFLevel2.sol\":1043:1054  sortedArray */\n      dup4\n        /* \"CTF/CTFLevel2.sol\":1055:1056  i */\n      dup4\n        /* \"CTF/CTFLevel2.sol\":1043:1057  sortedArray[i] */\n      0x0a\n      dup2\n      lt\n      tag_28\n      jumpi\n      tag_29\n      tag_21\n      jump\t// in\n    tag_29:\n    tag_28:\n      0x20\n      mul\n      add\n      mload\n        /* \"CTF/CTFLevel2.sol\":978:989  sortedArray */\n      dup5\n        /* \"CTF/CTFLevel2.sol\":990:991  i */\n      dup5\n        /* \"CTF/CTFLevel2.sol\":978:992  sortedArray[i] */\n      0x0a\n      dup2\n      lt\n      tag_30\n      jumpi\n      tag_31\n      tag_21\n      jump\t// in\n    tag_31:\n    tag_30:\n      0x20\n      mul\n      add\n        /* \"CTF/CTFLevel2.sol\":994:1005  sortedArray */\n      dup6\n        /* \"CTF/CTFLevel2.sol\":1006:1014  minIndex */\n      dup5\n        /* \"CTF/CTFLevel2.sol\":994:1015  sortedArray[minIndex] */\n      0x0a\n      dup2\n      lt\n      tag_32\n      jumpi\n      tag_33\n      tag_21\n      jump\t// in\n    tag_33:\n    tag_32:\n      0x20\n      mul\n      add\n        /* \"CTF/CTFLevel2.sol\":977:1058  (sortedArray[i], sortedArray[minIndex]) = (sortedArray[minIndex], sortedArray[i]) */\n      dup3\n      dup2\n      mstore\n      pop\n      dup3\n      dup2\n      mstore\n      pop\n      pop\n      pop\n        /* \"CTF/CTFLevel2.sol\":935:1078  if (minIndex != i) {... */\n    tag_25:\n        /* \"CTF/CTFLevel2.sol\":673:1093  {... */\n      pop\n        /* \"CTF/CTFLevel2.sol\":668:671  ++i */\n      dup1\n      0x01\n      add\n      swap1\n      pop\n        /* \"CTF/CTFLevel2.sol\":641:1093  for (uint256 i = 0; i < 9; ++i) {... */\n      jump(tag_13)\n    tag_14:\n      pop\n        /* \"CTF/CTFLevel2.sol\":448:1111  function solution(uint256[10] calldata unsortedArray) external pure returns (uint256[10] memory sortedArray) {... */\n      swap2\n      swap1\n      pop\n      jump\t// out\n    tag_11:\n      mload(0x40)\n      dup1\n      0x0140\n      add\n      0x40\n      mstore\n      dup1\n      0x0a\n      swap1\n      0x20\n      dup3\n      mul\n      dup1\n      calldatasize\n      dup4\n      calldatacopy\n      dup1\n      dup3\n      add\n      swap2\n      pop\n      pop\n      swap1\n      pop\n      pop\n      swap1\n      jump\t// out\n        /* \"#utility.yul\":88:205   */\n    tag_35:\n        /* \"#utility.yul\":197:198   */\n      0x00\n        /* \"#utility.yul\":194:195   */\n      dup1\n        /* \"#utility.yul\":187:199   */\n      revert\n        /* \"#utility.yul\":334:451   */\n    tag_37:\n        /* \"#utility.yul\":443:444   */\n      0x00\n        /* \"#utility.yul\":440:441   */\n      dup1\n        /* \"#utility.yul\":433:445   */\n      revert\n        /* \"#utility.yul\":476:726   */\n    tag_38:\n        /* \"#utility.yul\":548:556   */\n      0x00\n        /* \"#utility.yul\":579:585   */\n      dup2\n        /* \"#utility.yul\":567:585   */\n      swap1\n      pop\n        /* \"#utility.yul\":632:635   */\n      dup3\n        /* \"#utility.yul\":624:628   */\n      0x20\n        /* \"#utility.yul\":618:622   */\n      0x0a\n        /* \"#utility.yul\":614:629   */\n      mul\n        /* \"#utility.yul\":604:612   */\n      dup3\n        /* \"#utility.yul\":600:630   */\n      add\n        /* \"#utility.yul\":597:636   */\n      gt\n        /* \"#utility.yul\":594:720   */\n      iszero\n      tag_53\n      jumpi\n        /* \"#utility.yul\":639:718   */\n      tag_54\n      tag_37\n      jump\t// in\n    tag_54:\n        /* \"#utility.yul\":594:720   */\n    tag_53:\n        /* \"#utility.yul\":476:726   */\n      swap3\n      swap2\n      pop\n      pop\n      jump\t// out\n        /* \"#utility.yul\":732:1114   */\n    tag_6:\n        /* \"#utility.yul\":817:823   */\n      0x00\n        /* \"#utility.yul\":866:869   */\n      0x0140\n        /* \"#utility.yul\":854:863   */\n      dup3\n        /* \"#utility.yul\":845:852   */\n      dup5\n        /* \"#utility.yul\":841:864   */\n      sub\n        /* \"#utility.yul\":837:870   */\n      slt\n        /* \"#utility.yul\":834:954   */\n      iszero\n      tag_56\n      jumpi\n        /* \"#utility.yul\":873:952   */\n      tag_57\n      tag_35\n      jump\t// in\n    tag_57:\n        /* \"#utility.yul\":834:954   */\n    tag_56:\n        /* \"#utility.yul\":993:994   */\n      0x00\n        /* \"#utility.yul\":1018:1097   */\n      tag_58\n        /* \"#utility.yul\":1089:1096   */\n      dup5\n        /* \"#utility.yul\":1080:1086   */\n      dup3\n        /* \"#utility.yul\":1069:1078   */\n      dup6\n        /* \"#utility.yul\":1065:1087   */\n      add\n        /* \"#utility.yul\":1018:1097   */\n      tag_38\n      jump\t// in\n    tag_58:\n        /* \"#utility.yul\":1008:1097   */\n      swap2\n      pop\n        /* \"#utility.yul\":964:1107   */\n      pop\n        /* \"#utility.yul\":732:1114   */\n      swap3\n      swap2\n      pop\n      pop\n      jump\t// out\n        /* \"#utility.yul\":1120:1225   */\n    tag_39:\n        /* \"#utility.yul\":1186:1192   */\n      0x00\n        /* \"#utility.yul\":1214:1218   */\n      0x0a\n        /* \"#utility.yul\":1204:1218   */\n      swap1\n      pop\n        /* \"#utility.yul\":1120:1225   */\n      swap2\n      swap1\n      pop\n      jump\t// out\n        /* \"#utility.yul\":1231:1375   */\n    tag_40:\n        /* \"#utility.yul\":1329:1340   */\n      0x00\n        /* \"#utility.yul\":1366:1369   */\n      dup2\n        /* \"#utility.yul\":1351:1369   */\n      swap1\n      pop\n        /* \"#utility.yul\":1231:1375   */\n      swap3\n      swap2\n      pop\n      pop\n      jump\t// out\n        /* \"#utility.yul\":1381:1480   */\n    tag_41:\n        /* \"#utility.yul\":1447:1451   */\n      0x00\n        /* \"#utility.yul\":1470:1473   */\n      dup2\n        /* \"#utility.yul\":1462:1473   */\n      swap1\n      pop\n        /* \"#utility.yul\":1381:1480   */\n      swap2\n      swap1\n      pop\n      jump\t// out\n        /* \"#utility.yul\":1486:1563   */\n    tag_42:\n        /* \"#utility.yul\":1523:1530   */\n      0x00\n        /* \"#utility.yul\":1552:1557   */\n      dup2\n        /* \"#utility.yul\":1541:1557   */\n      swap1\n      pop\n        /* \"#utility.yul\":1486:1563   */\n      swap2\n      swap1\n      pop\n      jump\t// out\n        /* \"#utility.yul\":1569:1677   */\n    tag_43:\n        /* \"#utility.yul\":1646:1670   */\n      tag_64\n        /* \"#utility.yul\":1664:1669   */\n      dup2\n        /* \"#utility.yul\":1646:1670   */\n      tag_42\n      jump\t// in\n    tag_64:\n        /* \"#utility.yul\":1641:1644   */\n      dup3\n        /* \"#utility.yul\":1634:1671   */\n      mstore\n        /* \"#utility.yul\":1569:1677   */\n      pop\n      pop\n      jump\t// out\n        /* \"#utility.yul\":1683:1862   */\n    tag_44:\n        /* \"#utility.yul\":1752:1762   */\n      0x00\n        /* \"#utility.yul\":1773:1819   */\n      tag_66\n        /* \"#utility.yul\":1815:1818   */\n      dup4\n        /* \"#utility.yul\":1807:1813   */\n      dup4\n        /* \"#utility.yul\":1773:1819   */\n      tag_43\n      jump\t// in\n    tag_66:\n        /* \"#utility.yul\":1851:1855   */\n      0x20\n        /* \"#utility.yul\":1846:1849   */\n      dup4\n        /* \"#utility.yul\":1842:1856   */\n      add\n        /* \"#utility.yul\":1828:1856   */\n      swap1\n      pop\n        /* \"#utility.yul\":1683:1862   */\n      swap3\n      swap2\n      pop\n      pop\n      jump\t// out\n        /* \"#utility.yul\":1868:1980   */\n    tag_45:\n        /* \"#utility.yul\":1937:1941   */\n      0x00\n        /* \"#utility.yul\":1969:1973   */\n      0x20\n        /* \"#utility.yul\":1964:1967   */\n      dup3\n        /* \"#utility.yul\":1960:1974   */\n      add\n        /* \"#utility.yul\":1952:1974   */\n      swap1\n      pop\n        /* \"#utility.yul\":1868:1980   */\n      swap2\n      swap1\n      pop\n      jump\t// out\n        /* \"#utility.yul\":2020:2720   */\n    tag_46:\n        /* \"#utility.yul\":2158:2211   */\n      tag_69\n        /* \"#utility.yul\":2205:2210   */\n      dup2\n        /* \"#utility.yul\":2158:2211   */\n      tag_39\n      jump\t// in\n    tag_69:\n        /* \"#utility.yul\":2227:2312   */\n      tag_70\n        /* \"#utility.yul\":2305:2311   */\n      dup2\n        /* \"#utility.yul\":2300:2303   */\n      dup5\n        /* \"#utility.yul\":2227:2312   */\n      tag_40\n      jump\t// in\n    tag_70:\n        /* \"#utility.yul\":2220:2312   */\n      swap3\n      pop\n        /* \"#utility.yul\":2336:2391   */\n      tag_71\n        /* \"#utility.yul\":2385:2390   */\n      dup3\n        /* \"#utility.yul\":2336:2391   */\n      tag_41\n      jump\t// in\n    tag_71:\n        /* \"#utility.yul\":2414:2421   */\n      dup1\n        /* \"#utility.yul\":2445:2446   */\n      0x00\n        /* \"#utility.yul\":2430:2713   */\n    tag_72:\n        /* \"#utility.yul\":2455:2461   */\n      dup4\n        /* \"#utility.yul\":2452:2453   */\n      dup2\n        /* \"#utility.yul\":2449:2462   */\n      lt\n        /* \"#utility.yul\":2430:2713   */\n      iszero\n      tag_74\n      jumpi\n        /* \"#utility.yul\":2531:2537   */\n      dup2\n        /* \"#utility.yul\":2525:2538   */\n      mload\n        /* \"#utility.yul\":2558:2621   */\n      tag_75\n        /* \"#utility.yul\":2617:2620   */\n      dup8\n        /* \"#utility.yul\":2602:2615   */\n      dup3\n        /* \"#utility.yul\":2558:2621   */\n      tag_44\n      jump\t// in\n    tag_75:\n        /* \"#utility.yul\":2551:2621   */\n      swap7\n      pop\n        /* \"#utility.yul\":2644:2703   */\n      tag_76\n        /* \"#utility.yul\":2696:2702   */\n      dup4\n        /* \"#utility.yul\":2644:2703   */\n      tag_45\n      jump\t// in\n    tag_76:\n        /* \"#utility.yul\":2634:2703   */\n      swap3\n      pop\n        /* \"#utility.yul\":2490:2713   */\n      pop\n        /* \"#utility.yul\":2477:2478   */\n      0x01\n        /* \"#utility.yul\":2474:2475   */\n      dup2\n        /* \"#utility.yul\":2470:2479   */\n      add\n        /* \"#utility.yul\":2465:2479   */\n      swap1\n      pop\n        /* \"#utility.yul\":2430:2713   */\n      jump(tag_72)\n    tag_74:\n        /* \"#utility.yul\":2434:2448   */\n      pop\n        /* \"#utility.yul\":2134:2720   */\n      pop\n      pop\n      pop\n        /* \"#utility.yul\":2020:2720   */\n      pop\n      pop\n      jump\t// out\n        /* \"#utility.yul\":2726:3045   */\n    tag_9:\n        /* \"#utility.yul\":2867:2871   */\n      0x00\n        /* \"#utility.yul\":2905:2908   */\n      0x0140\n        /* \"#utility.yul\":2894:2903   */\n      dup3\n        /* \"#utility.yul\":2890:2909   */\n      add\n        /* \"#utility.yul\":2882:2909   */\n      swap1\n      pop\n        /* \"#utility.yul\":2919:3038   */\n      tag_78\n        /* \"#utility.yul\":3035:3036   */\n      0x00\n        /* \"#utility.yul\":3024:3033   */\n      dup4\n        /* \"#utility.yul\":3020:3037   */\n      add\n        /* \"#utility.yul\":3011:3017   */\n      dup5\n        /* \"#utility.yul\":2919:3038   */\n      tag_46\n      jump\t// in\n    tag_78:\n        /* \"#utility.yul\":2726:3045   */\n      swap3\n      swap2\n      pop\n      pop\n      jump\t// out\n        /* \"#utility.yul\":3051:3231   */\n    tag_21:\n        /* \"#utility.yul\":3099:3176   */\n      0x4e487b7100000000000000000000000000000000000000000000000000000000\n        /* \"#utility.yul\":3096:3097   */\n      0x00\n        /* \"#utility.yul\":3089:3177   */\n      mstore\n        /* \"#utility.yul\":3196:3200   */\n      0x32\n        /* \"#utility.yul\":3193:3194   */\n      0x04\n        /* \"#utility.yul\":3186:3201   */\n      mstore\n        /* \"#utility.yul\":3220:3224   */\n      0x24\n        /* \"#utility.yul\":3217:3218   */\n      0x00\n        /* \"#utility.yul\":3210:3225   */\n      revert\n\n    auxdata: 0xa26469706673582212209c5b607750396717414199e920f8c69d3624262544df4866e860b715fc12db8a64736f6c63430008110033\n}\n",
				"bytecode": {
					"linkReferences": {},
					"object": "608060405234801561001057600080fd5b50610340806100206000396000f3fe608060405234801561001057600080fd5b506004361061002b5760003560e01c8063209b472e14610030575b600080fd5b61004a600480360381019061004591906101dc565b610060565b60405161005791906102bf565b60405180910390f35b61006861018d565b81600a806020026040519081016040528092919082600a60200280828437600081840152601f19601f820116905080830192505050505050905060005b600981101561018757600081905060006001830190505b600a81101561010a578382600a81106100d8576100d76102db565b5b60200201518482600a81106100f0576100ef6102db565b5b602002015110156100ff578091505b8060010190506100bc565b5081811461017b578281600a8110610125576101246102db565b5b60200201518383600a811061013d5761013c6102db565b5b60200201518484600a8110610155576101546102db565b5b602002018584600a811061016c5761016b6102db565b5b60200201828152508281525050505b508060010190506100a5565b50919050565b604051806101400160405280600a90602082028036833780820191505090505090565b600080fd5b600080fd5b6000819050826020600a02820111156101d6576101d56101b5565b5b92915050565b600061014082840312156101f3576101f26101b0565b5b6000610201848285016101ba565b91505092915050565b6000600a9050919050565b600081905092915050565b6000819050919050565b6000819050919050565b61023d8161022a565b82525050565b600061024f8383610234565b60208301905092915050565b6000602082019050919050565b6102718161020a565b61027b8184610215565b925061028682610220565b8060005b838110156102b757815161029e8782610243565b96506102a98361025b565b92505060018101905061028a565b505050505050565b6000610140820190506102d56000830184610268565b92915050565b7f4e487b7100000000000000000000000000000000000000000000000000000000600052603260045260246000fdfea26469706673582212209c5b607750396717414199e920f8c69d3624262544df4866e860b715fc12db8a64736f6c63430008110033",
					"opcodes": "PUSH1 0x80 PUSH1 0x40 MSTORE CALLVALUE DUP1 ISZERO PUSH2 0x10 JUMPI PUSH1 0x0 DUP1 REVERT JUMPDEST POP PUSH2 0x340 DUP1 PUSH2 0x20 PUSH1 0x0 CODECOPY PUSH1 0x0 RETURN INVALID PUSH1 0x80 PUSH1 0x40 MSTORE CALLVALUE DUP1 ISZERO PUSH2 0x10 JUMPI PUSH1 0x0 DUP1 REVERT JUMPDEST POP PUSH1 0x4 CALLDATASIZE LT PUSH2 0x2B JUMPI PUSH1 0x0 CALLDATALOAD PUSH1 0xE0 SHR DUP1 PUSH4 0x209B472E EQ PUSH2 0x30 JUMPI JUMPDEST PUSH1 0x0 DUP1 REVERT JUMPDEST PUSH2 0x4A PUSH1 0x4 DUP1 CALLDATASIZE SUB DUP2 ADD SWAP1 PUSH2 0x45 SWAP2 SWAP1 PUSH2 0x1DC JUMP JUMPDEST PUSH2 0x60 JUMP JUMPDEST PUSH1 0x40 MLOAD PUSH2 0x57 SWAP2 SWAP1 PUSH2 0x2BF JUMP JUMPDEST PUSH1 0x40 MLOAD DUP1 SWAP2 SUB SWAP1 RETURN JUMPDEST PUSH2 0x68 PUSH2 0x18D JUMP JUMPDEST DUP2 PUSH1 0xA DUP1 PUSH1 0x20 MUL PUSH1 0x40 MLOAD SWAP1 DUP2 ADD PUSH1 0x40 MSTORE DUP1 SWAP3 SWAP2 SWAP1 DUP3 PUSH1 0xA PUSH1 0x20 MUL DUP1 DUP3 DUP5 CALLDATACOPY PUSH1 0x0 DUP2 DUP5 ADD MSTORE PUSH1 0x1F NOT PUSH1 0x1F DUP3 ADD AND SWAP1 POP DUP1 DUP4 ADD SWAP3 POP POP POP POP POP POP SWAP1 POP PUSH1 0x0 JUMPDEST PUSH1 0x9 DUP2 LT ISZERO PUSH2 0x187 JUMPI PUSH1 0x0 DUP2 SWAP1 POP PUSH1 0x0 PUSH1 0x1 DUP4 ADD SWAP1 POP JUMPDEST PUSH1 0xA DUP2 LT ISZERO PUSH2 0x10A JUMPI DUP4 DUP3 PUSH1 0xA DUP2 LT PUSH2 0xD8 JUMPI PUSH2 0xD7 PUSH2 0x2DB JUMP JUMPDEST JUMPDEST PUSH1 0x20 MUL ADD MLOAD DUP5 DUP3 PUSH1 0xA DUP2 LT PUSH2 0xF0 JUMPI PUSH2 0xEF PUSH2 0x2DB JUMP JUMPDEST JUMPDEST PUSH1 0x20 MUL ADD MLOAD LT ISZERO PUSH2 0xFF JUMPI DUP1 SWAP2 POP JUMPDEST DUP1 PUSH1 0x1 ADD SWAP1 POP PUSH2 0xBC JUMP JUMPDEST POP DUP2 DUP2 EQ PUSH2 0x17B JUMPI DUP3 DUP2 PUSH1 0xA DUP2 LT PUSH2 0x125 JUMPI PUSH2 0x124 PUSH2 0x2DB JUMP JUMPDEST JUMPDEST PUSH1 0x20 MUL ADD MLOAD DUP4 DUP4 PUSH1 0xA DUP2 LT PUSH2 0x13D JUMPI PUSH2 0x13C PUSH2 0x2DB JUMP JUMPDEST JUMPDEST PUSH1 0x20 MUL ADD MLOAD DUP5 DUP5 PUSH1 0xA DUP2 LT PUSH2 0x155 JUMPI PUSH2 0x154 PUSH2 0x2DB JUMP JUMPDEST JUMPDEST PUSH1 0x20 MUL ADD DUP6 DUP5 PUSH1 0xA DUP2 LT PUSH2 0x16C JUMPI PUSH2 0x16B PUSH2 0x2DB JUMP JUMPDEST JUMPDEST PUSH1 0x20 MUL ADD DUP3 DUP2 MSTORE POP DUP3 DUP2 MSTORE POP POP POP JUMPDEST POP DUP1 PUSH1 0x1 ADD SWAP1 POP PUSH2 0xA5 JUMP JUMPDEST POP SWAP2 SWAP1 POP JUMP JUMPDEST PUSH1 0x40 MLOAD DUP1 PUSH2 0x140 ADD PUSH1 0x40 MSTORE DUP1 PUSH1 0xA SWAP1 PUSH1 0x20 DUP3 MUL DUP1 CALLDATASIZE DUP4 CALLDATACOPY DUP1 DUP3 ADD SWAP2 POP POP SWAP1 POP POP SWAP1 JUMP JUMPDEST PUSH1 0x0 DUP1 REVERT JUMPDEST PUSH1 0x0 DUP1 REVERT JUMPDEST PUSH1 0x0 DUP2 SWAP1 POP DUP3 PUSH1 0x20 PUSH1 0xA MUL DUP3 ADD GT ISZERO PUSH2 0x1D6 JUMPI PUSH2 0x1D5 PUSH2 0x1B5 JUMP JUMPDEST JUMPDEST SWAP3 SWAP2 POP POP JUMP JUMPDEST PUSH1 0x0 PUSH2 0x140 DUP3 DUP5 SUB SLT ISZERO PUSH2 0x1F3 JUMPI PUSH2 0x1F2 PUSH2 0x1B0 JUMP JUMPDEST JUMPDEST PUSH1 0x0 PUSH2 0x201 DUP5 DUP3 DUP6 ADD PUSH2 0x1BA JUMP JUMPDEST SWAP2 POP POP SWAP3 SWAP2 POP POP JUMP JUMPDEST PUSH1 0x0 PUSH1 0xA SWAP1 POP SWAP2 SWAP1 POP JUMP JUMPDEST PUSH1 0x0 DUP2 SWAP1 POP SWAP3 SWAP2 POP POP JUMP JUMPDEST PUSH1 0x0 DUP2 SWAP1 POP SWAP2 SWAP1 POP JUMP JUMPDEST PUSH1 0x0 DUP2 SWAP1 POP SWAP2 SWAP1 POP JUMP JUMPDEST PUSH2 0x23D DUP2 PUSH2 0x22A JUMP JUMPDEST DUP3 MSTORE POP POP JUMP JUMPDEST PUSH1 0x0 PUSH2 0x24F DUP4 DUP4 PUSH2 0x234 JUMP JUMPDEST PUSH1 0x20 DUP4 ADD SWAP1 POP SWAP3 SWAP2 POP POP JUMP JUMPDEST PUSH1 0x0 PUSH1 0x20 DUP3 ADD SWAP1 POP SWAP2 SWAP1 POP JUMP JUMPDEST PUSH2 0x271 DUP2 PUSH2 0x20A JUMP JUMPDEST PUSH2 0x27B DUP2 DUP5 PUSH2 0x215 JUMP JUMPDEST SWAP3 POP PUSH2 0x286 DUP3 PUSH2 0x220 JUMP JUMPDEST DUP1 PUSH1 0x0 JUMPDEST DUP4 DUP2 LT ISZERO PUSH2 0x2B7 JUMPI DUP2 MLOAD PUSH2 0x29E DUP8 DUP3 PUSH2 0x243 JUMP JUMPDEST SWAP7 POP PUSH2 0x2A9 DUP4 PUSH2 0x25B JUMP JUMPDEST SWAP3 POP POP PUSH1 0x1 DUP2 ADD SWAP1 POP PUSH2 0x28A JUMP JUMPDEST POP POP POP POP POP POP JUMP JUMPDEST PUSH1 0x0 PUSH2 0x140 DUP3 ADD SWAP1 POP PUSH2 0x2D5 PUSH1 0x0 DUP4 ADD DUP5 PUSH2 0x268 JUMP JUMPDEST SWAP3 SWAP2 POP POP JUMP JUMPDEST PUSH32 0x4E487B7100000000000000000000000000000000000000000000000000000000 PUSH1 0x0 MSTORE PUSH1 0x32 PUSH1 0x4 MSTORE PUSH1 0x24 PUSH1 0x0 REVERT INVALID LOG2 PUSH5 0x6970667358 0x22 SLT KECCAK256 SWAP13 JUMPDEST PUSH1 0x77 POP CODECOPY PUSH8 0x17414199E920F8C6 SWAP14 CALLDATASIZE 0x24 0x26 0x25 DIFFICULTY 0xDF BASEFEE PUSH7 0xE860B715FC12DB DUP11 PUSH5 0x736F6C6343 STOP ADDMOD GT STOP CALLER "
				},
				"gasEstimates": {
					"creation": {
						"codeDepositCost": "166400",
						"executionCost": "208",
						"totalCost": "166608"
					},
					"external": {
						"solution(uint256[10])": "infinite"
					}
				},
				"methodIdentifiers": {
					"solution(uint256[10])": "209b472e"
				}
			},
			"storageLayout": {
				"storage": [],
				"types": null
			},
			"userdoc": {
				"kind": "user",
				"methods": {},
				"version": 1
			}
		}
	}
}